

Microchip MPLAB XC8 Assembler V2.10 build 88905656 
                                                                                               Sun Feb 16 13:22:55 2020

Microchip MPLAB XC8 C Compiler v2.10 (Free license) build 20190730164152 Og1 
     1                           	processor	16F690
     2                           	opt	pw 120
     3                           	opt	flic
     4                           	psect	idataBANK1,global,class=CODE,delta=2
     5                           	psect	strings,global,class=STRING,delta=2
     6                           	psect	cinit,global,class=CODE,merge=1,delta=2
     7                           	psect	bssCOMMON,global,class=COMMON,space=1,delta=1
     8                           	psect	bssBANK0,global,class=BANK0,space=1,delta=1
     9                           	psect	bssBANK1,global,class=BANK1,space=1,delta=1
    10                           	psect	dataBANK1,global,class=BANK1,space=1,delta=1
    11                           	psect	inittext,global,class=CODE,delta=2
    12                           	psect	clrtext,global,class=CODE,delta=2
    13                           	psect	cstackCOMMON,global,class=COMMON,space=1,delta=1
    14                           	psect	cstackBANK0,global,class=BANK0,space=1,delta=1
    15                           	psect	maintext,global,class=CODE,split=1,delta=2
    16                           	psect	jmp_tab__ES_Run,global,class=ENTRY,delta=2
    17                           	psect	text1,local,class=CODE,merge=1,delta=2
    18                           	psect	text2,local,class=CODE,merge=1,delta=2
    19                           	psect	text3,local,class=CODE,merge=1,delta=2
    20                           	psect	text4,local,class=CODE,merge=1,delta=2
    21                           	psect	text5,local,class=CODE,merge=1,delta=2
    22                           	psect	text6,local,class=CODE,merge=1,delta=2
    23                           	psect	text7,local,class=CODE,merge=1,delta=2
    24                           	psect	text8,local,class=CODE,merge=1,delta=2
    25                           	psect	text9,local,class=CODE,merge=1,delta=2
    26                           	psect	text10,local,class=CODE,merge=1,delta=2
    27                           	psect	text11,local,class=CODE,merge=1,delta=2
    28                           	psect	text12,local,class=CODE,merge=1,delta=2
    29                           	psect	text13,local,class=CODE,merge=1,delta=2
    30                           	psect	text14,local,class=CODE,merge=1,delta=2
    31                           	psect	text15,local,class=CODE,merge=1,delta=2
    32                           	psect	text16,local,class=CODE,merge=1,delta=2
    33                           	psect	text17,local,class=CODE,merge=1,delta=2
    34                           	psect	text18,local,class=CODE,merge=1,delta=2,group=1
    35                           	psect	text19,local,class=CODE,merge=1,delta=2
    36                           	psect	text20,local,class=CODE,merge=1,delta=2
    37                           	psect	text21,local,class=CODE,merge=1,delta=2
    38                           	psect	intentry,global,class=CODE,delta=2
    39                           	psect	text22,local,class=CODE,merge=1,inline,delta=2
    40                           	psect	text23,local,class=CODE,merge=1,delta=2
    41                           	psect	text24,local,class=CODE,merge=1,inline,delta=2
    42                           	psect	text25,local,class=CODE,merge=1,delta=2
    43                           	psect	functab,global,class=ENTRY,delta=2
    44                           	dabs	1,0x7E,2
    45  0000                     
    46                           ; Version 2.10
    47                           ; Generated 31/07/2019 GMT
    48                           ; 
    49                           ; Copyright © 2019, Microchip Technology Inc. and its subsidiaries ("Microchip")
    50                           ; All rights reserved.
    51                           ; 
    52                           ; This software is developed by Microchip Technology Inc. and its subsidiaries ("Microch
      +                          ip").
    53                           ; 
    54                           ; Redistribution and use in source and binary forms, with or without modification, are
    55                           ; permitted provided that the following conditions are met:
    56                           ; 
    57                           ;     1. Redistributions of source code must retain the above copyright notice, this lis
      +                          t of
    58                           ;        conditions and the following disclaimer.
    59                           ; 
    60                           ;     2. Redistributions in binary form must reproduce the above copyright notice, this 
      +                          list
    61                           ;        of conditions and the following disclaimer in the documentation and/or other
    62                           ;        materials provided with the distribution.
    63                           ; 
    64                           ;     3. Microchip's name may not be used to endorse or promote products derived from th
      +                          is
    65                           ;        software without specific prior written permission.
    66                           ; 
    67                           ; THIS SOFTWARE IS PROVIDED BY MICROCHIP "AS IS" AND ANY EXPRESS OR IMPLIED WARRANTIES,
    68                           ; INCLUDING, BUT NOT LIMITED TO, THE IMPLIED WARRANTIES OF MERCHANTABILITY AND FITNESS F
      +                          OR
    69                           ; PURPOSE ARE DISCLAIMED.  IN NO EVENT SHALL MICROCHIP BE LIABLE FOR ANY DIRECT, INDIREC
      +                          T,
    70                           ; INCIDENTAL, SPECIAL, EXEMPLARY, OR CONSEQUENTIAL DAMAGES (INCLUDING BUT NOT LIMITED TO
    71                           ; PROCUREMENT OF SUBSTITUTE GOODS OR SERVICES; LOSS OF USE, DATA OR PROFITS; OR BUSINESS
    72                           ; INTERRUPTION) HOWSOEVER CAUSED AND ON ANY THEORY OF LIABILITY, WHETHER IN CONTRACT, ST
      +                          RICT
    73                           ; LIABILITY, OR TORT (INCLUDING NEGLIGENCE OR OTHERWISE) ARISING IN ANY WAY OUT OF THE U
      +                          SE OF
    74                           ; THIS SOFTWARE, EVEN IF ADVISED OF THE POSSIBILITY OF SUCH DAMAGE.
    75                           ; 
    76                           ; 
    77                           ; Code-generator required, PIC16F690 Definitions
    78                           ; 
    79                           ; SFR Addresses
    80  0000                     	;# 
    81  0001                     	;# 
    82  0002                     	;# 
    83  0003                     	;# 
    84  0004                     	;# 
    85  0005                     	;# 
    86  0006                     	;# 
    87  0007                     	;# 
    88  000A                     	;# 
    89  000B                     	;# 
    90  000C                     	;# 
    91  000D                     	;# 
    92  000E                     	;# 
    93  000E                     	;# 
    94  000F                     	;# 
    95  0010                     	;# 
    96  0011                     	;# 
    97  0012                     	;# 
    98  0013                     	;# 
    99  0014                     	;# 
   100  0015                     	;# 
   101  0015                     	;# 
   102  0016                     	;# 
   103  0017                     	;# 
   104  0018                     	;# 
   105  0019                     	;# 
   106  001A                     	;# 
   107  001C                     	;# 
   108  001D                     	;# 
   109  001E                     	;# 
   110  001F                     	;# 
   111  0081                     	;# 
   112  0085                     	;# 
   113  0086                     	;# 
   114  0087                     	;# 
   115  008C                     	;# 
   116  008D                     	;# 
   117  008E                     	;# 
   118  008F                     	;# 
   119  0090                     	;# 
   120  0092                     	;# 
   121  0093                     	;# 
   122  0093                     	;# 
   123  0093                     	;# 
   124  0094                     	;# 
   125  0095                     	;# 
   126  0095                     	;# 
   127  0096                     	;# 
   128  0096                     	;# 
   129  0097                     	;# 
   130  0098                     	;# 
   131  0099                     	;# 
   132  009A                     	;# 
   133  009B                     	;# 
   134  009E                     	;# 
   135  009F                     	;# 
   136  010C                     	;# 
   137  010C                     	;# 
   138  010D                     	;# 
   139  010E                     	;# 
   140  010F                     	;# 
   141  0115                     	;# 
   142  0116                     	;# 
   143  0118                     	;# 
   144  0119                     	;# 
   145  011A                     	;# 
   146  011B                     	;# 
   147  011E                     	;# 
   148  011F                     	;# 
   149  018C                     	;# 
   150  018D                     	;# 
   151  019D                     	;# 
   152  019E                     	;# 
   153  0000                     	;# 
   154  0001                     	;# 
   155  0002                     	;# 
   156  0003                     	;# 
   157  0004                     	;# 
   158  0005                     	;# 
   159  0006                     	;# 
   160  0007                     	;# 
   161  000A                     	;# 
   162  000B                     	;# 
   163  000C                     	;# 
   164  000D                     	;# 
   165  000E                     	;# 
   166  000E                     	;# 
   167  000F                     	;# 
   168  0010                     	;# 
   169  0011                     	;# 
   170  0012                     	;# 
   171  0013                     	;# 
   172  0014                     	;# 
   173  0015                     	;# 
   174  0015                     	;# 
   175  0016                     	;# 
   176  0017                     	;# 
   177  0018                     	;# 
   178  0019                     	;# 
   179  001A                     	;# 
   180  001C                     	;# 
   181  001D                     	;# 
   182  001E                     	;# 
   183  001F                     	;# 
   184  0081                     	;# 
   185  0085                     	;# 
   186  0086                     	;# 
   187  0087                     	;# 
   188  008C                     	;# 
   189  008D                     	;# 
   190  008E                     	;# 
   191  008F                     	;# 
   192  0090                     	;# 
   193  0092                     	;# 
   194  0093                     	;# 
   195  0093                     	;# 
   196  0093                     	;# 
   197  0094                     	;# 
   198  0095                     	;# 
   199  0095                     	;# 
   200  0096                     	;# 
   201  0096                     	;# 
   202  0097                     	;# 
   203  0098                     	;# 
   204  0099                     	;# 
   205  009A                     	;# 
   206  009B                     	;# 
   207  009E                     	;# 
   208  009F                     	;# 
   209  010C                     	;# 
   210  010C                     	;# 
   211  010D                     	;# 
   212  010E                     	;# 
   213  010F                     	;# 
   214  0115                     	;# 
   215  0116                     	;# 
   216  0118                     	;# 
   217  0119                     	;# 
   218  011A                     	;# 
   219  011B                     	;# 
   220  011E                     	;# 
   221  011F                     	;# 
   222  018C                     	;# 
   223  018D                     	;# 
   224  019D                     	;# 
   225  019E                     	;# 
   226  0000                     	;# 
   227  0001                     	;# 
   228  0002                     	;# 
   229  0003                     	;# 
   230  0004                     	;# 
   231  0005                     	;# 
   232  0006                     	;# 
   233  0007                     	;# 
   234  000A                     	;# 
   235  000B                     	;# 
   236  000C                     	;# 
   237  000D                     	;# 
   238  000E                     	;# 
   239  000E                     	;# 
   240  000F                     	;# 
   241  0010                     	;# 
   242  0011                     	;# 
   243  0012                     	;# 
   244  0013                     	;# 
   245  0014                     	;# 
   246  0015                     	;# 
   247  0015                     	;# 
   248  0016                     	;# 
   249  0017                     	;# 
   250  0018                     	;# 
   251  0019                     	;# 
   252  001A                     	;# 
   253  001C                     	;# 
   254  001D                     	;# 
   255  001E                     	;# 
   256  001F                     	;# 
   257  0081                     	;# 
   258  0085                     	;# 
   259  0086                     	;# 
   260  0087                     	;# 
   261  008C                     	;# 
   262  008D                     	;# 
   263  008E                     	;# 
   264  008F                     	;# 
   265  0090                     	;# 
   266  0092                     	;# 
   267  0093                     	;# 
   268  0093                     	;# 
   269  0093                     	;# 
   270  0094                     	;# 
   271  0095                     	;# 
   272  0095                     	;# 
   273  0096                     	;# 
   274  0096                     	;# 
   275  0097                     	;# 
   276  0098                     	;# 
   277  0099                     	;# 
   278  009A                     	;# 
   279  009B                     	;# 
   280  009E                     	;# 
   281  009F                     	;# 
   282  010C                     	;# 
   283  010C                     	;# 
   284  010D                     	;# 
   285  010E                     	;# 
   286  010F                     	;# 
   287  0115                     	;# 
   288  0116                     	;# 
   289  0118                     	;# 
   290  0119                     	;# 
   291  011A                     	;# 
   292  011B                     	;# 
   293  011E                     	;# 
   294  011F                     	;# 
   295  018C                     	;# 
   296  018D                     	;# 
   297  019D                     	;# 
   298  019E                     	;# 
   299  0000                     	;# 
   300  0001                     	;# 
   301  0002                     	;# 
   302  0003                     	;# 
   303  0004                     	;# 
   304  0005                     	;# 
   305  0006                     	;# 
   306  0007                     	;# 
   307  000A                     	;# 
   308  000B                     	;# 
   309  000C                     	;# 
   310  000D                     	;# 
   311  000E                     	;# 
   312  000E                     	;# 
   313  000F                     	;# 
   314  0010                     	;# 
   315  0011                     	;# 
   316  0012                     	;# 
   317  0013                     	;# 
   318  0014                     	;# 
   319  0015                     	;# 
   320  0015                     	;# 
   321  0016                     	;# 
   322  0017                     	;# 
   323  0018                     	;# 
   324  0019                     	;# 
   325  001A                     	;# 
   326  001C                     	;# 
   327  001D                     	;# 
   328  001E                     	;# 
   329  001F                     	;# 
   330  0081                     	;# 
   331  0085                     	;# 
   332  0086                     	;# 
   333  0087                     	;# 
   334  008C                     	;# 
   335  008D                     	;# 
   336  008E                     	;# 
   337  008F                     	;# 
   338  0090                     	;# 
   339  0092                     	;# 
   340  0093                     	;# 
   341  0093                     	;# 
   342  0093                     	;# 
   343  0094                     	;# 
   344  0095                     	;# 
   345  0095                     	;# 
   346  0096                     	;# 
   347  0096                     	;# 
   348  0097                     	;# 
   349  0098                     	;# 
   350  0099                     	;# 
   351  009A                     	;# 
   352  009B                     	;# 
   353  009E                     	;# 
   354  009F                     	;# 
   355  010C                     	;# 
   356  010C                     	;# 
   357  010D                     	;# 
   358  010E                     	;# 
   359  010F                     	;# 
   360  0115                     	;# 
   361  0116                     	;# 
   362  0118                     	;# 
   363  0119                     	;# 
   364  011A                     	;# 
   365  011B                     	;# 
   366  011E                     	;# 
   367  011F                     	;# 
   368  018C                     	;# 
   369  018D                     	;# 
   370  019D                     	;# 
   371  019E                     	;# 
   372  0000                     	;# 
   373  0001                     	;# 
   374  0002                     	;# 
   375  0003                     	;# 
   376  0004                     	;# 
   377  0005                     	;# 
   378  0006                     	;# 
   379  0007                     	;# 
   380  000A                     	;# 
   381  000B                     	;# 
   382  000C                     	;# 
   383  000D                     	;# 
   384  000E                     	;# 
   385  000E                     	;# 
   386  000F                     	;# 
   387  0010                     	;# 
   388  0011                     	;# 
   389  0012                     	;# 
   390  0013                     	;# 
   391  0014                     	;# 
   392  0015                     	;# 
   393  0015                     	;# 
   394  0016                     	;# 
   395  0017                     	;# 
   396  0018                     	;# 
   397  0019                     	;# 
   398  001A                     	;# 
   399  001C                     	;# 
   400  001D                     	;# 
   401  001E                     	;# 
   402  001F                     	;# 
   403  0081                     	;# 
   404  0085                     	;# 
   405  0086                     	;# 
   406  0087                     	;# 
   407  008C                     	;# 
   408  008D                     	;# 
   409  008E                     	;# 
   410  008F                     	;# 
   411  0090                     	;# 
   412  0092                     	;# 
   413  0093                     	;# 
   414  0093                     	;# 
   415  0093                     	;# 
   416  0094                     	;# 
   417  0095                     	;# 
   418  0095                     	;# 
   419  0096                     	;# 
   420  0096                     	;# 
   421  0097                     	;# 
   422  0098                     	;# 
   423  0099                     	;# 
   424  009A                     	;# 
   425  009B                     	;# 
   426  009E                     	;# 
   427  009F                     	;# 
   428  010C                     	;# 
   429  010C                     	;# 
   430  010D                     	;# 
   431  010E                     	;# 
   432  010F                     	;# 
   433  0115                     	;# 
   434  0116                     	;# 
   435  0118                     	;# 
   436  0119                     	;# 
   437  011A                     	;# 
   438  011B                     	;# 
   439  011E                     	;# 
   440  011F                     	;# 
   441  018C                     	;# 
   442  018D                     	;# 
   443  019D                     	;# 
   444  019E                     	;# 
   445  0000                     	;# 
   446  0001                     	;# 
   447  0002                     	;# 
   448  0003                     	;# 
   449  0004                     	;# 
   450  0005                     	;# 
   451  0006                     	;# 
   452  0007                     	;# 
   453  000A                     	;# 
   454  000B                     	;# 
   455  000C                     	;# 
   456  000D                     	;# 
   457  000E                     	;# 
   458  000E                     	;# 
   459  000F                     	;# 
   460  0010                     	;# 
   461  0011                     	;# 
   462  0012                     	;# 
   463  0013                     	;# 
   464  0014                     	;# 
   465  0015                     	;# 
   466  0015                     	;# 
   467  0016                     	;# 
   468  0017                     	;# 
   469  0018                     	;# 
   470  0019                     	;# 
   471  001A                     	;# 
   472  001C                     	;# 
   473  001D                     	;# 
   474  001E                     	;# 
   475  001F                     	;# 
   476  0081                     	;# 
   477  0085                     	;# 
   478  0086                     	;# 
   479  0087                     	;# 
   480  008C                     	;# 
   481  008D                     	;# 
   482  008E                     	;# 
   483  008F                     	;# 
   484  0090                     	;# 
   485  0092                     	;# 
   486  0093                     	;# 
   487  0093                     	;# 
   488  0093                     	;# 
   489  0094                     	;# 
   490  0095                     	;# 
   491  0095                     	;# 
   492  0096                     	;# 
   493  0096                     	;# 
   494  0097                     	;# 
   495  0098                     	;# 
   496  0099                     	;# 
   497  009A                     	;# 
   498  009B                     	;# 
   499  009E                     	;# 
   500  009F                     	;# 
   501  010C                     	;# 
   502  010C                     	;# 
   503  010D                     	;# 
   504  010E                     	;# 
   505  010F                     	;# 
   506  0115                     	;# 
   507  0116                     	;# 
   508  0118                     	;# 
   509  0119                     	;# 
   510  011A                     	;# 
   511  011B                     	;# 
   512  011E                     	;# 
   513  011F                     	;# 
   514  018C                     	;# 
   515  018D                     	;# 
   516  019D                     	;# 
   517  019E                     	;# 
   518  0000                     	;# 
   519  0001                     	;# 
   520  0002                     	;# 
   521  0003                     	;# 
   522  0004                     	;# 
   523  0005                     	;# 
   524  0006                     	;# 
   525  0007                     	;# 
   526  000A                     	;# 
   527  000B                     	;# 
   528  000C                     	;# 
   529  000D                     	;# 
   530  000E                     	;# 
   531  000E                     	;# 
   532  000F                     	;# 
   533  0010                     	;# 
   534  0011                     	;# 
   535  0012                     	;# 
   536  0013                     	;# 
   537  0014                     	;# 
   538  0015                     	;# 
   539  0015                     	;# 
   540  0016                     	;# 
   541  0017                     	;# 
   542  0018                     	;# 
   543  0019                     	;# 
   544  001A                     	;# 
   545  001C                     	;# 
   546  001D                     	;# 
   547  001E                     	;# 
   548  001F                     	;# 
   549  0081                     	;# 
   550  0085                     	;# 
   551  0086                     	;# 
   552  0087                     	;# 
   553  008C                     	;# 
   554  008D                     	;# 
   555  008E                     	;# 
   556  008F                     	;# 
   557  0090                     	;# 
   558  0092                     	;# 
   559  0093                     	;# 
   560  0093                     	;# 
   561  0093                     	;# 
   562  0094                     	;# 
   563  0095                     	;# 
   564  0095                     	;# 
   565  0096                     	;# 
   566  0096                     	;# 
   567  0097                     	;# 
   568  0098                     	;# 
   569  0099                     	;# 
   570  009A                     	;# 
   571  009B                     	;# 
   572  009E                     	;# 
   573  009F                     	;# 
   574  010C                     	;# 
   575  010C                     	;# 
   576  010D                     	;# 
   577  010E                     	;# 
   578  010F                     	;# 
   579  0115                     	;# 
   580  0116                     	;# 
   581  0118                     	;# 
   582  0119                     	;# 
   583  011A                     	;# 
   584  011B                     	;# 
   585  011E                     	;# 
   586  011F                     	;# 
   587  018C                     	;# 
   588  018D                     	;# 
   589  019D                     	;# 
   590  019E                     	;# 
   591  0000                     	;# 
   592  0001                     	;# 
   593  0002                     	;# 
   594  0003                     	;# 
   595  0004                     	;# 
   596  0005                     	;# 
   597  0006                     	;# 
   598  0007                     	;# 
   599  000A                     	;# 
   600  000B                     	;# 
   601  000C                     	;# 
   602  000D                     	;# 
   603  000E                     	;# 
   604  000E                     	;# 
   605  000F                     	;# 
   606  0010                     	;# 
   607  0011                     	;# 
   608  0012                     	;# 
   609  0013                     	;# 
   610  0014                     	;# 
   611  0015                     	;# 
   612  0015                     	;# 
   613  0016                     	;# 
   614  0017                     	;# 
   615  0018                     	;# 
   616  0019                     	;# 
   617  001A                     	;# 
   618  001C                     	;# 
   619  001D                     	;# 
   620  001E                     	;# 
   621  001F                     	;# 
   622  0081                     	;# 
   623  0085                     	;# 
   624  0086                     	;# 
   625  0087                     	;# 
   626  008C                     	;# 
   627  008D                     	;# 
   628  008E                     	;# 
   629  008F                     	;# 
   630  0090                     	;# 
   631  0092                     	;# 
   632  0093                     	;# 
   633  0093                     	;# 
   634  0093                     	;# 
   635  0094                     	;# 
   636  0095                     	;# 
   637  0095                     	;# 
   638  0096                     	;# 
   639  0096                     	;# 
   640  0097                     	;# 
   641  0098                     	;# 
   642  0099                     	;# 
   643  009A                     	;# 
   644  009B                     	;# 
   645  009E                     	;# 
   646  009F                     	;# 
   647  010C                     	;# 
   648  010C                     	;# 
   649  010D                     	;# 
   650  010E                     	;# 
   651  010F                     	;# 
   652  0115                     	;# 
   653  0116                     	;# 
   654  0118                     	;# 
   655  0119                     	;# 
   656  011A                     	;# 
   657  011B                     	;# 
   658  011E                     	;# 
   659  011F                     	;# 
   660  018C                     	;# 
   661  018D                     	;# 
   662  019D                     	;# 
   663  019E                     	;# 
   664  0000                     	;# 
   665  0001                     	;# 
   666  0002                     	;# 
   667  0003                     	;# 
   668  0004                     	;# 
   669  0005                     	;# 
   670  0006                     	;# 
   671  0007                     	;# 
   672  000A                     	;# 
   673  000B                     	;# 
   674  000C                     	;# 
   675  000D                     	;# 
   676  000E                     	;# 
   677  000E                     	;# 
   678  000F                     	;# 
   679  0010                     	;# 
   680  0011                     	;# 
   681  0012                     	;# 
   682  0013                     	;# 
   683  0014                     	;# 
   684  0015                     	;# 
   685  0015                     	;# 
   686  0016                     	;# 
   687  0017                     	;# 
   688  0018                     	;# 
   689  0019                     	;# 
   690  001A                     	;# 
   691  001C                     	;# 
   692  001D                     	;# 
   693  001E                     	;# 
   694  001F                     	;# 
   695  0081                     	;# 
   696  0085                     	;# 
   697  0086                     	;# 
   698  0087                     	;# 
   699  008C                     	;# 
   700  008D                     	;# 
   701  008E                     	;# 
   702  008F                     	;# 
   703  0090                     	;# 
   704  0092                     	;# 
   705  0093                     	;# 
   706  0093                     	;# 
   707  0093                     	;# 
   708  0094                     	;# 
   709  0095                     	;# 
   710  0095                     	;# 
   711  0096                     	;# 
   712  0096                     	;# 
   713  0097                     	;# 
   714  0098                     	;# 
   715  0099                     	;# 
   716  009A                     	;# 
   717  009B                     	;# 
   718  009E                     	;# 
   719  009F                     	;# 
   720  010C                     	;# 
   721  010C                     	;# 
   722  010D                     	;# 
   723  010E                     	;# 
   724  010F                     	;# 
   725  0115                     	;# 
   726  0116                     	;# 
   727  0118                     	;# 
   728  0119                     	;# 
   729  011A                     	;# 
   730  011B                     	;# 
   731  011E                     	;# 
   732  011F                     	;# 
   733  018C                     	;# 
   734  018D                     	;# 
   735  019D                     	;# 
   736  019E                     	;# 
   737  0000                     	;# 
   738  0001                     	;# 
   739  0002                     	;# 
   740  0003                     	;# 
   741  0004                     	;# 
   742  0005                     	;# 
   743  0006                     	;# 
   744  0007                     	;# 
   745  000A                     	;# 
   746  000B                     	;# 
   747  000C                     	;# 
   748  000D                     	;# 
   749  000E                     	;# 
   750  000E                     	;# 
   751  000F                     	;# 
   752  0010                     	;# 
   753  0011                     	;# 
   754  0012                     	;# 
   755  0013                     	;# 
   756  0014                     	;# 
   757  0015                     	;# 
   758  0015                     	;# 
   759  0016                     	;# 
   760  0017                     	;# 
   761  0018                     	;# 
   762  0019                     	;# 
   763  001A                     	;# 
   764  001C                     	;# 
   765  001D                     	;# 
   766  001E                     	;# 
   767  001F                     	;# 
   768  0081                     	;# 
   769  0085                     	;# 
   770  0086                     	;# 
   771  0087                     	;# 
   772  008C                     	;# 
   773  008D                     	;# 
   774  008E                     	;# 
   775  008F                     	;# 
   776  0090                     	;# 
   777  0092                     	;# 
   778  0093                     	;# 
   779  0093                     	;# 
   780  0093                     	;# 
   781  0094                     	;# 
   782  0095                     	;# 
   783  0095                     	;# 
   784  0096                     	;# 
   785  0096                     	;# 
   786  0097                     	;# 
   787  0098                     	;# 
   788  0099                     	;# 
   789  009A                     	;# 
   790  009B                     	;# 
   791  009E                     	;# 
   792  009F                     	;# 
   793  010C                     	;# 
   794  010C                     	;# 
   795  010D                     	;# 
   796  010E                     	;# 
   797  010F                     	;# 
   798  0115                     	;# 
   799  0116                     	;# 
   800  0118                     	;# 
   801  0119                     	;# 
   802  011A                     	;# 
   803  011B                     	;# 
   804  011E                     	;# 
   805  011F                     	;# 
   806  018C                     	;# 
   807  018D                     	;# 
   808  019D                     	;# 
   809  019E                     	;# 
   810  0000                     	;# 
   811  0001                     	;# 
   812  0002                     	;# 
   813  0003                     	;# 
   814  0004                     	;# 
   815  0005                     	;# 
   816  0006                     	;# 
   817  0007                     	;# 
   818  000A                     	;# 
   819  000B                     	;# 
   820  000C                     	;# 
   821  000D                     	;# 
   822  000E                     	;# 
   823  000E                     	;# 
   824  000F                     	;# 
   825  0010                     	;# 
   826  0011                     	;# 
   827  0012                     	;# 
   828  0013                     	;# 
   829  0014                     	;# 
   830  0015                     	;# 
   831  0015                     	;# 
   832  0016                     	;# 
   833  0017                     	;# 
   834  0018                     	;# 
   835  0019                     	;# 
   836  001A                     	;# 
   837  001C                     	;# 
   838  001D                     	;# 
   839  001E                     	;# 
   840  001F                     	;# 
   841  0081                     	;# 
   842  0085                     	;# 
   843  0086                     	;# 
   844  0087                     	;# 
   845  008C                     	;# 
   846  008D                     	;# 
   847  008E                     	;# 
   848  008F                     	;# 
   849  0090                     	;# 
   850  0092                     	;# 
   851  0093                     	;# 
   852  0093                     	;# 
   853  0093                     	;# 
   854  0094                     	;# 
   855  0095                     	;# 
   856  0095                     	;# 
   857  0096                     	;# 
   858  0096                     	;# 
   859  0097                     	;# 
   860  0098                     	;# 
   861  0099                     	;# 
   862  009A                     	;# 
   863  009B                     	;# 
   864  009E                     	;# 
   865  009F                     	;# 
   866  010C                     	;# 
   867  010C                     	;# 
   868  010D                     	;# 
   869  010E                     	;# 
   870  010F                     	;# 
   871  0115                     	;# 
   872  0116                     	;# 
   873  0118                     	;# 
   874  0119                     	;# 
   875  011A                     	;# 
   876  011B                     	;# 
   877  011E                     	;# 
   878  011F                     	;# 
   879  018C                     	;# 
   880  018D                     	;# 
   881  019D                     	;# 
   882  019E                     	;# 
   883  0000                     	;# 
   884  0001                     	;# 
   885  0002                     	;# 
   886  0003                     	;# 
   887  0004                     	;# 
   888  0005                     	;# 
   889  0006                     	;# 
   890  0007                     	;# 
   891  000A                     	;# 
   892  000B                     	;# 
   893  000C                     	;# 
   894  000D                     	;# 
   895  000E                     	;# 
   896  000E                     	;# 
   897  000F                     	;# 
   898  0010                     	;# 
   899  0011                     	;# 
   900  0012                     	;# 
   901  0013                     	;# 
   902  0014                     	;# 
   903  0015                     	;# 
   904  0015                     	;# 
   905  0016                     	;# 
   906  0017                     	;# 
   907  0018                     	;# 
   908  0019                     	;# 
   909  001A                     	;# 
   910  001C                     	;# 
   911  001D                     	;# 
   912  001E                     	;# 
   913  001F                     	;# 
   914  0081                     	;# 
   915  0085                     	;# 
   916  0086                     	;# 
   917  0087                     	;# 
   918  008C                     	;# 
   919  008D                     	;# 
   920  008E                     	;# 
   921  008F                     	;# 
   922  0090                     	;# 
   923  0092                     	;# 
   924  0093                     	;# 
   925  0093                     	;# 
   926  0093                     	;# 
   927  0094                     	;# 
   928  0095                     	;# 
   929  0095                     	;# 
   930  0096                     	;# 
   931  0096                     	;# 
   932  0097                     	;# 
   933  0098                     	;# 
   934  0099                     	;# 
   935  009A                     	;# 
   936  009B                     	;# 
   937  009E                     	;# 
   938  009F                     	;# 
   939  010C                     	;# 
   940  010C                     	;# 
   941  010D                     	;# 
   942  010E                     	;# 
   943  010F                     	;# 
   944  0115                     	;# 
   945  0116                     	;# 
   946  0118                     	;# 
   947  0119                     	;# 
   948  011A                     	;# 
   949  011B                     	;# 
   950  011E                     	;# 
   951  011F                     	;# 
   952  018C                     	;# 
   953  018D                     	;# 
   954  019D                     	;# 
   955  019E                     	;# 
   956                           
   957                           	psect	idataBANK1
   958  05D8                     __pidataBANK1:	
   959                           
   960                           ;initializer for _FieldDataArray
   961  05D8  3400               	retlw	0
   962  05D9  3401               	retlw	1
   963  05DA  3402               	retlw	2
   964  05DB  3403               	retlw	3
   965  05DC  3404               	retlw	4
   966  05DD  3405               	retlw	5
   967  05DE  3406               	retlw	6
   968  05DF  3407               	retlw	7
   969  05E0  3408               	retlw	8
   970  05E1  3409               	retlw	9
   971  05E2  340A               	retlw	10
   972                           
   973                           	psect	strings
   974  0495                     __pstrings:	
   975  0495                     stringtab:	
   976  0495                     __stringtab:	
   977  0495                     stringcode:	
   978                           ;	String table - string pointers are 1 byte each
   979                           
   980  0495                     stringdir:	
   981  0495  3004               	movlw	high stringdir
   982  0496  008A               	movwf	10
   983  0497  0804               	movf	4,w
   984  0498  0A84               	incf	4,f
   985  0499  0782               	addwf	2,f
   986  049A                     __stringbase:	
   987  049A  3400               	retlw	0
   988  049B                     __end_of__stringtab:	
   989  049B                     _Nybble2MSBitNum:	
   990  049B  3400               	retlw	0
   991  049C  3401               	retlw	1
   992  049D  3401               	retlw	1
   993  049E  3402               	retlw	2
   994  049F  3402               	retlw	2
   995  04A0  3402               	retlw	2
   996  04A1  3402               	retlw	2
   997  04A2  3403               	retlw	3
   998  04A3  3403               	retlw	3
   999  04A4  3403               	retlw	3
  1000  04A5  3403               	retlw	3
  1001  04A6  3403               	retlw	3
  1002  04A7  3403               	retlw	3
  1003  04A8  3403               	retlw	3
  1004  04A9  3403               	retlw	3
  1005  04AA                     __end_of_Nybble2MSBitNum:	
  1006  04AA                     _Timer2PostFunc:	
  1007  04AA  3407               	retlw	low (fp__PostUARTRXService-fpbase)
  1008  04AB  3400               	retlw	0
  1009  04AC  3400               	retlw	0
  1010  04AD  3400               	retlw	0
  1011  04AE  3400               	retlw	0
  1012  04AF  3400               	retlw	0
  1013  04B0  3400               	retlw	0
  1014  04B1  3400               	retlw	0
  1015  04B2                     __end_of_Timer2PostFunc:	
  1016  04B2                     _BitNum2SetMask:	
  1017  04B2  3401               	retlw	1
  1018  04B3  3402               	retlw	2
  1019  04B4  3404               	retlw	4
  1020  04B5  3408               	retlw	8
  1021  04B6  3410               	retlw	16
  1022  04B7  3420               	retlw	32
  1023  04B8  3440               	retlw	64
  1024  04B9  3480               	retlw	128
  1025  04BA                     __end_of_BitNum2SetMask:	
  1026  04BA                     _EventQueues:	
  1027  04BA  34BC               	retlw	low (_Queue0| 0)
  1028  04BB  3404               	retlw	4
  1029  04BC  34B0               	retlw	low (_Queue1| 0)
  1030  04BD  3404               	retlw	4
  1031  04BE                     __end_of_EventQueues:	
  1032  04BE                     _ServDescList:	
  1033  04BE  3401               	retlw	low (fp__InitUARTRXService-fpbase)
  1034  04BF  340B               	retlw	low (fp__RunUARTRXService-fpbase)
  1035  04C0  3403               	retlw	low (fp__InitSPIService-fpbase)
  1036  04C1  3409               	retlw	low (fp__RunSPIService-fpbase)
  1037  04C2                     __end_of_ServDescList:	
  1038  04C2                     _ES_EventList:	
  1039  04C2  3405               	retlw	low (fp__CheckUARTRXEvent-fpbase)
  1040  04C3                     __end_of_ES_EventList:	
  1041  0014                     _SSPCON	set	20
  1042  0013                     _SSPBUF	set	19
  1043  001A                     _RCREG	set	26
  1044  0019                     _TXREG	set	25
  1045  000B                     _INTCON	set	11
  1046  0007                     _PORTC	set	7
  1047  0001                     _TMR0	set	1
  1048  003E                     _RC6	set	62
  1049  003C                     _RC4	set	60
  1050  003B                     _RC3	set	59
  1051  0064                     _TXIF	set	100
  1052  00C4                     _CREN	set	196
  1053  005E                     _PEIE	set	94
  1054  00C7                     _SPEN	set	199
  1055  0065                     _RCIF	set	101
  1056  0063                     _SSPIF	set	99
  1057  005D                     _T0IE	set	93
  1058  005A                     _T0IF	set	90
  1059  005F                     _GIE	set	95
  1060  003D                     _RC5	set	61
  1061  0038                     _RC0	set	56
  1062  0094                     _SSPSTAT	set	148
  1063  008F                     _OSCCON	set	143
  1064  009A                     _SPBRGH	set	154
  1065  0099                     _SPBRG	set	153
  1066  04A0                     _BF	set	1184
  1067  043E                     _TRISC6	set	1086
  1068  0436                     _TRISB6	set	1078
  1069  0434                     _TRISB4	set	1076
  1070  043F                     _TRISC7	set	1087
  1071  043C                     _TRISC4	set	1084
  1072  043B                     _TRISC3	set	1083
  1073  04C5                     _TXEN	set	1221
  1074  0464                     _TXIE	set	1124
  1075  04C4                     _SYNC	set	1220
  1076  04DB                     _BRG16	set	1243
  1077  04C2                     _BRGH	set	1218
  1078  0465                     _RCIE	set	1125
  1079  0463                     _SSPIE	set	1123
  1080  040A                     _PS2	set	1034
  1081  0409                     _PS1	set	1033
  1082  0408                     _PS0	set	1032
  1083  040B                     _PSA	set	1035
  1084  040D                     _T0CS	set	1037
  1085  043D                     _TRISC5	set	1085
  1086  0438                     _TRISC0	set	1080
  1087  011F                     _ANSELH	set	287
  1088  08F7                     _ANS7	set	2295
  1089  08FB                     _ANS11	set	2299
  1090  08F4                     _ANS4	set	2292
  1091                           
  1092                           ; #config settings
  1093  0000                     
  1094                           	psect	cinit
  1095  000F                     start_initialization:	
  1096  000F                     __initialization:	
  1097                           
  1098                           ; Initialize objects allocated to BANK1
  1099  000F  1383               	bcf	3,7	;select IRP bank0
  1100  0010  30D3               	movlw	low (__pdataBANK1+11)
  1101  0011  00FD               	movwf	btemp+-1
  1102  0012  3005               	movlw	high __pidataBANK1
  1103  0013  00FE               	movwf	btemp
  1104  0014  30D8               	movlw	low __pidataBANK1
  1105  0015  00FF               	movwf	btemp+1
  1106  0016  30C8               	movlw	low __pdataBANK1
  1107  0017  0084               	movwf	4
  1108  0018  118A  25AD  118A   	fcall	init_ram0
  1109                           
  1110                           ; Clear objects allocated to BANK1
  1111  001B  30A0               	movlw	low __pbssBANK1
  1112  001C  0084               	movwf	4
  1113  001D  30C8               	movlw	low (__pbssBANK1+40)
  1114  001E  118A  25F8  118A   	fcall	clear_ram0
  1115                           
  1116                           ; Clear objects allocated to BANK0
  1117  0021  3020               	movlw	low __pbssBANK0
  1118  0022  0084               	movwf	4
  1119  0023  3048               	movlw	low (__pbssBANK0+40)
  1120  0024  118A  25F8  118A   	fcall	clear_ram0
  1121                           
  1122                           ; Clear objects allocated to COMMON
  1123  0027  3078               	movlw	low __pbssCOMMON
  1124  0028  0084               	movwf	4
  1125  0029  307E               	movlw	low (__pbssCOMMON+6)
  1126  002A  118A  25F8  118A   	fcall	clear_ram0
  1127  002D                     end_of_initialization:	
  1128                           ;End of C runtime variable initialization code
  1129                           
  1130  002D                     __end_of__initialization:	
  1131  002D  0183               	clrf	3
  1132  002E  118A  2C2C         	ljmp	_main	;jump to C main() function
  1133                           
  1134                           	psect	bssCOMMON
  1135  0078                     __pbssCOMMON:	
  1136  0078                     _responseByte:	
  1137  0078                     	ds	1
  1138  0079                     UARTRXIntResponse@bodyByteCount:	
  1139  0079                     	ds	1
  1140  007A                     UARTRXIntResponse@currentByteIndex:	
  1141  007A                     	ds	1
  1142  007B                     _currentState:	
  1143  007B                     	ds	1
  1144  007C                     _TickCount:	
  1145  007C                     	ds	1
  1146  007D                     _checksum:	
  1147  007D                     	ds	1
  1148                           
  1149                           	psect	bssBANK0
  1150  0020                     __pbssBANK0:	
  1151  0020                     _ReceivedData:	
  1152  0020                     	ds	16
  1153  0030                     ES_Timer_RTI_Resp@NewEvent:	
  1154  0030                     	ds	3
  1155  0033                     _FieldAddr:	
  1156  0033                     	ds	2
  1157  0035                     _time:	
  1158  0035                     	ds	2
  1159  0037                     CheckSSEvent@lastSS:	
  1160  0037                     	ds	1
  1161  0038                     _commOpen:	
  1162  0038                     	ds	1
  1163  0039                     _PackageResponseStore:	
  1164  0039                     	ds	1
  1165  003A                     SPI_SM@currentState:	
  1166  003A                     	ds	1
  1167  003B                     SPI_SM@MyPriority:	
  1168  003B                     	ds	1
  1169  003C                     _hasHeartbeat:	
  1170  003C                     	ds	1
  1171  003D                     _RXFlag:	
  1172  003D                     	ds	1
  1173  003E                     _newResponseAvailable:	
  1174  003E                     	ds	1
  1175  003F                     _newPackageAvailable:	
  1176  003F                     	ds	1
  1177  0040                     _MyPriority:	
  1178  0040                     	ds	1
  1179  0041                     ES_Timer_RTI_Resp@NextTimer2Process:	
  1180  0041                     	ds	1
  1181  0042                     ES_Timer_RTI_Resp@NeedsProcessing:	
  1182  0042                     	ds	1
  1183  0043                     _TMR_ActiveFlags:	
  1184  0043                     	ds	1
  1185  0044                     _Ready:	
  1186  0044                     	ds	1
  1187  0045                     ES_Run@ThisEvent:	
  1188  0045                     	ds	3
  1189                           
  1190                           	psect	bssBANK1
  1191  00A0                     __pbssBANK1:	
  1192  00A0                     _TMR_TimerArray:	
  1193  00A0                     	ds	16
  1194  00B0                     _Queue1:	
  1195  00B0                     	ds	12
  1196  00BC                     _Queue0:	
  1197  00BC                     	ds	12
  1198                           
  1199                           	psect	dataBANK1
  1200  00C8                     __pdataBANK1:	
  1201  00C8                     _FieldDataArray:	
  1202  00C8                     	ds	11
  1203                           
  1204                           	psect	inittext
  1205  05A9                     init_fetch0:	
  1206                           ;	Called with low address in FSR and high address in W
  1207                           
  1208  05A9  087E               	movf	btemp,w
  1209  05AA  008A               	movwf	10
  1210  05AB  087F               	movf	btemp+1,w
  1211  05AC  0082               	movwf	2
  1212  05AD                     init_ram0:	
  1213                           ;Called with:
  1214                           ;	high address of idata address in btemp 
  1215                           ;	low address of idata address in btemp+1 
  1216                           ;	low address of data in FSR
  1217                           ;	high address + 1 of data in btemp-1
  1218                           
  1219  05AD  118A  25A9  118A   	fcall	init_fetch0
  1220  05B0  0080               	movwf	0
  1221  05B1  0A84               	incf	4,f
  1222  05B2  0804               	movf	4,w
  1223  05B3  067D               	xorwf	btemp+-1,w
  1224  05B4  1903               	btfsc	3,2
  1225  05B5  3400               	retlw	0
  1226  05B6  0AFF               	incf	btemp+1,f
  1227  05B7  1903               	btfsc	3,2
  1228  05B8  0AFE               	incf	btemp,f
  1229  05B9  2DAD               	goto	init_ram0
  1230                           
  1231                           	psect	clrtext
  1232  05F8                     clear_ram0:	
  1233                           ;	Called with FSR containing the base address, and
  1234                           ;	W with the last address+1
  1235                           
  1236  05F8  0064               	clrwdt	;clear the watchdog before getting into this loop
  1237  05F9                     clrloop0:	
  1238  05F9  0180               	clrf	0	;clear RAM location pointed to by FSR
  1239  05FA  0A84               	incf	4,f	;increment pointer
  1240  05FB  0604               	xorwf	4,w	;XOR with final address
  1241  05FC  1903               	btfsc	3,2	;have we reached the end yet?
  1242  05FD  3400               	retlw	0	;all done for this memory range, return
  1243  05FE  0604               	xorwf	4,w	;XOR again to restore value
  1244  05FF  2DF9               	goto	clrloop0	;do the next byte
  1245                           
  1246                           	psect	cstackCOMMON
  1247  0070                     __pcstackCOMMON:	
  1248  0070                     ?_CheckUARTRXEvent:	
  1249  0070                     ?_ES_Sys_Timer_Init:	
  1250                           ; 1 bytes @ 0x0
  1251                           
  1252  0070                     ?_ES_GetMSBitSet:	
  1253                           ; 1 bytes @ 0x0
  1254                           
  1255  0070                     ?_ES_Timer_RTI_Resp:	
  1256                           ; 1 bytes @ 0x0
  1257                           
  1258  0070                     ?_IsTimerPending:	
  1259                           ; 1 bytes @ 0x0
  1260                           
  1261  0070                     ?_CheckSSEvent:	
  1262                           ; 1 bytes @ 0x0
  1263                           
  1264  0070                     ?_SPIIntResponse:	
  1265                           ; 1 bytes @ 0x0
  1266                           
  1267  0070                     ??_SPIIntResponse:	
  1268                           ; 1 bytes @ 0x0
  1269                           
  1270  0070                     ?_UARTRXIntResponse:	
  1271                           ; 1 bytes @ 0x0
  1272                           
  1273  0070                     ?_ClearReceivedDataArray:	
  1274                           ; 1 bytes @ 0x0
  1275                           
  1276  0070                     ??_ClearReceivedDataArray:	
  1277                           ; 1 bytes @ 0x0
  1278                           
  1279  0070                     ?_RX_getFieldDataBuffer:	
  1280                           ; 1 bytes @ 0x0
  1281                           
  1282  0070                     ??_RX_getFieldDataBuffer:	
  1283                           ; 1 bytes @ 0x0
  1284                           
  1285  0070                     ?_ES_Initialize:	
  1286                           ; 1 bytes @ 0x0
  1287                           
  1288  0070                     ?_ISR:	
  1289                           ; 1 bytes @ 0x0
  1290                           
  1291  0070                     ?_USART_Init:	
  1292                           ; 1 bytes @ 0x0
  1293                           
  1294  0070                     ?_main:	
  1295                           ; 1 bytes @ 0x0
  1296                           
  1297  0070                     ES_Initialize@NewRate:	
  1298                           ; 1 bytes @ 0x0
  1299                           
  1300                           
  1301                           ; 1 bytes @ 0x0
  1302  0070                     	ds	1
  1303  0071                     ClearReceivedDataArray@i:	
  1304                           
  1305                           ; 1 bytes @ 0x1
  1306  0071                     	ds	1
  1307  0072                     ??_UARTRXIntResponse:	
  1308  0072                     SPIIntResponse@readByte:	
  1309                           ; 1 bytes @ 0x2
  1310                           
  1311                           
  1312                           ; 1 bytes @ 0x2
  1313  0072                     	ds	1
  1314  0073                     UARTRXIntResponse@newByte:	
  1315                           
  1316                           ; 1 bytes @ 0x3
  1317  0073                     	ds	1
  1318  0074                     ??_ISR:	
  1319                           
  1320                           ; 1 bytes @ 0x4
  1321  0074                     	ds	4
  1322                           
  1323                           	psect	cstackBANK0
  1324  0048                     __pcstackBANK0:	
  1325  0048                     ??_ES_Sys_Timer_Init:	
  1326  0048                     ?_ES_InitQueue:	
  1327                           ; 1 bytes @ 0x0
  1328                           
  1329  0048                     ??_ES_GetMSBitSet:	
  1330                           ; 1 bytes @ 0x0
  1331                           
  1332  0048                     ??_IsTimerPending:	
  1333                           ; 1 bytes @ 0x0
  1334                           
  1335  0048                     ??_CheckSSEvent:	
  1336                           ; 1 bytes @ 0x0
  1337                           
  1338  0048                     ?_ES_Timer_InitTimer:	
  1339                           ; 1 bytes @ 0x0
  1340                           
  1341  0048                     ??_USART_Init:	
  1342                           ; 1 bytes @ 0x0
  1343                           
  1344  0048                     ?___bmul:	
  1345                           ; 1 bytes @ 0x0
  1346                           
  1347  0048                     ?_RunSPIService:	
  1348                           ; 1 bytes @ 0x0
  1349                           
  1350  0048                     ES_InitQueue@BlockSize:	
  1351                           ; 3 bytes @ 0x0
  1352                           
  1353  0048                     ___bmul@multiplicand:	
  1354                           ; 1 bytes @ 0x0
  1355                           
  1356  0048                     ES_Timer_InitTimer@NewTime:	
  1357                           ; 1 bytes @ 0x0
  1358                           
  1359  0048                     RunSPIService@ThisEvent:	
  1360                           ; 2 bytes @ 0x0
  1361                           
  1362                           
  1363                           ; 3 bytes @ 0x0
  1364  0048                     	ds	1
  1365  0049                     ??_ES_InitQueue:	
  1366  0049                     ??___bmul:	
  1367                           ; 1 bytes @ 0x1
  1368                           
  1369                           
  1370                           ; 1 bytes @ 0x1
  1371  0049                     	ds	1
  1372  004A                     ??_ES_Timer_InitTimer:	
  1373  004A                     ES_InitQueue@pBlock:	
  1374                           ; 1 bytes @ 0x2
  1375                           
  1376  004A                     CheckSSEvent@thisSS:	
  1377                           ; 1 bytes @ 0x2
  1378                           
  1379  004A                     ___bmul@product:	
  1380                           ; 1 bytes @ 0x2
  1381                           
  1382                           
  1383                           ; 1 bytes @ 0x2
  1384  004A                     	ds	1
  1385  004B                     ??_RunSPIService:	
  1386  004B                     ES_GetMSBitSet@Val2Check:	
  1387                           ; 1 bytes @ 0x3
  1388                           
  1389  004B                     ES_InitQueue@pThisQueue:	
  1390                           ; 1 bytes @ 0x3
  1391                           
  1392  004B                     ES_Timer_InitTimer@Num:	
  1393                           ; 1 bytes @ 0x3
  1394                           
  1395  004B                     ___bmul@multiplier:	
  1396                           ; 1 bytes @ 0x3
  1397                           
  1398  004B                     RunSPIService@ReturnEvent:	
  1399                           ; 1 bytes @ 0x3
  1400                           
  1401                           
  1402                           ; 3 bytes @ 0x3
  1403  004B                     	ds	1
  1404  004C                     ?_ES_DeQueue:	
  1405  004C                     ?_ES_EnQueueFIFO:	
  1406                           ; 1 bytes @ 0x4
  1407                           
  1408  004C                     ?_RunUARTRXService:	
  1409                           ; 1 bytes @ 0x4
  1410                           
  1411  004C                     ES_GetMSBitSet@ReturnVal:	
  1412                           ; 3 bytes @ 0x4
  1413                           
  1414  004C                     ES_DeQueue@pReturnEvent:	
  1415                           ; 1 bytes @ 0x4
  1416                           
  1417  004C                     ES_EnQueueFIFO@Event2Add:	
  1418                           ; 1 bytes @ 0x4
  1419                           
  1420  004C                     RunUARTRXService@ThisEvent:	
  1421                           ; 3 bytes @ 0x4
  1422                           
  1423                           
  1424                           ; 3 bytes @ 0x4
  1425  004C                     	ds	1
  1426  004D                     ??_ES_DeQueue:	
  1427  004D                     ES_GetMSBitSet@Nybble2Test:	
  1428                           ; 1 bytes @ 0x5
  1429                           
  1430                           
  1431                           ; 1 bytes @ 0x5
  1432  004D                     	ds	1
  1433  004E                     ES_GetMSBitSet@LoopCntr:	
  1434                           
  1435                           ; 1 bytes @ 0x6
  1436  004E                     	ds	1
  1437  004F                     ??_RunUARTRXService:	
  1438  004F                     ??_ES_EnQueueFIFO:	
  1439                           ; 1 bytes @ 0x7
  1440                           
  1441                           
  1442                           ; 1 bytes @ 0x7
  1443  004F                     	ds	2
  1444  0051                     ES_EnQueueFIFO@saveCrit:	
  1445                           
  1446                           ; 1 bytes @ 0x9
  1447  0051                     	ds	1
  1448  0052                     ES_EnQueueFIFO@InsertionPoint:	
  1449  0052                     ES_DeQueue@saveCrit:	
  1450                           ; 1 bytes @ 0xA
  1451                           
  1452                           
  1453                           ; 1 bytes @ 0xA
  1454  0052                     	ds	1
  1455  0053                     ES_EnQueueFIFO@pBlock:	
  1456  0053                     ES_DeQueue@NumLeft:	
  1457                           ; 1 bytes @ 0xB
  1458                           
  1459  0053                     RunUARTRXService@ReturnEvent:	
  1460                           ; 1 bytes @ 0xB
  1461                           
  1462                           
  1463                           ; 3 bytes @ 0xB
  1464  0053                     	ds	1
  1465  0054                     ES_EnQueueFIFO@pThisQueue:	
  1466  0054                     ES_DeQueue@pBlock:	
  1467                           ; 1 bytes @ 0xC
  1468                           
  1469                           
  1470                           ; 1 bytes @ 0xC
  1471  0054                     	ds	1
  1472  0055                     ?_ES_PostToService:	
  1473  0055                     ES_DeQueue@pThisQueue:	
  1474                           ; 1 bytes @ 0xD
  1475                           
  1476  0055                     ES_PostToService@TheEvent:	
  1477                           ; 1 bytes @ 0xD
  1478                           
  1479                           
  1480                           ; 3 bytes @ 0xD
  1481  0055                     	ds	1
  1482  0056                     RunUARTRXService@FieldAddressMSB:	
  1483                           
  1484                           ; 1 bytes @ 0xE
  1485  0056                     	ds	1
  1486  0057                     RunUARTRXService@FieldAddressLSB:	
  1487                           
  1488                           ; 1 bytes @ 0xF
  1489  0057                     	ds	1
  1490  0058                     ??_ES_PostToService:	
  1491  0058                     RunUARTRXService@i:	
  1492                           ; 1 bytes @ 0x10
  1493                           
  1494                           
  1495                           ; 1 bytes @ 0x10
  1496  0058                     	ds	1
  1497  0059                     ES_PostToService@WhichService:	
  1498                           
  1499                           ; 1 bytes @ 0x11
  1500  0059                     	ds	1
  1501  005A                     ??_CheckUARTRXEvent:	
  1502  005A                     ?_InitUARTRXService:	
  1503                           ; 1 bytes @ 0x12
  1504                           
  1505  005A                     ?_InitSPIService:	
  1506                           ; 1 bytes @ 0x12
  1507                           
  1508  005A                     ?_PostUARTRXService:	
  1509                           ; 1 bytes @ 0x12
  1510                           
  1511  005A                     InitUARTRXService@Priority:	
  1512                           ; 1 bytes @ 0x12
  1513                           
  1514  005A                     InitSPIService@Priority:	
  1515                           ; 1 bytes @ 0x12
  1516                           
  1517  005A                     PostUARTRXService@ThisEvent:	
  1518                           ; 1 bytes @ 0x12
  1519                           
  1520                           
  1521                           ; 3 bytes @ 0x12
  1522  005A                     	ds	1
  1523  005B                     ??_InitUARTRXService:	
  1524  005B                     ??_InitSPIService:	
  1525                           ; 1 bytes @ 0x13
  1526                           
  1527  005B                     CheckUARTRXEvent@CommEvent:	
  1528                           ; 1 bytes @ 0x13
  1529                           
  1530                           
  1531                           ; 3 bytes @ 0x13
  1532  005B                     	ds	1
  1533  005C                     InitUARTRXService@ThisEvent:	
  1534  005C                     InitSPIService@ThisEvent:	
  1535                           ; 3 bytes @ 0x14
  1536                           
  1537                           
  1538                           ; 3 bytes @ 0x14
  1539  005C                     	ds	1
  1540  005D                     ??_ES_Timer_RTI_Resp:	
  1541  005D                     ??_PostUARTRXService:	
  1542                           ; 1 bytes @ 0x15
  1543                           
  1544                           
  1545                           ; 1 bytes @ 0x15
  1546  005D                     	ds	2
  1547  005F                     ??_ES_Initialize:	
  1548                           
  1549                           ; 1 bytes @ 0x17
  1550  005F                     	ds	1
  1551  0060                     ?_ES_Run:	
  1552                           
  1553                           ; 1 bytes @ 0x18
  1554  0060                     	ds	2
  1555  0062                     ??_ES_Run:	
  1556  0062                     ES_Initialize@i:	
  1557                           ; 1 bytes @ 0x1A
  1558                           
  1559                           
  1560                           ; 1 bytes @ 0x1A
  1561  0062                     	ds	2
  1562  0064                     ES_Run@HighestPrior:	
  1563                           
  1564                           ; 1 bytes @ 0x1C
  1565  0064                     	ds	1
  1566  0065                     ??_main:	
  1567                           
  1568                           ; 1 bytes @ 0x1D
  1569  0065                     	ds	1
  1570  0066                     main@ErrorType:	
  1571                           
  1572                           ; 1 bytes @ 0x1E
  1573  0066                     	ds	1
  1574                           
  1575                           	psect	maintext
  1576  042C                     __pmaintext:	
  1577 ;;
  1578 ;;Main: autosize = 0, tempsize = 1, incstack = 0, save=0
  1579 ;;
  1580 ;; *************** function _main *****************
  1581 ;; Defined at:
  1582 ;;		line 21 in file "main.c"
  1583 ;; Parameters:    Size  Location     Type
  1584 ;;		None
  1585 ;; Auto vars:     Size  Location     Type
  1586 ;;  ErrorType       1   30[BANK0 ] enum E1322
  1587 ;; Return value:  Size  Location     Type
  1588 ;;                  1    wreg      void 
  1589 ;; Registers used:
  1590 ;;		wreg, fsr0l, fsr0h, status,2, status,0, btemp+1, pclath, cstack
  1591 ;; Tracked objects:
  1592 ;;		On entry : B00/0
  1593 ;;		On exit  : 0/0
  1594 ;;		Unchanged: 0/0
  1595 ;; Data sizes:     COMMON   BANK0   BANK1   BANK2
  1596 ;;      Params:         0       0       0       0
  1597 ;;      Locals:         0       1       0       0
  1598 ;;      Temps:          0       1       0       0
  1599 ;;      Totals:         0       2       0       0
  1600 ;;Total ram usage:        2 bytes
  1601 ;; Hardware stack levels required when called:    8
  1602 ;; This function calls:
  1603 ;;		_ES_Initialize
  1604 ;;		_ES_Run
  1605 ;;		_USART_Init
  1606 ;; This function is called by:
  1607 ;;		Startup code after reset
  1608 ;; This function uses a non-reentrant model
  1609 ;;
  1610                           
  1611                           
  1612                           ;psect for function _main
  1613  042C                     _main:	
  1614  042C                     l2319:	
  1615                           ;incstack = 0
  1616                           ; Regs used in _main: [wreg-fsr0h+status,2+status,0+btemp+1+pclath+cstack]
  1617                           
  1618                           
  1619                           ;main.c: 22: ES_Return_t ErrorType;;main.c: 28: OSCCON = 0b01110000;
  1620  042C  3070               	movlw	112
  1621  042D  1683               	bsf	3,5	;RP0=1, select bank1
  1622  042E  1303               	bcf	3,6	;RP1=0, select bank1
  1623  042F  008F               	movwf	15	;volatile
  1624  0430                     l2321:	
  1625                           
  1626                           ;main.c: 30: USART_Init();
  1627  0430  118A  254A  118A   	fcall	_USART_Init
  1628  0433                     l2323:	
  1629                           
  1630                           ;main.c: 33: TRISC3 = 0;
  1631  0433  1683               	bsf	3,5	;RP0=1, select bank1
  1632  0434  1303               	bcf	3,6	;RP1=0, select bank1
  1633  0435  1187               	bcf	7,3	;volatile
  1634  0436                     l2325:	
  1635                           
  1636                           ;main.c: 34: ANS7 = 0;
  1637  0436  1283               	bcf	3,5	;RP0=0, select bank2
  1638  0437  1703               	bsf	3,6	;RP1=1, select bank2
  1639  0438  139E               	bcf	30,7	;volatile
  1640  0439                     l2327:	
  1641                           
  1642                           ;main.c: 35: RC3 = 0;
  1643  0439  1283               	bcf	3,5	;RP0=0, select bank0
  1644  043A  1303               	bcf	3,6	;RP1=0, select bank0
  1645  043B  1187               	bcf	7,3	;volatile
  1646  043C                     l2329:	
  1647                           
  1648                           ;main.c: 38: TRISC4 = 0;
  1649  043C  1683               	bsf	3,5	;RP0=1, select bank1
  1650  043D  1303               	bcf	3,6	;RP1=0, select bank1
  1651  043E  1207               	bcf	7,4	;volatile
  1652  043F                     l2331:	
  1653                           
  1654                           ;main.c: 39: RC4 = 0;
  1655  043F  1283               	bcf	3,5	;RP0=0, select bank0
  1656  0440  1303               	bcf	3,6	;RP1=0, select bank0
  1657  0441  1207               	bcf	7,4	;volatile
  1658  0442                     l2333:	
  1659                           
  1660                           ;main.c: 42: ErrorType = ES_Initialize(ES_Timer_RATE_1MS);
  1661  0442  3001               	movlw	1
  1662  0443  118A  226B  118A   	fcall	_ES_Initialize
  1663  0446  1283               	bcf	3,5	;RP0=0, select bank0
  1664  0447  1303               	bcf	3,6	;RP1=0, select bank0
  1665  0448  00E5               	movwf	??_main
  1666  0449  0865               	movf	??_main,w
  1667  044A  00E6               	movwf	main@ErrorType
  1668  044B                     l2335:	
  1669                           
  1670                           ;main.c: 45: RC4 = 1;
  1671  044B  1607               	bsf	7,4	;volatile
  1672  044C                     l2337:	
  1673                           
  1674                           ;main.c: 48: if (ErrorType == Success) {
  1675  044C  0866               	movf	main@ErrorType,w
  1676  044D  1D03               	btfss	3,2
  1677  044E  2C50               	goto	u1261
  1678  044F  2C51               	goto	u1260
  1679  0450                     u1261:	
  1680  0450  2C5A               	goto	l2343
  1681  0451                     u1260:	
  1682  0451                     l2339:	
  1683  0451  3002               	movlw	low u1277jt
  1684  0452  118A  2842         	ljmp	_ES_Run
  1685  0454                     u1277jf:	
  1686  0454  1283               	bcf	3,5	;RP0=0, select bank0
  1687  0455  1303               	bcf	3,6	;RP1=0, select bank0
  1688  0456  0860               	movf	?_ES_Run,w
  1689  0457  00E5               	movwf	??_main
  1690  0458  0865               	movf	??_main,w
  1691  0459  00E6               	movwf	main@ErrorType
  1692  045A                     l2343:	
  1693  045A  0866               	movf	main@ErrorType,w
  1694                           
  1695                           ; Switch size 1, requested type "simple"
  1696                           ; Number of cases is 2, Range of values is 3 to 5
  1697                           ; switch strategies available:
  1698                           ; Name         Instructions Cycles
  1699                           ; simple_byte            7     4 (average)
  1700                           ; direct_byte           16    10 (fixed)
  1701                           ; jumptable            263     9 (fixed)
  1702                           ;	Chosen strategy is simple_byte
  1703  045B  3A03               	xorlw	3	; case 3
  1704  045C  1903               	skipnz
  1705  045D  2C62               	goto	l334
  1706  045E  3A06               	xorlw	6	; case 5
  1707  045F  1903               	skipnz
  1708  0460  2C62               	goto	l334
  1709  0461  2C62               	goto	l334
  1710  0462                     l334:	
  1711  0462  2C62               	goto	l334
  1712  0463  118A  280D         	ljmp	start
  1713  0465                     __end_of_main:	
  1714                           
  1715                           	psect	jmp_tab__ES_Run
  1716  0002                     __pjmp_tab__ES_Run:	
  1717                           ;main.c: 50: ErrorType = ES_Run();
  1718                           
  1719  0002                     u1277jt:	
  1720  0002  118A  2C54         	ljmp	u1277jf
  1721                           
  1722                           	psect	text1
  1723  054A                     __ptext1:	
  1724 ;; *************** function _USART_Init *****************
  1725 ;; Defined at:
  1726 ;;		line 11 in file "sci.c"
  1727 ;; Parameters:    Size  Location     Type
  1728 ;;		None
  1729 ;; Auto vars:     Size  Location     Type
  1730 ;;		None
  1731 ;; Return value:  Size  Location     Type
  1732 ;;                  1    wreg      void 
  1733 ;; Registers used:
  1734 ;;		wreg, status,2
  1735 ;; Tracked objects:
  1736 ;;		On entry : 0/0
  1737 ;;		On exit  : 0/0
  1738 ;;		Unchanged: 0/0
  1739 ;; Data sizes:     COMMON   BANK0   BANK1   BANK2
  1740 ;;      Params:         0       0       0       0
  1741 ;;      Locals:         0       0       0       0
  1742 ;;      Temps:          0       0       0       0
  1743 ;;      Totals:         0       0       0       0
  1744 ;;Total ram usage:        0 bytes
  1745 ;; Hardware stack levels used:    1
  1746 ;; Hardware stack levels required when called:    3
  1747 ;; This function calls:
  1748 ;;		Nothing
  1749 ;; This function is called by:
  1750 ;;		_main
  1751 ;; This function uses a non-reentrant model
  1752 ;;
  1753                           
  1754                           
  1755                           ;psect for function _USART_Init
  1756  054A                     _USART_Init:	
  1757  054A                     l2217:	
  1758                           ;incstack = 0
  1759                           ; Regs used in _USART_Init: [wreg+status,2]
  1760                           
  1761                           
  1762                           ;sci.c: 13: GIE = 0;
  1763  054A  138B               	bcf	11,7	;volatile
  1764  054B                     l2219:	
  1765                           
  1766                           ;sci.c: 16: SPBRG = 129;
  1767  054B  3081               	movlw	129
  1768  054C  1683               	bsf	3,5	;RP0=1, select bank1
  1769  054D  1303               	bcf	3,6	;RP1=0, select bank1
  1770  054E  0099               	movwf	25	;volatile
  1771  054F                     l2221:	
  1772                           
  1773                           ;sci.c: 17: SPBRGH = 0;
  1774  054F  019A               	clrf	26	;volatile
  1775  0550                     l2223:	
  1776                           
  1777                           ;sci.c: 18: BRGH = 1;
  1778  0550  1518               	bsf	24,2	;volatile
  1779  0551                     l2225:	
  1780                           
  1781                           ;sci.c: 19: BRG16 = 0;
  1782  0551  119B               	bcf	27,3	;volatile
  1783  0552                     l2227:	
  1784                           
  1785                           ;sci.c: 22: SYNC = 0;
  1786  0552  1218               	bcf	24,4	;volatile
  1787  0553                     l2229:	
  1788                           
  1789                           ;sci.c: 23: SPEN = 1;
  1790  0553  1283               	bcf	3,5	;RP0=0, select bank0
  1791  0554  1303               	bcf	3,6	;RP1=0, select bank0
  1792  0555  1798               	bsf	24,7	;volatile
  1793  0556                     l2231:	
  1794                           
  1795                           ;sci.c: 26: TXIE = 0;
  1796  0556  1683               	bsf	3,5	;RP0=1, select bank1
  1797  0557  1303               	bcf	3,6	;RP1=0, select bank1
  1798  0558  120C               	bcf	12,4	;volatile
  1799  0559                     l2233:	
  1800                           
  1801                           ;sci.c: 27: RCIE = 1;
  1802  0559  168C               	bsf	12,5	;volatile
  1803  055A                     l2235:	
  1804                           
  1805                           ;sci.c: 28: PEIE = 1;
  1806  055A  170B               	bsf	11,6	;volatile
  1807  055B                     l2237:	
  1808                           
  1809                           ;sci.c: 31: TXEN = 1;
  1810  055B  1698               	bsf	24,5	;volatile
  1811  055C                     l2239:	
  1812                           
  1813                           ;sci.c: 34: CREN = 1;
  1814  055C  1283               	bcf	3,5	;RP0=0, select bank0
  1815  055D  1303               	bcf	3,6	;RP1=0, select bank0
  1816  055E  1618               	bsf	24,4	;volatile
  1817  055F                     l2241:	
  1818                           
  1819                           ;sci.c: 35: ANS11 = 0;
  1820  055F  1283               	bcf	3,5	;RP0=0, select bank2
  1821  0560  1703               	bsf	3,6	;RP1=1, select bank2
  1822  0561  119F               	bcf	31,3	;volatile
  1823  0562                     l2243:	
  1824                           
  1825                           ;sci.c: 38: GIE = 1;
  1826  0562  178B               	bsf	11,7	;volatile
  1827  0563                     l288:	
  1828  0563  0008               	return
  1829  0564                     __end_of_USART_Init:	
  1830                           
  1831                           	psect	text2
  1832  0042                     __ptext2:	
  1833 ;; *************** function _ES_Run *****************
  1834 ;; Defined at:
  1835 ;;		line 224 in file "ES_Framework.c"
  1836 ;; Parameters:    Size  Location     Type
  1837 ;;		None
  1838 ;; Auto vars:     Size  Location     Type
  1839 ;;  HighestPrior    1   28[BANK0 ] unsigned char 
  1840 ;; Return value:  Size  Location     Type
  1841 ;;                  1   24[BANK0 ] enum E1275
  1842 ;; Registers used:
  1843 ;;		wreg, fsr0l, fsr0h, status,2, status,0, btemp+1, pclath, cstack
  1844 ;; Tracked objects:
  1845 ;;		On entry : 0/0
  1846 ;;		On exit  : 0/0
  1847 ;;		Unchanged: 0/0
  1848 ;; Data sizes:     COMMON   BANK0   BANK1   BANK2
  1849 ;;      Params:         0       2       0       0
  1850 ;;      Locals:         0       1       0       0
  1851 ;;      Temps:          0       2       0       0
  1852 ;;      Totals:         0       5       0       0
  1853 ;;Total ram usage:        5 bytes
  1854 ;; Hardware stack levels required when called:    8
  1855 ;; This function calls:
  1856 ;;		_CheckSSEvent
  1857 ;;		_CheckUARTRXEvent
  1858 ;;		_ES_DeQueue
  1859 ;;		_ES_GetMSBitSet
  1860 ;;		_ES_Timer_RTI_Resp
  1861 ;;		_IsTimerPending
  1862 ;;		_RunSPIService
  1863 ;;		_RunUARTRXService
  1864 ;; This function is called by:
  1865 ;;		_main
  1866 ;; This function uses a non-reentrant model
  1867 ;;
  1868                           
  1869                           
  1870                           ;psect for function _ES_Run
  1871  0042                     _ES_Run:	
  1872                           
  1873                           ;incstack = 0
  1874 ;; using string table level
  1875                           ; Regs used in _ES_Run: [wreg-fsr0h+status,2+status,0+btemp+1+pclath+cstack]
  1876  0042  1283               	bcf	3,5	;RP0=0, select bank0
  1877  0043  1303               	bcf	3,6	;RP1=0, select bank0
  1878  0044  00E1               	movwf	(?_ES_Run+1)^0
  1879  0045                     l64:	
  1880                           ;ES_Framework.c: 226: uint8_t HighestPrior;;ES_Framework.c: 227: static ES_Event ThisEve
      +                          nt;;ES_Framework.c: 229: while (1) {
  1881                           
  1882                           
  1883                           ;ES_Framework.c: 233: while (Ready != 0) {
  1884  0045  28A0               	goto	l2129
  1885  0046                     l2109:	
  1886                           
  1887                           ;ES_Framework.c: 234: HighestPrior = ES_GetMSBitSet(Ready);
  1888  0046  0844               	movf	_Ready,w
  1889  0047  118A  2375  118A   	fcall	_ES_GetMSBitSet
  1890  004A  1283               	bcf	3,5	;RP0=0, select bank0
  1891  004B  1303               	bcf	3,6	;RP1=0, select bank0
  1892  004C  00E2               	movwf	??_ES_Run
  1893  004D  0862               	movf	??_ES_Run,w
  1894  004E  00E4               	movwf	ES_Run@HighestPrior
  1895                           
  1896                           ;ES_Framework.c: 235: if (ES_DeQueue(EventQueues[HighestPrior].pMem, &ThisEvent) == 0) {
  1897  004F  3045               	movlw	(low (ES_Run@ThisEvent| 0))& (0+255)
  1898  0050  00E2               	movwf	??_ES_Run
  1899  0051  0862               	movf	??_ES_Run,w
  1900  0052  00CC               	movwf	ES_DeQueue@pReturnEvent
  1901  0053  0864               	movf	ES_Run@HighestPrior,w
  1902  0054  00E3               	movwf	??_ES_Run+1
  1903  0055  0763               	addwf	??_ES_Run+1,w
  1904  0056  3E20               	addlw	low ((_EventQueues-__stringbase)| (0+32768))
  1905  0057  0084               	movwf	4
  1906  0058  118A  2495  118A   	fcall	stringdir
  1907  005B  118A  219E  118A   	fcall	_ES_DeQueue
  1908  005E  3A00               	xorlw	0
  1909  005F  1D03               	skipz
  1910  0060  2862               	goto	u991
  1911  0061  2863               	goto	u990
  1912  0062                     u991:	
  1913  0062  2896               	goto	l2127
  1914  0063                     u990:	
  1915  0063                     l2111:	
  1916                           
  1917                           ;ES_Framework.c: 236: Ready &= ~BitNum2SetMask[HighestPrior];
  1918  0063  1283               	bcf	3,5	;RP0=0, select bank0
  1919  0064  1303               	bcf	3,6	;RP1=0, select bank0
  1920  0065  0864               	movf	ES_Run@HighestPrior,w
  1921  0066  3E18               	addlw	low ((_BitNum2SetMask-__stringbase)| (0+32768))
  1922  0067  0084               	movwf	4
  1923  0068  118A  2495  118A   	fcall	stringdir
  1924  006B  3AFF               	xorlw	255
  1925  006C  00E2               	movwf	??_ES_Run
  1926  006D  0862               	movf	??_ES_Run,w
  1927  006E  05C4               	andwf	_Ready,f
  1928  006F  2896               	goto	l2127
  1929  0070                     l2113:	
  1930                           
  1931                           ;ES_Framework.c: 245: if (RunUARTRXService(ThisEvent).EventType != ES_NO_EVENT) return F
      +                          ailedRun;
  1932  0070  0845               	movf	ES_Run@ThisEvent,w
  1933  0071  00CC               	movwf	RunUARTRXService@ThisEvent
  1934  0072  0846               	movf	ES_Run@ThisEvent+1,w
  1935  0073  00CD               	movwf	RunUARTRXService@ThisEvent+1
  1936  0074  0847               	movf	ES_Run@ThisEvent+2,w
  1937  0075  00CE               	movwf	RunUARTRXService@ThisEvent+2
  1938  0076  118A  2205  118A   	fcall	_RunUARTRXService
  1939  0079  1283               	bcf	3,5	;RP0=0, select bank0
  1940  007A  1303               	bcf	3,6	;RP1=0, select bank0
  1941  007B  084C               	movf	?_RunUARTRXService,w
  1942  007C  1903               	btfsc	3,2
  1943  007D  287F               	goto	u1001
  1944  007E  2880               	goto	u1000
  1945  007F                     u1001:	
  1946  007F  28A0               	goto	l2129
  1947  0080                     u1000:	
  1948  0080                     l2115:	
  1949  0080  3002               	movlw	2
  1950  0081  00E2               	movwf	??_ES_Run
  1951  0082  0862               	movf	??_ES_Run,w
  1952  0083  00E0               	movwf	?_ES_Run
  1953  0084  28BC               	goto	l71
  1954  0085                     l2119:	
  1955                           
  1956                           ;ES_Framework.c: 248: if (RunSPIService(ThisEvent).EventType != ES_NO_EVENT) return Fail
      +                          edRun;
  1957  0085  0845               	movf	ES_Run@ThisEvent,w
  1958  0086  00C8               	movwf	RunSPIService@ThisEvent
  1959  0087  0846               	movf	ES_Run@ThisEvent+1,w
  1960  0088  00C9               	movwf	RunSPIService@ThisEvent+1
  1961  0089  0847               	movf	ES_Run@ThisEvent+2,w
  1962  008A  00CA               	movwf	RunSPIService@ThisEvent+2
  1963  008B  118A  25EE  118A   	fcall	_RunSPIService
  1964  008E  1283               	bcf	3,5	;RP0=0, select bank0
  1965  008F  1303               	bcf	3,6	;RP1=0, select bank0
  1966  0090  0848               	movf	?_RunSPIService,w
  1967  0091  1903               	btfsc	3,2
  1968  0092  2894               	goto	u1011
  1969  0093  2895               	goto	u1010
  1970  0094                     u1011:	
  1971  0094  28A0               	goto	l2129
  1972  0095                     u1010:	
  1973  0095  2880               	goto	l2115
  1974  0096                     l2127:	
  1975  0096  1283               	bcf	3,5	;RP0=0, select bank0
  1976  0097  1303               	bcf	3,6	;RP1=0, select bank0
  1977  0098  0864               	movf	ES_Run@HighestPrior,w
  1978                           
  1979                           ; Switch size 1, requested type "simple"
  1980                           ; Number of cases is 2, Range of values is 0 to 1
  1981                           ; switch strategies available:
  1982                           ; Name         Instructions Cycles
  1983                           ; simple_byte            7     4 (average)
  1984                           ; direct_byte           11     7 (fixed)
  1985                           ; jumptable            260     6 (fixed)
  1986                           ;	Chosen strategy is simple_byte
  1987  0099  3A00               	xorlw	0	; case 0
  1988  009A  1903               	skipnz
  1989  009B  2870               	goto	l2113
  1990  009C  3A01               	xorlw	1	; case 1
  1991  009D  1903               	skipnz
  1992  009E  2885               	goto	l2119
  1993  009F  28A0               	goto	l2129
  1994  00A0                     l2129:	
  1995  00A0  1283               	bcf	3,5	;RP0=0, select bank0
  1996  00A1  1303               	bcf	3,6	;RP1=0, select bank0
  1997  00A2  0844               	movf	_Ready,w
  1998  00A3  1D03               	btfss	3,2
  1999  00A4  28A6               	goto	u1021
  2000  00A5  28A7               	goto	u1020
  2001  00A6                     u1021:	
  2002  00A6  2846               	goto	l2109
  2003  00A7                     u1020:	
  2004  00A7  28AB               	goto	l2133
  2005  00A8                     l2131:	
  2006                           
  2007                           ;ES_Framework.c: 255: ES_Timer_RTI_Resp();
  2008  00A8  118A  2135  118A   	fcall	_ES_Timer_RTI_Resp
  2009  00AB                     l2133:	
  2010  00AB  118A  25E3  118A   	fcall	_IsTimerPending
  2011  00AE  3A00               	xorlw	0
  2012  00AF  1D03               	skipz
  2013  00B0  28B2               	goto	u1031
  2014  00B1  28B3               	goto	u1030
  2015  00B2                     u1031:	
  2016  00B2  28A8               	goto	l2131
  2017  00B3                     u1030:	
  2018  00B3                     l2135:	
  2019                           
  2020                           ;ES_Framework.c: 259: CheckSSEvent();
  2021  00B3  118A  2564  118A   	fcall	_CheckSSEvent
  2022  00B6                     l2137:	
  2023                           
  2024                           ;ES_Framework.c: 260: CheckUARTRXEvent();
  2025  00B6  118A  24F1  118A   	fcall	_CheckUARTRXEvent
  2026  00B9  1283               	bcf	3,5	;RP0=0, select bank0
  2027  00BA  1303               	bcf	3,6	;RP1=0, select bank0
  2028  00BB  2845               	goto	l64
  2029  00BC                     l71:	
  2030  00BC  3000               	movlw	high __pjmp_tab__ES_Run
  2031  00BD  008A               	movwf	10
  2032  00BE  0861               	movf	(?_ES_Run+1)^0,w
  2033  00BF  0082               	movwf	2
  2034  00C0                     __end_of_ES_Run:	
  2035                           
  2036                           	psect	text3
  2037  0205                     __ptext3:	
  2038 ;; *************** function _RunUARTRXService *****************
  2039 ;; Defined at:
  2040 ;;		line 140 in file "UART_RX_SM.c"
  2041 ;; Parameters:    Size  Location     Type
  2042 ;;  ThisEvent       3    4[BANK0 ] struct ES_Event_t
  2043 ;; Auto vars:     Size  Location     Type
  2044 ;;  i               1   16[BANK0 ] unsigned char 
  2045 ;;  FieldAddress    1   15[BANK0 ] unsigned char 
  2046 ;;  FieldAddress    1   14[BANK0 ] unsigned char 
  2047 ;;  ReturnEvent     3   11[BANK0 ] struct ES_Event_t
  2048 ;; Return value:  Size  Location     Type
  2049 ;;                  3    4[BANK0 ] struct ES_Event_t
  2050 ;; Registers used:
  2051 ;;		wreg, fsr0l, fsr0h, status,2, status,0, btemp+1, pclath, cstack
  2052 ;; Tracked objects:
  2053 ;;		On entry : 0/0
  2054 ;;		On exit  : 0/0
  2055 ;;		Unchanged: 0/0
  2056 ;; Data sizes:     COMMON   BANK0   BANK1   BANK2
  2057 ;;      Params:         0       3       0       0
  2058 ;;      Locals:         0       6       0       0
  2059 ;;      Temps:          0       4       0       0
  2060 ;;      Totals:         0      13       0       0
  2061 ;;Total ram usage:       13 bytes
  2062 ;; Hardware stack levels used:    1
  2063 ;; Hardware stack levels required when called:    4
  2064 ;; This function calls:
  2065 ;;		_ES_Timer_InitTimer
  2066 ;; This function is called by:
  2067 ;;		_ES_Run
  2068 ;; This function uses a non-reentrant model
  2069 ;;
  2070                           
  2071                           
  2072                           ;psect for function _RunUARTRXService
  2073  0205                     _RunUARTRXService:	
  2074  0205                     l1909:	
  2075                           ;incstack = 0
  2076                           ; Regs used in _RunUARTRXService: [wreg-fsr0h+status,2+status,0+btemp+1+pclath+cstack]
  2077                           
  2078                           
  2079                           ;UART_RX_SM.c: 142: ES_Event ReturnEvent;;UART_RX_SM.c: 143: ReturnEvent.EventType = ES_
      +                          NO_EVENT;
  2080  0205  1283               	bcf	3,5	;RP0=0, select bank0
  2081  0206  1303               	bcf	3,6	;RP1=0, select bank0
  2082  0207  01D3               	clrf	RunUARTRXService@ReturnEvent
  2083                           
  2084                           ;UART_RX_SM.c: 145: switch (ThisEvent.EventType)
  2085  0208  2A5C               	goto	l1947
  2086  0209                     l1911:	
  2087                           
  2088                           ;UART_RX_SM.c: 148: if (ReceivedData[0] == 0x81)
  2089  0209  3081               	movlw	129
  2090  020A  0620               	xorwf	_ReceivedData,w	;volatile
  2091  020B  1D03               	btfss	3,2
  2092  020C  2A0E               	goto	u821
  2093  020D  2A0F               	goto	u820
  2094  020E                     u821:	
  2095  020E  2A64               	goto	l1949
  2096  020F                     u820:	
  2097  020F                     l1913:	
  2098                           
  2099                           ;UART_RX_SM.c: 149: {;UART_RX_SM.c: 151: if (ReceivedData[4] & (0x00000004 | 0x00000002)
      +                          )
  2100  020F  0824               	movf	_ReceivedData+4,w	;volatile
  2101  0210  3906               	andlw	6
  2102  0211  1903               	btfsc	3,2
  2103  0212  2A14               	goto	u831
  2104  0213  2A15               	goto	u830
  2105  0214                     u831:	
  2106  0214  2A64               	goto	l1949
  2107  0215                     u830:	
  2108  0215                     l1915:	
  2109                           
  2110                           ;UART_RX_SM.c: 152: {;UART_RX_SM.c: 153: newPackageAvailable = ((boolean) 0);
  2111  0215  01BF               	clrf	_newPackageAvailable	;volatile
  2112  0216                     l1917:	
  2113                           
  2114                           ;UART_RX_SM.c: 155: uint8_t FieldAddressMSB = ReceivedData[4];
  2115  0216  0824               	movf	_ReceivedData+4,w	;volatile
  2116  0217  00CF               	movwf	??_RunUARTRXService
  2117  0218  084F               	movf	??_RunUARTRXService,w
  2118  0219  00D6               	movwf	RunUARTRXService@FieldAddressMSB
  2119  021A                     l1919:	
  2120                           
  2121                           ;UART_RX_SM.c: 156: uint8_t FieldAddressLSB = ReceivedData[4];
  2122  021A  0824               	movf	_ReceivedData+4,w	;volatile
  2123  021B  00CF               	movwf	??_RunUARTRXService
  2124  021C  084F               	movf	??_RunUARTRXService,w
  2125  021D  00D7               	movwf	RunUARTRXService@FieldAddressLSB
  2126  021E                     l1921:	
  2127                           
  2128                           ;UART_RX_SM.c: 158: FieldAddr = (FieldAddressMSB<<8) | FieldAddressLSB;
  2129  021E  0857               	movf	RunUARTRXService@FieldAddressLSB,w
  2130  021F  00CF               	movwf	??_RunUARTRXService
  2131  0220  01D0               	clrf	??_RunUARTRXService+1
  2132  0221  0856               	movf	RunUARTRXService@FieldAddressMSB,w
  2133  0222  00D1               	movwf	??_RunUARTRXService+2
  2134  0223  01D2               	clrf	??_RunUARTRXService+3
  2135  0224  0851               	movf	??_RunUARTRXService+2,w
  2136  0225  00D2               	movwf	??_RunUARTRXService+3
  2137  0226  01D1               	clrf	??_RunUARTRXService+2
  2138  0227  084F               	movf	??_RunUARTRXService,w
  2139  0228  0451               	iorwf	??_RunUARTRXService+2,w
  2140  0229  00B3               	movwf	_FieldAddr
  2141  022A  0850               	movf	??_RunUARTRXService+1,w
  2142  022B  0452               	iorwf	??_RunUARTRXService+3,w
  2143  022C  00B4               	movwf	_FieldAddr+1
  2144  022D                     l1923:	
  2145                           
  2146                           ;UART_RX_SM.c: 161: for (uint8_t i = 0; i < 11; i++)
  2147  022D  01D8               	clrf	RunUARTRXService@i
  2148  022E                     l1929:	
  2149                           
  2150                           ;UART_RX_SM.c: 162: {;UART_RX_SM.c: 163: FieldDataArray[i] = ReceivedData[4+1 + i];
  2151  022E  0858               	movf	RunUARTRXService@i,w
  2152  022F  3E25               	addlw	(low ((_ReceivedData| 0+5)))& (0+255)
  2153  0230  0084               	movwf	4
  2154  0231  1383               	bcf	3,7	;select IRP bank0
  2155  0232  0800               	movf	0,w
  2156  0233  00CF               	movwf	??_RunUARTRXService
  2157  0234  0858               	movf	RunUARTRXService@i,w
  2158  0235  3EC8               	addlw	(low (_FieldDataArray| 0))& (0+255)
  2159  0236  0084               	movwf	4
  2160  0237  084F               	movf	??_RunUARTRXService,w
  2161  0238  0080               	movwf	0
  2162  0239                     l1931:	
  2163  0239  3001               	movlw	1
  2164  023A  00CF               	movwf	??_RunUARTRXService
  2165  023B  084F               	movf	??_RunUARTRXService,w
  2166  023C  07D8               	addwf	RunUARTRXService@i,f
  2167  023D                     l1933:	
  2168  023D  300B               	movlw	11
  2169  023E  0258               	subwf	RunUARTRXService@i,w
  2170  023F  1C03               	skipc
  2171  0240  2A42               	goto	u841
  2172  0241  2A43               	goto	u840
  2173  0242                     u841:	
  2174  0242  2A2E               	goto	l1929
  2175  0243                     u840:	
  2176  0243                     l1935:	
  2177                           
  2178                           ;UART_RX_SM.c: 164: };UART_RX_SM.c: 166: newPackageAvailable = ((boolean) !((boolean) 0)
      +                          );
  2179  0243  3001               	movlw	1
  2180  0244  00CF               	movwf	??_RunUARTRXService
  2181  0245  084F               	movf	??_RunUARTRXService,w
  2182  0246  00BF               	movwf	_newPackageAvailable	;volatile
  2183  0247                     l1937:	
  2184                           
  2185                           ;UART_RX_SM.c: 168: ES_Timer_InitTimer(0, 76);
  2186  0247  304C               	movlw	76
  2187  0248  00C8               	movwf	ES_Timer_InitTimer@NewTime
  2188  0249  3000               	movlw	0
  2189  024A  00C9               	movwf	ES_Timer_InitTimer@NewTime+1
  2190  024B  3000               	movlw	0
  2191  024C  118A  2465  118A   	fcall	_ES_Timer_InitTimer
  2192  024F                     l1939:	
  2193                           
  2194                           ;UART_RX_SM.c: 169: hasHeartbeat = ((boolean) !((boolean) 0));
  2195  024F  1283               	bcf	3,5	;RP0=0, select bank0
  2196  0250  1303               	bcf	3,6	;RP1=0, select bank0
  2197  0251  01BC               	clrf	_hasHeartbeat
  2198  0252  0ABC               	incf	_hasHeartbeat,f
  2199  0253  2A64               	goto	l1949
  2200  0254                     l1941:	
  2201                           
  2202                           ;UART_RX_SM.c: 175: if (ThisEvent.EventParam == 0)
  2203  0254  084D               	movf	RunUARTRXService@ThisEvent+1,w
  2204  0255  044E               	iorwf	RunUARTRXService@ThisEvent+2,w
  2205  0256  1D03               	btfss	3,2
  2206  0257  2A59               	goto	u851
  2207  0258  2A5A               	goto	u850
  2208  0259                     u851:	
  2209  0259  2A64               	goto	l1949
  2210  025A                     u850:	
  2211  025A                     l1943:	
  2212                           
  2213                           ;UART_RX_SM.c: 176: {;UART_RX_SM.c: 177: hasHeartbeat = ((boolean) 0);
  2214  025A  01BC               	clrf	_hasHeartbeat
  2215  025B  2A64               	goto	l1949
  2216  025C                     l1947:	
  2217  025C  084C               	movf	RunUARTRXService@ThisEvent,w
  2218                           
  2219                           ; Switch size 1, requested type "simple"
  2220                           ; Number of cases is 2, Range of values is 4 to 7
  2221                           ; switch strategies available:
  2222                           ; Name         Instructions Cycles
  2223                           ; simple_byte            7     4 (average)
  2224                           ; direct_byte           18    10 (fixed)
  2225                           ; jumptable            263     9 (fixed)
  2226                           ;	Chosen strategy is simple_byte
  2227  025D  3A04               	xorlw	4	; case 4
  2228  025E  1903               	skipnz
  2229  025F  2A54               	goto	l1941
  2230  0260  3A03               	xorlw	3	; case 7
  2231  0261  1903               	skipnz
  2232  0262  2A09               	goto	l1911
  2233  0263  2A64               	goto	l1949
  2234  0264                     l1949:	
  2235                           
  2236                           ;UART_RX_SM.c: 184: return ReturnEvent;
  2237  0264  0853               	movf	RunUARTRXService@ReturnEvent,w
  2238  0265  00CC               	movwf	?_RunUARTRXService
  2239  0266  0854               	movf	RunUARTRXService@ReturnEvent+1,w
  2240  0267  00CD               	movwf	?_RunUARTRXService+1
  2241  0268  0855               	movf	RunUARTRXService@ReturnEvent+2,w
  2242  0269  00CE               	movwf	?_RunUARTRXService+2
  2243  026A                     l388:	
  2244  026A  0008               	return
  2245  026B                     __end_of_RunUARTRXService:	
  2246                           
  2247                           	psect	text4
  2248  0465                     __ptext4:	
  2249 ;; *************** function _ES_Timer_InitTimer *****************
  2250 ;; Defined at:
  2251 ;;		line 205 in file "ES_Timers.c"
  2252 ;; Parameters:    Size  Location     Type
  2253 ;;  Num             1    wreg     unsigned char 
  2254 ;;  NewTime         2    0[BANK0 ] unsigned int 
  2255 ;; Auto vars:     Size  Location     Type
  2256 ;;  Num             1    3[BANK0 ] unsigned char 
  2257 ;; Return value:  Size  Location     Type
  2258 ;;                  1    wreg      enum E1162
  2259 ;; Registers used:
  2260 ;;		wreg, fsr0l, fsr0h, status,2, status,0, pclath
  2261 ;; Tracked objects:
  2262 ;;		On entry : 0/0
  2263 ;;		On exit  : 0/0
  2264 ;;		Unchanged: 0/0
  2265 ;; Data sizes:     COMMON   BANK0   BANK1   BANK2
  2266 ;;      Params:         0       2       0       0
  2267 ;;      Locals:         0       1       0       0
  2268 ;;      Temps:          0       1       0       0
  2269 ;;      Totals:         0       4       0       0
  2270 ;;Total ram usage:        4 bytes
  2271 ;; Hardware stack levels used:    1
  2272 ;; Hardware stack levels required when called:    3
  2273 ;; This function calls:
  2274 ;;		Nothing
  2275 ;; This function is called by:
  2276 ;;		_RunUARTRXService
  2277 ;; This function uses a non-reentrant model
  2278 ;;
  2279                           
  2280                           
  2281                           ;psect for function _ES_Timer_InitTimer
  2282  0465                     _ES_Timer_InitTimer:	
  2283                           
  2284                           ;incstack = 0
  2285                           ; Regs used in _ES_Timer_InitTimer: [wreg-fsr0h+status,2+status,0+pclath]
  2286                           ;ES_Timer_InitTimer@Num stored from wreg
  2287  0465  1283               	bcf	3,5	;RP0=0, select bank0
  2288  0466  1303               	bcf	3,6	;RP1=0, select bank0
  2289  0467  00CB               	movwf	ES_Timer_InitTimer@Num
  2290  0468                     l1825:	
  2291                           
  2292                           ;ES_Timers.c: 208: if( (Num >= (sizeof(TMR_TimerArray)/sizeof(TMR_TimerArray[0]))) ||;ES
      +                          _Timers.c: 210: (Timer2PostFunc[Num] == ((pPostFunc)0)) ||;ES_Timers.c: 212: (NewTime ==
      +                           0) )
  2293  0468  3008               	movlw	8
  2294  0469  024B               	subwf	ES_Timer_InitTimer@Num,w
  2295  046A  1803               	skipnc
  2296  046B  2C6D               	goto	u761
  2297  046C  2C6E               	goto	u760
  2298  046D                     u761:	
  2299  046D  2C94               	goto	l235
  2300  046E                     u760:	
  2301  046E                     l1827:	
  2302  046E  084B               	movf	ES_Timer_InitTimer@Num,w
  2303  046F  3E10               	addlw	low ((_Timer2PostFunc-__stringbase)| (0+32768))
  2304  0470  0084               	movwf	4
  2305  0471  118A  2495  118A   	fcall	stringdir
  2306  0474  3A00               	xorlw	0
  2307  0475  1903               	skipnz
  2308  0476  2C78               	goto	u771
  2309  0477  2C79               	goto	u770
  2310  0478                     u771:	
  2311  0478  2C94               	goto	l235
  2312  0479                     u770:	
  2313  0479                     l1829:	
  2314  0479  0848               	movf	ES_Timer_InitTimer@NewTime,w
  2315  047A  0449               	iorwf	ES_Timer_InitTimer@NewTime+1,w
  2316  047B  1D03               	btfss	3,2
  2317  047C  2C7E               	goto	u781
  2318  047D  2C7F               	goto	u780
  2319  047E                     u781:	
  2320  047E  2C80               	goto	l1831
  2321  047F                     u780:	
  2322  047F  2C94               	goto	l235
  2323  0480                     l1831:	
  2324                           
  2325                           ;ES_Timers.c: 214: TMR_TimerArray[Num] = NewTime;
  2326  0480  084B               	movf	ES_Timer_InitTimer@Num,w
  2327  0481  00CA               	movwf	??_ES_Timer_InitTimer
  2328  0482  074A               	addwf	??_ES_Timer_InitTimer,w
  2329  0483  3EA0               	addlw	(low (_TMR_TimerArray| 0))& (0+255)
  2330  0484  0084               	movwf	4
  2331  0485  0848               	movf	ES_Timer_InitTimer@NewTime,w
  2332  0486  1383               	bcf	3,7	;select IRP bank1
  2333  0487  0080               	movwf	0
  2334  0488  0A84               	incf	4,f
  2335  0489  0849               	movf	ES_Timer_InitTimer@NewTime+1,w
  2336  048A  0080               	movwf	0
  2337  048B                     l1833:	
  2338                           
  2339                           ;ES_Timers.c: 215: TMR_ActiveFlags |= BitNum2SetMask[Num];
  2340  048B  084B               	movf	ES_Timer_InitTimer@Num,w
  2341  048C  3E18               	addlw	low ((_BitNum2SetMask-__stringbase)| (0+32768))
  2342  048D  0084               	movwf	4
  2343  048E  118A  2495  118A   	fcall	stringdir
  2344  0491  00CA               	movwf	??_ES_Timer_InitTimer
  2345  0492  084A               	movf	??_ES_Timer_InitTimer,w
  2346  0493  04C3               	iorwf	_TMR_ActiveFlags,f
  2347  0494                     l235:	
  2348  0494  0008               	return
  2349  0495                     __end_of_ES_Timer_InitTimer:	
  2350                           
  2351                           	psect	text5
  2352  05EE                     __ptext5:	
  2353 ;; *************** function _RunSPIService *****************
  2354 ;; Defined at:
  2355 ;;		line 155 in file "SPI_SM.c"
  2356 ;; Parameters:    Size  Location     Type
  2357 ;;  ThisEvent       3    0[BANK0 ] struct ES_Event_t
  2358 ;; Auto vars:     Size  Location     Type
  2359 ;;  ReturnEvent     3    3[BANK0 ] struct ES_Event_t
  2360 ;; Return value:  Size  Location     Type
  2361 ;;                  3    0[BANK0 ] struct ES_Event_t
  2362 ;; Registers used:
  2363 ;;		wreg, status,2
  2364 ;; Tracked objects:
  2365 ;;		On entry : 0/0
  2366 ;;		On exit  : 0/0
  2367 ;;		Unchanged: 0/0
  2368 ;; Data sizes:     COMMON   BANK0   BANK1   BANK2
  2369 ;;      Params:         0       3       0       0
  2370 ;;      Locals:         0       3       0       0
  2371 ;;      Temps:          0       0       0       0
  2372 ;;      Totals:         0       6       0       0
  2373 ;;Total ram usage:        6 bytes
  2374 ;; Hardware stack levels used:    1
  2375 ;; Hardware stack levels required when called:    3
  2376 ;; This function calls:
  2377 ;;		Nothing
  2378 ;; This function is called by:
  2379 ;;		_ES_Run
  2380 ;; This function uses a non-reentrant model
  2381 ;;
  2382                           
  2383                           
  2384                           ;psect for function _RunSPIService
  2385  05EE                     _RunSPIService:	
  2386  05EE                     l1953:	
  2387                           ;incstack = 0
  2388                           ; Regs used in _RunSPIService: [wreg+status,2]
  2389                           
  2390                           
  2391                           ;SPI_SM.c: 156: ES_Event ReturnEvent;;SPI_SM.c: 157: ReturnEvent.EventType = ES_NO_EVENT
      +                          ;
  2392  05EE  1283               	bcf	3,5	;RP0=0, select bank0
  2393  05EF  1303               	bcf	3,6	;RP1=0, select bank0
  2394  05F0  01CB               	clrf	RunSPIService@ReturnEvent
  2395  05F1                     l1955:	
  2396                           
  2397                           ;SPI_SM.c: 159: return ReturnEvent;
  2398  05F1  084B               	movf	RunSPIService@ReturnEvent,w
  2399  05F2  00C8               	movwf	?_RunSPIService
  2400  05F3  084C               	movf	RunSPIService@ReturnEvent+1,w
  2401  05F4  00C9               	movwf	?_RunSPIService+1
  2402  05F5  084D               	movf	RunSPIService@ReturnEvent+2,w
  2403  05F6  00CA               	movwf	?_RunSPIService+2
  2404  05F7                     l488:	
  2405  05F7  0008               	return
  2406  05F8                     __end_of_RunSPIService:	
  2407                           
  2408                           	psect	text6
  2409  05E3                     __ptext6:	
  2410 ;; *************** function _IsTimerPending *****************
  2411 ;; Defined at:
  2412 ;;		line 78 in file "ES_Port.c"
  2413 ;; Parameters:    Size  Location     Type
  2414 ;;		None
  2415 ;; Auto vars:     Size  Location     Type
  2416 ;;		None
  2417 ;; Return value:  Size  Location     Type
  2418 ;;                  1    wreg      unsigned char 
  2419 ;; Registers used:
  2420 ;;		wreg, status,2, status,0
  2421 ;; Tracked objects:
  2422 ;;		On entry : 0/0
  2423 ;;		On exit  : 0/0
  2424 ;;		Unchanged: 0/0
  2425 ;; Data sizes:     COMMON   BANK0   BANK1   BANK2
  2426 ;;      Params:         0       0       0       0
  2427 ;;      Locals:         0       0       0       0
  2428 ;;      Temps:          0       0       0       0
  2429 ;;      Totals:         0       0       0       0
  2430 ;;Total ram usage:        0 bytes
  2431 ;; Hardware stack levels used:    1
  2432 ;; Hardware stack levels required when called:    3
  2433 ;; This function calls:
  2434 ;;		Nothing
  2435 ;; This function is called by:
  2436 ;;		_ES_Run
  2437 ;; This function uses a non-reentrant model
  2438 ;;
  2439                           
  2440                           
  2441                           ;psect for function _IsTimerPending
  2442  05E3                     _IsTimerPending:	
  2443  05E3                     l1979:	
  2444                           ;incstack = 0
  2445                           ; Regs used in _IsTimerPending: [wreg+status,2+status,0]
  2446                           
  2447                           
  2448                           ;ES_Port.c: 79: if (TickCount > 0) {
  2449  05E3  087C               	movf	_TickCount,w
  2450  05E4  1903               	btfsc	3,2
  2451  05E5  2DE7               	goto	u891
  2452  05E6  2DE8               	goto	u890
  2453  05E7                     u891:	
  2454  05E7  2DEC               	goto	l1989
  2455  05E8                     u890:	
  2456  05E8                     l1981:	
  2457                           
  2458                           ;ES_Port.c: 80: TickCount--;
  2459  05E8  3001               	movlw	1
  2460  05E9  02FC               	subwf	_TickCount,f
  2461  05EA                     l1983:	
  2462                           
  2463                           ;ES_Port.c: 81: return (1);
  2464  05EA  3001               	movlw	1
  2465  05EB  2DED               	goto	l168
  2466  05EC                     l1989:	
  2467                           
  2468                           ;ES_Port.c: 83: return (0);
  2469  05EC  3000               	movlw	0
  2470  05ED                     l168:	
  2471  05ED  0008               	return
  2472  05EE                     __end_of_IsTimerPending:	
  2473                           
  2474                           	psect	text7
  2475  0135                     __ptext7:	
  2476 ;; *************** function _ES_Timer_RTI_Resp *****************
  2477 ;; Defined at:
  2478 ;;		line 259 in file "ES_Timers.c"
  2479 ;; Parameters:    Size  Location     Type
  2480 ;;		None
  2481 ;; Auto vars:     Size  Location     Type
  2482 ;;		None
  2483 ;; Return value:  Size  Location     Type
  2484 ;;                  1    wreg      void 
  2485 ;; Registers used:
  2486 ;;		wreg, fsr0l, fsr0h, status,2, status,0, pclath, cstack
  2487 ;; Tracked objects:
  2488 ;;		On entry : 0/0
  2489 ;;		On exit  : 0/0
  2490 ;;		Unchanged: 0/0
  2491 ;; Data sizes:     COMMON   BANK0   BANK1   BANK2
  2492 ;;      Params:         0       0       0       0
  2493 ;;      Locals:         0       0       0       0
  2494 ;;      Temps:          0       3       0       0
  2495 ;;      Totals:         0       3       0       0
  2496 ;;Total ram usage:        3 bytes
  2497 ;; Hardware stack levels used:    1
  2498 ;; Hardware stack levels required when called:    7
  2499 ;; This function calls:
  2500 ;;		Absolute function
  2501 ;;		_ES_GetMSBitSet
  2502 ;;		_PostUARTRXService
  2503 ;; This function is called by:
  2504 ;;		_ES_Run
  2505 ;; This function uses a non-reentrant model
  2506 ;;
  2507                           
  2508                           
  2509                           ;psect for function _ES_Timer_RTI_Resp
  2510  0135                     _ES_Timer_RTI_Resp:	
  2511  0135                     l1959:	
  2512                           ;incstack = 0
  2513 ;; using string table level
  2514                           ; Regs used in _ES_Timer_RTI_Resp: [wreg-fsr0h+status,2+status,0+pclath+cstack]
  2515                           
  2516                           
  2517                           ;ES_Timers.c: 260: static Tflag_t NeedsProcessing;;ES_Timers.c: 261: static uint8_t Next
      +                          Timer2Process;;ES_Timers.c: 262: static ES_Event NewEvent;;ES_Timers.c: 264: ++time;
  2518  0135  3001               	movlw	1
  2519  0136  1283               	bcf	3,5	;RP0=0, select bank0
  2520  0137  1303               	bcf	3,6	;RP1=0, select bank0
  2521  0138  07B5               	addwf	_time,f	;volatile
  2522  0139  1803               	skipnc
  2523  013A  0AB6               	incf	_time+1,f	;volatile
  2524  013B  3000               	movlw	0
  2525  013C  07B6               	addwf	_time+1,f	;volatile
  2526  013D                     l1961:	
  2527                           
  2528                           ;ES_Timers.c: 265: if (TMR_ActiveFlags != 0) {
  2529  013D  0843               	movf	_TMR_ActiveFlags,w
  2530  013E  1903               	btfsc	3,2
  2531  013F  2941               	goto	u861
  2532  0140  2942               	goto	u860
  2533  0141                     u861:	
  2534  0141  299D               	goto	l251
  2535  0142                     u860:	
  2536  0142                     l1963:	
  2537                           
  2538                           ;ES_Timers.c: 267: NeedsProcessing = TMR_ActiveFlags;
  2539  0142  0843               	movf	_TMR_ActiveFlags,w
  2540  0143  00DD               	movwf	??_ES_Timer_RTI_Resp
  2541  0144  085D               	movf	??_ES_Timer_RTI_Resp,w
  2542  0145  00C2               	movwf	ES_Timer_RTI_Resp@NeedsProcessing
  2543  0146                     l1965:	
  2544                           
  2545                           ;ES_Timers.c: 270: NextTimer2Process = ES_GetMSBitSet(NeedsProcessing);
  2546  0146  0842               	movf	ES_Timer_RTI_Resp@NeedsProcessing,w
  2547  0147  118A  2375  118A   	fcall	_ES_GetMSBitSet
  2548  014A  1283               	bcf	3,5	;RP0=0, select bank0
  2549  014B  1303               	bcf	3,6	;RP1=0, select bank0
  2550  014C  00DD               	movwf	??_ES_Timer_RTI_Resp
  2551  014D  085D               	movf	??_ES_Timer_RTI_Resp,w
  2552  014E  00C1               	movwf	ES_Timer_RTI_Resp@NextTimer2Process
  2553  014F                     l1967:	
  2554                           
  2555                           ;ES_Timers.c: 272: if (--TMR_TimerArray[NextTimer2Process] == 0) {
  2556  014F  0841               	movf	ES_Timer_RTI_Resp@NextTimer2Process,w
  2557  0150  00DD               	movwf	??_ES_Timer_RTI_Resp
  2558  0151  075D               	addwf	??_ES_Timer_RTI_Resp,w
  2559  0152  3EA0               	addlw	(low (_TMR_TimerArray| 0))& (0+255)
  2560  0153  0084               	movwf	4
  2561  0154  3001               	movlw	1
  2562  0155  1383               	bcf	3,7	;select IRP bank1
  2563  0156  0280               	subwf	0,f
  2564  0157  0F84               	incfsz	4,f
  2565  0158  3000               	movlw	0
  2566  0159  1C03               	skipc
  2567  015A  0380               	decf	0,f
  2568  015B  0280               	subwf	0,f
  2569  015C  0384               	decf	4,f
  2570  015D  0800               	movf	0,w
  2571  015E  00DE               	movwf	??_ES_Timer_RTI_Resp+1
  2572  015F  0A84               	incf	4,f
  2573  0160  0800               	movf	0,w
  2574  0161  00DF               	movwf	??_ES_Timer_RTI_Resp+2
  2575  0162  085E               	movf	??_ES_Timer_RTI_Resp+1,w
  2576  0163  045F               	iorwf	??_ES_Timer_RTI_Resp+2,w
  2577  0164  1D03               	btfss	3,2
  2578  0165  2967               	goto	u871
  2579  0166  2968               	goto	u870
  2580  0167                     u871:	
  2581  0167  298E               	goto	l1975
  2582  0168                     u870:	
  2583  0168                     l1969:	
  2584                           
  2585                           ;ES_Timers.c: 273: NewEvent.EventType = ES_TIMEOUT;
  2586  0168  3004               	movlw	4
  2587  0169  00DD               	movwf	??_ES_Timer_RTI_Resp
  2588  016A  085D               	movf	??_ES_Timer_RTI_Resp,w
  2589  016B  00B0               	movwf	ES_Timer_RTI_Resp@NewEvent
  2590                           
  2591                           ;ES_Timers.c: 274: NewEvent.EventParam = NextTimer2Process;
  2592  016C  0841               	movf	ES_Timer_RTI_Resp@NextTimer2Process,w
  2593  016D  00DD               	movwf	??_ES_Timer_RTI_Resp
  2594  016E  01DE               	clrf	??_ES_Timer_RTI_Resp+1
  2595  016F  085D               	movf	??_ES_Timer_RTI_Resp,w
  2596  0170  00B1               	movwf	ES_Timer_RTI_Resp@NewEvent+1
  2597  0171  085E               	movf	??_ES_Timer_RTI_Resp+1,w
  2598  0172  00B2               	movwf	ES_Timer_RTI_Resp@NewEvent+2
  2599  0173                     l1971:	
  2600                           
  2601                           ;ES_Timers.c: 276: Timer2PostFunc[NextTimer2Process](NewEvent);
  2602  0173  0830               	movf	ES_Timer_RTI_Resp@NewEvent,w
  2603  0174  00DA               	movwf	PostUARTRXService@ThisEvent
  2604  0175  0831               	movf	ES_Timer_RTI_Resp@NewEvent+1,w
  2605  0176  00DB               	movwf	PostUARTRXService@ThisEvent+1
  2606  0177  0832               	movf	ES_Timer_RTI_Resp@NewEvent+2,w
  2607  0178  00DC               	movwf	PostUARTRXService@ThisEvent+2
  2608  0179  0841               	movf	ES_Timer_RTI_Resp@NextTimer2Process,w
  2609  017A  3E10               	addlw	low ((_Timer2PostFunc-__stringbase)| (0+32768))
  2610  017B  0084               	movwf	4
  2611  017C  118A  2495  118A   	fcall	stringdir
  2612  017F  118A  2030  118A   	fcall	fptable
  2613  0182                     l1973:	
  2614                           
  2615                           ;ES_Timers.c: 278: TMR_ActiveFlags &= ~BitNum2SetMask[NextTimer2Process];
  2616  0182  1283               	bcf	3,5	;RP0=0, select bank0
  2617  0183  1303               	bcf	3,6	;RP1=0, select bank0
  2618  0184  0841               	movf	ES_Timer_RTI_Resp@NextTimer2Process,w
  2619  0185  3E18               	addlw	low ((_BitNum2SetMask-__stringbase)| (0+32768))
  2620  0186  0084               	movwf	4
  2621  0187  118A  2495  118A   	fcall	stringdir
  2622  018A  3AFF               	xorlw	255
  2623  018B  00DD               	movwf	??_ES_Timer_RTI_Resp
  2624  018C  085D               	movf	??_ES_Timer_RTI_Resp,w
  2625  018D  05C3               	andwf	_TMR_ActiveFlags,f
  2626  018E                     l1975:	
  2627                           
  2628                           ;ES_Timers.c: 279: };ES_Timers.c: 281: NeedsProcessing &= ~BitNum2SetMask[NextTimer2Proc
      +                          ess];
  2629  018E  0841               	movf	ES_Timer_RTI_Resp@NextTimer2Process,w
  2630  018F  3E18               	addlw	low ((_BitNum2SetMask-__stringbase)| (0+32768))
  2631  0190  0084               	movwf	4
  2632  0191  118A  2495  118A   	fcall	stringdir
  2633  0194  3AFF               	xorlw	255
  2634  0195  00DD               	movwf	??_ES_Timer_RTI_Resp
  2635  0196  085D               	movf	??_ES_Timer_RTI_Resp,w
  2636  0197  05C2               	andwf	ES_Timer_RTI_Resp@NeedsProcessing,f
  2637  0198                     l1977:	
  2638                           
  2639                           ;ES_Timers.c: 282: } while (NeedsProcessing != 0);
  2640  0198  0842               	movf	ES_Timer_RTI_Resp@NeedsProcessing,w
  2641  0199  1D03               	btfss	3,2
  2642  019A  299C               	goto	u881
  2643  019B  299D               	goto	u880
  2644  019C                     u881:	
  2645  019C  2946               	goto	l1965
  2646  019D                     u880:	
  2647  019D                     l251:	
  2648  019D  0008               	return
  2649  019E                     __end_of_ES_Timer_RTI_Resp:	
  2650                           
  2651                           	psect	text8
  2652  05CB                     __ptext8:	
  2653 ;; *************** function _PostUARTRXService *****************
  2654 ;; Defined at:
  2655 ;;		line 119 in file "UART_RX_SM.c"
  2656 ;; Parameters:    Size  Location     Type
  2657 ;;  ThisEvent       3   18[BANK0 ] struct ES_Event_t
  2658 ;; Auto vars:     Size  Location     Type
  2659 ;;		None
  2660 ;; Return value:  Size  Location     Type
  2661 ;;                  1    wreg      unsigned char 
  2662 ;; Registers used:
  2663 ;;		wreg, fsr0l, fsr0h, status,2, status,0, pclath, cstack
  2664 ;; Tracked objects:
  2665 ;;		On entry : 0/0
  2666 ;;		On exit  : 0/0
  2667 ;;		Unchanged: 0/0
  2668 ;; Data sizes:     COMMON   BANK0   BANK1   BANK2
  2669 ;;      Params:         0       3       0       0
  2670 ;;      Locals:         0       0       0       0
  2671 ;;      Temps:          0       0       0       0
  2672 ;;      Totals:         0       3       0       0
  2673 ;;Total ram usage:        3 bytes
  2674 ;; Hardware stack levels used:    1
  2675 ;; Hardware stack levels required when called:    6
  2676 ;; This function calls:
  2677 ;;		_ES_PostToService
  2678 ;; This function is called by:
  2679 ;;		_ES_Timer_RTI_Resp
  2680 ;; This function uses a non-reentrant model
  2681 ;;
  2682                           
  2683                           
  2684                           ;psect for function _PostUARTRXService
  2685  05CB                     _PostUARTRXService:	
  2686  05CB                     l1837:	
  2687                           ;incstack = 0
  2688                           ; Regs used in _PostUARTRXService: [wreg-fsr0h+status,2+status,0+pclath+cstack]
  2689                           
  2690                           
  2691                           ;UART_RX_SM.c: 120: return ES_PostToService(MyPriority, ThisEvent);;	Return value of _Po
      +                          stUARTRXService is never used
  2692  05CB  1283               	bcf	3,5	;RP0=0, select bank0
  2693  05CC  1303               	bcf	3,6	;RP1=0, select bank0
  2694  05CD  085A               	movf	PostUARTRXService@ThisEvent,w
  2695  05CE  00D5               	movwf	ES_PostToService@TheEvent
  2696  05CF  085B               	movf	PostUARTRXService@ThisEvent+1,w
  2697  05D0  00D6               	movwf	ES_PostToService@TheEvent+1
  2698  05D1  085C               	movf	PostUARTRXService@ThisEvent+2,w
  2699  05D2  00D7               	movwf	ES_PostToService@TheEvent+2
  2700  05D3  0840               	movf	_MyPriority,w
  2701  05D4  118A  24C3  118A   	fcall	_ES_PostToService
  2702  05D7                     l375:	
  2703  05D7  0008               	return
  2704  05D8                     __end_of_PostUARTRXService:	
  2705                           
  2706                           	psect	text9
  2707  0375                     __ptext9:	
  2708 ;; *************** function _ES_GetMSBitSet *****************
  2709 ;; Defined at:
  2710 ;;		line 78 in file "ES_LookupTables.c"
  2711 ;; Parameters:    Size  Location     Type
  2712 ;;  Val2Check       1    wreg     unsigned char 
  2713 ;; Auto vars:     Size  Location     Type
  2714 ;;  Val2Check       1    3[BANK0 ] unsigned char 
  2715 ;;  LoopCntr        1    6[BANK0 ] char 
  2716 ;;  Nybble2Test     1    5[BANK0 ] unsigned char 
  2717 ;;  ReturnVal       1    4[BANK0 ] unsigned char 
  2718 ;; Return value:  Size  Location     Type
  2719 ;;                  1    wreg      unsigned char 
  2720 ;; Registers used:
  2721 ;;		wreg, fsr0l, fsr0h, status,2, status,0, pclath
  2722 ;; Tracked objects:
  2723 ;;		On entry : 0/0
  2724 ;;		On exit  : 0/0
  2725 ;;		Unchanged: 0/0
  2726 ;; Data sizes:     COMMON   BANK0   BANK1   BANK2
  2727 ;;      Params:         0       0       0       0
  2728 ;;      Locals:         0       4       0       0
  2729 ;;      Temps:          0       3       0       0
  2730 ;;      Totals:         0       7       0       0
  2731 ;;Total ram usage:        7 bytes
  2732 ;; Hardware stack levels used:    1
  2733 ;; Hardware stack levels required when called:    3
  2734 ;; This function calls:
  2735 ;;		Nothing
  2736 ;; This function is called by:
  2737 ;;		_ES_Run
  2738 ;;		_ES_Timer_RTI_Resp
  2739 ;; This function uses a non-reentrant model
  2740 ;;
  2741                           
  2742                           
  2743                           ;psect for function _ES_GetMSBitSet
  2744  0375                     _ES_GetMSBitSet:	
  2745                           
  2746                           ;incstack = 0
  2747                           ; Regs used in _ES_GetMSBitSet: [wreg-fsr0h+status,2+status,0+pclath]
  2748                           ;ES_GetMSBitSet@Val2Check stored from wreg
  2749  0375  1283               	bcf	3,5	;RP0=0, select bank0
  2750  0376  1303               	bcf	3,6	;RP1=0, select bank0
  2751  0377  00CB               	movwf	ES_GetMSBitSet@Val2Check
  2752  0378                     l1805:	
  2753                           
  2754                           ;ES_LookupTables.c: 80: int8_t LoopCntr;;ES_LookupTables.c: 81: uint8_t Nybble2Test;;ES_
      +                          LookupTables.c: 82: uint8_t ReturnVal = 128;
  2755  0378  3080               	movlw	128
  2756  0379  00C8               	movwf	??_ES_GetMSBitSet
  2757  037A  0848               	movf	??_ES_GetMSBitSet,w
  2758  037B  00CC               	movwf	ES_GetMSBitSet@ReturnVal
  2759  037C                     l1807:	
  2760                           
  2761                           ;ES_LookupTables.c: 85: for( LoopCntr = sizeof(Val2Check) * (8/4)-1;
  2762  037C  01CE               	clrf	ES_GetMSBitSet@LoopCntr
  2763  037D  0ACE               	incf	ES_GetMSBitSet@LoopCntr,f
  2764  037E                     l1813:	
  2765                           
  2766                           ;ES_LookupTables.c: 88: Nybble2Test = (uint8_t);ES_LookupTables.c: 89: ((Val2Check >> (u
      +                          int8_t)(LoopCntr * 4)) &;ES_LookupTables.c: 90: 0x0F);
  2767  037E  084B               	movf	ES_GetMSBitSet@Val2Check,w
  2768  037F  00C8               	movwf	??_ES_GetMSBitSet
  2769  0380  084E               	movf	ES_GetMSBitSet@LoopCntr,w
  2770  0381  00C9               	movwf	??_ES_GetMSBitSet+1
  2771  0382  3001               	movlw	1
  2772  0383                     u715:	
  2773  0383  1003               	clrc
  2774  0384  0DC9               	rlf	??_ES_GetMSBitSet+1,f
  2775  0385  3EFF               	addlw	-1
  2776  0386  1D03               	skipz
  2777  0387  2B83               	goto	u715
  2778  0388  1003               	clrc
  2779  0389  0D49               	rlf	??_ES_GetMSBitSet+1,w
  2780  038A  3E01               	addlw	1
  2781  038B  2B8E               	goto	u724
  2782  038C                     u725:	
  2783  038C  1003               	clrc
  2784  038D  0CC8               	rrf	??_ES_GetMSBitSet,f
  2785  038E                     u724:	
  2786  038E  3EFF               	addlw	-1
  2787  038F  1D03               	skipz
  2788  0390  2B8C               	goto	u725
  2789  0391  0848               	movf	??_ES_GetMSBitSet,w
  2790  0392  390F               	andlw	15
  2791  0393  00CA               	movwf	??_ES_GetMSBitSet+2
  2792  0394  084A               	movf	??_ES_GetMSBitSet+2,w
  2793  0395  00CD               	movwf	ES_GetMSBitSet@Nybble2Test
  2794                           
  2795                           ;ES_LookupTables.c: 91: if ( Nybble2Test != 0){
  2796  0396  084D               	movf	ES_GetMSBitSet@Nybble2Test,w
  2797  0397  1903               	btfsc	3,2
  2798  0398  2B9A               	goto	u731
  2799  0399  2B9B               	goto	u730
  2800  039A                     u731:	
  2801  039A  2BAE               	goto	l1817
  2802  039B                     u730:	
  2803  039B                     l1815:	
  2804                           
  2805                           ;ES_LookupTables.c: 93: ReturnVal = Nybble2MSBitNum[Nybble2Test-1] +;ES_LookupTables.c: 
      +                          94: (LoopCntr * 4);
  2806  039B  084E               	movf	ES_GetMSBitSet@LoopCntr,w
  2807  039C  00C8               	movwf	??_ES_GetMSBitSet
  2808  039D  3002               	movlw	2
  2809  039E                     u745:	
  2810  039E  1003               	clrc
  2811  039F  0DC8               	rlf	??_ES_GetMSBitSet,f
  2812  03A0  3EFF               	addlw	-1
  2813  03A1  1D03               	skipz
  2814  03A2  2B9E               	goto	u745
  2815  03A3  084D               	movf	ES_GetMSBitSet@Nybble2Test,w
  2816  03A4  3E00               	addlw	low (((_Nybble2MSBitNum-__stringbase)| (0+32768)+255))
  2817  03A5  0084               	movwf	4
  2818  03A6  118A  2495  118A   	fcall	stringdir
  2819  03A9  0748               	addwf	??_ES_GetMSBitSet,w
  2820  03AA  00C9               	movwf	??_ES_GetMSBitSet+1
  2821  03AB  0849               	movf	??_ES_GetMSBitSet+1,w
  2822  03AC  00CC               	movwf	ES_GetMSBitSet@ReturnVal
  2823                           
  2824                           ;ES_LookupTables.c: 95: break;
  2825  03AD  2BB6               	goto	l1821
  2826  03AE                     l1817:	
  2827  03AE  30FF               	movlw	255
  2828  03AF  00C8               	movwf	??_ES_GetMSBitSet
  2829  03B0  0848               	movf	??_ES_GetMSBitSet,w
  2830  03B1  07CE               	addwf	ES_GetMSBitSet@LoopCntr,f
  2831  03B2                     l1819:	
  2832  03B2  1FCE               	btfss	ES_GetMSBitSet@LoopCntr,7
  2833  03B3  2BB5               	goto	u751
  2834  03B4  2BB6               	goto	u750
  2835  03B5                     u751:	
  2836  03B5  2B7E               	goto	l1813
  2837  03B6                     u750:	
  2838  03B6                     l1821:	
  2839                           
  2840                           ;ES_LookupTables.c: 96: };ES_LookupTables.c: 97: };ES_LookupTables.c: 98: return ReturnV
      +                          al;
  2841  03B6  084C               	movf	ES_GetMSBitSet@ReturnVal,w
  2842  03B7                     l107:	
  2843  03B7  0008               	return
  2844  03B8                     __end_of_ES_GetMSBitSet:	
  2845                           
  2846                           	psect	text10
  2847  019E                     __ptext10:	
  2848 ;; *************** function _ES_DeQueue *****************
  2849 ;; Defined at:
  2850 ;;		line 125 in file "ES_Queue.c"
  2851 ;; Parameters:    Size  Location     Type
  2852 ;;  pBlock          1    wreg     PTR struct ES_Event_t
  2853 ;;		 -> Queue1(12), Queue0(12), 
  2854 ;;  pReturnEvent    1    4[BANK0 ] PTR struct ES_Event_t
  2855 ;;		 -> ES_Run@ThisEvent(3), 
  2856 ;; Auto vars:     Size  Location     Type
  2857 ;;  pBlock          1   12[BANK0 ] PTR struct ES_Event_t
  2858 ;;		 -> Queue1(12), Queue0(12), 
  2859 ;;  pThisQueue      1   13[BANK0 ] PTR struct .
  2860 ;;		 -> Queue1(12), Queue0(12), 
  2861 ;;  NumLeft         1   11[BANK0 ] unsigned char 
  2862 ;;  saveCrit        1   10[BANK0 ] unsigned char 
  2863 ;; Return value:  Size  Location     Type
  2864 ;;                  1    wreg      unsigned char 
  2865 ;; Registers used:
  2866 ;;		wreg, fsr0l, fsr0h, status,2, status,0, pclath, cstack
  2867 ;; Tracked objects:
  2868 ;;		On entry : 0/0
  2869 ;;		On exit  : 0/0
  2870 ;;		Unchanged: 0/0
  2871 ;; Data sizes:     COMMON   BANK0   BANK1   BANK2
  2872 ;;      Params:         0       1       0       0
  2873 ;;      Locals:         0       4       0       0
  2874 ;;      Temps:          0       5       0       0
  2875 ;;      Totals:         0      10       0       0
  2876 ;;Total ram usage:       10 bytes
  2877 ;; Hardware stack levels used:    1
  2878 ;; Hardware stack levels required when called:    4
  2879 ;; This function calls:
  2880 ;;		___bmul
  2881 ;; This function is called by:
  2882 ;;		_ES_Run
  2883 ;; This function uses a non-reentrant model
  2884 ;;
  2885                           
  2886                           
  2887                           ;psect for function _ES_DeQueue
  2888  019E                     _ES_DeQueue:	
  2889                           
  2890                           ;incstack = 0
  2891                           ; Regs used in _ES_DeQueue: [wreg-fsr0h+status,2+status,0+pclath+cstack]
  2892                           ;ES_DeQueue@pBlock stored from wreg
  2893  019E  1283               	bcf	3,5	;RP0=0, select bank0
  2894  019F  1303               	bcf	3,6	;RP1=0, select bank0
  2895  01A0  00D4               	movwf	ES_DeQueue@pBlock
  2896  01A1                     l1879:	
  2897                           
  2898                           ;ES_Queue.c: 127: unsigned char saveCrit;;ES_Queue.c: 128: pQueue_t pThisQueue;;ES_Queue
      +                          .c: 129: uint8_t NumLeft;;ES_Queue.c: 131: pThisQueue = (pQueue_t)pBlock;
  2899  01A1  0854               	movf	ES_DeQueue@pBlock,w
  2900  01A2  00CD               	movwf	??_ES_DeQueue
  2901  01A3  084D               	movf	??_ES_DeQueue,w
  2902  01A4  00D5               	movwf	ES_DeQueue@pThisQueue
  2903  01A5                     l1881:	
  2904                           
  2905                           ;ES_Queue.c: 132: if ( pThisQueue->NumEntries > 0)
  2906  01A5  0855               	movf	ES_DeQueue@pThisQueue,w
  2907  01A6  3E02               	addlw	2
  2908  01A7  0084               	movwf	4
  2909  01A8  1383               	bcf	3,7	;select IRP bank0
  2910  01A9  0800               	movf	0,w
  2911  01AA  1903               	btfsc	3,2
  2912  01AB  29AD               	goto	u801
  2913  01AC  29AE               	goto	u800
  2914  01AD                     u801:	
  2915  01AD  29FA               	goto	l1899
  2916  01AE                     u800:	
  2917  01AE                     l1883:	
  2918  01AE  080B               	movf	11,w	;volatile
  2919  01AF  00CD               	movwf	??_ES_DeQueue
  2920  01B0  084D               	movf	??_ES_DeQueue,w
  2921  01B1  00D2               	movwf	ES_DeQueue@saveCrit
  2922  01B2                     l1885:	
  2923  01B2  138B               	bcf	11,7	;volatile
  2924  01B3                     l1887:	
  2925                           
  2926                           ;ES_Queue.c: 135: *pReturnEvent = pBlock[ 1 + pThisQueue->CurrentIndex ];
  2927  01B3  3003               	movlw	3
  2928  01B4  00CD               	movwf	??_ES_DeQueue
  2929  01B5  084D               	movf	??_ES_DeQueue,w
  2930  01B6  00C8               	movwf	___bmul@multiplicand
  2931  01B7  0A55               	incf	ES_DeQueue@pThisQueue,w
  2932  01B8  0084               	movwf	4
  2933  01B9  0800               	movf	0,w
  2934  01BA  118A  257B  118A   	fcall	___bmul
  2935  01BD  1283               	bcf	3,5	;RP0=0, select bank0
  2936  01BE  1303               	bcf	3,6	;RP1=0, select bank0
  2937  01BF  0754               	addwf	ES_DeQueue@pBlock,w
  2938  01C0  00CE               	movwf	??_ES_DeQueue+1
  2939  01C1  084E               	movf	??_ES_DeQueue+1,w
  2940  01C2  3E03               	addlw	3
  2941  01C3  0084               	movwf	4
  2942  01C4  1383               	bcf	3,7	;select IRP bank0
  2943  01C5  0800               	movf	0,w
  2944  01C6  00CF               	movwf	??_ES_DeQueue+2
  2945  01C7  0A84               	incf	4,f
  2946  01C8  0800               	movf	0,w
  2947  01C9  00D0               	movwf	??_ES_DeQueue+3
  2948  01CA  0A84               	incf	4,f
  2949  01CB  0800               	movf	0,w
  2950  01CC  00D1               	movwf	??_ES_DeQueue+4
  2951  01CD  084C               	movf	ES_DeQueue@pReturnEvent,w
  2952  01CE  0084               	movwf	4
  2953  01CF  084F               	movf	??_ES_DeQueue+2,w
  2954  01D0  0080               	movwf	0
  2955  01D1  0A84               	incf	4,f
  2956  01D2  0850               	movf	??_ES_DeQueue+3,w
  2957  01D3  0080               	movwf	0
  2958  01D4  0A84               	incf	4,f
  2959  01D5  0851               	movf	??_ES_DeQueue+4,w
  2960  01D6  0080               	movwf	0
  2961  01D7                     l1889:	
  2962                           
  2963                           ;ES_Queue.c: 137: pThisQueue->CurrentIndex++;
  2964  01D7  3001               	movlw	1
  2965  01D8  00CD               	movwf	??_ES_DeQueue
  2966  01D9  0A55               	incf	ES_DeQueue@pThisQueue,w
  2967  01DA  0084               	movwf	4
  2968  01DB  084D               	movf	??_ES_DeQueue,w
  2969  01DC  0780               	addwf	0,f
  2970  01DD                     l1891:	
  2971                           
  2972                           ;ES_Queue.c: 138: if (pThisQueue->CurrentIndex >= pThisQueue->QueueSize)
  2973  01DD  0855               	movf	ES_DeQueue@pThisQueue,w
  2974  01DE  0084               	movwf	4
  2975  01DF  0800               	movf	0,w
  2976  01E0  00CD               	movwf	??_ES_DeQueue
  2977  01E1  0A55               	incf	ES_DeQueue@pThisQueue,w
  2978  01E2  0084               	movwf	4
  2979  01E3  0800               	movf	0,w
  2980  01E4  00CE               	movwf	??_ES_DeQueue+1
  2981  01E5  084D               	movf	??_ES_DeQueue,w
  2982  01E6  024E               	subwf	??_ES_DeQueue+1,w
  2983  01E7  1C03               	skipc
  2984  01E8  29EA               	goto	u811
  2985  01E9  29EB               	goto	u810
  2986  01EA                     u811:	
  2987  01EA  29EE               	goto	l1895
  2988  01EB                     u810:	
  2989  01EB                     l1893:	
  2990                           
  2991                           ;ES_Queue.c: 139: pThisQueue->CurrentIndex = 0;
  2992  01EB  0A55               	incf	ES_DeQueue@pThisQueue,w
  2993  01EC  0084               	movwf	4
  2994  01ED  0180               	clrf	0
  2995  01EE                     l1895:	
  2996                           
  2997                           ;ES_Queue.c: 141: NumLeft = --pThisQueue->NumEntries;
  2998  01EE  0855               	movf	ES_DeQueue@pThisQueue,w
  2999  01EF  3E02               	addlw	2
  3000  01F0  0084               	movwf	4
  3001  01F1  3001               	movlw	1
  3002  01F2  0280               	subwf	0,f
  3003  01F3  0800               	movf	0,w
  3004  01F4  00CD               	movwf	??_ES_DeQueue
  3005  01F5  084D               	movf	??_ES_DeQueue,w
  3006  01F6  00D3               	movwf	ES_DeQueue@NumLeft
  3007  01F7                     l1897:	
  3008                           
  3009                           ;ES_Queue.c: 142: {INTCON = saveCrit;};
  3010  01F7  0852               	movf	ES_DeQueue@saveCrit,w
  3011  01F8  008B               	movwf	11	;volatile
  3012                           
  3013                           ;ES_Queue.c: 143: }else {
  3014  01F9  2A03               	goto	l1905
  3015  01FA                     l1899:	
  3016                           
  3017                           ;ES_Queue.c: 144: (*pReturnEvent).EventType = ES_NO_EVENT;
  3018  01FA  084C               	movf	ES_DeQueue@pReturnEvent,w
  3019  01FB  0084               	movwf	4
  3020  01FC  0180               	clrf	0
  3021  01FD                     l1901:	
  3022                           
  3023                           ;ES_Queue.c: 145: (*pReturnEvent).EventParam = 0;
  3024  01FD  0A4C               	incf	ES_DeQueue@pReturnEvent,w
  3025  01FE  0084               	movwf	4
  3026  01FF  0180               	clrf	0
  3027  0200  0A84               	incf	4,f
  3028  0201  0180               	clrf	0
  3029  0202                     l1903:	
  3030                           
  3031                           ;ES_Queue.c: 146: NumLeft = 0;
  3032  0202  01D3               	clrf	ES_DeQueue@NumLeft
  3033  0203                     l1905:	
  3034                           
  3035                           ;ES_Queue.c: 147: };ES_Queue.c: 148: return NumLeft;
  3036  0203  0853               	movf	ES_DeQueue@NumLeft,w
  3037  0204                     l194:	
  3038  0204  0008               	return
  3039  0205                     __end_of_ES_DeQueue:	
  3040                           
  3041                           	psect	text11
  3042  04F1                     __ptext11:	
  3043 ;; *************** function _CheckUARTRXEvent *****************
  3044 ;; Defined at:
  3045 ;;		line 352 in file "UART_RX_SM.c"
  3046 ;; Parameters:    Size  Location     Type
  3047 ;;		None
  3048 ;; Auto vars:     Size  Location     Type
  3049 ;;  CommEvent       3   19[BANK0 ] struct ES_Event_t
  3050 ;; Return value:  Size  Location     Type
  3051 ;;                  1    wreg      unsigned char 
  3052 ;; Registers used:
  3053 ;;		wreg, fsr0l, fsr0h, status,2, status,0, pclath, cstack
  3054 ;; Tracked objects:
  3055 ;;		On entry : 0/0
  3056 ;;		On exit  : 0/0
  3057 ;;		Unchanged: 0/0
  3058 ;; Data sizes:     COMMON   BANK0   BANK1   BANK2
  3059 ;;      Params:         0       0       0       0
  3060 ;;      Locals:         0       3       0       0
  3061 ;;      Temps:          0       1       0       0
  3062 ;;      Totals:         0       4       0       0
  3063 ;;Total ram usage:        4 bytes
  3064 ;; Hardware stack levels used:    1
  3065 ;; Hardware stack levels required when called:    6
  3066 ;; This function calls:
  3067 ;;		_ES_PostToService
  3068 ;; This function is called by:
  3069 ;;		_ES_Run
  3070 ;;		_ES_CheckUserEvents
  3071 ;; This function uses a non-reentrant model
  3072 ;;
  3073                           
  3074                           
  3075                           ;psect for function _CheckUARTRXEvent
  3076  04F1                     _CheckUARTRXEvent:	
  3077  04F1                     l1841:	
  3078                           ;incstack = 0
  3079                           ; Regs used in _CheckUARTRXEvent: [wreg-fsr0h+status,2+status,0+pclath+cstack]
  3080                           
  3081                           
  3082                           ;UART_RX_SM.c: 353: if (RXFlag)
  3083  04F1  1283               	bcf	3,5	;RP0=0, select bank0
  3084  04F2  1303               	bcf	3,6	;RP1=0, select bank0
  3085  04F3  083D               	movf	_RXFlag,w	;volatile
  3086  04F4  1903               	btfsc	3,2
  3087  04F5  2CF7               	goto	u791
  3088  04F6  2CF8               	goto	u790
  3089  04F7                     u791:	
  3090  04F7  2D0D               	goto	l1855
  3091  04F8                     u790:	
  3092  04F8                     l1843:	
  3093                           
  3094                           ;UART_RX_SM.c: 354: {;UART_RX_SM.c: 356: ES_Event CommEvent;;UART_RX_SM.c: 357: CommEven
      +                          t.EventType = ES_RX_NEW_PACKET;
  3095  04F8  3007               	movlw	7
  3096  04F9  00DA               	movwf	??_CheckUARTRXEvent
  3097  04FA  085A               	movf	??_CheckUARTRXEvent,w
  3098  04FB  00DB               	movwf	CheckUARTRXEvent@CommEvent
  3099  04FC                     l1845:	
  3100                           
  3101                           ;UART_RX_SM.c: 358: CommEvent.EventParam = 0;
  3102  04FC  01DC               	clrf	CheckUARTRXEvent@CommEvent+1
  3103  04FD  01DD               	clrf	CheckUARTRXEvent@CommEvent+2
  3104  04FE                     l1847:	
  3105                           
  3106                           ;UART_RX_SM.c: 359: ES_PostToService(0, CommEvent);
  3107  04FE  085B               	movf	CheckUARTRXEvent@CommEvent,w
  3108  04FF  00D5               	movwf	ES_PostToService@TheEvent
  3109  0500  085C               	movf	CheckUARTRXEvent@CommEvent+1,w
  3110  0501  00D6               	movwf	ES_PostToService@TheEvent+1
  3111  0502  085D               	movf	CheckUARTRXEvent@CommEvent+2,w
  3112  0503  00D7               	movwf	ES_PostToService@TheEvent+2
  3113  0504  3000               	movlw	0
  3114  0505  118A  24C3  118A   	fcall	_ES_PostToService
  3115  0508                     l1849:	
  3116                           
  3117                           ;UART_RX_SM.c: 361: RXFlag = ((boolean) 0);
  3118  0508  1283               	bcf	3,5	;RP0=0, select bank0
  3119  0509  1303               	bcf	3,6	;RP1=0, select bank0
  3120  050A  01BD               	clrf	_RXFlag	;volatile
  3121  050B                     l1851:	
  3122                           
  3123                           ;UART_RX_SM.c: 362: return ((boolean) !((boolean) 0));
  3124  050B  3001               	movlw	1
  3125  050C  2D0E               	goto	l428
  3126  050D                     l1855:	
  3127                           
  3128                           ;UART_RX_SM.c: 363: };UART_RX_SM.c: 364: return ((boolean) 0);
  3129  050D  3000               	movlw	0
  3130  050E                     l428:	
  3131  050E  0008               	return
  3132  050F                     __end_of_CheckUARTRXEvent:	
  3133                           
  3134                           	psect	text12
  3135  0564                     __ptext12:	
  3136 ;; *************** function _CheckSSEvent *****************
  3137 ;; Defined at:
  3138 ;;		line 253 in file "SPI_SM.c"
  3139 ;; Parameters:    Size  Location     Type
  3140 ;;		None
  3141 ;; Auto vars:     Size  Location     Type
  3142 ;;  thisSS          1    2[BANK0 ] unsigned char 
  3143 ;;  returnVal       1    0        unsigned char 
  3144 ;; Return value:  Size  Location     Type
  3145 ;;                  1    wreg      unsigned char 
  3146 ;; Registers used:
  3147 ;;		wreg, status,2, status,0
  3148 ;; Tracked objects:
  3149 ;;		On entry : 0/0
  3150 ;;		On exit  : 0/0
  3151 ;;		Unchanged: 0/0
  3152 ;; Data sizes:     COMMON   BANK0   BANK1   BANK2
  3153 ;;      Params:         0       0       0       0
  3154 ;;      Locals:         0       2       0       0
  3155 ;;      Temps:          0       1       0       0
  3156 ;;      Totals:         0       3       0       0
  3157 ;;Total ram usage:        3 bytes
  3158 ;; Hardware stack levels used:    1
  3159 ;; Hardware stack levels required when called:    3
  3160 ;; This function calls:
  3161 ;;		Nothing
  3162 ;; This function is called by:
  3163 ;;		_ES_Run
  3164 ;; This function uses a non-reentrant model
  3165 ;;
  3166                           
  3167                           
  3168                           ;psect for function _CheckSSEvent
  3169  0564                     _CheckSSEvent:	
  3170  0564                     l1993:	
  3171                           ;incstack = 0
  3172                           ; Regs used in _CheckSSEvent: [wreg+status,2+status,0]
  3173                           
  3174  0564                     l1995:	
  3175                           
  3176                           ;SPI_SM.c: 258: thisSS = RC6;
  3177  0564  3000               	movlw	0
  3178  0565  1283               	bcf	3,5	;RP0=0, select bank0
  3179  0566  1303               	bcf	3,6	;RP1=0, select bank0
  3180  0567  1B07               	btfsc	7,6	;volatile
  3181  0568  3001               	movlw	1
  3182  0569  00CA               	movwf	CheckSSEvent@thisSS
  3183                           
  3184                           ;SPI_SM.c: 259: if (thisSS != lastSS && thisSS)
  3185  056A  084A               	movf	CheckSSEvent@thisSS,w
  3186  056B  0637               	xorwf	CheckSSEvent@lastSS,w
  3187  056C  1903               	skipnz
  3188  056D  2D6F               	goto	u901
  3189  056E  2D70               	goto	u900
  3190  056F                     u901:	
  3191  056F  2D76               	goto	l2003
  3192  0570                     u900:	
  3193  0570                     l1997:	
  3194  0570  084A               	movf	CheckSSEvent@thisSS,w
  3195  0571  1903               	btfsc	3,2
  3196  0572  2D74               	goto	u911
  3197  0573  2D75               	goto	u910
  3198  0574                     u911:	
  3199  0574  2D76               	goto	l2003
  3200  0575                     u910:	
  3201  0575                     l1999:	
  3202                           
  3203                           ;SPI_SM.c: 260: {;SPI_SM.c: 262: currentState = Waiting4Command;
  3204  0575  01BA               	clrf	SPI_SM@currentState
  3205  0576                     l2001:	
  3206  0576                     l2003:	
  3207                           
  3208                           ;SPI_SM.c: 264: };SPI_SM.c: 266: lastSS = thisSS;
  3209  0576  084A               	movf	CheckSSEvent@thisSS,w
  3210  0577  00C8               	movwf	??_CheckSSEvent
  3211  0578  0848               	movf	??_CheckSSEvent,w
  3212  0579  00B7               	movwf	CheckSSEvent@lastSS
  3213  057A                     l509:	
  3214  057A  0008               	return
  3215  057B                     __end_of_CheckSSEvent:	
  3216                           
  3217                           	psect	text13
  3218  026B                     __ptext13:	
  3219 ;; *************** function _ES_Initialize *****************
  3220 ;; Defined at:
  3221 ;;		line 189 in file "ES_Framework.c"
  3222 ;; Parameters:    Size  Location     Type
  3223 ;;  NewRate         1    wreg     enum E93
  3224 ;; Auto vars:     Size  Location     Type
  3225 ;;  NewRate         1    0[COMMON] enum E93
  3226 ;;  i               1   26[BANK0 ] unsigned char 
  3227 ;; Return value:  Size  Location     Type
  3228 ;;                  1    wreg      enum E1275
  3229 ;; Registers used:
  3230 ;;		wreg, fsr0l, fsr0h, status,2, status,0, pclath, cstack
  3231 ;; Tracked objects:
  3232 ;;		On entry : 0/0
  3233 ;;		On exit  : 0/0
  3234 ;;		Unchanged: 0/0
  3235 ;; Data sizes:     COMMON   BANK0   BANK1   BANK2
  3236 ;;      Params:         0       0       0       0
  3237 ;;      Locals:         0       1       0       0
  3238 ;;      Temps:          0       3       0       0
  3239 ;;      Totals:         0       4       0       0
  3240 ;;Total ram usage:        4 bytes
  3241 ;; Hardware stack levels used:    1
  3242 ;; Hardware stack levels required when called:    7
  3243 ;; This function calls:
  3244 ;;		_ES_InitQueue
  3245 ;;		_ES_Sys_Timer_Init
  3246 ;;		_InitSPIService
  3247 ;;		_InitUARTRXService
  3248 ;; This function is called by:
  3249 ;;		_main
  3250 ;; This function uses a non-reentrant model
  3251 ;;
  3252                           
  3253                           
  3254                           ;psect for function _ES_Initialize
  3255  026B                     _ES_Initialize:	
  3256  026B                     l2079:	
  3257                           ;incstack = 0
  3258 ;; using string table level
  3259                           ; Regs used in _ES_Initialize: [wreg-fsr0h+status,2+status,0+pclath+cstack]
  3260                           
  3261                           
  3262                           ;ES_Framework.c: 190: unsigned char i;;ES_Framework.c: 191: ES_Sys_Timer_Init();
  3263  026B  118A  250F  118A   	fcall	_ES_Sys_Timer_Init
  3264  026E                     l2081:	
  3265                           
  3266                           ;ES_Framework.c: 193: for (i = 0; i < (sizeof(ServDescList)/sizeof(ServDescList[0])); i+
      +                          +) {
  3267  026E  1283               	bcf	3,5	;RP0=0, select bank0
  3268  026F  1303               	bcf	3,6	;RP1=0, select bank0
  3269  0270  01E2               	clrf	ES_Initialize@i
  3270  0271                     l2087:	
  3271                           
  3272                           ;ES_Framework.c: 194: if ((ServDescList[i].InitFunc == (pInitFunc) 0) ||;ES_Framework.c:
      +                           195: (ServDescList[i].RunFunc == (pRunFunc) 0))
  3273  0271  0862               	movf	ES_Initialize@i,w
  3274  0272  00DF               	movwf	??_ES_Initialize
  3275  0273  075F               	addwf	??_ES_Initialize,w
  3276  0274  3E24               	addlw	low ((_ServDescList-__stringbase)| (0+32768))
  3277  0275  0084               	movwf	4
  3278  0276  118A  2495  118A   	fcall	stringdir
  3279  0279  3A00               	xorlw	0
  3280  027A  1903               	skipnz
  3281  027B  2A7D               	goto	u951
  3282  027C  2A7E               	goto	u950
  3283  027D                     u951:	
  3284  027D  2A8B               	goto	l2091
  3285  027E                     u950:	
  3286  027E                     l2089:	
  3287  027E  0862               	movf	ES_Initialize@i,w
  3288  027F  00DF               	movwf	??_ES_Initialize
  3289  0280  075F               	addwf	??_ES_Initialize,w
  3290  0281  3E25               	addlw	low (((_ServDescList-__stringbase)| (0+32768)+1))
  3291  0282  0084               	movwf	4
  3292  0283  118A  2495  118A   	fcall	stringdir
  3293  0286  3A00               	xorlw	0
  3294  0287  1D03               	skipz
  3295  0288  2A8A               	goto	u961
  3296  0289  2A8B               	goto	u960
  3297  028A                     u961:	
  3298  028A  2A8D               	goto	l2095
  3299  028B                     u960:	
  3300  028B                     l2091:	
  3301                           
  3302                           ;ES_Framework.c: 196: return FailedPointer;
  3303  028B  3003               	movlw	3
  3304  028C  2AC8               	goto	l58
  3305  028D                     l2095:	
  3306                           
  3307                           ;ES_Framework.c: 198: ES_InitQueue(EventQueues[i].pMem, EventQueues[i].Size);
  3308  028D  0862               	movf	ES_Initialize@i,w
  3309  028E  00DF               	movwf	??_ES_Initialize
  3310  028F  075F               	addwf	??_ES_Initialize,w
  3311  0290  3E21               	addlw	low (((_EventQueues-__stringbase)| (0+32768)+1))
  3312  0291  0084               	movwf	4
  3313  0292  118A  2495  118A   	fcall	stringdir
  3314  0295  00E0               	movwf	??_ES_Initialize+1
  3315  0296  0860               	movf	??_ES_Initialize+1,w
  3316  0297  00C8               	movwf	ES_InitQueue@BlockSize
  3317  0298  0862               	movf	ES_Initialize@i,w
  3318  0299  00E1               	movwf	??_ES_Initialize+2
  3319  029A  0761               	addwf	??_ES_Initialize+2,w
  3320  029B  3E20               	addlw	low ((_EventQueues-__stringbase)| (0+32768))
  3321  029C  0084               	movwf	4
  3322  029D  118A  2495  118A   	fcall	stringdir
  3323  02A0  118A  2592  118A   	fcall	_ES_InitQueue
  3324                           
  3325                           ;ES_Framework.c: 200: if (ServDescList[i].InitFunc(i) != ((boolean) !((boolean) 0)))
  3326  02A3  1283               	bcf	3,5	;RP0=0, select bank0
  3327  02A4  1303               	bcf	3,6	;RP1=0, select bank0
  3328  02A5  0862               	movf	ES_Initialize@i,w
  3329  02A6  00DF               	movwf	??_ES_Initialize
  3330  02A7  085F               	movf	??_ES_Initialize,w
  3331  02A8  00DA               	movwf	InitSPIService@Priority
  3332  02A9  0862               	movf	ES_Initialize@i,w
  3333  02AA  00E0               	movwf	??_ES_Initialize+1
  3334  02AB  0760               	addwf	??_ES_Initialize+1,w
  3335  02AC  3E24               	addlw	low ((_ServDescList-__stringbase)| (0+32768))
  3336  02AD  0084               	movwf	4
  3337  02AE  118A  2495  118A   	fcall	stringdir
  3338  02B1  118A  2030  118A   	fcall	fptable
  3339  02B4  3A01               	xorlw	1
  3340  02B5  1903               	skipnz
  3341  02B6  2AB8               	goto	u971
  3342  02B7  2AB9               	goto	u970
  3343  02B8                     u971:	
  3344  02B8  2ABB               	goto	l2101
  3345  02B9                     u970:	
  3346  02B9                     l2097:	
  3347                           
  3348                           ;ES_Framework.c: 201: return FailedInit;
  3349  02B9  3005               	movlw	5
  3350  02BA  2AC8               	goto	l58
  3351  02BB                     l2101:	
  3352  02BB  3001               	movlw	1
  3353  02BC  1283               	bcf	3,5	;RP0=0, select bank0
  3354  02BD  1303               	bcf	3,6	;RP1=0, select bank0
  3355  02BE  00DF               	movwf	??_ES_Initialize
  3356  02BF  085F               	movf	??_ES_Initialize,w
  3357  02C0  07E2               	addwf	ES_Initialize@i,f
  3358  02C1                     l2103:	
  3359  02C1  3002               	movlw	2
  3360  02C2  0262               	subwf	ES_Initialize@i,w
  3361  02C3  1C03               	skipc
  3362  02C4  2AC6               	goto	u981
  3363  02C5  2AC7               	goto	u980
  3364  02C6                     u981:	
  3365  02C6  2A71               	goto	l2087
  3366  02C7                     u980:	
  3367  02C7                     l2105:	
  3368                           
  3369                           ;ES_Framework.c: 202: };ES_Framework.c: 203: return Success;
  3370  02C7  3000               	movlw	0
  3371  02C8                     l58:	
  3372  02C8  0008               	return
  3373  02C9                     __end_of_ES_Initialize:	
  3374                           
  3375                           	psect	text14
  3376  03B8                     __ptext14:	
  3377 ;; *************** function _InitSPIService *****************
  3378 ;; Defined at:
  3379 ;;		line 71 in file "SPI_SM.c"
  3380 ;; Parameters:    Size  Location     Type
  3381 ;;  Priority        1   18[BANK0 ] unsigned char 
  3382 ;; Auto vars:     Size  Location     Type
  3383 ;;  ThisEvent       3   20[BANK0 ] struct ES_Event_t
  3384 ;; Return value:  Size  Location     Type
  3385 ;;                  1    wreg      unsigned char 
  3386 ;; Registers used:
  3387 ;;		wreg, fsr0l, fsr0h, status,2, status,0, pclath, cstack
  3388 ;; Tracked objects:
  3389 ;;		On entry : 0/0
  3390 ;;		On exit  : 0/0
  3391 ;;		Unchanged: 0/0
  3392 ;; Data sizes:     COMMON   BANK0   BANK1   BANK2
  3393 ;;      Params:         0       1       0       0
  3394 ;;      Locals:         0       3       0       0
  3395 ;;      Temps:          0       1       0       0
  3396 ;;      Totals:         0       5       0       0
  3397 ;;Total ram usage:        5 bytes
  3398 ;; Hardware stack levels used:    1
  3399 ;; Hardware stack levels required when called:    6
  3400 ;; This function calls:
  3401 ;;		_ES_PostToService
  3402 ;; This function is called by:
  3403 ;;		_ES_Initialize
  3404 ;; This function uses a non-reentrant model
  3405 ;;
  3406                           
  3407                           
  3408                           ;psect for function _InitSPIService
  3409  03B8                     _InitSPIService:	
  3410  03B8                     l2037:	
  3411                           ;incstack = 0
  3412                           ; Regs used in _InitSPIService: [wreg-fsr0h+status,2+status,0+pclath+cstack]
  3413                           
  3414                           
  3415                           ;SPI_SM.c: 72: ES_Event ThisEvent;;SPI_SM.c: 74: MyPriority = Priority;
  3416  03B8  1283               	bcf	3,5	;RP0=0, select bank0
  3417  03B9  1303               	bcf	3,6	;RP1=0, select bank0
  3418  03BA  085A               	movf	InitSPIService@Priority,w
  3419  03BB  00DB               	movwf	??_InitSPIService
  3420  03BC  085B               	movf	??_InitSPIService,w
  3421  03BD  00BB               	movwf	SPI_SM@MyPriority
  3422  03BE                     l2039:	
  3423                           
  3424                           ;SPI_SM.c: 77: GIE = 0;
  3425  03BE  138B               	bcf	11,7	;volatile
  3426  03BF                     l2041:	
  3427                           
  3428                           ;SPI_SM.c: 81: SSPSTAT = 0b00000000;
  3429  03BF  1683               	bsf	3,5	;RP0=1, select bank1
  3430  03C0  1303               	bcf	3,6	;RP1=0, select bank1
  3431  03C1  0194               	clrf	20	;volatile
  3432  03C2                     l2043:	
  3433                           
  3434                           ;SPI_SM.c: 89: TRISC7 = 0;
  3435  03C2  1387               	bcf	7,7	;volatile
  3436  03C3                     l2045:	
  3437                           
  3438                           ;SPI_SM.c: 90: TRISB4 = 1;
  3439  03C3  1606               	bsf	6,4	;volatile
  3440  03C4                     l2047:	
  3441                           
  3442                           ;SPI_SM.c: 91: TRISB6 = 1;
  3443  03C4  1706               	bsf	6,6	;volatile
  3444  03C5                     l2049:	
  3445                           
  3446                           ;SPI_SM.c: 92: TRISC6 = 1;
  3447  03C5  1707               	bsf	7,6	;volatile
  3448  03C6                     l2051:	
  3449                           
  3450                           ;SPI_SM.c: 95: ANSELH &= (~0x00000001 & ~0x00000002 & ~0x00000004);
  3451  03C6  30F8               	movlw	248
  3452  03C7  1283               	bcf	3,5	;RP0=0, select bank0
  3453  03C8  1303               	bcf	3,6	;RP1=0, select bank0
  3454  03C9  00DB               	movwf	??_InitSPIService
  3455  03CA  085B               	movf	??_InitSPIService,w
  3456  03CB  1283               	bcf	3,5	;RP0=0, select bank2
  3457  03CC  1703               	bsf	3,6	;RP1=1, select bank2
  3458  03CD  059F               	andwf	31,f	;volatile
  3459  03CE                     l2053:	
  3460                           
  3461                           ;SPI_SM.c: 98: SSPBUF = (0x00);
  3462  03CE  1283               	bcf	3,5	;RP0=0, select bank0
  3463  03CF  1303               	bcf	3,6	;RP1=0, select bank0
  3464  03D0  0193               	clrf	19	;volatile
  3465  03D1                     l2055:	
  3466                           
  3467                           ;SPI_SM.c: 103: SSPCON = 0b00110100;
  3468  03D1  3034               	movlw	52
  3469  03D2  0094               	movwf	20	;volatile
  3470  03D3                     l2057:	
  3471                           
  3472                           ;SPI_SM.c: 106: currentState = Waiting4Command;
  3473  03D3  01BA               	clrf	SPI_SM@currentState
  3474  03D4                     l2059:	
  3475                           
  3476                           ;SPI_SM.c: 108: SSPIE = 1;
  3477  03D4  1683               	bsf	3,5	;RP0=1, select bank1
  3478  03D5  1303               	bcf	3,6	;RP1=0, select bank1
  3479  03D6  158C               	bsf	12,3	;volatile
  3480  03D7                     l2061:	
  3481                           
  3482                           ;SPI_SM.c: 109: PEIE = 1;
  3483  03D7  170B               	bsf	11,6	;volatile
  3484  03D8                     l2063:	
  3485                           
  3486                           ;SPI_SM.c: 110: GIE = 1;
  3487  03D8  178B               	bsf	11,7	;volatile
  3488  03D9                     l2065:	
  3489                           
  3490                           ;SPI_SM.c: 113: ThisEvent.EventType = ES_INIT;
  3491  03D9  3002               	movlw	2
  3492  03DA  1283               	bcf	3,5	;RP0=0, select bank0
  3493  03DB  1303               	bcf	3,6	;RP1=0, select bank0
  3494  03DC  00DB               	movwf	??_InitSPIService
  3495  03DD  085B               	movf	??_InitSPIService,w
  3496  03DE  00DC               	movwf	InitSPIService@ThisEvent
  3497  03DF                     l2067:	
  3498                           
  3499                           ;SPI_SM.c: 114: if (ES_PostToService(MyPriority, ThisEvent) == ((boolean) !((boolean) 0)
      +                          )) {
  3500  03DF  085C               	movf	InitSPIService@ThisEvent,w
  3501  03E0  00D5               	movwf	ES_PostToService@TheEvent
  3502  03E1  085D               	movf	InitSPIService@ThisEvent+1,w
  3503  03E2  00D6               	movwf	ES_PostToService@TheEvent+1
  3504  03E3  085E               	movf	InitSPIService@ThisEvent+2,w
  3505  03E4  00D7               	movwf	ES_PostToService@TheEvent+2
  3506  03E5  083B               	movf	SPI_SM@MyPriority,w
  3507  03E6  118A  24C3  118A   	fcall	_ES_PostToService
  3508  03E9  3A01               	xorlw	1
  3509  03EA  1D03               	skipz
  3510  03EB  2BED               	goto	u941
  3511  03EC  2BEE               	goto	u940
  3512  03ED                     u941:	
  3513  03ED  2BF0               	goto	l2075
  3514  03EE                     u940:	
  3515  03EE                     l2069:	
  3516                           
  3517                           ;SPI_SM.c: 115: return ((boolean) !((boolean) 0));
  3518  03EE  3001               	movlw	1
  3519  03EF  2BF1               	goto	l481
  3520  03F0                     l2075:	
  3521                           
  3522                           ;SPI_SM.c: 117: return ((boolean) 0);
  3523  03F0  3000               	movlw	0
  3524  03F1                     l481:	
  3525  03F1  0008               	return
  3526  03F2                     __end_of_InitSPIService:	
  3527                           
  3528                           	psect	text15
  3529  052D                     __ptext15:	
  3530 ;; *************** function _InitUARTRXService *****************
  3531 ;; Defined at:
  3532 ;;		line 88 in file "UART_RX_SM.c"
  3533 ;; Parameters:    Size  Location     Type
  3534 ;;  Priority        1   18[BANK0 ] unsigned char 
  3535 ;; Auto vars:     Size  Location     Type
  3536 ;;  ThisEvent       3   20[BANK0 ] struct ES_Event_t
  3537 ;; Return value:  Size  Location     Type
  3538 ;;                  1    wreg      unsigned char 
  3539 ;; Registers used:
  3540 ;;		wreg, fsr0l, fsr0h, status,2, status,0, pclath, cstack
  3541 ;; Tracked objects:
  3542 ;;		On entry : 0/0
  3543 ;;		On exit  : 0/0
  3544 ;;		Unchanged: 0/0
  3545 ;; Data sizes:     COMMON   BANK0   BANK1   BANK2
  3546 ;;      Params:         0       1       0       0
  3547 ;;      Locals:         0       3       0       0
  3548 ;;      Temps:          0       1       0       0
  3549 ;;      Totals:         0       5       0       0
  3550 ;;Total ram usage:        5 bytes
  3551 ;; Hardware stack levels used:    1
  3552 ;; Hardware stack levels required when called:    6
  3553 ;; This function calls:
  3554 ;;		_ES_PostToService
  3555 ;; This function is called by:
  3556 ;;		_ES_Initialize
  3557 ;; This function uses a non-reentrant model
  3558 ;;
  3559                           
  3560                           
  3561                           ;psect for function _InitUARTRXService
  3562  052D                     _InitUARTRXService:	
  3563  052D                     l2007:	
  3564                           ;incstack = 0
  3565                           ; Regs used in _InitUARTRXService: [wreg-fsr0h+status,2+status,0+pclath+cstack]
  3566                           
  3567                           
  3568                           ;UART_RX_SM.c: 89: ES_Event ThisEvent;;UART_RX_SM.c: 91: MyPriority = Priority;
  3569  052D  1283               	bcf	3,5	;RP0=0, select bank0
  3570  052E  1303               	bcf	3,6	;RP1=0, select bank0
  3571  052F  085A               	movf	InitUARTRXService@Priority,w
  3572  0530  00DB               	movwf	??_InitUARTRXService
  3573  0531  085B               	movf	??_InitUARTRXService,w
  3574  0532  00C0               	movwf	_MyPriority
  3575                           
  3576                           ;UART_RX_SM.c: 94: ThisEvent.EventType = ES_INIT;
  3577  0533  3002               	movlw	2
  3578  0534  00DB               	movwf	??_InitUARTRXService
  3579  0535  085B               	movf	??_InitUARTRXService,w
  3580  0536  00DC               	movwf	InitUARTRXService@ThisEvent
  3581  0537                     l2009:	
  3582                           
  3583                           ;UART_RX_SM.c: 95: if (ES_PostToService(MyPriority, ThisEvent) == ((boolean) !((boolean)
      +                           0))) {
  3584  0537  085C               	movf	InitUARTRXService@ThisEvent,w
  3585  0538  00D5               	movwf	ES_PostToService@TheEvent
  3586  0539  085D               	movf	InitUARTRXService@ThisEvent+1,w
  3587  053A  00D6               	movwf	ES_PostToService@TheEvent+1
  3588  053B  085E               	movf	InitUARTRXService@ThisEvent+2,w
  3589  053C  00D7               	movwf	ES_PostToService@TheEvent+2
  3590  053D  0840               	movf	_MyPriority,w
  3591  053E  118A  24C3  118A   	fcall	_ES_PostToService
  3592  0541  3A01               	xorlw	1
  3593  0542  1D03               	skipz
  3594  0543  2D45               	goto	u921
  3595  0544  2D46               	goto	u920
  3596  0545                     u921:	
  3597  0545  2D48               	goto	l2017
  3598  0546                     u920:	
  3599  0546                     l2011:	
  3600                           
  3601                           ;UART_RX_SM.c: 96: return ((boolean) !((boolean) 0));
  3602  0546  3001               	movlw	1
  3603  0547  2D49               	goto	l371
  3604  0548                     l2017:	
  3605                           
  3606                           ;UART_RX_SM.c: 98: return ((boolean) 0);
  3607  0548  3000               	movlw	0
  3608  0549                     l371:	
  3609  0549  0008               	return
  3610  054A                     __end_of_InitUARTRXService:	
  3611                           
  3612                           	psect	text16
  3613  04C3                     __ptext16:	
  3614 ;; *************** function _ES_PostToService *****************
  3615 ;; Defined at:
  3616 ;;		line 313 in file "ES_Framework.c"
  3617 ;; Parameters:    Size  Location     Type
  3618 ;;  WhichService    1    wreg     unsigned char 
  3619 ;;  TheEvent        3   13[BANK0 ] struct ES_Event_t
  3620 ;; Auto vars:     Size  Location     Type
  3621 ;;  WhichService    1   17[BANK0 ] unsigned char 
  3622 ;; Return value:  Size  Location     Type
  3623 ;;                  1    wreg      unsigned char 
  3624 ;; Registers used:
  3625 ;;		wreg, fsr0l, fsr0h, status,2, status,0, pclath, cstack
  3626 ;; Tracked objects:
  3627 ;;		On entry : 0/0
  3628 ;;		On exit  : 0/0
  3629 ;;		Unchanged: 0/0
  3630 ;; Data sizes:     COMMON   BANK0   BANK1   BANK2
  3631 ;;      Params:         0       3       0       0
  3632 ;;      Locals:         0       1       0       0
  3633 ;;      Temps:          0       1       0       0
  3634 ;;      Totals:         0       5       0       0
  3635 ;;Total ram usage:        5 bytes
  3636 ;; Hardware stack levels used:    1
  3637 ;; Hardware stack levels required when called:    5
  3638 ;; This function calls:
  3639 ;;		_ES_EnQueueFIFO
  3640 ;; This function is called by:
  3641 ;;		_InitUARTRXService
  3642 ;;		_PostUARTRXService
  3643 ;;		_CheckUARTRXEvent
  3644 ;;		_InitSPIService
  3645 ;;		_PostSPIService
  3646 ;; This function uses a non-reentrant model
  3647 ;;
  3648                           
  3649                           
  3650                           ;psect for function _ES_PostToService
  3651  04C3                     _ES_PostToService:	
  3652                           
  3653                           ;incstack = 0
  3654 ;; using string table level
  3655                           ; Regs used in _ES_PostToService: [wreg-fsr0h+status,2+status,0+pclath+cstack]
  3656                           ;ES_PostToService@WhichService stored from wreg
  3657  04C3  1283               	bcf	3,5	;RP0=0, select bank0
  3658  04C4  1303               	bcf	3,6	;RP1=0, select bank0
  3659  04C5  00D9               	movwf	ES_PostToService@WhichService
  3660  04C6                     l1789:	
  3661                           
  3662                           ;ES_Framework.c: 314: if ((WhichService < (sizeof(EventQueues)/sizeof(EventQueues[0]))) 
      +                          &&;ES_Framework.c: 315: (ES_EnQueueFIFO(EventQueues[WhichService].pMem, TheEvent) ==;ES_
      +                          Framework.c: 316: ((boolean) !((boolean) 0)))) {
  3663  04C6  3002               	movlw	2
  3664  04C7  0259               	subwf	ES_PostToService@WhichService,w
  3665  04C8  1803               	skipnc
  3666  04C9  2CCB               	goto	u691
  3667  04CA  2CCC               	goto	u690
  3668  04CB                     u691:	
  3669  04CB  2CEF               	goto	l1801
  3670  04CC                     u690:	
  3671  04CC                     l1791:	
  3672  04CC  0855               	movf	ES_PostToService@TheEvent,w
  3673  04CD  00CC               	movwf	ES_EnQueueFIFO@Event2Add
  3674  04CE  0856               	movf	ES_PostToService@TheEvent+1,w
  3675  04CF  00CD               	movwf	ES_EnQueueFIFO@Event2Add+1
  3676  04D0  0857               	movf	ES_PostToService@TheEvent+2,w
  3677  04D1  00CE               	movwf	ES_EnQueueFIFO@Event2Add+2
  3678  04D2  0859               	movf	ES_PostToService@WhichService,w
  3679  04D3  00D8               	movwf	??_ES_PostToService
  3680  04D4  0758               	addwf	??_ES_PostToService,w
  3681  04D5  3E20               	addlw	low ((_EventQueues-__stringbase)| (0+32768))
  3682  04D6  0084               	movwf	4
  3683  04D7  118A  2495  118A   	fcall	stringdir
  3684  04DA  118A  22C9  118A   	fcall	_ES_EnQueueFIFO
  3685  04DD  3A01               	xorlw	1
  3686  04DE  1D03               	skipz
  3687  04DF  2CE1               	goto	u701
  3688  04E0  2CE2               	goto	u700
  3689  04E1                     u701:	
  3690  04E1  2CEF               	goto	l1801
  3691  04E2                     u700:	
  3692  04E2                     l1793:	
  3693                           
  3694                           ;ES_Framework.c: 317: Ready |= BitNum2SetMask[WhichService];
  3695  04E2  1283               	bcf	3,5	;RP0=0, select bank0
  3696  04E3  1303               	bcf	3,6	;RP1=0, select bank0
  3697  04E4  0859               	movf	ES_PostToService@WhichService,w
  3698  04E5  3E18               	addlw	low ((_BitNum2SetMask-__stringbase)| (0+32768))
  3699  04E6  0084               	movwf	4
  3700  04E7  118A  2495  118A   	fcall	stringdir
  3701  04EA  00D8               	movwf	??_ES_PostToService
  3702  04EB  0858               	movf	??_ES_PostToService,w
  3703  04EC  04C4               	iorwf	_Ready,f
  3704  04ED                     l1795:	
  3705                           
  3706                           ;ES_Framework.c: 318: return ((boolean) !((boolean) 0));
  3707  04ED  3001               	movlw	1
  3708  04EE  2CF0               	goto	l93
  3709  04EF                     l1801:	
  3710                           
  3711                           ;ES_Framework.c: 320: return ((boolean) 0);
  3712  04EF  3000               	movlw	0
  3713  04F0                     l93:	
  3714  04F0  0008               	return
  3715  04F1                     __end_of_ES_PostToService:	
  3716                           
  3717                           	psect	text17
  3718  02C9                     __ptext17:	
  3719 ;; *************** function _ES_EnQueueFIFO *****************
  3720 ;; Defined at:
  3721 ;;		line 83 in file "ES_Queue.c"
  3722 ;; Parameters:    Size  Location     Type
  3723 ;;  pBlock          1    wreg     PTR struct ES_Event_t
  3724 ;;		 -> Queue1(12), Queue0(12), 
  3725 ;;  Event2Add       3    4[BANK0 ] struct ES_Event_t
  3726 ;; Auto vars:     Size  Location     Type
  3727 ;;  pBlock          1   11[BANK0 ] PTR struct ES_Event_t
  3728 ;;		 -> Queue1(12), Queue0(12), 
  3729 ;;  pThisQueue      1   12[BANK0 ] PTR struct .
  3730 ;;		 -> Queue1(12), Queue0(12), 
  3731 ;;  InsertionPoi    1   10[BANK0 ] unsigned char 
  3732 ;;  saveCrit        1    9[BANK0 ] unsigned char 
  3733 ;; Return value:  Size  Location     Type
  3734 ;;                  1    wreg      unsigned char 
  3735 ;; Registers used:
  3736 ;;		wreg, fsr0l, fsr0h, status,2, status,0, pclath, cstack
  3737 ;; Tracked objects:
  3738 ;;		On entry : 0/0
  3739 ;;		On exit  : 0/0
  3740 ;;		Unchanged: 0/0
  3741 ;; Data sizes:     COMMON   BANK0   BANK1   BANK2
  3742 ;;      Params:         0       3       0       0
  3743 ;;      Locals:         0       4       0       0
  3744 ;;      Temps:          0       2       0       0
  3745 ;;      Totals:         0       9       0       0
  3746 ;;Total ram usage:        9 bytes
  3747 ;; Hardware stack levels used:    1
  3748 ;; Hardware stack levels required when called:    4
  3749 ;; This function calls:
  3750 ;;		___bmul
  3751 ;; This function is called by:
  3752 ;;		_ES_PostToService
  3753 ;;		_ES_PostAll
  3754 ;; This function uses a non-reentrant model
  3755 ;;
  3756                           
  3757                           
  3758                           ;psect for function _ES_EnQueueFIFO
  3759  02C9                     _ES_EnQueueFIFO:	
  3760                           
  3761                           ;incstack = 0
  3762                           ; Regs used in _ES_EnQueueFIFO: [wreg-fsr0h+status,2+status,0+pclath+cstack]
  3763                           ;ES_EnQueueFIFO@pBlock stored from wreg
  3764  02C9  1283               	bcf	3,5	;RP0=0, select bank0
  3765  02CA  1303               	bcf	3,6	;RP1=0, select bank0
  3766  02CB  00D3               	movwf	ES_EnQueueFIFO@pBlock
  3767  02CC                     l1759:	
  3768                           
  3769                           ;ES_Queue.c: 85: unsigned char saveCrit;;ES_Queue.c: 86: unsigned char InsertionPoint;;E
      +                          S_Queue.c: 87: pQueue_t pThisQueue;;ES_Queue.c: 88: pThisQueue = (pQueue_t)pBlock;
  3770  02CC  0853               	movf	ES_EnQueueFIFO@pBlock,w
  3771  02CD  00CF               	movwf	??_ES_EnQueueFIFO
  3772  02CE  084F               	movf	??_ES_EnQueueFIFO,w
  3773  02CF  00D4               	movwf	ES_EnQueueFIFO@pThisQueue
  3774  02D0                     l1761:	
  3775                           
  3776                           ;ES_Queue.c: 91: if ( pThisQueue->NumEntries < pThisQueue->QueueSize)
  3777  02D0  0854               	movf	ES_EnQueueFIFO@pThisQueue,w
  3778  02D1  0084               	movwf	4
  3779  02D2  1383               	bcf	3,7	;select IRP bank0
  3780  02D3  0800               	movf	0,w
  3781  02D4  00CF               	movwf	??_ES_EnQueueFIFO
  3782  02D5  0854               	movf	ES_EnQueueFIFO@pThisQueue,w
  3783  02D6  3E02               	addlw	2
  3784  02D7  0084               	movwf	4
  3785  02D8  0800               	movf	0,w
  3786  02D9  00D0               	movwf	??_ES_EnQueueFIFO+1
  3787  02DA  084F               	movf	??_ES_EnQueueFIFO,w
  3788  02DB  0250               	subwf	??_ES_EnQueueFIFO+1,w
  3789  02DC  1803               	skipnc
  3790  02DD  2ADF               	goto	u671
  3791  02DE  2AE0               	goto	u670
  3792  02DF                     u671:	
  3793  02DF  2B20               	goto	l1785
  3794  02E0                     u670:	
  3795  02E0                     l1763:	
  3796                           
  3797                           ;ES_Queue.c: 92: {;ES_Queue.c: 93: InsertionPoint = (pThisQueue->CurrentIndex + pThisQue
      +                          ue->NumEntries);
  3798  02E0  0854               	movf	ES_EnQueueFIFO@pThisQueue,w
  3799  02E1  3E02               	addlw	2
  3800  02E2  0084               	movwf	4
  3801  02E3  0800               	movf	0,w
  3802  02E4  00CF               	movwf	??_ES_EnQueueFIFO
  3803  02E5  0A54               	incf	ES_EnQueueFIFO@pThisQueue,w
  3804  02E6  0084               	movwf	4
  3805  02E7  0800               	movf	0,w
  3806  02E8  074F               	addwf	??_ES_EnQueueFIFO,w
  3807  02E9  00D0               	movwf	??_ES_EnQueueFIFO+1
  3808  02EA  0850               	movf	??_ES_EnQueueFIFO+1,w
  3809  02EB  00D2               	movwf	ES_EnQueueFIFO@InsertionPoint
  3810  02EC                     l1765:	
  3811                           
  3812                           ;ES_Queue.c: 94: if (InsertionPoint >= pThisQueue->QueueSize)
  3813  02EC  0854               	movf	ES_EnQueueFIFO@pThisQueue,w
  3814  02ED  0084               	movwf	4
  3815  02EE  0800               	movf	0,w
  3816  02EF  0252               	subwf	ES_EnQueueFIFO@InsertionPoint,w
  3817  02F0  1C03               	skipc
  3818  02F1  2AF3               	goto	u681
  3819  02F2  2AF4               	goto	u680
  3820  02F3                     u681:	
  3821  02F3  2AF8               	goto	l1769
  3822  02F4                     u680:	
  3823  02F4                     l1767:	
  3824                           
  3825                           ;ES_Queue.c: 95: InsertionPoint -= pThisQueue->QueueSize;
  3826  02F4  0854               	movf	ES_EnQueueFIFO@pThisQueue,w
  3827  02F5  0084               	movwf	4
  3828  02F6  0800               	movf	0,w
  3829  02F7  02D2               	subwf	ES_EnQueueFIFO@InsertionPoint,f
  3830  02F8                     l1769:	
  3831  02F8  080B               	movf	11,w	;volatile
  3832  02F9  00CF               	movwf	??_ES_EnQueueFIFO
  3833  02FA  084F               	movf	??_ES_EnQueueFIFO,w
  3834  02FB  00D1               	movwf	ES_EnQueueFIFO@saveCrit
  3835  02FC                     l1771:	
  3836  02FC  138B               	bcf	11,7	;volatile
  3837  02FD                     l1773:	
  3838                           
  3839                           ;ES_Queue.c: 99: pBlock[ 1 + InsertionPoint] = Event2Add;
  3840  02FD  3003               	movlw	3
  3841  02FE  00CF               	movwf	??_ES_EnQueueFIFO
  3842  02FF  084F               	movf	??_ES_EnQueueFIFO,w
  3843  0300  00C8               	movwf	___bmul@multiplicand
  3844  0301  0852               	movf	ES_EnQueueFIFO@InsertionPoint,w
  3845  0302  118A  257B  118A   	fcall	___bmul
  3846  0305  1283               	bcf	3,5	;RP0=0, select bank0
  3847  0306  1303               	bcf	3,6	;RP1=0, select bank0
  3848  0307  0753               	addwf	ES_EnQueueFIFO@pBlock,w
  3849  0308  00D0               	movwf	??_ES_EnQueueFIFO+1
  3850  0309  0850               	movf	??_ES_EnQueueFIFO+1,w
  3851  030A  3E03               	addlw	3
  3852  030B  0084               	movwf	4
  3853  030C  084C               	movf	ES_EnQueueFIFO@Event2Add,w
  3854  030D  1383               	bcf	3,7	;select IRP bank0
  3855  030E  0080               	movwf	0
  3856  030F  0A84               	incf	4,f
  3857  0310  084D               	movf	ES_EnQueueFIFO@Event2Add+1,w
  3858  0311  0080               	movwf	0
  3859  0312  0A84               	incf	4,f
  3860  0313  084E               	movf	ES_EnQueueFIFO@Event2Add+2,w
  3861  0314  0080               	movwf	0
  3862  0315                     l1775:	
  3863                           
  3864                           ;ES_Queue.c: 100: pThisQueue->NumEntries++;
  3865  0315  3001               	movlw	1
  3866  0316  00CF               	movwf	??_ES_EnQueueFIFO
  3867  0317  0854               	movf	ES_EnQueueFIFO@pThisQueue,w
  3868  0318  3E02               	addlw	2
  3869  0319  0084               	movwf	4
  3870  031A  084F               	movf	??_ES_EnQueueFIFO,w
  3871  031B  0780               	addwf	0,f
  3872  031C                     l1777:	
  3873                           
  3874                           ;ES_Queue.c: 101: {INTCON = saveCrit;};
  3875  031C  0851               	movf	ES_EnQueueFIFO@saveCrit,w
  3876  031D  008B               	movwf	11	;volatile
  3877  031E                     l1779:	
  3878                           
  3879                           ;ES_Queue.c: 103: return(((boolean) !((boolean) 0)));
  3880  031E  3001               	movlw	1
  3881  031F  2B21               	goto	l185
  3882  0320                     l1785:	
  3883                           
  3884                           ;ES_Queue.c: 105: return(((boolean) 0));
  3885  0320  3000               	movlw	0
  3886  0321                     l185:	
  3887  0321  0008               	return
  3888  0322                     __end_of_ES_EnQueueFIFO:	
  3889                           
  3890                           	psect	text18
  3891  057B                     __ptext18:	
  3892 ;; *************** function ___bmul *****************
  3893 ;; Defined at:
  3894 ;;		line 4 in file "C:\Program Files (x86)\Microchip\xc8\v2.10\pic\sources\c90\common\Umul8.c"
  3895 ;; Parameters:    Size  Location     Type
  3896 ;;  multiplier      1    wreg     unsigned char 
  3897 ;;  multiplicand    1    0[BANK0 ] unsigned char 
  3898 ;; Auto vars:     Size  Location     Type
  3899 ;;  multiplier      1    3[BANK0 ] unsigned char 
  3900 ;;  product         1    2[BANK0 ] unsigned char 
  3901 ;; Return value:  Size  Location     Type
  3902 ;;                  1    wreg      unsigned char 
  3903 ;; Registers used:
  3904 ;;		wreg, status,2, status,0
  3905 ;; Tracked objects:
  3906 ;;		On entry : 0/0
  3907 ;;		On exit  : 0/0
  3908 ;;		Unchanged: 0/0
  3909 ;; Data sizes:     COMMON   BANK0   BANK1   BANK2
  3910 ;;      Params:         0       1       0       0
  3911 ;;      Locals:         0       2       0       0
  3912 ;;      Temps:          0       1       0       0
  3913 ;;      Totals:         0       4       0       0
  3914 ;;Total ram usage:        4 bytes
  3915 ;; Hardware stack levels used:    1
  3916 ;; Hardware stack levels required when called:    3
  3917 ;; This function calls:
  3918 ;;		Nothing
  3919 ;; This function is called by:
  3920 ;;		_ES_Initialize
  3921 ;;		_ES_Run
  3922 ;;		_ES_PostToService
  3923 ;;		_ES_EnQueueFIFO
  3924 ;;		_ES_DeQueue
  3925 ;;		_ES_PostAll
  3926 ;; This function uses a non-reentrant model
  3927 ;;
  3928                           
  3929                           
  3930                           ;psect for function ___bmul
  3931  057B                     ___bmul:	
  3932                           
  3933                           ;incstack = 0
  3934                           ; Regs used in ___bmul: [wreg+status,2+status,0]
  3935                           ;___bmul@multiplier stored from wreg
  3936  057B  1283               	bcf	3,5	;RP0=0, select bank0
  3937  057C  1303               	bcf	3,6	;RP1=0, select bank0
  3938  057D  00CB               	movwf	___bmul@multiplier
  3939  057E                     l1745:	
  3940  057E  01CA               	clrf	___bmul@product
  3941  057F                     l1747:	
  3942  057F  1C4B               	btfss	___bmul@multiplier,0
  3943  0580  2D82               	goto	u651
  3944  0581  2D83               	goto	u650
  3945  0582                     u651:	
  3946  0582  2D87               	goto	l1751
  3947  0583                     u650:	
  3948  0583                     l1749:	
  3949  0583  0848               	movf	___bmul@multiplicand,w
  3950  0584  00C9               	movwf	??___bmul
  3951  0585  0849               	movf	??___bmul,w
  3952  0586  07CA               	addwf	___bmul@product,f
  3953  0587                     l1751:	
  3954  0587  1003               	clrc
  3955  0588  0DC8               	rlf	___bmul@multiplicand,f
  3956  0589                     l1753:	
  3957  0589  1003               	clrc
  3958  058A  0CCB               	rrf	___bmul@multiplier,f
  3959  058B  084B               	movf	___bmul@multiplier,w
  3960  058C  1D03               	btfss	3,2
  3961  058D  2D8F               	goto	u661
  3962  058E  2D90               	goto	u660
  3963  058F                     u661:	
  3964  058F  2D7F               	goto	l1747
  3965  0590                     u660:	
  3966  0590                     l1755:	
  3967  0590  084A               	movf	___bmul@product,w
  3968  0591                     l621:	
  3969  0591  0008               	return
  3970  0592                     __end_of___bmul:	
  3971                           
  3972                           	psect	text19
  3973  050F                     __ptext19:	
  3974 ;; *************** function _ES_Sys_Timer_Init *****************
  3975 ;; Defined at:
  3976 ;;		line 25 in file "ES_Port.c"
  3977 ;; Parameters:    Size  Location     Type
  3978 ;;		None
  3979 ;; Auto vars:     Size  Location     Type
  3980 ;;		None
  3981 ;; Return value:  Size  Location     Type
  3982 ;;                  1    wreg      void 
  3983 ;; Registers used:
  3984 ;;		status,2
  3985 ;; Tracked objects:
  3986 ;;		On entry : 0/0
  3987 ;;		On exit  : 0/0
  3988 ;;		Unchanged: 0/0
  3989 ;; Data sizes:     COMMON   BANK0   BANK1   BANK2
  3990 ;;      Params:         0       0       0       0
  3991 ;;      Locals:         0       0       0       0
  3992 ;;      Temps:          0       0       0       0
  3993 ;;      Totals:         0       0       0       0
  3994 ;;Total ram usage:        0 bytes
  3995 ;; Hardware stack levels used:    1
  3996 ;; Hardware stack levels required when called:    3
  3997 ;; This function calls:
  3998 ;;		Nothing
  3999 ;; This function is called by:
  4000 ;;		_ES_Initialize
  4001 ;; This function uses a non-reentrant model
  4002 ;;
  4003                           
  4004                           
  4005                           ;psect for function _ES_Sys_Timer_Init
  4006  050F                     _ES_Sys_Timer_Init:	
  4007  050F                     l1859:	
  4008                           ;incstack = 0
  4009                           ; Regs used in _ES_Sys_Timer_Init: [status,2]
  4010                           
  4011                           
  4012                           ;ES_Port.c: 29: TRISC0 = 0;
  4013  050F  1683               	bsf	3,5	;RP0=1, select bank1
  4014  0510  1303               	bcf	3,6	;RP1=0, select bank1
  4015  0511  1007               	bcf	7,0	;volatile
  4016                           
  4017                           ;ES_Port.c: 30: ANS4 = 0;
  4018  0512  1283               	bcf	3,5	;RP0=0, select bank2
  4019  0513  1703               	bsf	3,6	;RP1=1, select bank2
  4020  0514  121E               	bcf	30,4	;volatile
  4021                           
  4022                           ;ES_Port.c: 31: RC0 = 0;
  4023  0515  1283               	bcf	3,5	;RP0=0, select bank0
  4024  0516  1303               	bcf	3,6	;RP1=0, select bank0
  4025  0517  1007               	bcf	7,0	;volatile
  4026                           
  4027                           ;ES_Port.c: 34: TRISC5 = 0;
  4028  0518  1683               	bsf	3,5	;RP0=1, select bank1
  4029  0519  1303               	bcf	3,6	;RP1=0, select bank1
  4030  051A  1287               	bcf	7,5	;volatile
  4031                           
  4032                           ;ES_Port.c: 35: RC5 = 0;
  4033  051B  1283               	bcf	3,5	;RP0=0, select bank0
  4034  051C  1303               	bcf	3,6	;RP1=0, select bank0
  4035  051D  1287               	bcf	7,5	;volatile
  4036                           
  4037                           ;ES_Port.c: 38: {GIE = 0;};
  4038  051E  138B               	bcf	11,7	;volatile
  4039                           
  4040                           ;ES_Port.c: 40: T0CS = 0;
  4041  051F  1683               	bsf	3,5	;RP0=1, select bank1
  4042  0520  1303               	bcf	3,6	;RP1=0, select bank1
  4043  0521  1281               	bcf	1,5	;volatile
  4044                           
  4045                           ;ES_Port.c: 41: PSA = 0;
  4046  0522  1181               	bcf	1,3	;volatile
  4047                           
  4048                           ;ES_Port.c: 42: PS0 = 1;
  4049  0523  1401               	bsf	1,0	;volatile
  4050                           
  4051                           ;ES_Port.c: 43: PS1 = 1;
  4052  0524  1481               	bsf	1,1	;volatile
  4053                           
  4054                           ;ES_Port.c: 44: PS2 = 1;
  4055  0525  1501               	bsf	1,2	;volatile
  4056  0526                     l1861:	
  4057                           
  4058                           ;ES_Port.c: 46: TMR0 = 0;
  4059  0526  1283               	bcf	3,5	;RP0=0, select bank0
  4060  0527  1303               	bcf	3,6	;RP1=0, select bank0
  4061  0528  0181               	clrf	1	;volatile
  4062  0529                     l1863:	
  4063                           
  4064                           ;ES_Port.c: 47: T0IF = 0;
  4065  0529  110B               	bcf	11,2	;volatile
  4066  052A                     l1865:	
  4067                           
  4068                           ;ES_Port.c: 48: T0IE = 1;
  4069  052A  168B               	bsf	11,5	;volatile
  4070  052B                     l1867:	
  4071                           
  4072                           ;ES_Port.c: 50: {GIE = 1;};
  4073  052B  178B               	bsf	11,7	;volatile
  4074  052C                     l156:	
  4075  052C  0008               	return
  4076  052D                     __end_of_ES_Sys_Timer_Init:	
  4077                           
  4078                           	psect	text20
  4079  0592                     __ptext20:	
  4080 ;; *************** function _ES_InitQueue *****************
  4081 ;; Defined at:
  4082 ;;		line 56 in file "ES_Queue.c"
  4083 ;; Parameters:    Size  Location     Type
  4084 ;;  pBlock          1    wreg     PTR struct ES_Event_t
  4085 ;;		 -> Queue1(12), Queue0(12), 
  4086 ;;  BlockSize       1    0[BANK0 ] unsigned char 
  4087 ;; Auto vars:     Size  Location     Type
  4088 ;;  pBlock          1    2[BANK0 ] PTR struct ES_Event_t
  4089 ;;		 -> Queue1(12), Queue0(12), 
  4090 ;;  pThisQueue      1    3[BANK0 ] PTR struct .
  4091 ;;		 -> Queue1(12), Queue0(12), 
  4092 ;; Return value:  Size  Location     Type
  4093 ;;                  1    wreg      unsigned char 
  4094 ;; Registers used:
  4095 ;;		wreg, fsr0l, fsr0h, status,2, status,0
  4096 ;; Tracked objects:
  4097 ;;		On entry : 0/0
  4098 ;;		On exit  : 0/0
  4099 ;;		Unchanged: 0/0
  4100 ;; Data sizes:     COMMON   BANK0   BANK1   BANK2
  4101 ;;      Params:         0       1       0       0
  4102 ;;      Locals:         0       2       0       0
  4103 ;;      Temps:          0       1       0       0
  4104 ;;      Totals:         0       4       0       0
  4105 ;;Total ram usage:        4 bytes
  4106 ;; Hardware stack levels used:    1
  4107 ;; Hardware stack levels required when called:    3
  4108 ;; This function calls:
  4109 ;;		Nothing
  4110 ;; This function is called by:
  4111 ;;		_ES_Initialize
  4112 ;; This function uses a non-reentrant model
  4113 ;;
  4114                           
  4115                           
  4116                           ;psect for function _ES_InitQueue
  4117  0592                     _ES_InitQueue:	
  4118                           
  4119                           ;incstack = 0
  4120                           ; Regs used in _ES_InitQueue: [wreg-fsr0h+status,2+status,0]
  4121                           ;ES_InitQueue@pBlock stored from wreg
  4122  0592  1283               	bcf	3,5	;RP0=0, select bank0
  4123  0593  1303               	bcf	3,6	;RP1=0, select bank0
  4124  0594  00CA               	movwf	ES_InitQueue@pBlock
  4125  0595                     l1869:	
  4126                           
  4127                           ;ES_Queue.c: 58: pQueue_t pThisQueue;;ES_Queue.c: 60: pThisQueue = (pQueue_t)pBlock;
  4128  0595  084A               	movf	ES_InitQueue@pBlock,w
  4129  0596  00C9               	movwf	??_ES_InitQueue
  4130  0597  0849               	movf	??_ES_InitQueue,w
  4131  0598  00CB               	movwf	ES_InitQueue@pThisQueue
  4132  0599                     l1871:	
  4133                           
  4134                           ;ES_Queue.c: 62: pThisQueue->QueueSize = BlockSize - 1;
  4135  0599  0848               	movf	ES_InitQueue@BlockSize,w
  4136  059A  3EFF               	addlw	255
  4137  059B  00C9               	movwf	??_ES_InitQueue
  4138  059C  084B               	movf	ES_InitQueue@pThisQueue,w
  4139  059D  0084               	movwf	4
  4140  059E  0849               	movf	??_ES_InitQueue,w
  4141  059F  1383               	bcf	3,7	;select IRP bank0
  4142  05A0  0080               	movwf	0
  4143  05A1                     l1873:	
  4144                           
  4145                           ;ES_Queue.c: 63: pThisQueue->CurrentIndex = 0;
  4146  05A1  0A4B               	incf	ES_InitQueue@pThisQueue,w
  4147  05A2  0084               	movwf	4
  4148  05A3  0180               	clrf	0
  4149  05A4                     l1875:	
  4150                           
  4151                           ;ES_Queue.c: 64: pThisQueue->NumEntries = 0;
  4152  05A4  084B               	movf	ES_InitQueue@pThisQueue,w
