:020000040000FA
:100000008A110D288A11542CFE00030EF5000408F5
:10001000F6000A08F7008A11F22B8A110F288313C1
:10002000D330FD000530FE00D830FF00C83084001A
:100030008A11AD258A11A0308400C8308A11F825B4
:100040008A112030840048308A11F8258A117830CE
:1000500084007E308A11F8258A1183018A112C2CA4
:10006000FF0000308A007F08820735288A112D2D75
:100070008A11B82B8A11F12C8A11CB2D8A11EE2D01
:100080008A11052A83120313E100A02844088A116B
:1000900075238A1183120313E2006208E4004530DD
:1000A000E2006208CC006408E3006307203E84009D
:1000B0008A1195248A118A119E218A11003A031D02
:1000C000622863289628831203136408183E84006C
:1000D0008A1195248A11FF3AE2006208C405962825
:1000E0004508CC004608CD004708CE008A110522FD
:1000F0008A11831203134C0803197F288028A02833
:100100000230E2006208E000BC284508C80046084A
:10011000C9004708CA008A11EE258A118312031309
:100120004808031994289528A028802883120313CF
:100130006408003A03197028013A03198528A02899
:10014000831203134408031DA628A7284628AB28BA
:100150008A1135218A118A11E3258A11003A031D7B
:10016000B228B328A8288A1164258A118A11F1249B
:100170008A1183120313452800308A006108820027
:10018000831203131A08F2007208F30023297E3049
:100190007306031DCC28CD2834298A11BA258A116B
:1001A000FB01FB0A34297308031DD728D828DD2852
:1001B0000230F2007208FB003429FB013429730875
:1001C000F2007208F90011307902031CE828E928CE
:1001D000EA28DD28FA01FD010430F2007208FB0074
:1001E000342910307A020318F628F7280F297308EB
:1001F000F2007A08203E84007208831380000130E8
:10020000F2007208FA077A087906031D08290929FD
:100210001029FA010530F2007208FB001029FB01D9
:100220007308F2007208FD0734297308F20072089F
:10023000FD077D0A031D1D291E29DD280130F2005E
:100240007208BD00DD287B08003A0319C728013A6F
:100250000319D328033A0319DF28063A0319F128B2
:10026000013A0319152934290800013083120313B8
:10027000B5070318B60A0030B60743080319412929
:1002800042299D294308DD005D08C20042088A1109
:1002900075238A1183120313DD005D08C100410834
:1002A000DD005D07A03E8400013083138002840FCF
:1002B0000030031C8003800284030008DE00840AEF
:1002C0000008DF005E085F04031D672968298E2986
:1002D0000430DD005D08B0004108DD00DE015D088E
:1002E000B1005E08B2003008DA003108DB003208E5
:1002F000DC004108103E84008A1195248A118A117D
:1003000030208A11831203134108183E84008A1199
:1003100095248A11FF3ADD005D08C3054108183EA7
:1003200084008A1195248A11FF3ADD005D08C20518
:100330004208031D9C299D294629080083120313A6
:10034000D4005408CD004D08D5005508023E840065
:10035000831300080319AD29AE29FA290B08CD0033
:100360004D08D2008B130330CD004D08C800550A4C
:10037000840000088A117B258A1183120313540715
:10038000CE004E08033E840083130008CF00840A89
:100390000008D000840A0008D1004C0884004F08EF
:1003A0008000840A50088000840A510880000130CF
:1003B000CD00550A84004D088007550884000008C8
:1003C000CD00550A84000008CE004D084E02031CE3
:1003D000EA29EB29EE29550A840080015508023EDE
:1003E0008400013080020008CD004D08D30052087F
:1003F0008B00032A4C08840080014C0A8400800191
:10040000840A8001D3015308080083120313D30127
:100410005C2A81302006031D0E2A0F2A642A240834
:1004200006390319142A152A642ABF012408CF00AB
:100430004F08D6002408CF004F08D7005708CF0038
:10044000D0015608D100D2015108D200D1014F0885
:100450005104B30050085204B400D8015808253E96
:10046000840083130008CF005808C83E84004F085A
:1004700080000130CF004F08D8070B305802031C12
:10048000422A432A2E2A0130CF004F08BF004C30A9
:10049000C8000030C90000308A1165248A11831217
:1004A0000313BC01BC0A642A4D084E04031D592ADB
:1004B0005A2A642ABC01642A4C08043A0319542AB3
:1004C000033A0319092A642A5308CC005408CD00C2
:1004D0005508CE0008008A110F258A1183120313D4
:1004E000E2016208DF005F07243E84008A11952440
:1004F0008A11003A03197D2A7E2A8B2A6208DF00BE
:100500005F07253E84008A1195248A11003A031D55
:100510008A2A8B2A8D2A0330C82A6208DF005F07E7
:10052000213E84008A1195248A11E0006008C800E9
:100530006208E1006107203E84008A1195248A1137
:100540008A1192258A11831203136208DF005F0863
:10055000DA006208E0006007243E84008A119524D6
:100560008A118A1130208A11013A0319B82AB92A4E
:10057000BB2A0530C82A013083120313DF005F084D
:10058000E20702306202031CC62AC72A712A003021
:10059000080083120313D3005308CF004F08D40080
:1005A0005408840083130008CF005408023E8400DE
:1005B0000008D0004F0850020318DF2AE02A202B41
:1005C0005408023E84000008CF00540A840000084A
:1005D0004F07D0005008D20054088400000852028F
:1005E000031CF32AF42AF82A540884000008D202D3
:1005F0000B08CF004F08D1008B130330CF004F08FA
:10060000C80052088A117B258A11831203135307ED
:10061000D0005008033E84004C0883138000840AF5
:100620004D088000840A4E0880000130CF00540835
:10063000023E84004F08800751088B000130212BB7
:100640000030080083160313141C272B282B742B4F
:10065000831203131308F0007008F200682BFF30B8
:1006600093008A1100268A11F00070088312031388
:10067000B900C0307205F000C0307006031D412B78
:10068000422B572B0F307205F0000B30700203180D
:100690004A2B4B2B572B72080F393907F000700883
:1006A000840083130008F1007108F8005B2BFF3011
:1006B000F0007008F800BA01BA0A732B78089300AA
:1006C0000230F0007008BA00732B9301BA01732B4B
:1006D0003A08003A03192F2B013A03195E2B033A0B
:1006E0000319652B732B8C11080083120313CB00A5
:1006F0008030C8004808CC00CE01CE0A4B08C800A4
:100700004E08C90001300310C90DFF3E031D832BA5
:100710000310490D013E8E2B0310C80CFF3E031D34
:100720008C2B48080F39CA004A08CD004D08031920
:100730009A2B9B2BAE2B4E08C80002300310C80D1D
:10074000FF3E031D9E2B4D08003E84008A11952418
:100750008A114807C9004908CC00B62BFF30C800F1
:100760004808CE07CE1FB52BB62B7E2B4C080800B1
:10077000831203135A08DB005B08BB008B1383163C
:10078000031394018713061606170717F830831210
:100790000313DB005B08831203179F058312031307
:1007A000930134309400BA01831603138C150B1790
:1007B0008B17023083120313DB005B08DC005C083C
:1007C000D5005D08D6005E08D7003B088A11C32417
:1007D0008A11013A031DED2BEE2BF02B0130F12B8A
:1007E000003008008312031387168C1DF82BF92B99
:1007F000022C831603138C1DFE2BFF2B022C8A1157
:1008000022238A11831203138C1E072C082C112C0F
:10081000831603138C1E0D2C0E2C112C8A11C02054
:100820008A110B1D142C152C202C0B110130F400F7
:100830007408FC070130F400740883120313870660
:1008400083120313871277088A0076088400750ED6
:100850008300FE0E7E0E09007030831603138F0096
:100860008A114A258A1183160313871183120317ED
:100870009E13831203138711831603130712831227
:100880000313071201308A116B228A11831203139A
:10089000E5006508E60007166608031D502C512C7C
:1008A0005A2C02308A114228831203136008E50093
:1008B0006508E6006608033A0319622C063A031934
:1008C000622C622C622C8A110D2883120313CB0038
:1008D00008304B0203186D2C6E2C942C4B08103EE4
:1008E00084008A1195248A11003A0319782C792CF6
:1008F000942C48084904031D7E2C7F2C802C942CBA
:100900004B08CA004A07A03E8400480883138000B1
:10091000840A490880004B08183E84008A119524F7
:100920008A11CA004A08C304080004308A00040877
:10093000840A820700340034013401340234023462
:1009400002340234033403340334033403340334F1
:1009500003340334073400340034003400340034EA
:1009600000340034013402340434083410342034A8
:1009700040348034BC340434B034043401340B3497
:1009800003340934053483120313D90002305902A9
:100990000318CB2CCC2CEF2C5508CC005608CD00DE
:1009A0005708CE005908D8005807203E84008A1105
:1009B00095248A118A11C9228A11013A031DE12C5A
:1009C000E22CEF2C831203135908183E84008A117D
:1009D00095248A11D8005808C4040130F02C003046
:1009E0000800831203133D080319F72CF82C0D2D72
:1009F0000730DA005A08DB00DC01DD015B08D500B6
:100A00005C08D6005D08D70000308A11C3248A1123
:100A100083120313BD0101300E2D00300800831630
:100A200003130710831203171E12831203130710F8
:100A30008316031387128312031387128B138316F3
:100A40000313811281110114811401158312031300
:100A500081010B118B168B170800831203135A08A0
:100A6000DB005B08C0000230DB005B08DC005C08D8
:100A7000D5005D08D6005E08D70040088A11C3245F
:100A80008A11013A031D452D462D482D0130492D6F
:100A9000003008008B1381308316031399009A01EC
:100AA00018159B111812831203139817831603133A
:100AB0000C128C160B179816831203131816831238
:100AC00003179F118B170800003083120313071BB5
:100AD0000130CA004A08370603196F2D702D762D94
:100AE0004A080319742D752D762DBA014A08C800DD
:100AF0004808B700080083120313CB00CA014B1C3F
:100B0000822D832D872D4808C9004908CA07031084
:100B1000C80D0310CB0C4B08031D8F2D902D7F2D7E
:100B20004A08080083120313CA004A08C90049088A
:100B3000CB004808FF3EC9004B08840049088313D6
:100B400080004B0A840080014B08023E8400800133
:100B500008007E088A007F0882008A11A9258A1170
:100B60008000840A04087D0603190034FF0A031973
:100B7000FE0AAD2DF1017108203E8400831380012F
:100B80000130F0007008F10710307102031CC92D0C
:100B9000CA2DBB2D0800831203135A08D5005B0829
:100BA000D6005C08D70040088A11C3248A110800C7
:100BB0000034013402340334043405340634073479
:100BC000083409340A347C080319E72DE82DEC2D8C
:100BD0000130FC020130ED2D0030080083120313B8
:100BE000CB014B08C8004C08C9004D08CA000800DA
:100BF00064008001840A0406031900340406F92DF8
:040C0000C8300800F0
:02400E00E2F0DE
:00000001FF
