:040000008A11112828
:10000800FE00030EF9000408FA000A08FB00831238
:1000180003137F08FC008A15772E8A111328FD0127
:1000280083134E3084006D308A11F3278A11A03073
:100038008400E1308A11F3278A1183172030840065
:1000480050308A11F32783160313FF30E100FF3085
:10005800E200FF30E300FF30E400FF30E500FF304E
:10006800E60083120313FF30ED00FF30EE00FF308F
:10007800EF0083018A11782800308A000408840A76
:10008800820700340034013401340234023402346B
:1000980002340334033403340334033403340334A1
:1000A8000334013402340434083410342034403426
:1000B8008034203404342C34043438340434443444
:1000C80004340334193401341B3405341734073429
:1000D800153411340F341334003400340034003430
:1000E80000340B340D3409347030831603138F0039
:1000F8008A11D9278A1183160313871183120317CC
:100108009E1383120313871101308A1159278A110C
:1001180083120313CC00CD004D08031D9A288A11C1
:1001280054218A1183120313CC00CD004D08033AE1
:0E0138000319A228063A0319A228A228A22819
:10020000FF0001308A007F08820705298A11612BCF
:100210008A11A22B8A11772B8A1140298A11AA2AC6
:100220008A11C52A8A11DB2A8A1136298A112C29BA
:100230008A1122298A118C2E8A11572B8A11EE2CB1
:100240008A11DF2B831203133208AD003308AE008E
:100250003408AF005008682E831203133208AD0033
:100260003308AE003408AF005708682E831203131A
:100270003208AD003308AE003408AF005508682ED0
:10028000831203133208B300D0000230B300B4006D
:10029000AD003508AE003608AF00500868268A1158
:1002A000013A031901340034B629831603135E089A
:1002B00083120313B200831603135F088312031320
:1002C000B30083160313600883120313B400EE24F3
:1002D0008A11831203133208B429831603135E08AC
:1002E00083120313B600831603135F0883120313EC
:1002F000B70083160313600883120313B800DF23CB
:100300008A11831203133608B429831603135E0877
:1003100083120313A000831603135F0883120313D1
:10032000A10083160313600883120313A20057234E
:100330008A11831203132008B429831603135E085D
:1003400083120313A400831603135F08831203139D
:10035000A50083160313600883120313A6008C26DE
:100360008A11831203132408031D0234831203131A
:1003700059080319F1298312031359086C228312B7
:100380000313C900CB00DE30C900A4004B08CA002B
:100390004A07183E84008A1140208A11F1228A11EE
:1003A000003A031DDE29831203134B08103E84001C
:1003B0008A1140208A11FF3AC900D905831203131C
:1003C0004B08003A03195529013A03196D29033ADC
:1003D00003198529013A03199D29B629B629FD215A
:1003E0008A114F238A11003A031DEF29AA228A118C
:1003F000C5228A11DB228A11B62901308316031324
:10040000D5070318D60A0030D607831203135B08FA
:1004100003190800B500CE004E086C228A11831221
:100420000313B500CF00B5003507B43E840001309A
:1004300083138002840F0030031C80038002840336
:100440000008B600840A0008B7003604031D5F2ABE
:100450000430B50083160313CE00831203134F0834
:10046000B500B60183160313CF00831203133608B9
:1004700083160313D0004E0883120313B2008316B1
:1004800003134F0883120313B3008316031350089A
:1004900083120313B4004F08283E84008A114020C1
:1004A0008A118A1100218A11831203134F08103E0A
:1004B00084008A1140208A11FF3AB500DB054F08FD
:1004C000103E84008A1140208A11FF3AB500CE0503
:1004D0004E08031908000C2A83120313A30080306E
:1004E000A000A400A601A60AA61BA82A2308A00013
:1004F0002608A10001300310A10DFF3E0310031DCB
:100500007C2A210D013E862A0310A00CFF3E031D0C
:10051000842A20080F39A200A50025080319A32A60
:100520002608A00002300310A00DFF3E031D932AF1
:100530002508FF3E013E84008A1140208A112007D1
:10054000A100A400A82AFF30A000A607A61F762AB3
:1005500024080800831203136308031900340D30C4
:10056000B200B4005D08B200B301B5003308B600B4
:100570003408AD003508AE003608AF0001306826FB
:10058000831201300313E301080083120313580898
:10059000031900340730B200B300B401B501AD0057
:1005A0003408AE003508AF000030682683120130F1
:1005B0000313D801080083120313690803190034D8
:1005C0000C30B200B300B401B501AD003408AE0088
:1005D0003508AF0055086826831201300313E9017E
:1005E000080083120313AC00A500AD00023E840096
:1005F000831700080319432B0B08A500AA008B13CF
:100600000330A500A0002D0A84000008013E5626F4
:100610008A11831203132C07A60084008317000895
:10062000A700840A0008A800840A0008A90024087A
:100630008400270883138000840A28088000840A25
:10064000290880000130A5002D0A840025088317A1
:1006500080072D0884000008A5002D0A84000008EA
:10066000A60025082602031C382B2D0A84008001D1
:100670002D08023E8400013080020008A500AB0076
:100680002A088B004D2B2408840083138001240A40
:1006900084008001840A8001AB012B0808008312CA
:1006A00003135C08031900340130DC0201348312A7
:1006B0000313A3012308A0002408A1002508A20019
:1006C0000800831203133208B300D5000230E201A0
:1006D000E101B300B400AD003508AE003608AF004C
:1006E000550868268A11013A03190134003483122F
:1006F00003133208B300D100E5018B1383160313F3
:1007000094018713061606170717FF308312031389
:10071000930034309400D201831603138C110B1311
:100720008B17023083120313B300B400AD003508F9
:10073000AE003608AF00510868268A11013A031945
:1007400001340034831203133208B300D7000130A0
:10075000E700E800B300E6006608031DB32BE601DE
:10076000E60AEA01B62BE601EA01EA0A6808031D77
:10077000BD2BE801E80AEC01C02BE801EC01EC0A12
:100780006708031DC72BE701E70AEB01CA2BE70146
:10079000EB01EB0A831602300313D301D401831259
:1007A0000313B300B400AD003508AE003608AF0047
:1007B000570868268A11013A03190134003483125C
:1007C0000313BD01C02C02303606031DCE2C8D2C28
:1007D0000D303606031D412C831603135208031DEA
:1007E000F32B0130F42B003083120313B900BA014C
:1007F00083160313510483120313BB003A08BC0091
:100800003B04031D062C0130C000072CC001C101B0
:100810004008410403193C2C83160313D7013A27DF
:100820008A117E30DA248A110030DA248A110530E8
:10083000DA248A110130DA248A110130DA248A118B
:10084000831603135108DA248A11831603135208FE
:10085000DA248A11831203133708DA248A11402715
:100860008A11DA248A11023083120313B900D600E8
:10087000831603130C16CE2C83160313D701D70A45
:10088000CE2C0B3083123606031DCE2C3808B9004F
:1008900083160313D100831203133708B90083169C
:1008A0000313D200CE2C0C3083123606031DCE2C3F
:1008B0000330B900D6001330A0000130A101CA26D0
:1008C0008A11CE2C0430831203133606031D882CA4
:1008D00037033804031D852C0F3083120313B20035
:1008E000B300B401B5013308AD003408AE003508DB
:1008F000AF00033068268A1183120313E10102302E
:10090000B200D600831603130C16831203138D2C2A
:100910000E3036060319AA2CCE2CD601D60ACE2CC0
:100920000F3083120313B200B300B401B5013308D2
:10093000AD003408AE003508AF00033068268A11D8
:1009400083120313E1010230B200D60083160313B1
:100950000C16CE2C831203133808003A0319B12C5D
:10096000CE2C3708003A03198D2C013A0319902C2C
:10097000033A0319902C013A0319902CCE2CCE2C5B
:100980005608003A0319E32B013A0319E82B033AFE
:100990000319532C013A0319622CCE2C8312031332
:1009A000560BD32CE1013D08B6003E08B7003F08C6
:1009B000B800080083120313A1000A306206031D69
:1009C000560B08002108A0006208C43E84002008DD
:1009D000831380000130A000E20708008312031394
:1009E000BC01452E0A30B500A000660856268A11C3
:1009F000A03E84008130831300060A30031D172EA9
:100A000083120313B500A000660856268A11043E1F
:100A1000A03E84008313000806390319A32D831216
:100A200003300313C701470203183F2D0530470762
:100A3000B500A03EB6000A30B700A00066085626F2
:100A40008A11831203133607B80084008313000849
:100A5000B9000330BA00A0006C0856268A11E13EA6
:100A6000831203134707BB008400390883138000F7
:100A70000130B500C70703304702031C162D680874
:100A8000031D462DE801E80AEC01492DE801EC01BF
:100A9000EC0A4C30A0000030A101CA268A11831252
:100AA00003300313E001E00AB500A00068085626F1
:100AB0008A11013EE13E8400831300088312031370
:100AC000B600B701B700B601360883160313D30486
:100AD00083120313370883160313D40403308312DD
:100AE0000313B500A000680856268A11023EE13EB5
:100AF00084008313000883120313B600B701831622
:100B00000313D30483120313370883160313D40487
:100B10000B3083120313B500C1008316031354086E
:100B200083120313C30083160313530883120313A2
:100B3000C2004108AD004208AE004308AF000130DA
:100B400068268A114D2E0A3083120313B500A000C7
:100B5000660856268A11013EA03E840083130008D1
:100B600083120313B600B701B700B6013608BF0001
:100B70003708C0000A30B500A000660856268A1162
:100B8000023EA03E84008313000883120313B600C4
:100B9000B701BF043708C004400883160313540686
:100BA000031DD82D831203133F0883160313530626
:100BB000031D4D2E831203300313C801480203188E
:100BC0000A2E05304807B500A03EB6000A30B7002F
:100BD000A000660856268A11831203133607B80050
:100BE000840083130008B9000330BA00A0006B082A
:100BF00056268A11D83E831203134807BB0084008F
:100C00003908831380000130B500C807033048025B
:100C1000031CE12D6708031D112EE701E70AEB0114
:100C2000142EE701EB01EB0AE401E40A4D2E8312D6
:100C30000313B500A000660856268A11A03E840062
:100C4000893083130006031D4D2E0E3083120313CB
:100C5000B500C4000230C500C6014408AD00450817
:100C6000AE004608AF00013068268A114D2E83126F
:100C7000031333083404031D4D2E83160313D301CD
:100C8000D40183120313E0014D2E3208043A0319F4
:100C9000372E033A0319F22C4D2E831203133C080E
:100CA000B2003D08B3003E08B400080083120313ED
:100CB000A300A201231C5F2E2008A100A20703109D
:100CC000A00D0310A30C2308031D5A2E22080800B0
:100CD00083120313B10004303102031800342D08CD
:100CE000A4002E08A5002F08A6003108B000300788
:100CF000183E84008A1140208A11F1268A11013A97
:100D0000031D0034831203133108103E84008A113E
:100D10004020B000D904013483120313A801B42E7B
:100D20002630A0000230A101CA268A11C12E02304D
:100D30008312031325062604031DC12E0830A700C5
:100D400087062630A0000230A101CA268A11C12ED2
:100D5000083083120313A70087062630A000023054
:100D6000A101CA268A11C12E831203132408023A54
:100D70000319902E063A0319972E0B3A0319A82E41
:100D8000C12E831203132808A4002908A5002A08ED
:100D9000A600080083120313A300083023020318DF
:100DA00008002308283E84008A1140208A11003A56
:100DB0000319080020082104031908002308A200D1
:100DC0002207B43E8400200883138000840A21088F
:100DD00080002308103E84008A114020A200DB041A
:100DE000080083120313AB00A700AC008400831734
:100DF0000008A7002C08023E84000008A80027086D
:100E00002802031800342C08023E84000008A700C2
:100E10002C0A840000082707A800AA002C088400D8
:100E200000082A02031C182F2C0884000008AA02BC
:100E30000B08A700A9008B130330A700A0002A0805
:100E4000013E5626831203132B07A80084002408B2
:100E500083178000840A25088000840A2608800001
:100E60000130A7002C08023E8400270880072908CB
:100E70008B00013483120313560B0800E2010800B3
:100E8000831203300313A101A000A2006208220212
:100E90000318552F2208C43E840083130008A000C5
:100EA000A1070130A000A207462F2103FF3AFF3E11
:100EB0000800B8278A11831204300313B9013902DC
:100EC000031800343908B7003707203E84008A1120
:100ED00040208A11003A031903340314390D203ECF
:100EE00084008A1140208A11003A03190334031444
:100EF000390D183E84008A1140208A11B700A000E5
:100F00003908B8003807183E84008A1140208A1139
:100F1000A327831203133908B700B2003908B800B9
:100F20003807203E84008A1140208A118A1100214E
:100F30008A11013A031D0534013083120313B700EF
:100F4000B90704305F2F83120313A200A100A3008E
:100F50002008FF3EA1002308840021088317800099
:100F6000230A840080012308023E840080010800D7
:100F7000831603130710831203171E128312031321
:100F80000710831603138713831203179F1083120E
:100F9000031387138B13831603138112811101101E
:100FA000811001158312031381010B118B168B170E
:100FB00008008B1381308316031399009A011815CA
:100FC0009B111812831203139817831603130C1224
:100FD0008C120B139816831203131816831203171F
:100FE0009F118B17080064008001840A040603190E
:060FF00000340406F42F9A
:101CEE0087170B1D7F2E0B110130F800DC078706BE
:101CFE008C1D312F83160313141C312F872E312F79
:101D0E00831203131308F500F6001F2FFF30930004
:101D1E006508031D9F2E942E9F2EFF30F500ED00BB
:101D2E00F500EE00F500EF006D30F500DA00FD2E47
:101D3E00C0307605F500C03A031DAE2EA72EAE2E8E
:101D4E00F7278A15F50083120313DA00FD2EC03033
:101D5E007605F500803A031DCB2EB62ECB2E5E08EF
:101D6E00031DC42EBB2EC42E76083F39F500DD00B0
:101D7E00E301E30ADE01DE0AC42EED01EE016D3051
:101D8E00EF01F500DA00FD2EC0307605F500403A81
:101D9E00031DF22ED32EF22E831203136408D72EB8
:101DAE00003A0319E92EDC2EE92EEE278A15F500EE
:101DBE0083120313DA0083120313E4018312031355
:101DCE00DE01FD2E83120313ED01EE01EF016D30E6
:101DDE00F500DA00FD2EFF30F500ED00F500EE0007
:101DEE00F500EF006D30F500DA00FD2ED201D20ABB
:101DFE002F2F5A0884008313000893000230F50039
:101E0E00D2002F2F5A0A8400831300089300033048
:101E1E00F500D2002F2F5A08023E840083130008CB
:101E2E0093000430F500D2002F2F9301D2012F2FF3
:101E3E005208003A03198D2E013A0319002F033A66
:101E4E000319092F013A0319122F073A03191C2FF0
:101E5E008C11312F831203138C1EB32F8312031395
:101E6E001A08F400F700A22F7E307706031DB32F59
:101E7E00412FB32FDF01DF0AB32F7708031D4D2F3C
:101E8E00492F4D2F0230F400DF00B32FDF01B32FA7
:101E9E007708F400D3000B305302031C5A2F582F2F
:101EAE005A2FDF01B32FFD01D4010430F400DF00FF
:101EBE00B32F0A307D020318792F662F792F7708FA
:101ECE00F4000A30F500F0006A08DE278A15A03EFD
:101EDE007D07F60084007408831380000130F4003F
:101EEE00FD07792F7708F40083120313D4077D08BA
:101EFE005306031DB32F842FB32FFD010530F400BD
:101F0E00DF00B32F7708F400D407540FA02F912FC2
:101F1E00A02F912F6608031D9A2F962F9A2FE60158
:101F2E00E60AEA019E2FE601EA01EA0A9E2FD8018F
:101F3E00D80ADF01B32F5F08003A03193B2F013A8D
:101F4E000319442F033A03194F2F063A0319602F32
:101F5E00013A0319892FB32F831203130C1ED02FAE
:101F6E008312031362086102031CC52FBF2FC52FF6
:101F7E00E901E90A831603130C12D02F83126108AC
:101F8E00C43E84008313000899000130F000E1077D
:101F9E00D02F8312031387137C08FF007B088A005F
:101FAE007A088400790E8300FE0E7E0E0900F20080
:101FBE00F301721CE52F7008F100F3070310F00D0A
:101FCE000310F20C7208031DE02F73080800033093
:101FDE00F400F000831203136708DE27D83E0800D2
:101FEE000330F400F000831203136808DE27E13E8D
:021FFE000800D9
:02400E00F2F0CE
:00000001FF
