:100000008A1111288A15282EFE00030EF900040813
:10001000FA000A08FB00831203137F08FC008A1110
:10002000112D8A111328FD0183135930840070307B
:100030008A1589258A11A0308400E2308A15892525
:100040008A1183172030840058308A1589258A1137
:100050008313EB30FD000D30FE009130FF00E230E5
:1000600084008A15AB2583018A15142E831203138D
:10007000BF00013083160313C1070318C20A003002
:10008000C2078312031364080319A8286408C00078
:10009000D9005908AC208A1183120313C000DA007A
:1000A000C0004007A03E8400013083138002840F0B
:1000B0000030031C8003800284030008C100840A0E
:1000C0000008C2004104031D9C280430C0008316B0
:1000D0000313BA00831203135A08C000C101831628
:1000E0000313BB0083120313410883160313BC00E0
:1000F0003A0883120313BC00831603133B088312D0
:100100000313BD00831603133C0883120313BE00C0
:100110005A08343E84008A1500208A118A11002171
:100120008A11831203135A081C3E84008A1500208A
:100130008A11FF3AC000E4055A081C3E84008A1563
:1001400000208A11FF3AC000D9055908031D49282B
:1001500008308A003F08820083120313A300803016
:10016000A000A400A601A60AA61BE8282308A00058
:100170002608A10001300310A10DFF3E0310031D4E
:10018000BC28210D013EC6280310A00CFF3E031D14
:10019000C42820080F39A200A50025080319E32868
:1001A0002608A00002300310A00DFF3E031DD32837
:1001B0002508FF3E013E84008A1500208A11200791
:1001C000A100A400E828FF30A000A607A61FB628BB
:1001D00024080800831203133C08BD00DB00023032
:1001E000BD00BE00B3003F08B4004008B5005B0886
:0E01F0008A114F248A11013A03190134003498
:10020000FF0001308A007F08820705298A15B72D73
:100210008A15852E8A15E82D8A11EA288A15072F56
:100220008A15322F8A15EE2E8A11D22F8A154E2F5B
:100230008A11D22B8A11CC2E8A110A2A8A159A2D5C
:100240008A15412E83120313D00083120313620810
:1002500003198C298312031362088A11AC208A11B6
:1002600083120313D100D6000330D100A00056083A
:10027000C023103E84008A1500208A1183120313C4
:10028000D2008A1500208A11D3005208D4005308E6
:10029000D5005408A4005508A500DF30D100A60001
:1002A0008A1559278A11003A031D61298312031305
:1002B00056081C3E84008A1500208A11FF3AD1009E
:1002C000E205831603135F0883120313C400831629
:1002D0000313600883120313C50083160313610818
:1002E00083120313C6000314560D243E84008A159E
:1002F00000208A11D1004530C70051088A11002919
:10030000831203134408031925290230D100CF00BA
:1003100097294D308A11362809258A11003A031D84
:1003200089294F308A15D22E8312031325290830CC
:100330008A005008820083120313C20007248A1126
:10034000831204300313C80148020318052A480821
:10035000C3004307243E84008A1500208A11003A16
:100360000319BC290314480D243E84008A1500207B
:100370008A11003A031DBE290330F9290330C30056
:10038000A0004808C023103E84008A1500208A116E
:1003900083120313C4008A1500208A11C500440883
:1003A000A4004508A5000330C600A0004808C023EB
:1003B000023E103E84008A1500208A118312031326
:1003C000C700A600DC23831203134808C300BC0047
:1003D0004808C4004407243E84008A1500208A117E
:1003E0008A1100218A11013A0319FC290530831270
:1003F0000313C300C100062A013083120313C30094
:10040000C80704304802031CA729C10100308A0034
:100410004208820083120317D801A02B0A3003136D
:10042000C800A0006A08C0238A11203E84008130E1
:10043000831700060A30031D692B83120313C800BB
:10044000A0006A08C0238A11043E203E840083175E
:10045000000806390319DA2A831203300317E3016F
:1004600063020318622A0530630783120313C8006E
:10047000203EC9000A30CA00A0006A08C0238A11C1
:10048000831203134907CB00840083170008CC00B4
:100490000330CD00A0006F08C0238A11E23E831212
:1004A0000317630783120313CE0084004C088313E1
:1004B00080000130C80083120317E3070330630292
:1004C000031C332A831203136C08031D6D2A692A47
:1004D0006D2AEC01EC0AEF01712AEC01EF01EF0A41
:1004E000712A4C3083120313A0000030A10128248C
:1004F0008A11831603300313C901C90A8312031337
:10050000C800A0006C08C0238A11013EE23E8400AE
:100510008313000883120313C900CA01CA00C9016A
:10052000490883160313BF04831203134A08831672
:100530000313C004033083120313C800A0006C0827
:10054000C0238A11023EE23E840083130008831216
:100550000313C900CA0183160313BF0483120313D4
:100560004A0883160313C0040B3083120313C80018
:1005700083120317DD008316031340088312031749
:10058000DF00831603133F0883120317DE005D08A4
:1005900083120313BC00831203175E088312031334
:1005A000BD00831203175F0883120313BE00D2231A
:1005B0008A11AA2B0A3083120313C800A0006A080C
:1005C000C0238A11013E203E840083170008831255
:1005D0000313C900CA01CA00C901490883120317DD
:1005E000DB00831203134A0883120317DC000A306E
:1005F00083120313C800A0006A08C0238A11023EB8
:10060000203E84008317000883120313C900CA0127
:1006100083120317DB04831203134A0883120317A0
:10062000DC045C08831603134006031D1D2B831294
:1006300003175B08831603133F06031DAA2B8312BF
:1006400003300317E40164020318552B05306407D7
:1006500083120313C800203EC9000A30CA00A0005C
:100660006A08C0238A11831203134907CB00840050
:1006700083170008CC000330CD00A0006E08C02313
:100680008A11D93E83120317640783120313CE0025
:1006900084004C08831380000130C80083120317C4
:1006A000E40703306402031C262B831203136B0838
:1006B000031D602B5C2B602BEB01EB0AEE01642B1E
:1006C000EB01EB0AEE01642B83120313E901E90A43
:1006D000AA2B83120313C800A0006A08C0238A1142
:1006E000203E8400893083170006031DAA2B0E309C
:1006F00083120313C80083120317E0000230E100E5
:10070000E201600883120313BC008312031761081F
:1007100083120313BD0083120317620883120313AD
:10072000BE00D2238A11AA2B831203134508460464
:10073000031DAA2B83160313BF01C001C901AA2BF5
:10074000831203134408043A0319942B033A031940
:100750000E2AAA2B83120317580883120313C4000E
:1007600083120317590883120313C500831203175A
:100770005A0883120313C60008308A004708820013
:1007800083120313A300A201231CC92B2008A1007C
:10079000A2070310A00D0310A30C2308031DC42BF4
:1007A00022080800831203133C08B3003D08B4007C
:1007B0003E08B5005E084F2C831203132408A900DD
:1007C0002508AA002608FF3EA700290884008313F5
:1007D0002A1883172708800001302907A7002A0854
:1007E0000318013EA800270884008317281C8313E0
:1007F000023080012907A7002A080318013EA8003B
:10080000270884008317281C83138001080083169F
:1008100003130710831203171E128312031307100A
:10082000831603138713831203179F108312031376
:1008300087138B138316031381128111011081100A
:1008400001158312031381010B118B168B170800FE
:1008500083120313A300083023020318080023089F
:10086000343E84008A1500208A11003A03190800DA
:1008700020082104031908002308A2002207A03E33
:100880008400200883138000840A21088000230844
:100890001C3E84008A150020A200E4040800831294
:1008A0000313BB0004303B02031800340330B600CE
:1008B000A0003B08C023103E84008A1500208A1146
:1008C00083120313B7008A1500208A11B800370875
:1008D000B9003808BA003908A4003A08A50033085E
:1008E000A6003408A7003508A80084248A11013A1C
:1008F000031D0034831203133B081C3E84008A1539
:100900000020B600E2040134831203132408B1006E
:100910002508B200310884008317321C83130008B5
:10092000A90002303107AA0032080318013EAB00CB
:100930002A08840083172B1C83130008AC002908A5
:100940002C020318003402303107A90032080318C2
:10095000013EAA002908840083172A1C831300087B
:10096000AB0001303107AC0032080318013EAD0086
:100970002C08840083172D1C831300082B07AE005E
:10098000B000310884008317321C83130008300242
:10099000031CD12C310884008317321C83130008F8
:1009A000B0020B08A900AF008B130330A900A00010
:1009B0003008013EC0238A1183120313AA002407C2
:1009C000AC002508AB000318AB0AAA1BAB032B082D
:1009D000AD002C08840083172D1C8313260880008B
:1009E000840A27088000840A280880000130A900B2
:1009F00002303107AA0032080318013EAB002A0872
:100A0000840083172B1C8313290880072F088B0071
:100A10000134831203136508031900340130E50221
:100A2000013487170B1D192D0B110130F800E50754
:100A300087068C1DF02D83160313141CF02D212D19
:100A4000F02D831203131308F500F600DA2DFF30A2
:100A500083129300831603134B08031D3E2D312D83
:100A60003E2DFF30F500E800F500E900F500EA0052
:100A7000E830F50083120313E300A62DC03076059D
:100A8000F500C03A031D4D2D462D4D2DC3268A116C
:100A9000F50083120313E300A62DC0307605F500A0
:100AA000803A031D6E2D552D6E2D831603134808B5
:100AB000031D652D5C2D652D76083F39F500C700B7
:100AC000CA01CA0AC801C80A652DE801E901E8306F
:100AD000EA01F50083120313E300A62DC03076056A
:100AE000F500403A031D972D762D972D83120313A1
:100AF00069087A2D003A03198C2D7F2D8C2DBA268A
:100B00008A11F50083120313E30083120313E90132
:100B100083160313C801A62D83160313E801E90108
:100B2000EA01E830F50083120313E300A62DFF303D
:100B3000F50083160313E800F500E900F500EA006C
:100B4000E830F50083120313E300A62D8316031388
:100B5000C301C30AEC2D83120313630884008313BB
:100B6000000893000230F50083160313C300EC2D38
:100B700083120313630A8400831300089300033075
:100B8000F50083160313C300EC2D831203136308CF
:100B9000023E84008313000893000430F50083169E
:100BA0000313C300EC2D8312031393018316031365
:100BB000C301EC2D831603134308003A0319272DB4
:100BC000013A0319AB2D033A0319B82D013A031961
:100BD000C52D073A0319D32D831203138C11F02D61
:100BE000831203138C1E7F2E831203131A08F40042
:100BF000F7006E2E7E307706031D7F2E002E7F2E8F
:100C0000E601E60A7F2E7708031D0C2E082E0C2E17
:100C10000230F400E6007F2EE6017F2E7708F40014
:100C2000DD000B305D02031C192E172E192EE60174
:100C30007F2EFD0183160313C4010430F4008312D8
:100C40000313E6007F2E0A307D0203183C2E292E66
:100C50003C2E7708F4000A30F500F0006D08AA2653
:100C60008A11203E7D07F6008400740883178000F7
:100C70000130F400FD073C2E7708F40083160313BF
:100C8000C4077D08831203135D06031D7F2E492EC2
:100C90007F2EFD010530F400E6007F2E7708F4007A
:100CA00083160313C407440F6B2E572E6B2E83122B
:100CB00003136A08031D622E5E2E622EEA01EA0A01
:100CC000ED01662EEA01ED01ED0A662E8312031393
:100CD000E101E10A6B2E8312E6017F2E6608003ADD
:100CE0000319FA2D013A0319032E033A03190E2EA4
:100CF000063A0319232E013A03194E2E7F2E831232
:100D000003130C1E9C2E8312031368086702031C36
:100D1000912E8B2E912E83160313CC01CC0A0C122C
:100D20009C2E83126708B03E84008313000899004C
:100D30000130F000E7079C2E8312031387137C0811
:100D4000FF007B088A007A088400790E8300FE0E7B
:100D50007E0E0900F200F301721CB12E7008F10042
:100D6000F3070310F00D0310F20C7208031DAC2EF4
:100D7000730808000330F400F000831203136B08BB
:100D8000AA26D93E08000330F400F00083120313B2
:100D90006C08AA26E23E080083120313C901652FDE
:100DA00002304406031D732F492F0D304406031DE6
:100DB000132FDD278A11003A03190E2F8316031310
:100DC000C60196278A117E3082278A110030822739
:100DD0008A11053082278A11013082278A11013059
:100DE00082278A11831603133D0882278A118316EE
:100DF00003133E0882278A118312031345088227B2
:100E00008A119C278A1182278A11023083120313C8
:100E1000C800DF00831603130C16732F8316031309
:100E2000C601C60A732F0B3083124406031D732FAD
:100E30004608C80083160313BD0083120313450838
:100E4000C80083160313BE00732F0C3083124406B0
:100E5000031D732F0330C800DF001330A0000130E2
:100E6000A1018A1128248A11732F043083120313DD
:100E70004406031D442F45034604031D412FFB3048
:100E8000B52F83120313492F0E30440603194F2F39
:100E9000732FDF01DF0A732FFD30B52F732F8312FD
:100EA00003134608003A0319562F732F4508003ADA
:100EB0000319492F013A03194C2F033A03194C2FF8
:100EC000013A03194C2F732F732F5F08003A03194F
:100ED000D02E013A0319D52E033A0319252F013AD2
:100EE0000319352F732F831203135F0B782FE7013C
:100EF0004908C4004A08C5004B08C60008308A00EB
:100F00004708820083120313A1000A306806031DFC
:100F10005F0B08002108A0006808B03E840020088C
:100F2000831380000130A000E80708008312031338
:100F30005F0B0800E8010800831203300313A101CE
:100F4000A000A200680822020318B12F2208B03EB8
:100F5000840083130008A000A1070130A000A207AD
:100F6000A22F2103FF3AFF3E080083120313BF00A4
:100F70000F30C000C100C201C301BC004208BD0067
:100F80004308BE00D227831202300313E701C000DA
:100F9000DF00831603130C168312073003138A0035
:100FA0003F088200831203133C08B3003D08B400DD
:100FB0003E08B5005B088A114F2C831603133E08C8
:100FC000031DE42F0130E52F003083120313A0002E
:100FD000A101831603133D0483120313A200210809
:100FE000A3002204031DF72F0130A400F82FA40151
:0E0FF000A501240808008A11412F8A114E2FF6
:1010000008308A000408840A82070034003401345E
:10101000013402340234023402340334033403341E
:1010200003340334033403340334CD340034043440
:101030003434013404344034013404344C34013445
:10104000043401340234043408341034203440347D
:10105000803403341734013415340534193407341B
:101060001B34013402340434083410342034403446
:101070008034113413340F3400340034003400341D
:1010800000340B340D34093400348A1180298A1558
:10109000D82E8A15E12E8A15332E8A118C298A11B1
:0210A000942991
:101B120064008001840A04060319003404068A2D35
:101B2200FF34FF34FF34FF34FF34FF34FF34FF341B
:101B3200FF3483120313C8014808C4004908C500D2
:101B42004A08C60008308A00470882007E088A00D8
:101B52007F088200A7258A158000840A04087D0672
:101B620003190034FF0A0319FE0AAB2D8312031373
:101B72003C08BD00DE000230E801E701BD00BE0006
:101B8200B3003F08B4004008B5005E088A114F2434
:101B92008A15013A0319013400348B1381308316FC
:101BA200031399009A0118159B111812831203133B
:101BB2009817831603130C128C120B1398168312A8
:101BC20003131816831203179F118B170800831231
:101BD20003133C08BD00DC0083160313CB018B13F7
:101BE20094018713061606170717FF308312031393
:101BF20093003430940083160313C3018C110B132A
:101C02008B17023083120313BD00BE00B3003F08DE
:101C1200B4004008B5005C088A114F248A15013AC5
:101C22000319013400347030831603138F008A15B0
:101C3200CE25831603138711831203179E13831273
:101C4200031387110230C101C10A8A119B29831231
:101C520003134108D700D8005808031D382E4B3013
:101C62008A112229831203134F08D700D80058087B
:101C7200033A0319402E063A0319402E402E402EF5
:101C820083120313C9016C2E2630A0000230A10179
:101C92008A1128248A15792E0230831203134506ED
:101CA2004604031D792E0830C80087062630A0009E
:101CB2000230A1018A1128248A15792E0830831254
:101CC2000313C80087062630A0000230A1018A1142
:101CD20028248A15792E831203134408023A031921
:101CE200452E063A03194D2E0B3A03195F2E792E13
:101CF200831203134908C4004A08C5004B08C600F2
:101D020008308A0047088200831203133C08BD0092
:101D1200E0000130EB00EC00BD00EA008312031387
:101D22006A08031D9A2E962E9A2EEA01EA0AED01FE
:101D32009E2EEA01ED01ED0A9E2E831203136C081A
:101D4200031DA92EA52EA92EEC01EC0AEF01AD2E42
:101D5200EC01EF01EF0AAD2E831203136B08031D92
:101D6200B82EB42EB82EEB01EB0AEE01BC2EEB011D
:101D7200EB0AEE01BC2E831602300313BF01C00131
:101D820083120313BD00BE00B3003F08B400400835
:101D9200B50060088A114F248A15013A03190134EB
:101DA200003483120313C6004730C000072F83128A
:101DB20003133F08003A031DE82E4930C000322FBA
:101DC200831203133F08003A031DE82EEE26831206
:101DD200083003138A0046088200831603134C0856
:101DE200031900340C3083120313BC00BD00BE0182
:101DF200BF01B3003E08B4003F08B5005E088A1177
:101E02004F24831601300313CC01080083160313F9
:101E12004A0803192C2F0D3083120313C100C3008B
:101E220083160313470883120313C100C201C400BF
:101E32004208C5004308BC004408BD004508BE0076
:101E42008A11D2238A1583160313CA01831203133C
:101E5200BF01BF0A2E2F8312BF0108308A0040083B
:101E620082008312031361080319492F0730C1004E
:101E7200C200C301C401BC004308BD004408BE0047
:101E82004E278A1583120313E101BF01BF0A4A2FAD
:101E9200BF0108308A0040088200831203133C0805
:101EA200B3003D08B4003E08B50060088A114F2C0B
:101EB200831203132408B3002508B4000230330749
:101EC200A70034080318013EA800270884008317DE
:101ED200281C831300080319F42F0B08A700B10074
:101EE2008B130330A700A00001303307A800340889
:101EF2000318013EA900280884008317291C8313B4
:101F02000008013E8A11C0238A1583120313AA0016
:101F12002407AC002508AB000318AB0AAA1BAB03CD
:101F22002B08AD002C08840083172D1C8313000896
:101F3200AE00840A0008AF00840A0008B000260838
:101F420084002E0883138000840A2F088000840AEC
:101F5200300880000130A7003307A80034080318B6
:101F6200013EA900280884008317291C831327082F
:101F72008007330884008317341C83130008A700EA
:101F820001303307A80034080318013EA9002808CD
:101F920084008317291C83130008AA0027082A0239
:101FA200031CE02F01303307A70034080318013E59
:101FB200A800270884008317281C8313800102309D
:101FC2003307A70034080318013EA800270884003D
:101FD2008317281C8313013080020008A900B20075
:101FE20031088B00FE2F2608840083138001260A05
:0E1FF20084008001840A8001B20132080800D8
:02400E00F2F0CE
:00000001FF
