

Microchip Technology PIC STD Macro Assembler V1.35 build -356382666 
                                                                                               Thu Feb 04 20:34:42 2016

Microchip Technology Omniscient Code Generator v1.35 (Standard mode) build 201507080246
     1                           	processor	16F690
     2                           	opt	pw 120
     3                           	opt	sm
     4                           	psect	idataBANK1,global,class=CODE,delta=2
     5                           	psect	strings,global,class=STRING,delta=2
     6                           	psect	cinit,global,class=CODE,merge=1,delta=2
     7                           	psect	bssCOMMON,global,class=COMMON,space=1,delta=1
     8                           	psect	bssBANK0,global,class=BANK0,space=1,delta=1
     9                           	psect	bssBANK1,global,class=BANK1,space=1,delta=1
    10                           	psect	dataBANK1,global,class=BANK1,space=1,delta=1
    11                           	psect	bssBANK2,global,class=BANK2,space=1,delta=1
    12                           	psect	clrtext,global,class=CODE,delta=2
    13                           	psect	inittext,global,class=CODE,delta=2
    14                           	psect	cstackBANK2,global,class=BANK2,space=1,delta=1
    15                           	psect	cstackCOMMON,global,class=COMMON,space=1,delta=1
    16                           	psect	cstackBANK0,global,class=BANK0,space=1,delta=1
    17                           	psect	maintext,global,class=CODE,split=1,delta=2
    18                           	psect	jmp_tab__ES_Initialize,global,class=ENTRY,delta=2
    19                           	psect	jmp_tab__ES_Run,global,class=ENTRY,delta=2
    20                           	psect	text1,local,class=CODE,merge=1,delta=2
    21                           	psect	text2,local,class=CODE,merge=1,delta=2
    22                           	psect	jmp_tab,global,class=ENTRY,delta=2
    23                           	psect	jmp_tab__ES_Timer_RTI_Resp,global,class=ENTRY,delta=2
    24                           	psect	jmp_tab__ES_CheckUserEvents,global,class=ENTRY,delta=2
    25                           	psect	text3,local,class=CODE,merge=1,delta=2
    26                           	psect	text4,local,class=CODE,merge=1,delta=2
    27                           	psect	text6,local,class=CODE,merge=1,delta=2
    28                           	psect	jmp_tab__retrySend,global,class=ENTRY,delta=2
    29                           	psect	text14,local,class=CODE,merge=1,delta=2
    30                           	psect	text19,local,class=CODE,merge=1,delta=2
    31                           	psect	text20,local,class=CODE,merge=1,delta=2
    32                           	psect	text25,local,class=CODE,merge=1,delta=2
    33                           	psect	text26,local,class=CODE,merge=1,delta=2
    34                           	psect	text27,local,class=CODE,merge=1,delta=2
    35                           	psect	text28,local,class=CODE,merge=1,delta=2
    36                           	psect	text29,local,class=CODE,merge=1,inline,delta=2
    37                           	psect	text30,local,class=CODE,merge=1,inline,delta=2
    38                           	psect	text31,local,class=CODE,merge=1,inline,delta=2
    39                           	psect	text37,local,class=CODE,merge=1,delta=2
    40                           	psect	intentry,global,class=CODE,delta=2
    41                           	psect	text38,local,class=CODE,merge=1,inline,delta=2
    42                           	psect	text39,local,class=CODE,merge=1,inline,delta=2
    43                           	psect	text40,local,class=CODE,merge=1,inline,delta=2
    44                           	psect	text41,local,class=CODE,merge=1,inline,delta=2
    45                           	psect	text42,local,class=CODE,merge=1,inline,delta=2
    46                           	psect	text46,local,class=CODE,merge=1,inline,delta=2
    47                           	psect	functab,global,reloc=256,class=CODE,delta=2
    48                           	dabs	1,0x7E,2
    49  0000                     	;# 
    50  0001                     	;# 
    51  0002                     	;# 
    52  0003                     	;# 
    53  0004                     	;# 
    54  0005                     	;# 
    55  0006                     	;# 
    56  0007                     	;# 
    57  000A                     	;# 
    58  000B                     	;# 
    59  000C                     	;# 
    60  000D                     	;# 
    61  000E                     	;# 
    62  000E                     	;# 
    63  000F                     	;# 
    64  0010                     	;# 
    65  0011                     	;# 
    66  0012                     	;# 
    67  0013                     	;# 
    68  0014                     	;# 
    69  0015                     	;# 
    70  0015                     	;# 
    71  0016                     	;# 
    72  0017                     	;# 
    73  0018                     	;# 
    74  0019                     	;# 
    75  001A                     	;# 
    76  001C                     	;# 
    77  001D                     	;# 
    78  001E                     	;# 
    79  001F                     	;# 
    80  0081                     	;# 
    81  0085                     	;# 
    82  0086                     	;# 
    83  0087                     	;# 
    84  008C                     	;# 
    85  008D                     	;# 
    86  008E                     	;# 
    87  008F                     	;# 
    88  0090                     	;# 
    89  0092                     	;# 
    90  0093                     	;# 
    91  0093                     	;# 
    92  0093                     	;# 
    93  0094                     	;# 
    94  0095                     	;# 
    95  0095                     	;# 
    96  0096                     	;# 
    97  0096                     	;# 
    98  0097                     	;# 
    99  0098                     	;# 
   100  0099                     	;# 
   101  009A                     	;# 
   102  009B                     	;# 
   103  009E                     	;# 
   104  009F                     	;# 
   105  010C                     	;# 
   106  010C                     	;# 
   107  010D                     	;# 
   108  010E                     	;# 
   109  010F                     	;# 
   110  0115                     	;# 
   111  0116                     	;# 
   112  0118                     	;# 
   113  0119                     	;# 
   114  011A                     	;# 
   115  011B                     	;# 
   116  011E                     	;# 
   117  011F                     	;# 
   118  018C                     	;# 
   119  018D                     	;# 
   120  019D                     	;# 
   121  019E                     	;# 
   122  0000                     	;# 
   123  0001                     	;# 
   124  0002                     	;# 
   125  0003                     	;# 
   126  0004                     	;# 
   127  0005                     	;# 
   128  0006                     	;# 
   129  0007                     	;# 
   130  000A                     	;# 
   131  000B                     	;# 
   132  000C                     	;# 
   133  000D                     	;# 
   134  000E                     	;# 
   135  000E                     	;# 
   136  000F                     	;# 
   137  0010                     	;# 
   138  0011                     	;# 
   139  0012                     	;# 
   140  0013                     	;# 
   141  0014                     	;# 
   142  0015                     	;# 
   143  0015                     	;# 
   144  0016                     	;# 
   145  0017                     	;# 
   146  0018                     	;# 
   147  0019                     	;# 
   148  001A                     	;# 
   149  001C                     	;# 
   150  001D                     	;# 
   151  001E                     	;# 
   152  001F                     	;# 
   153  0081                     	;# 
   154  0085                     	;# 
   155  0086                     	;# 
   156  0087                     	;# 
   157  008C                     	;# 
   158  008D                     	;# 
   159  008E                     	;# 
   160  008F                     	;# 
   161  0090                     	;# 
   162  0092                     	;# 
   163  0093                     	;# 
   164  0093                     	;# 
   165  0093                     	;# 
   166  0094                     	;# 
   167  0095                     	;# 
   168  0095                     	;# 
   169  0096                     	;# 
   170  0096                     	;# 
   171  0097                     	;# 
   172  0098                     	;# 
   173  0099                     	;# 
   174  009A                     	;# 
   175  009B                     	;# 
   176  009E                     	;# 
   177  009F                     	;# 
   178  010C                     	;# 
   179  010C                     	;# 
   180  010D                     	;# 
   181  010E                     	;# 
   182  010F                     	;# 
   183  0115                     	;# 
   184  0116                     	;# 
   185  0118                     	;# 
   186  0119                     	;# 
   187  011A                     	;# 
   188  011B                     	;# 
   189  011E                     	;# 
   190  011F                     	;# 
   191  018C                     	;# 
   192  018D                     	;# 
   193  019D                     	;# 
   194  019E                     	;# 
   195  0000                     	;# 
   196  0001                     	;# 
   197  0002                     	;# 
   198  0003                     	;# 
   199  0004                     	;# 
   200  0005                     	;# 
   201  0006                     	;# 
   202  0007                     	;# 
   203  000A                     	;# 
   204  000B                     	;# 
   205  000C                     	;# 
   206  000D                     	;# 
   207  000E                     	;# 
   208  000E                     	;# 
   209  000F                     	;# 
   210  0010                     	;# 
   211  0011                     	;# 
   212  0012                     	;# 
   213  0013                     	;# 
   214  0014                     	;# 
   215  0015                     	;# 
   216  0015                     	;# 
   217  0016                     	;# 
   218  0017                     	;# 
   219  0018                     	;# 
   220  0019                     	;# 
   221  001A                     	;# 
   222  001C                     	;# 
   223  001D                     	;# 
   224  001E                     	;# 
   225  001F                     	;# 
   226  0081                     	;# 
   227  0085                     	;# 
   228  0086                     	;# 
   229  0087                     	;# 
   230  008C                     	;# 
   231  008D                     	;# 
   232  008E                     	;# 
   233  008F                     	;# 
   234  0090                     	;# 
   235  0092                     	;# 
   236  0093                     	;# 
   237  0093                     	;# 
   238  0093                     	;# 
   239  0094                     	;# 
   240  0095                     	;# 
   241  0095                     	;# 
   242  0096                     	;# 
   243  0096                     	;# 
   244  0097                     	;# 
   245  0098                     	;# 
   246  0099                     	;# 
   247  009A                     	;# 
   248  009B                     	;# 
   249  009E                     	;# 
   250  009F                     	;# 
   251  010C                     	;# 
   252  010C                     	;# 
   253  010D                     	;# 
   254  010E                     	;# 
   255  010F                     	;# 
   256  0115                     	;# 
   257  0116                     	;# 
   258  0118                     	;# 
   259  0119                     	;# 
   260  011A                     	;# 
   261  011B                     	;# 
   262  011E                     	;# 
   263  011F                     	;# 
   264  018C                     	;# 
   265  018D                     	;# 
   266  019D                     	;# 
   267  019E                     	;# 
   268  0000                     	;# 
   269  0001                     	;# 
   270  0002                     	;# 
   271  0003                     	;# 
   272  0004                     	;# 
   273  0005                     	;# 
   274  0006                     	;# 
   275  0007                     	;# 
   276  000A                     	;# 
   277  000B                     	;# 
   278  000C                     	;# 
   279  000D                     	;# 
   280  000E                     	;# 
   281  000E                     	;# 
   282  000F                     	;# 
   283  0010                     	;# 
   284  0011                     	;# 
   285  0012                     	;# 
   286  0013                     	;# 
   287  0014                     	;# 
   288  0015                     	;# 
   289  0015                     	;# 
   290  0016                     	;# 
   291  0017                     	;# 
   292  0018                     	;# 
   293  0019                     	;# 
   294  001A                     	;# 
   295  001C                     	;# 
   296  001D                     	;# 
   297  001E                     	;# 
   298  001F                     	;# 
   299  0081                     	;# 
   300  0085                     	;# 
   301  0086                     	;# 
   302  0087                     	;# 
   303  008C                     	;# 
   304  008D                     	;# 
   305  008E                     	;# 
   306  008F                     	;# 
   307  0090                     	;# 
   308  0092                     	;# 
   309  0093                     	;# 
   310  0093                     	;# 
   311  0093                     	;# 
   312  0094                     	;# 
   313  0095                     	;# 
   314  0095                     	;# 
   315  0096                     	;# 
   316  0096                     	;# 
   317  0097                     	;# 
   318  0098                     	;# 
   319  0099                     	;# 
   320  009A                     	;# 
   321  009B                     	;# 
   322  009E                     	;# 
   323  009F                     	;# 
   324  010C                     	;# 
   325  010C                     	;# 
   326  010D                     	;# 
   327  010E                     	;# 
   328  010F                     	;# 
   329  0115                     	;# 
   330  0116                     	;# 
   331  0118                     	;# 
   332  0119                     	;# 
   333  011A                     	;# 
   334  011B                     	;# 
   335  011E                     	;# 
   336  011F                     	;# 
   337  018C                     	;# 
   338  018D                     	;# 
   339  019D                     	;# 
   340  019E                     	;# 
   341  0000                     	;# 
   342  0001                     	;# 
   343  0002                     	;# 
   344  0003                     	;# 
   345  0004                     	;# 
   346  0005                     	;# 
   347  0006                     	;# 
   348  0007                     	;# 
   349  000A                     	;# 
   350  000B                     	;# 
   351  000C                     	;# 
   352  000D                     	;# 
   353  000E                     	;# 
   354  000E                     	;# 
   355  000F                     	;# 
   356  0010                     	;# 
   357  0011                     	;# 
   358  0012                     	;# 
   359  0013                     	;# 
   360  0014                     	;# 
   361  0015                     	;# 
   362  0015                     	;# 
   363  0016                     	;# 
   364  0017                     	;# 
   365  0018                     	;# 
   366  0019                     	;# 
   367  001A                     	;# 
   368  001C                     	;# 
   369  001D                     	;# 
   370  001E                     	;# 
   371  001F                     	;# 
   372  0081                     	;# 
   373  0085                     	;# 
   374  0086                     	;# 
   375  0087                     	;# 
   376  008C                     	;# 
   377  008D                     	;# 
   378  008E                     	;# 
   379  008F                     	;# 
   380  0090                     	;# 
   381  0092                     	;# 
   382  0093                     	;# 
   383  0093                     	;# 
   384  0093                     	;# 
   385  0094                     	;# 
   386  0095                     	;# 
   387  0095                     	;# 
   388  0096                     	;# 
   389  0096                     	;# 
   390  0097                     	;# 
   391  0098                     	;# 
   392  0099                     	;# 
   393  009A                     	;# 
   394  009B                     	;# 
   395  009E                     	;# 
   396  009F                     	;# 
   397  010C                     	;# 
   398  010C                     	;# 
   399  010D                     	;# 
   400  010E                     	;# 
   401  010F                     	;# 
   402  0115                     	;# 
   403  0116                     	;# 
   404  0118                     	;# 
   405  0119                     	;# 
   406  011A                     	;# 
   407  011B                     	;# 
   408  011E                     	;# 
   409  011F                     	;# 
   410  018C                     	;# 
   411  018D                     	;# 
   412  019D                     	;# 
   413  019E                     	;# 
   414  0000                     	;# 
   415  0001                     	;# 
   416  0002                     	;# 
   417  0003                     	;# 
   418  0004                     	;# 
   419  0005                     	;# 
   420  0006                     	;# 
   421  0007                     	;# 
   422  000A                     	;# 
   423  000B                     	;# 
   424  000C                     	;# 
   425  000D                     	;# 
   426  000E                     	;# 
   427  000E                     	;# 
   428  000F                     	;# 
   429  0010                     	;# 
   430  0011                     	;# 
   431  0012                     	;# 
   432  0013                     	;# 
   433  0014                     	;# 
   434  0015                     	;# 
   435  0015                     	;# 
   436  0016                     	;# 
   437  0017                     	;# 
   438  0018                     	;# 
   439  0019                     	;# 
   440  001A                     	;# 
   441  001C                     	;# 
   442  001D                     	;# 
   443  001E                     	;# 
   444  001F                     	;# 
   445  0081                     	;# 
   446  0085                     	;# 
   447  0086                     	;# 
   448  0087                     	;# 
   449  008C                     	;# 
   450  008D                     	;# 
   451  008E                     	;# 
   452  008F                     	;# 
   453  0090                     	;# 
   454  0092                     	;# 
   455  0093                     	;# 
   456  0093                     	;# 
   457  0093                     	;# 
   458  0094                     	;# 
   459  0095                     	;# 
   460  0095                     	;# 
   461  0096                     	;# 
   462  0096                     	;# 
   463  0097                     	;# 
   464  0098                     	;# 
   465  0099                     	;# 
   466  009A                     	;# 
   467  009B                     	;# 
   468  009E                     	;# 
   469  009F                     	;# 
   470  010C                     	;# 
   471  010C                     	;# 
   472  010D                     	;# 
   473  010E                     	;# 
   474  010F                     	;# 
   475  0115                     	;# 
   476  0116                     	;# 
   477  0118                     	;# 
   478  0119                     	;# 
   479  011A                     	;# 
   480  011B                     	;# 
   481  011E                     	;# 
   482  011F                     	;# 
   483  018C                     	;# 
   484  018D                     	;# 
   485  019D                     	;# 
   486  019E                     	;# 
   487  0000                     	;# 
   488  0001                     	;# 
   489  0002                     	;# 
   490  0003                     	;# 
   491  0004                     	;# 
   492  0005                     	;# 
   493  0006                     	;# 
   494  0007                     	;# 
   495  000A                     	;# 
   496  000B                     	;# 
   497  000C                     	;# 
   498  000D                     	;# 
   499  000E                     	;# 
   500  000E                     	;# 
   501  000F                     	;# 
   502  0010                     	;# 
   503  0011                     	;# 
   504  0012                     	;# 
   505  0013                     	;# 
   506  0014                     	;# 
   507  0015                     	;# 
   508  0015                     	;# 
   509  0016                     	;# 
   510  0017                     	;# 
   511  0018                     	;# 
   512  0019                     	;# 
   513  001A                     	;# 
   514  001C                     	;# 
   515  001D                     	;# 
   516  001E                     	;# 
   517  001F                     	;# 
   518  0081                     	;# 
   519  0085                     	;# 
   520  0086                     	;# 
   521  0087                     	;# 
   522  008C                     	;# 
   523  008D                     	;# 
   524  008E                     	;# 
   525  008F                     	;# 
   526  0090                     	;# 
   527  0092                     	;# 
   528  0093                     	;# 
   529  0093                     	;# 
   530  0093                     	;# 
   531  0094                     	;# 
   532  0095                     	;# 
   533  0095                     	;# 
   534  0096                     	;# 
   535  0096                     	;# 
   536  0097                     	;# 
   537  0098                     	;# 
   538  0099                     	;# 
   539  009A                     	;# 
   540  009B                     	;# 
   541  009E                     	;# 
   542  009F                     	;# 
   543  010C                     	;# 
   544  010C                     	;# 
   545  010D                     	;# 
   546  010E                     	;# 
   547  010F                     	;# 
   548  0115                     	;# 
   549  0116                     	;# 
   550  0118                     	;# 
   551  0119                     	;# 
   552  011A                     	;# 
   553  011B                     	;# 
   554  011E                     	;# 
   555  011F                     	;# 
   556  018C                     	;# 
   557  018D                     	;# 
   558  019D                     	;# 
   559  019E                     	;# 
   560  0000                     	;# 
   561  0001                     	;# 
   562  0002                     	;# 
   563  0003                     	;# 
   564  0004                     	;# 
   565  0005                     	;# 
   566  0006                     	;# 
   567  0007                     	;# 
   568  000A                     	;# 
   569  000B                     	;# 
   570  000C                     	;# 
   571  000D                     	;# 
   572  000E                     	;# 
   573  000E                     	;# 
   574  000F                     	;# 
   575  0010                     	;# 
   576  0011                     	;# 
   577  0012                     	;# 
   578  0013                     	;# 
   579  0014                     	;# 
   580  0015                     	;# 
   581  0015                     	;# 
   582  0016                     	;# 
   583  0017                     	;# 
   584  0018                     	;# 
   585  0019                     	;# 
   586  001A                     	;# 
   587  001C                     	;# 
   588  001D                     	;# 
   589  001E                     	;# 
   590  001F                     	;# 
   591  0081                     	;# 
   592  0085                     	;# 
   593  0086                     	;# 
   594  0087                     	;# 
   595  008C                     	;# 
   596  008D                     	;# 
   597  008E                     	;# 
   598  008F                     	;# 
   599  0090                     	;# 
   600  0092                     	;# 
   601  0093                     	;# 
   602  0093                     	;# 
   603  0093                     	;# 
   604  0094                     	;# 
   605  0095                     	;# 
   606  0095                     	;# 
   607  0096                     	;# 
   608  0096                     	;# 
   609  0097                     	;# 
   610  0098                     	;# 
   611  0099                     	;# 
   612  009A                     	;# 
   613  009B                     	;# 
   614  009E                     	;# 
   615  009F                     	;# 
   616  010C                     	;# 
   617  010C                     	;# 
   618  010D                     	;# 
   619  010E                     	;# 
   620  010F                     	;# 
   621  0115                     	;# 
   622  0116                     	;# 
   623  0118                     	;# 
   624  0119                     	;# 
   625  011A                     	;# 
   626  011B                     	;# 
   627  011E                     	;# 
   628  011F                     	;# 
   629  018C                     	;# 
   630  018D                     	;# 
   631  019D                     	;# 
   632  019E                     	;# 
   633  0000                     	;# 
   634  0001                     	;# 
   635  0002                     	;# 
   636  0003                     	;# 
   637  0004                     	;# 
   638  0005                     	;# 
   639  0006                     	;# 
   640  0007                     	;# 
   641  000A                     	;# 
   642  000B                     	;# 
   643  000C                     	;# 
   644  000D                     	;# 
   645  000E                     	;# 
   646  000E                     	;# 
   647  000F                     	;# 
   648  0010                     	;# 
   649  0011                     	;# 
   650  0012                     	;# 
   651  0013                     	;# 
   652  0014                     	;# 
   653  0015                     	;# 
   654  0015                     	;# 
   655  0016                     	;# 
   656  0017                     	;# 
   657  0018                     	;# 
   658  0019                     	;# 
   659  001A                     	;# 
   660  001C                     	;# 
   661  001D                     	;# 
   662  001E                     	;# 
   663  001F                     	;# 
   664  0081                     	;# 
   665  0085                     	;# 
   666  0086                     	;# 
   667  0087                     	;# 
   668  008C                     	;# 
   669  008D                     	;# 
   670  008E                     	;# 
   671  008F                     	;# 
   672  0090                     	;# 
   673  0092                     	;# 
   674  0093                     	;# 
   675  0093                     	;# 
   676  0093                     	;# 
   677  0094                     	;# 
   678  0095                     	;# 
   679  0095                     	;# 
   680  0096                     	;# 
   681  0096                     	;# 
   682  0097                     	;# 
   683  0098                     	;# 
   684  0099                     	;# 
   685  009A                     	;# 
   686  009B                     	;# 
   687  009E                     	;# 
   688  009F                     	;# 
   689  010C                     	;# 
   690  010C                     	;# 
   691  010D                     	;# 
   692  010E                     	;# 
   693  010F                     	;# 
   694  0115                     	;# 
   695  0116                     	;# 
   696  0118                     	;# 
   697  0119                     	;# 
   698  011A                     	;# 
   699  011B                     	;# 
   700  011E                     	;# 
   701  011F                     	;# 
   702  018C                     	;# 
   703  018D                     	;# 
   704  019D                     	;# 
   705  019E                     	;# 
   706  0000                     	;# 
   707  0001                     	;# 
   708  0002                     	;# 
   709  0003                     	;# 
   710  0004                     	;# 
   711  0005                     	;# 
   712  0006                     	;# 
   713  0007                     	;# 
   714  000A                     	;# 
   715  000B                     	;# 
   716  000C                     	;# 
   717  000D                     	;# 
   718  000E                     	;# 
   719  000E                     	;# 
   720  000F                     	;# 
   721  0010                     	;# 
   722  0011                     	;# 
   723  0012                     	;# 
   724  0013                     	;# 
   725  0014                     	;# 
   726  0015                     	;# 
   727  0015                     	;# 
   728  0016                     	;# 
   729  0017                     	;# 
   730  0018                     	;# 
   731  0019                     	;# 
   732  001A                     	;# 
   733  001C                     	;# 
   734  001D                     	;# 
   735  001E                     	;# 
   736  001F                     	;# 
   737  0081                     	;# 
   738  0085                     	;# 
   739  0086                     	;# 
   740  0087                     	;# 
   741  008C                     	;# 
   742  008D                     	;# 
   743  008E                     	;# 
   744  008F                     	;# 
   745  0090                     	;# 
   746  0092                     	;# 
   747  0093                     	;# 
   748  0093                     	;# 
   749  0093                     	;# 
   750  0094                     	;# 
   751  0095                     	;# 
   752  0095                     	;# 
   753  0096                     	;# 
   754  0096                     	;# 
   755  0097                     	;# 
   756  0098                     	;# 
   757  0099                     	;# 
   758  009A                     	;# 
   759  009B                     	;# 
   760  009E                     	;# 
   761  009F                     	;# 
   762  010C                     	;# 
   763  010C                     	;# 
   764  010D                     	;# 
   765  010E                     	;# 
   766  010F                     	;# 
   767  0115                     	;# 
   768  0116                     	;# 
   769  0118                     	;# 
   770  0119                     	;# 
   771  011A                     	;# 
   772  011B                     	;# 
   773  011E                     	;# 
   774  011F                     	;# 
   775  018C                     	;# 
   776  018D                     	;# 
   777  019D                     	;# 
   778  019E                     	;# 
   779  0000                     	;# 
   780  0001                     	;# 
   781  0002                     	;# 
   782  0003                     	;# 
   783  0004                     	;# 
   784  0005                     	;# 
   785  0006                     	;# 
   786  0007                     	;# 
   787  000A                     	;# 
   788  000B                     	;# 
   789  000C                     	;# 
   790  000D                     	;# 
   791  000E                     	;# 
   792  000E                     	;# 
   793  000F                     	;# 
   794  0010                     	;# 
   795  0011                     	;# 
   796  0012                     	;# 
   797  0013                     	;# 
   798  0014                     	;# 
   799  0015                     	;# 
   800  0015                     	;# 
   801  0016                     	;# 
   802  0017                     	;# 
   803  0018                     	;# 
   804  0019                     	;# 
   805  001A                     	;# 
   806  001C                     	;# 
   807  001D                     	;# 
   808  001E                     	;# 
   809  001F                     	;# 
   810  0081                     	;# 
   811  0085                     	;# 
   812  0086                     	;# 
   813  0087                     	;# 
   814  008C                     	;# 
   815  008D                     	;# 
   816  008E                     	;# 
   817  008F                     	;# 
   818  0090                     	;# 
   819  0092                     	;# 
   820  0093                     	;# 
   821  0093                     	;# 
   822  0093                     	;# 
   823  0094                     	;# 
   824  0095                     	;# 
   825  0095                     	;# 
   826  0096                     	;# 
   827  0096                     	;# 
   828  0097                     	;# 
   829  0098                     	;# 
   830  0099                     	;# 
   831  009A                     	;# 
   832  009B                     	;# 
   833  009E                     	;# 
   834  009F                     	;# 
   835  010C                     	;# 
   836  010C                     	;# 
   837  010D                     	;# 
   838  010E                     	;# 
   839  010F                     	;# 
   840  0115                     	;# 
   841  0116                     	;# 
   842  0118                     	;# 
   843  0119                     	;# 
   844  011A                     	;# 
   845  011B                     	;# 
   846  011E                     	;# 
   847  011F                     	;# 
   848  018C                     	;# 
   849  018D                     	;# 
   850  019D                     	;# 
   851  019E                     	;# 
   852  0000                     	;# 
   853  0001                     	;# 
   854  0002                     	;# 
   855  0003                     	;# 
   856  0004                     	;# 
   857  0005                     	;# 
   858  0006                     	;# 
   859  0007                     	;# 
   860  000A                     	;# 
   861  000B                     	;# 
   862  000C                     	;# 
   863  000D                     	;# 
   864  000E                     	;# 
   865  000E                     	;# 
   866  000F                     	;# 
   867  0010                     	;# 
   868  0011                     	;# 
   869  0012                     	;# 
   870  0013                     	;# 
   871  0014                     	;# 
   872  0015                     	;# 
   873  0015                     	;# 
   874  0016                     	;# 
   875  0017                     	;# 
   876  0018                     	;# 
   877  0019                     	;# 
   878  001A                     	;# 
   879  001C                     	;# 
   880  001D                     	;# 
   881  001E                     	;# 
   882  001F                     	;# 
   883  0081                     	;# 
   884  0085                     	;# 
   885  0086                     	;# 
   886  0087                     	;# 
   887  008C                     	;# 
   888  008D                     	;# 
   889  008E                     	;# 
   890  008F                     	;# 
   891  0090                     	;# 
   892  0092                     	;# 
   893  0093                     	;# 
   894  0093                     	;# 
   895  0093                     	;# 
   896  0094                     	;# 
   897  0095                     	;# 
   898  0095                     	;# 
   899  0096                     	;# 
   900  0096                     	;# 
   901  0097                     	;# 
   902  0098                     	;# 
   903  0099                     	;# 
   904  009A                     	;# 
   905  009B                     	;# 
   906  009E                     	;# 
   907  009F                     	;# 
   908  010C                     	;# 
   909  010C                     	;# 
   910  010D                     	;# 
   911  010E                     	;# 
   912  010F                     	;# 
   913  0115                     	;# 
   914  0116                     	;# 
   915  0118                     	;# 
   916  0119                     	;# 
   917  011A                     	;# 
   918  011B                     	;# 
   919  011E                     	;# 
   920  011F                     	;# 
   921  018C                     	;# 
   922  018D                     	;# 
   923  019D                     	;# 
   924  019E                     	;# 
   925  0000                     	;# 
   926  0001                     	;# 
   927  0002                     	;# 
   928  0003                     	;# 
   929  0004                     	;# 
   930  0005                     	;# 
   931  0006                     	;# 
   932  0007                     	;# 
   933  000A                     	;# 
   934  000B                     	;# 
   935  000C                     	;# 
   936  000D                     	;# 
   937  000E                     	;# 
   938  000E                     	;# 
   939  000F                     	;# 
   940  0010                     	;# 
   941  0011                     	;# 
   942  0012                     	;# 
   943  0013                     	;# 
   944  0014                     	;# 
   945  0015                     	;# 
   946  0015                     	;# 
   947  0016                     	;# 
   948  0017                     	;# 
   949  0018                     	;# 
   950  0019                     	;# 
   951  001A                     	;# 
   952  001C                     	;# 
   953  001D                     	;# 
   954  001E                     	;# 
   955  001F                     	;# 
   956  0081                     	;# 
   957  0085                     	;# 
   958  0086                     	;# 
   959  0087                     	;# 
   960  008C                     	;# 
   961  008D                     	;# 
   962  008E                     	;# 
   963  008F                     	;# 
   964  0090                     	;# 
   965  0092                     	;# 
   966  0093                     	;# 
   967  0093                     	;# 
   968  0093                     	;# 
   969  0094                     	;# 
   970  0095                     	;# 
   971  0095                     	;# 
   972  0096                     	;# 
   973  0096                     	;# 
   974  0097                     	;# 
   975  0098                     	;# 
   976  0099                     	;# 
   977  009A                     	;# 
   978  009B                     	;# 
   979  009E                     	;# 
   980  009F                     	;# 
   981  010C                     	;# 
   982  010C                     	;# 
   983  010D                     	;# 
   984  010E                     	;# 
   985  010F                     	;# 
   986  0115                     	;# 
   987  0116                     	;# 
   988  0118                     	;# 
   989  0119                     	;# 
   990  011A                     	;# 
   991  011B                     	;# 
   992  011E                     	;# 
   993  011F                     	;# 
   994  018C                     	;# 
   995  018D                     	;# 
   996  019D                     	;# 
   997  019E                     	;# 
   998                           
   999 ;; Function _ES_PostAll is unused but had its address taken
  1000  0000                     
  1001                           	psect	idataBANK1
  1002  0D91                     __pidataBANK1:	
  1003                           
  1004                           ;initializer for _statusBuffer
  1005  0D91  34FF               	retlw	255
  1006  0D92  34FF               	retlw	255
  1007  0D93  34FF               	retlw	255
  1008  0D94  34FF               	retlw	255
  1009  0D95  34FF               	retlw	255
  1010  0D96  34FF               	retlw	255
  1011                           
  1012                           ;initializer for _responseBytes
  1013  0D97  34FF               	retlw	255
  1014  0D98  34FF               	retlw	255
  1015  0D99  34FF               	retlw	255
  1016                           
  1017                           	psect	strings
  1018  0800                     __pstrings:	
  1019  0800                     stringtab:	
  1020  0800                     __stringtab:	
  1021  0800                     stringcode:	
  1022                           ;	String table - string pointers are 1 byte each
  1023                           
  1024  0800                     stringdir:	
  1025  0800  3008               	movlw	high stringdir
  1026  0801  008A               	movwf	10
  1027  0802  0804               	movf	4,w
  1028  0803  0A84               	incf	4,f
  1029  0804  0782               	addwf	2,f
  1030  0805                     __stringbase:	
  1031  0805  3400               	retlw	0
  1032  0806                     __end_of__stringtab:	
  1033  0806                     _Nybble2MSBitNum:	
  1034  0806  3400               	retlw	0
  1035  0807  3401               	retlw	1
  1036  0808  3401               	retlw	1
  1037  0809  3402               	retlw	2
  1038  080A  3402               	retlw	2
  1039  080B  3402               	retlw	2
  1040  080C  3402               	retlw	2
  1041  080D  3403               	retlw	3
  1042  080E  3403               	retlw	3
  1043  080F  3403               	retlw	3
  1044  0810  3403               	retlw	3
  1045  0811  3403               	retlw	3
  1046  0812  3403               	retlw	3
  1047  0813  3403               	retlw	3
  1048  0814  3403               	retlw	3
  1049  0815                     __end_of_Nybble2MSBitNum:	
  1050  0815                     _EventQueues:	
  1051  0815  34CD               	retlw	low (_Queue0| 0)
  1052  0816  3400               	retlw	high (_Queue0| 0)
  1053  0817  3404               	retlw	4
  1054  0818  3434               	retlw	low (_Queue1| (0+256))
  1055  0819  3401               	retlw	high (_Queue1| (0+256))
  1056  081A  3404               	retlw	4
  1057  081B  3440               	retlw	low (_Queue2| (0+256))
  1058  081C  3401               	retlw	high (_Queue2| (0+256))
  1059  081D  3404               	retlw	4
  1060  081E  344C               	retlw	low (_Queue3| (0+256))
  1061  081F  3401               	retlw	high (_Queue3| (0+256))
  1062  0820  3404               	retlw	4
  1063  0821                     __end_of_EventQueues:	
  1064  0821                     _BitNum2SetMask:	
  1065  0821  3401               	retlw	1
  1066  0822  3402               	retlw	2
  1067  0823  3404               	retlw	4
  1068  0824  3408               	retlw	8
  1069  0825  3410               	retlw	16
  1070  0826  3420               	retlw	32
  1071  0827  3440               	retlw	64
  1072  0828  3480               	retlw	128
  1073  0829                     __end_of_BitNum2SetMask:	
  1074  0829                     _ServDescList:	
  1075  0829  3403               	retlw	low (fp__InitUARTRXService-fpbase)
  1076  082A  3417               	retlw	low (fp__RunUARTRXService-fpbase)
  1077  082B  3401               	retlw	low (fp__InitUARTTXService-fpbase)
  1078  082C  3415               	retlw	low (fp__RunUARTTXService-fpbase)
  1079  082D  3405               	retlw	low (fp__InitSPIService-fpbase)
  1080  082E  3419               	retlw	low (fp__RunSPIService-fpbase)
  1081  082F  3407               	retlw	low (fp__InitPACSystemService-fpbase)
  1082  0830  341B               	retlw	low (fp__RunPACSystemService-fpbase)
  1083  0831                     __end_of_ServDescList:	
  1084  0831                     _TMR_MaskArray:	
  1085  0831  3401               	retlw	1
  1086  0832  3402               	retlw	2
  1087  0833  3404               	retlw	4
  1088  0834  3408               	retlw	8
  1089  0835  3410               	retlw	16
  1090  0836  3420               	retlw	32
  1091  0837  3440               	retlw	64
  1092  0838  3480               	retlw	128
  1093  0839                     __end_of_TMR_MaskArray:	
  1094  0839                     _Timer2PostFunc:	
  1095  0839  3411               	retlw	low (fp__PostUARTRXService-fpbase)
  1096  083A  3413               	retlw	low (fp__PostUARTTXService-fpbase)
  1097  083B  340F               	retlw	low (fp__PostPACSystemService-fpbase)
  1098  083C  3400               	retlw	0
  1099  083D  3400               	retlw	0
  1100  083E  3400               	retlw	0
  1101  083F  3400               	retlw	0
  1102  0840  3400               	retlw	0
  1103  0841                     __end_of_Timer2PostFunc:	
  1104  0841                     _ES_EventList:	
  1105  0841  340B               	retlw	low (fp__CheckUARTRXEvent-fpbase)
  1106  0842  340D               	retlw	low (fp__CheckUARTTXEvent-fpbase)
  1107  0843  3409               	retlw	low (fp__CheckSPIEvent-fpbase)
  1108  0844                     __end_of_ES_EventList:	
  1109  0844                     _pPostKeyFunc:	
  1110  0844  3400               	retlw	0
  1111  0845                     __end_of_pPostKeyFunc:	
  1112  000B                     _INTCON	set	11
  1113  0007                     _PORTC	set	7
  1114  001A                     _RCREG	set	26
  1115  0013                     _SSPBUF	set	19
  1116  0014                     _SSPCON	set	20
  1117  0001                     _TMR0	set	1
  1118  0019                     _TXREG	set	25
  1119  00C4                     _CREN	set	196
  1120  005F                     _GIE	set	95
  1121  005E                     _PEIE	set	94
  1122  0038                     _RC0	set	56
  1123  003B                     _RC3	set	59
  1124  003F                     _RC7	set	63
  1125  0065                     _RCIF	set	101
  1126  00C7                     _SPEN	set	199
  1127  0063                     _SSPIF	set	99
  1128  005D                     _T0IE	set	93
  1129  005A                     _T0IF	set	90
  1130  0064                     _TXIF	set	100
  1131  008F                     _OSCCON	set	143
  1132  0099                     _SPBRG	set	153
  1133  009A                     _SPBRGH	set	154
  1134  0094                     _SSPSTAT	set	148
  1135  04A0                     _BF	set	1184
  1136  04DB                     _BRG16	set	1243
  1137  04C2                     _BRGH	set	1218
  1138  0408                     _PS0	set	1032
  1139  0409                     _PS1	set	1033
  1140  040A                     _PS2	set	1034
  1141  040B                     _PSA	set	1035
  1142  0465                     _RCIE	set	1125
  1143  0463                     _SSPIE	set	1123
  1144  04C4                     _SYNC	set	1220
  1145  040D                     _T0CS	set	1037
  1146  0434                     _TRISB4	set	1076
  1147  0436                     _TRISB6	set	1078
  1148  0438                     _TRISC0	set	1080
  1149  043B                     _TRISC3	set	1083
  1150  043E                     _TRISC6	set	1086
  1151  043F                     _TRISC7	set	1087
  1152  04C5                     _TXEN	set	1221
  1153  0464                     _TXIE	set	1124
  1154  08FB                     _ANS11	set	2299
  1155  08F4                     _ANS4	set	2292
  1156  08F7                     _ANS7	set	2295
  1157  08F9                     _ANS9	set	2297
  1158                           
  1159                           ; #config settings
  1160  0000                     
  1161                           	psect	cinit
  1162  0013                     start_initialization:	
  1163  0013                     __initialization:	
  1164                           
  1165                           ; Clear objects allocated to COMMON
  1166  0013  01FD               	clrf	__pbssCOMMON& (0+127)
  1167                           
  1168                           ; Clear objects allocated to BANK0
  1169  0014  1383               	bcf	3,7	;select IRP bank0
  1170  0015  3059               	movlw	low __pbssBANK0
  1171  0016  0084               	movwf	4
  1172  0017  3070               	movlw	low (__pbssBANK0+23)
  1173  0018  158A  2589  118A   	fcall	clear_ram0
  1174                           
  1175                           ; Clear objects allocated to BANK1
  1176  001B  30A0               	movlw	low __pbssBANK1
  1177  001C  0084               	movwf	4
  1178  001D  30E2               	movlw	low (__pbssBANK1+66)
  1179  001E  158A  2589  118A   	fcall	clear_ram0
  1180                           
  1181                           ; Clear objects allocated to BANK2
  1182  0021  1783               	bsf	3,7	;select IRP bank2
  1183  0022  3020               	movlw	low __pbssBANK2
  1184  0023  0084               	movwf	4
  1185  0024  3058               	movlw	low (__pbssBANK2+56)
  1186  0025  158A  2589  118A   	fcall	clear_ram0
  1187                           
  1188                           ; Initialize objects allocated to BANK1
  1189  0028  1383               	bcf	3,7	;select IRP bank0
  1190  0029  30EB               	movlw	low (__pdataBANK1+9)
  1191  002A  00FD               	movwf	btemp+-1
  1192  002B  300D               	movlw	high __pidataBANK1
  1193  002C  00FE               	movwf	btemp
  1194  002D  3091               	movlw	low __pidataBANK1
  1195  002E  00FF               	movwf	btemp+1
  1196  002F  30E2               	movlw	low __pdataBANK1
  1197  0030  0084               	movwf	4
  1198  0031  158A  25AB         	fcall	init_ram0
  1199  0033                     end_of_initialization:	
  1200                           ;End of C runtime variable initialization code
  1201                           
  1202  0033                     __end_of__initialization:	
  1203  0033  0183               	clrf	3
  1204  0034  158A  2E14         	ljmp	_main	;jump to C main() function
  1205                           
  1206                           	psect	bssCOMMON
  1207  007D                     __pbssCOMMON:	
  1208  007D                     UARTRXIntResponse@currentByteIndex:	
  1209  007D                     	ds	1
  1210                           
  1211                           	psect	bssBANK0
  1212  0059                     __pbssBANK0:	
  1213  0059                     ES_Timer_RTI_Resp@NeedsProcessing:	
  1214  0059                     	ds	1
  1215  005A                     ES_Timer_RTI_Resp@NextTimer2Process:	
  1216  005A                     	ds	1
  1217  005B                     PACSystemService@MyPriority:	
  1218  005B                     	ds	1
  1219  005C                     SPI_SM@MyPriority:	
  1220  005C                     	ds	1
  1221  005D                     UARTRXIntResponse@bodyByteCount:	
  1222  005D                     	ds	1
  1223  005E                     UART_TX_SM@MyPriority:	
  1224  005E                     	ds	1
  1225  005F                     UART_TX_SM@currentState:	
  1226  005F                     	ds	1
  1227  0060                     _MyPriority:	
  1228  0060                     	ds	1
  1229  0061                     _RXFlag:	
  1230  0061                     	ds	1
  1231  0062                     _Ready:	
  1232  0062                     	ds	1
  1233  0063                     _SPIBuffer:	
  1234  0063                     	ds	1
  1235  0064                     _TMR_ActiveFlags:	
  1236  0064                     	ds	1
  1237  0065                     _TickCount:	
  1238  0065                     	ds	1
  1239  0066                     _currentState:	
  1240  0066                     	ds	1
  1241  0067                     _index:	
  1242  0067                     	ds	1
  1243  0068                     _length:	
  1244  0068                     	ds	1
  1245  0069                     _newResponseAvailable:	
  1246  0069                     	ds	1
  1247  006A                     _readRXIndex:	
  1248  006A                     	ds	1
  1249  006B                     _readRespIndex:	
  1250  006B                     	ds	1
  1251  006C                     _readStatIndex:	
  1252  006C                     	ds	1
  1253  006D                     _writeRXIndex:	
  1254  006D                     	ds	1
  1255  006E                     _writeRespIndex:	
  1256  006E                     	ds	1
  1257  006F                     _writeStatIndex:	
  1258  006F                     	ds	1
  1259                           
  1260                           	psect	bssBANK1
  1261  00A0                     __pbssBANK1:	
  1262  00A0                     _TMR_TimerArray:	
  1263  00A0                     	ds	16
  1264  00B0                     _XBeePacket:	
  1265  00B0                     	ds	10
  1266  00BA                     ES_Timer_RTI_Resp@NewEvent:	
  1267  00BA                     	ds	3
  1268  00BD                     UART_TX_SM@superPACAddr:	
  1269  00BD                     	ds	2
  1270  00BF                     _superPACAddr:	
  1271  00BF                     	ds	2
  1272  00C1                     _time:	
  1273  00C1                     	ds	2
  1274  00C3                     SPI_SM@currentState:	
  1275  00C3                     	ds	1
  1276  00C4                     UARTRXIntResponse@checksum:	
  1277  00C4                     	ds	1
  1278  00C5                     _ByteCount:	
  1279  00C5                     	ds	1
  1280  00C6                     _TXError:	
  1281  00C6                     	ds	1
  1282  00C7                     _colorRequestData:	
  1283  00C7                     	ds	1
  1284  00C8                     _commOpen:	
  1285  00C8                     	ds	1
  1286  00C9                     _hasHeartbeat:	
  1287  00C9                     	ds	1
  1288  00CA                     _newRequest:	
  1289  00CA                     	ds	1
  1290  00CB                     _radioPing:	
  1291  00CB                     	ds	1
  1292  00CC                     _sendCompleteFlag:	
  1293  00CC                     	ds	1
  1294  00CD                     _Queue0:	
  1295  00CD                     	ds	12
  1296  00D9                     _responseBuffer:	
  1297  00D9                     	ds	6
  1298  00DF                     ES_Run@ThisEvent:	
  1299  00DF                     	ds	3
  1300                           
  1301                           	psect	dataBANK1
  1302  00E2                     __pdataBANK1:	
  1303  00E2                     _statusBuffer:	
  1304  00E2                     	ds	6
  1305  00E8                     _responseBytes:	
  1306  00E8                     	ds	3
  1307                           
  1308                           	psect	bssBANK2
  1309  0120                     __pbssBANK2:	
  1310  0120                     _RXBuffer:	
  1311  0120                     	ds	20
  1312  0134                     _Queue1:	
  1313  0134                     	ds	12
  1314  0140                     _Queue2:	
  1315  0140                     	ds	12
  1316  014C                     _Queue3:	
  1317  014C                     	ds	12
  1318                           
  1319                           	psect	clrtext
  1320  0D89                     clear_ram0:	
  1321                           ;	Called with FSR containing the base address, and
  1322                           ;	W with the last address+1
  1323                           
  1324  0D89  0064               	clrwdt	;clear the watchdog before getting into this loop
  1325  0D8A                     clrloop0:	
  1326  0D8A  0180               	clrf	0	;clear RAM location pointed to by FSR
  1327  0D8B  0A84               	incf	4,f	;increment pointer
  1328  0D8C  0604               	xorwf	4,w	;XOR with final address
  1329  0D8D  1903               	btfsc	3,2	;have we reached the end yet?
  1330  0D8E  3400               	retlw	0	;all done for this memory range, return
  1331  0D8F  0604               	xorwf	4,w	;XOR again to restore value
  1332  0D90  2D8A               	goto	clrloop0	;do the next byte
  1333                           
  1334                           	psect	inittext
  1335  0DA7                     init_fetch0:	
  1336                           ;	Called with low address in FSR and high address in W
  1337                           
  1338  0DA7  087E               	movf	126,w
  1339  0DA8  008A               	movwf	10
  1340  0DA9  087F               	movf	127,w
  1341  0DAA  0082               	movwf	2
  1342  0DAB                     init_ram0:	
  1343                           ;Called with:
  1344                           ;	high address of idata address in btemp 
  1345                           ;	low address of idata address in btemp+1 
  1346                           ;	low address of data in FSR
  1347                           ;	high address + 1 of data in btemp-1
  1348                           
  1349  0DAB  25A7  158A         	fcall	init_fetch0
  1350  0DAD  0080               	movwf	0
  1351  0DAE  0A84               	incf	4,f
  1352  0DAF  0804               	movf	4,w
  1353  0DB0  067D               	xorwf	125,w
  1354  0DB1  1903               	btfsc	3,2
  1355  0DB2  3400               	retlw	0
  1356  0DB3  0AFF               	incf	127,f
  1357  0DB4  1903               	btfsc	3,2
  1358  0DB5  0AFE               	incf	126,f
  1359  0DB6  2DAB               	goto	init_ram0
  1360                           
  1361                           	psect	cstackBANK2
  1362  0158                     __pcstackBANK2:	
  1363  0158                     RunUARTRXService@ReturnEvent:	
  1364                           
  1365                           ; 3 bytes @ 0x0
  1366  0158                     	ds	3
  1367  015B                     RunUARTRXService@msgAddr:	
  1368                           
  1369                           ; 2 bytes @ 0x3
  1370  015B                     	ds	2
  1371  015D                     RunUARTRXService@addrEvent:	
  1372                           
  1373                           ; 3 bytes @ 0x5
  1374  015D                     	ds	3
  1375  0160                     RunUARTRXService@TXEvent:	
  1376                           
  1377                           ; 3 bytes @ 0x8
  1378  0160                     	ds	3
  1379  0163                     RunUARTRXService@i:	
  1380                           
  1381                           ; 1 bytes @ 0xB
  1382  0163                     	ds	1
  1383  0164                     RunUARTRXService@i_567:	
  1384                           
  1385                           ; 1 bytes @ 0xC
  1386  0164                     	ds	1
  1387                           
  1388                           	psect	cstackCOMMON
  1389  0070                     __pcstackCOMMON:	
  1390  0070                     ?_ES_Sys_Timer_Init:	
  1391  0070                     ?_SPIIntResponse:	
  1392                           ; 0 bytes @ 0x0
  1393                           
  1394  0070                     ?_UARTRXIntResponse:	
  1395                           ; 0 bytes @ 0x0
  1396                           
  1397  0070                     ?_UARTTXIntResponse:	
  1398                           ; 0 bytes @ 0x0
  1399                           
  1400  0070                     ??_UARTTXIntResponse:	
  1401                           ; 0 bytes @ 0x0
  1402                           
  1403  0070                     ?_toggleRXBuffer:	
  1404                           ; 0 bytes @ 0x0
  1405                           
  1406  0070                     ?_toggleStatBuffer:	
  1407                           ; 0 bytes @ 0x0
  1408                           
  1409  0070                     ?_toggleRespBuffer:	
  1410                           ; 0 bytes @ 0x0
  1411                           
  1412  0070                     ?_ISR:	
  1413                           ; 0 bytes @ 0x0
  1414                           
  1415  0070                     ?_USART_Init:	
  1416                           ; 0 bytes @ 0x0
  1417                           
  1418  0070                     ?_main:	
  1419                           ; 0 bytes @ 0x0
  1420                           
  1421  0070                     ??_RX_newResponseReady:	
  1422                           ; 0 bytes @ 0x0
  1423                           
  1424  0070                     ?_RX_clearResponseReady:	
  1425                           ; 0 bytes @ 0x0
  1426                           
  1427  0070                     ??_RX_clearResponseReady:	
  1428                           ; 0 bytes @ 0x0
  1429                           
  1430  0070                     ?i1_toggleRXBuffer:	
  1431                           ; 0 bytes @ 0x0
  1432                           
  1433  0070                     ??i1_toggleRXBuffer:	
  1434                           ; 0 bytes @ 0x0
  1435                           
  1436  0070                     ?_CheckUARTTXEvent:	
  1437                           ; 0 bytes @ 0x0
  1438                           
  1439  0070                     ?_ES_GetMSBitSet:	
  1440                           ; 1 bytes @ 0x0
  1441                           
  1442  0070                     ?_IsTimerPending:	
  1443                           ; 1 bytes @ 0x0
  1444                           
  1445  0070                     ?_superPACAddrSet:	
  1446                           ; 1 bytes @ 0x0
  1447                           
  1448  0070                     ?_TX_clearXBeePacket:	
  1449                           ; 1 bytes @ 0x0
  1450                           
  1451  0070                     ?_TX_appendXBeePacket:	
  1452                           ; 1 bytes @ 0x0
  1453                           
  1454  0070                     ?_TX_getChecksum:	
  1455                           ; 1 bytes @ 0x0
  1456                           
  1457  0070                     ?_RX_newResponseReady:	
  1458                           ; 1 bytes @ 0x0
  1459                           
  1460  0070                     ?_RX_getStatusBuffer:	
  1461                           ; 1 bytes @ 0x0
  1462                           
  1463  0070                     ?_RX_getResponseBuffer:	
  1464                           ; 1 bytes @ 0x0
  1465                           
  1466  0070                     ?i1___bmul:	
  1467                           ; 1 bytes @ 0x0
  1468                           
  1469  0070                     i1___bmul@multiplicand:	
  1470                           ; 1 bytes @ 0x0
  1471                           
  1472                           
  1473                           ; 1 bytes @ 0x0
  1474  0070                     	ds	1
  1475  0071                     ??i1___bmul:	
  1476                           
  1477                           ; 0 bytes @ 0x1
  1478  0071                     	ds	1
  1479  0072                     i1___bmul@multiplier:	
  1480                           
  1481                           ; 1 bytes @ 0x2
  1482  0072                     	ds	1
  1483  0073                     i1___bmul@product:	
  1484                           
  1485                           ; 1 bytes @ 0x3
  1486  0073                     	ds	1
  1487  0074                     ??_UARTRXIntResponse:	
  1488  0074                     ??_RX_getStatusBuffer:	
  1489                           ; 0 bytes @ 0x4
  1490                           
  1491  0074                     ??_RX_getResponseBuffer:	
  1492                           ; 0 bytes @ 0x4
  1493                           
  1494                           
  1495                           ; 0 bytes @ 0x4
  1496  0074                     	ds	1
  1497  0075                     ??_SPIIntResponse:	
  1498                           
  1499                           ; 0 bytes @ 0x5
  1500  0075                     	ds	1
  1501  0076                     SPIIntResponse@readByte:	
  1502                           
  1503                           ; 1 bytes @ 0x6
  1504  0076                     	ds	1
  1505  0077                     UARTRXIntResponse@newByte:	
  1506                           
  1507                           ; 1 bytes @ 0x7
  1508  0077                     	ds	1
  1509  0078                     ??_ISR:	
  1510                           
  1511                           ; 0 bytes @ 0x8
  1512  0078                     	ds	5
  1513                           
  1514                           	psect	cstackBANK0
  1515  0020                     __pcstackBANK0:	
  1516  0020                     ??_ES_Sys_Timer_Init:	
  1517  0020                     ??_ES_GetMSBitSet:	
  1518                           ; 0 bytes @ 0x0
  1519                           
  1520  0020                     ??_IsTimerPending:	
  1521                           ; 0 bytes @ 0x0
  1522                           
  1523  0020                     ??_toggleRXBuffer:	
  1524                           ; 0 bytes @ 0x0
  1525                           
  1526  0020                     ??_toggleStatBuffer:	
  1527                           ; 0 bytes @ 0x0
  1528                           
  1529  0020                     ??_toggleRespBuffer:	
  1530                           ; 0 bytes @ 0x0
  1531                           
  1532  0020                     ??_superPACAddrSet:	
  1533                           ; 0 bytes @ 0x0
  1534                           
  1535  0020                     ??_TX_clearXBeePacket:	
  1536                           ; 0 bytes @ 0x0
  1537                           
  1538  0020                     ??_TX_appendXBeePacket:	
  1539                           ; 0 bytes @ 0x0
  1540                           
  1541  0020                     ??_TX_getChecksum:	
  1542                           ; 0 bytes @ 0x0
  1543                           
  1544  0020                     ??_USART_Init:	
  1545                           ; 0 bytes @ 0x0
  1546                           
  1547  0020                     ?_ES_Timer_InitTimer:	
  1548                           ; 0 bytes @ 0x0
  1549                           
  1550  0020                     ?___bmul:	
  1551                           ; 1 bytes @ 0x0
  1552                           
  1553  0020                     ___bmul@multiplicand:	
  1554                           ; 1 bytes @ 0x0
  1555                           
  1556  0020                     ES_Timer_InitTimer@NewTime:	
  1557                           ; 1 bytes @ 0x0
  1558                           
  1559                           
  1560                           ; 2 bytes @ 0x0
  1561  0020                     	ds	1
  1562  0021                     ??___bmul:	
  1563  0021                     TX_appendXBeePacket@newByte:	
  1564                           ; 0 bytes @ 0x1
  1565                           
  1566  0021                     TX_getChecksum@chk:	
  1567                           ; 1 bytes @ 0x1
  1568                           
  1569                           
  1570                           ; 1 bytes @ 0x1
  1571  0021                     	ds	1
  1572  0022                     ??_ES_Timer_InitTimer:	
  1573  0022                     TX_getChecksum@i:	
  1574                           ; 0 bytes @ 0x2
  1575                           
  1576  0022                     ___bmul@product:	
  1577                           ; 1 bytes @ 0x2
  1578                           
  1579                           
  1580                           ; 1 bytes @ 0x2
  1581  0022                     	ds	1
  1582  0023                     ES_GetMSBitSet@Val2Check:	
  1583  0023                     ES_Timer_InitTimer@Num:	
  1584                           ; 1 bytes @ 0x3
  1585                           
  1586  0023                     ___bmul@multiplier:	
  1587                           ; 1 bytes @ 0x3
  1588                           
  1589                           
  1590                           ; 1 bytes @ 0x3
  1591  0023                     	ds	1
  1592  0024                     ?_ES_InitQueue:	
  1593  0024                     ?_ES_DeQueue:	
  1594                           ; 1 bytes @ 0x4
  1595                           
  1596  0024                     ?_ES_EnQueueFIFO:	
  1597                           ; 1 bytes @ 0x4
  1598                           
  1599  0024                     ES_GetMSBitSet@ReturnVal:	
  1600                           ; 1 bytes @ 0x4
  1601                           
  1602  0024                     ES_InitQueue@pBlock:	
  1603                           ; 1 bytes @ 0x4
  1604                           
  1605  0024                     ES_EnQueueFIFO@pBlock:	
  1606                           ; 2 bytes @ 0x4
  1607                           
  1608  0024                     ES_DeQueue@pBlock:	
  1609                           ; 2 bytes @ 0x4
  1610                           
  1611  0024                     _superPACAddrSet$696:	
  1612                           ; 2 bytes @ 0x4
  1613                           
  1614                           
  1615                           ; 2 bytes @ 0x4
  1616  0024                     	ds	1
  1617  0025                     ES_GetMSBitSet@Nybble2Test:	
  1618                           
  1619                           ; 1 bytes @ 0x5
  1620  0025                     	ds	1
  1621  0026                     ES_GetMSBitSet@LoopCntr:	
  1622  0026                     ES_InitQueue@BlockSize:	
  1623                           ; 1 bytes @ 0x6
  1624                           
  1625  0026                     ES_DeQueue@pReturnEvent:	
  1626                           ; 1 bytes @ 0x6
  1627                           
  1628  0026                     ES_EnQueueFIFO@Event2Add:	
  1629                           ; 1 bytes @ 0x6
  1630                           
  1631                           
  1632                           ; 3 bytes @ 0x6
  1633  0026                     	ds	1
  1634  0027                     ??_ES_InitQueue:	
  1635  0027                     ??_ES_DeQueue:	
  1636                           ; 0 bytes @ 0x7
  1637                           
  1638                           
  1639                           ; 0 bytes @ 0x7
  1640  0027                     	ds	2
  1641  0029                     ??_ES_EnQueueFIFO:	
  1642  0029                     ES_InitQueue@pThisQueue:	
  1643                           ; 0 bytes @ 0x9
  1644                           
  1645                           
  1646                           ; 2 bytes @ 0x9
  1647  0029                     	ds	6
  1648  002F                     ES_EnQueueFIFO@saveCrit:	
  1649                           
  1650                           ; 1 bytes @ 0xF
  1651  002F                     	ds	1
  1652  0030                     ES_EnQueueFIFO@InsertionPoint:	
  1653                           
  1654                           ; 1 bytes @ 0x10
  1655  0030                     	ds	1
  1656  0031                     ES_DeQueue@saveCrit:	
  1657  0031                     ES_EnQueueFIFO@pThisQueue:	
  1658                           ; 1 bytes @ 0x11
  1659                           
  1660                           
  1661                           ; 2 bytes @ 0x11
  1662  0031                     	ds	1
  1663  0032                     ES_DeQueue@NumLeft:	
  1664                           
  1665                           ; 1 bytes @ 0x12
  1666  0032                     	ds	1
  1667  0033                     ?_ES_PostToService:	
  1668  0033                     ES_DeQueue@pThisQueue:	
  1669                           ; 1 bytes @ 0x13
  1670                           
  1671  0033                     ES_PostToService@TheEvent:	
  1672                           ; 2 bytes @ 0x13
  1673                           
  1674                           
  1675                           ; 3 bytes @ 0x13
  1676  0033                     	ds	3
  1677  0036                     ??_ES_PostToService:	
  1678                           
  1679                           ; 0 bytes @ 0x16
  1680  0036                     	ds	3
  1681  0039                     _ES_PostToService$1340:	
  1682                           
  1683                           ; 2 bytes @ 0x19
  1684  0039                     	ds	2
  1685  003B                     ES_PostToService@WhichService:	
  1686                           
  1687                           ; 1 bytes @ 0x1B
  1688  003B                     	ds	1
  1689  003C                     ??_CheckUARTTXEvent:	
  1690  003C                     ?_InitUARTRXService:	
  1691                           ; 0 bytes @ 0x1C
  1692                           
  1693  003C                     ?_InitUARTTXService:	
  1694                           ; 1 bytes @ 0x1C
  1695                           
  1696  003C                     ?_InitSPIService:	
  1697                           ; 1 bytes @ 0x1C
  1698                           
  1699  003C                     ?_InitPACSystemService:	
  1700                           ; 1 bytes @ 0x1C
  1701                           
  1702  003C                     ?_PostUARTRXService:	
  1703                           ; 1 bytes @ 0x1C
  1704                           
  1705  003C                     ?_PostUARTTXService:	
  1706                           ; 1 bytes @ 0x1C
  1707                           
  1708  003C                     ?_PostPACSystemService:	
  1709                           ; 1 bytes @ 0x1C
  1710                           
  1711  003C                     InitUARTRXService@Priority:	
  1712                           ; 1 bytes @ 0x1C
  1713                           
  1714  003C                     InitUARTTXService@Priority:	
  1715                           ; 1 bytes @ 0x1C
  1716                           
  1717  003C                     InitPACSystemService@Priority:	
  1718                           ; 1 bytes @ 0x1C
  1719                           
  1720  003C                     InitSPIService@Priority:	
  1721                           ; 1 bytes @ 0x1C
  1722                           
  1723  003C                     PostUARTRXService@ThisEvent:	
  1724                           ; 1 bytes @ 0x1C
  1725                           
  1726  003C                     PostUARTTXService@ThisEvent:	
  1727                           ; 3 bytes @ 0x1C
  1728                           
  1729  003C                     PostPACSystemService@ThisEvent:	
  1730                           ; 3 bytes @ 0x1C
  1731                           
  1732                           
  1733                           ; 3 bytes @ 0x1C
  1734  003C                     	ds	1
  1735  003D                     ??_InitUARTRXService:	
  1736  003D                     ??_InitUARTTXService:	
  1737                           ; 0 bytes @ 0x1D
  1738                           
  1739  003D                     ??_InitSPIService:	
  1740                           ; 0 bytes @ 0x1D
  1741                           
  1742  003D                     ??_InitPACSystemService:	
  1743                           ; 0 bytes @ 0x1D
  1744                           
  1745  003D                     CheckUARTTXEvent@TXEvent:	
  1746                           ; 0 bytes @ 0x1D
  1747                           
  1748                           
  1749                           ; 3 bytes @ 0x1D
  1750  003D                     	ds	1
  1751  003E                     InitUARTRXService@ThisEvent:	
  1752  003E                     InitUARTTXService@ThisEvent:	
  1753                           ; 3 bytes @ 0x1E
  1754                           
  1755  003E                     InitPACSystemService@ThisEvent:	
  1756                           ; 3 bytes @ 0x1E
  1757                           
  1758  003E                     InitSPIService@ThisEvent:	
  1759                           ; 3 bytes @ 0x1E
  1760                           
  1761                           
  1762                           ; 3 bytes @ 0x1E
  1763  003E                     	ds	1
  1764  003F                     ?_ES_Timer_RTI_Resp:	
  1765  003F                     ??_PostUARTRXService:	
  1766                           ; 0 bytes @ 0x1F
  1767                           
  1768  003F                     ??_PostUARTTXService:	
  1769                           ; 0 bytes @ 0x1F
  1770                           
  1771  003F                     ??_PostPACSystemService:	
  1772                           ; 0 bytes @ 0x1F
  1773                           
  1774  003F                     ?_retrySend:	
  1775                           ; 0 bytes @ 0x1F
  1776                           
  1777  003F                     ?_CheckUARTRXEvent:	
  1778                           ; 0 bytes @ 0x1F
  1779                           
  1780  003F                     ?_CheckSPIEvent:	
  1781                           ; 1 bytes @ 0x1F
  1782                           
  1783                           
  1784                           ; 1 bytes @ 0x1F
  1785  003F                     	ds	1
  1786  0040                     ??_ES_Timer_RTI_Resp:	
  1787  0040                     ??_retrySend:	
  1788                           ; 0 bytes @ 0x20
  1789                           
  1790                           
  1791                           ; 0 bytes @ 0x20
  1792  0040                     	ds	1
  1793  0041                     ??_CheckUARTRXEvent:	
  1794  0041                     ??_CheckSPIEvent:	
  1795                           ; 0 bytes @ 0x21
  1796                           
  1797  0041                     ?_ES_Initialize:	
  1798                           ; 0 bytes @ 0x21
  1799                           
  1800  0041                     ES_Initialize@NewRate:	
  1801                           ; 1 bytes @ 0x21
  1802                           
  1803  0041                     retrySend@LEDEvent:	
  1804                           ; 1 bytes @ 0x21
  1805                           
  1806                           
  1807                           ; 3 bytes @ 0x21
  1808  0041                     	ds	1
  1809  0042                     CheckUARTRXEvent@CommEvent:	
  1810                           
  1811                           ; 3 bytes @ 0x22
  1812  0042                     	ds	1
  1813  0043                     ??_ES_Initialize:	
  1814  0043                     CheckSPIEvent@SPIEvent:	
  1815                           ; 0 bytes @ 0x23
  1816                           
  1817                           
  1818                           ; 3 bytes @ 0x23
  1819  0043                     	ds	1
  1820  0044                     ?_RunUARTRXService:	
  1821  0044                     ?_RunUARTTXService:	
  1822                           ; 3 bytes @ 0x24
  1823                           
  1824  0044                     ?_RunSPIService:	
  1825                           ; 3 bytes @ 0x24
  1826                           
  1827  0044                     ?_RunPACSystemService:	
  1828                           ; 3 bytes @ 0x24
  1829                           
  1830  0044                     RunUARTRXService@ThisEvent:	
  1831                           ; 3 bytes @ 0x24
  1832                           
  1833  0044                     RunUARTTXService@ThisEvent:	
  1834                           ; 3 bytes @ 0x24
  1835                           
  1836  0044                     RunPACSystemService@ThisEvent:	
  1837                           ; 3 bytes @ 0x24
  1838                           
  1839  0044                     RunSPIService@ThisEvent:	
  1840                           ; 3 bytes @ 0x24
  1841                           
  1842                           
  1843                           ; 3 bytes @ 0x24
  1844  0044                     	ds	2
  1845  0046                     ?_ES_CheckUserEvents:	
  1846                           
  1847                           ; 1 bytes @ 0x26
  1848  0046                     	ds	1
  1849  0047                     ??_ES_CheckUserEvents:	
  1850                           
  1851                           ; 0 bytes @ 0x27
  1852  0047                     	ds	1
  1853  0048                     ??_RunUARTRXService:	
  1854  0048                     ??_RunUARTTXService:	
  1855                           ; 0 bytes @ 0x28
  1856                           
  1857  0048                     ??_RunSPIService:	
  1858                           ; 0 bytes @ 0x28
  1859                           
  1860  0048                     ??_RunPACSystemService:	
  1861                           ; 0 bytes @ 0x28
  1862                           
  1863  0048                     ES_Initialize@i:	
  1864                           ; 0 bytes @ 0x28
  1865                           
  1866  0048                     RunSPIService@ReturnEvent:	
  1867                           ; 1 bytes @ 0x28
  1868                           
  1869                           
  1870                           ; 3 bytes @ 0x28
  1871  0048                     	ds	1
  1872  0049                     RunUARTTXService@ReturnEvent:	
  1873  0049                     RunPACSystemService@ReturnEvent:	
  1874                           ; 3 bytes @ 0x29
  1875                           
  1876                           
  1877                           ; 3 bytes @ 0x29
  1878  0049                     	ds	6
  1879  004F                     ?_ES_Run:	
  1880                           
  1881                           ; 1 bytes @ 0x2F
  1882  004F                     	ds	2
  1883  0051                     ??_ES_Run:	
  1884                           
  1885                           ; 0 bytes @ 0x31
  1886  0051                     	ds	3
  1887  0054                     _ES_Run$1334:	
  1888                           
  1889                           ; 2 bytes @ 0x34
  1890  0054                     	ds	2
  1891  0056                     ES_Run@HighestPrior:	
  1892                           
  1893                           ; 1 bytes @ 0x36
  1894  0056                     	ds	1
  1895  0057                     ??_main:	
  1896                           
  1897                           ; 0 bytes @ 0x37
  1898  0057                     	ds	1
  1899  0058                     main@ErrorType:	
  1900                           
  1901                           ; 1 bytes @ 0x38
  1902  0058                     	ds	1
  1903                           
  1904                           	psect	maintext
  1905  0E14                     __pmaintext:	
  1906 ;;
  1907 ;;Main: autosize = 0, tempsize = 1, incstack = 0, save=0
  1908 ;;
  1909 ;; *************** function _main *****************
  1910 ;; Defined at:
  1911 ;;		line 21 in file "main.c"
  1912 ;; Parameters:    Size  Location     Type
  1913 ;;		None
  1914 ;; Auto vars:     Size  Location     Type
  1915 ;;  ErrorType       1   56[BANK0 ] enum E1641
  1916 ;; Return value:  Size  Location     Type
  1917 ;;		None               void
  1918 ;; Registers used:
  1919 ;;		wreg, fsr0l, fsr0h, status,2, status,0, btemp+1, pclath, cstack
  1920 ;; Tracked objects:
  1921 ;;		On entry : B00/0
  1922 ;;		On exit  : 0/0
  1923 ;;		Unchanged: 0/0
  1924 ;; Data sizes:     COMMON   BANK0   BANK1   BANK2
  1925 ;;      Params:         0       0       0       0
  1926 ;;      Locals:         0       1       0       0
  1927 ;;      Temps:          0       1       0       0
  1928 ;;      Totals:         0       2       0       0
  1929 ;;Total ram usage:        2 bytes
  1930 ;; Hardware stack levels required when called:    8
  1931 ;; This function calls:
  1932 ;;		_ES_Initialize
  1933 ;;		_ES_Run
  1934 ;;		_USART_Init
  1935 ;; This function is called by:
  1936 ;;		Startup code after reset
  1937 ;; This function uses a non-reentrant model
  1938 ;;
  1939                           
  1940                           
  1941                           ;psect for function _main
  1942  0E14                     _main:	
  1943                           
  1944                           ;main.c: 22: ES_Return_t ErrorType;
  1945                           ;main.c: 28: OSCCON = 0b01110000;
  1946                           
  1947                           ;incstack = 0
  1948                           ; Regs used in _main: [wreg-fsr0h+status,2+status,0+btemp+1+pclath+cstack]
  1949  0E14  3070               	movlw	112
  1950  0E15  1683               	bsf	3,5	;RP0=1, select bank1
  1951  0E16  1303               	bcf	3,6	;RP1=0, select bank1
  1952  0E17  008F               	movwf	15	;volatile
  1953                           
  1954                           ;main.c: 30: USART_Init();
  1955  0E18  158A  25CE         	fcall	_USART_Init
  1956                           
  1957                           ;main.c: 33: TRISC3 = 0;
  1958  0E1A  1683               	bsf	3,5	;RP0=1, select bank1
  1959  0E1B  1303               	bcf	3,6	;RP1=0, select bank1
  1960  0E1C  1187               	bcf	7,3	;volatile
  1961                           
  1962                           ;main.c: 34: ANS7 = 0;
  1963  0E1D  1283               	bcf	3,5	;RP0=0, select bank2
  1964  0E1E  1703               	bsf	3,6	;RP1=1, select bank2
  1965  0E1F  139E               	bcf	30,7	;volatile
  1966                           
  1967                           ;main.c: 35: RC3 = 0;
  1968  0E20  1283               	bcf	3,5	;RP0=0, select bank0
  1969  0E21  1303               	bcf	3,6	;RP1=0, select bank0
  1970  0E22  1187               	bcf	7,3	;volatile
  1971  0E23  3002               	movlw	low u3027jt
  1972                           
  1973                           ;main.c: 38: ErrorType = ES_Initialize(ES_Timer_RATE_1MS);
  1974  0E24  01C1               	clrf	ES_Initialize@NewRate
  1975  0E25  0AC1               	incf	ES_Initialize@NewRate,f
  1976  0E26  118A  299B         	ljmp	_ES_Initialize
  1977  0E28                     u3027jf:	
  1978  0E28  1283               	bcf	3,5	;RP0=0, select bank0
  1979  0E29  1303               	bcf	3,6	;RP1=0, select bank0
  1980  0E2A  0841               	movf	?_ES_Initialize,w
  1981  0E2B  00D7               	movwf	??_main
  1982  0E2C  00D8               	movwf	main@ErrorType
  1983                           
  1984                           ;main.c: 41: if (ErrorType == Success) {
  1985  0E2D  0858               	movf	main@ErrorType,w
  1986  0E2E  1D03               	btfss	3,2
  1987  0E2F  2E38               	goto	l3935
  1988  0E30  304B               	movlw	low u3047jt
  1989  0E31  118A  2922         	ljmp	_ES_Run
  1990  0E33                     u3047jf:	
  1991  0E33  1283               	bcf	3,5	;RP0=0, select bank0
  1992  0E34  1303               	bcf	3,6	;RP1=0, select bank0
  1993  0E35  084F               	movf	?_ES_Run,w
  1994  0E36  00D7               	movwf	??_main
  1995  0E37  00D8               	movwf	main@ErrorType
  1996  0E38                     l3935:	
  1997                           ;main.c: 57: }
  1998                           
  1999                           ;main.c: 56: break;
  2000                           
  2001                           ;main.c: 54: default:
  2002                           
  2003                           ;main.c: 53: break;
  2004                           
  2005                           ;main.c: 51: case FailedInit:
  2006                           
  2007                           ;main.c: 50: break;
  2008                           
  2009                           ;main.c: 48: case FailedPointer:
  2010                           
  2011                           ;main.c: 45: }
  2012                           ;main.c: 47: switch (ErrorType) {
  2013                           
  2014  0E38  0858               	movf	main@ErrorType,w
  2015                           
  2016                           ; Switch size 1, requested type "space"
  2017                           ; Number of cases is 2, Range of values is 3 to 5
  2018                           ; switch strategies available:
  2019                           ; Name         Instructions Cycles
  2020                           ; simple_byte            7     4 (average)
  2021                           ; direct_byte           16    10 (fixed)
  2022                           ; jumptable            263     9 (fixed)
  2023                           ;	Chosen strategy is simple_byte
  2024  0E39  3A03               	xorlw	3	; case 3
  2025  0E3A  1903               	skipnz
  2026  0E3B  2E40               	goto	l347
  2027  0E3C  3A06               	xorlw	6	; case 5
  2028  0E3D  1903               	skipnz
  2029  0E3E  2E40               	goto	l347
  2030  0E3F  2E40               	goto	l347
  2031  0E40                     l347:	
  2032                           ;main.c: 58: for (;;)
  2033                           
  2034                           
  2035                           ;main.c: 59: ;
  2036  0E40  2E40               	goto	l347
  2037  0E41                     __end_of_main:	
  2038                           
  2039                           	psect	jmp_tab__ES_Initialize
  2040  0002                     __pjmp_tab__ES_Initialize:	
  2041  0002                     u3027jt:	
  2042  0002  158A  2E28         	ljmp	u3027jf
  2043                           
  2044                           	psect	jmp_tab__ES_Run
  2045  084B                     __pjmp_tab__ES_Run:	
  2046                           ;main.c: 43: ErrorType = ES_Run();
  2047                           
  2048  084B                     u3047jt:	
  2049  084B  158A  2E33         	ljmp	u3047jf
  2050                           
  2051                           	psect	text1
  2052  0DCE                     __ptext1:	
  2053 ;; *************** function _USART_Init *****************
  2054 ;; Defined at:
  2055 ;;		line 11 in file "sci.c"
  2056 ;; Parameters:    Size  Location     Type
  2057 ;;		None
  2058 ;; Auto vars:     Size  Location     Type
  2059 ;;		None
  2060 ;; Return value:  Size  Location     Type
  2061 ;;		None               void
  2062 ;; Registers used:
  2063 ;;		wreg, status,2
  2064 ;; Tracked objects:
  2065 ;;		On entry : 0/0
  2066 ;;		On exit  : 0/0
  2067 ;;		Unchanged: 0/0
  2068 ;; Data sizes:     COMMON   BANK0   BANK1   BANK2
  2069 ;;      Params:         0       0       0       0
  2070 ;;      Locals:         0       0       0       0
  2071 ;;      Temps:          0       0       0       0
  2072 ;;      Totals:         0       0       0       0
  2073 ;;Total ram usage:        0 bytes
  2074 ;; Hardware stack levels used:    1
  2075 ;; Hardware stack levels required when called:    4
  2076 ;; This function calls:
  2077 ;;		Nothing
  2078 ;; This function is called by:
  2079 ;;		_main
  2080 ;; This function uses a non-reentrant model
  2081 ;;
  2082                           
  2083                           
  2084                           ;psect for function _USART_Init
  2085  0DCE                     _USART_Init:	
  2086                           
  2087                           ;sci.c: 13: GIE = 0;
  2088                           
  2089                           ;incstack = 0
  2090                           ; Regs used in _USART_Init: [wreg+status,2]
  2091  0DCE  138B               	bcf	11,7	;volatile
  2092                           
  2093                           ;sci.c: 16: SPBRG = 129;
  2094  0DCF  3081               	movlw	129
  2095  0DD0  1683               	bsf	3,5	;RP0=1, select bank1
  2096  0DD1  1303               	bcf	3,6	;RP1=0, select bank1
  2097  0DD2  0099               	movwf	25	;volatile
  2098                           
  2099                           ;sci.c: 17: SPBRGH = 0;
  2100  0DD3  019A               	clrf	26	;volatile
  2101                           
  2102                           ;sci.c: 18: BRGH = 1;
  2103  0DD4  1518               	bsf	24,2	;volatile
  2104                           
  2105                           ;sci.c: 19: BRG16 = 0;
  2106  0DD5  119B               	bcf	27,3	;volatile
  2107                           
  2108                           ;sci.c: 22: SYNC = 0;
  2109  0DD6  1218               	bcf	24,4	;volatile
  2110                           
  2111                           ;sci.c: 23: SPEN = 1;
  2112  0DD7  1283               	bcf	3,5	;RP0=0, select bank0
  2113  0DD8  1303               	bcf	3,6	;RP1=0, select bank0
  2114  0DD9  1798               	bsf	24,7	;volatile
  2115                           
  2116                           ;sci.c: 26: TXIE = 0;
  2117  0DDA  1683               	bsf	3,5	;RP0=1, select bank1
  2118  0DDB  1303               	bcf	3,6	;RP1=0, select bank1
  2119  0DDC  120C               	bcf	12,4	;volatile
  2120                           
  2121                           ;sci.c: 27: RCIE = 0;
  2122  0DDD  128C               	bcf	12,5	;volatile
  2123                           
  2124                           ;sci.c: 28: PEIE = 0;
  2125  0DDE  130B               	bcf	11,6	;volatile
  2126                           
  2127                           ;sci.c: 31: TXEN = 1;
  2128  0DDF  1698               	bsf	24,5	;volatile
  2129                           
  2130                           ;sci.c: 34: CREN = 1;
  2131  0DE0  1283               	bcf	3,5	;RP0=0, select bank0
  2132  0DE1  1303               	bcf	3,6	;RP1=0, select bank0
  2133  0DE2  1618               	bsf	24,4	;volatile
  2134                           
  2135                           ;sci.c: 35: ANS11 = 0;
  2136  0DE3  1283               	bcf	3,5	;RP0=0, select bank2
  2137  0DE4  1703               	bsf	3,6	;RP1=1, select bank2
  2138  0DE5  119F               	bcf	31,3	;volatile
  2139                           
  2140                           ;sci.c: 38: GIE = 1;
  2141  0DE6  178B               	bsf	11,7	;volatile
  2142  0DE7  0008               	return
  2143  0DE8                     __end_of_USART_Init:	
  2144                           
  2145                           	psect	text2
  2146  0122                     __ptext2:	
  2147 ;; *************** function _ES_Run *****************
  2148 ;; Defined at:
  2149 ;;		line 224 in file "ES_Framework.c"
  2150 ;; Parameters:    Size  Location     Type
  2151 ;;		None
  2152 ;; Auto vars:     Size  Location     Type
  2153 ;;  HighestPrior    1   54[BANK0 ] unsigned char 
  2154 ;; Return value:  Size  Location     Type
  2155 ;;                  1   47[BANK0 ] enum E1594
  2156 ;; Registers used:
  2157 ;;		wreg, fsr0l, fsr0h, status,2, status,0, btemp+1, pclath, cstack
  2158 ;; Tracked objects:
  2159 ;;		On entry : 0/0
  2160 ;;		On exit  : 0/0
  2161 ;;		Unchanged: 0/0
  2162 ;; Data sizes:     COMMON   BANK0   BANK1   BANK2
  2163 ;;      Params:         0       2       0       0
  2164 ;;      Locals:         0       3       0       0
  2165 ;;      Temps:          0       3       0       0
  2166 ;;      Totals:         0       8       0       0
  2167 ;;Total ram usage:        8 bytes
  2168 ;; Hardware stack levels required when called:    8
  2169 ;; This function calls:
  2170 ;;		_ES_CheckUserEvents
  2171 ;;		_ES_DeQueue
  2172 ;;		_ES_GetMSBitSet
  2173 ;;		_ES_Timer_RTI_Resp
  2174 ;;		_IsTimerPending
  2175 ;;		_RunPACSystemService
  2176 ;;		_RunSPIService
  2177 ;;		_RunUARTRXService
  2178 ;;		_RunUARTTXService
  2179 ;;		___bmul
  2180 ;; This function is called by:
  2181 ;;		_main
  2182 ;; This function uses a non-reentrant model
  2183 ;;
  2184                           
  2185                           
  2186                           ;psect for function _ES_Run
  2187  0122                     _ES_Run:	
  2188                           
  2189                           ;incstack = 0
  2190 ;; using string table level
  2191                           ; Regs used in _ES_Run: [wreg-fsr0h+status,2+status,0+btemp+1+pclath+cstack]
  2192  0122  1283               	bcf	3,5	;RP0=0, select bank0
  2193  0123  1303               	bcf	3,6	;RP1=0, select bank0
  2194  0124  00D0               	movwf	(?_ES_Run+1)^0
  2195  0125                     l3747:	
  2196                           ;ES_Framework.c: 233: while (Ready != 0) {
  2197                           
  2198                           ;ES_Framework.c: 226: uint8_t HighestPrior;
  2199                           ;ES_Framework.c: 227: static ES_Event ThisEvent;
  2200                           ;ES_Framework.c: 229: while (1) {
  2201                           
  2202  0125  1283               	bcf	3,5	;RP0=0, select bank0
  2203  0126  1303               	bcf	3,6	;RP1=0, select bank0
  2204  0127  0862               	movf	_Ready,w
  2205  0128  1903               	btfsc	3,2
  2206  0129  298C               	goto	l3751
  2207                           
  2208                           ;ES_Framework.c: 234: HighestPrior = ES_GetMSBitSet(Ready);
  2209  012A  1283               	bcf	3,5	;RP0=0, select bank0
  2210  012B  1303               	bcf	3,6	;RP1=0, select bank0
  2211  012C  0862               	movf	_Ready,w
  2212  012D  118A  20AC  118A   	fcall	_ES_GetMSBitSet
  2213  0130  1283               	bcf	3,5	;RP0=0, select bank0
  2214  0131  1303               	bcf	3,6	;RP1=0, select bank0
  2215  0132  00D1               	movwf	??_ES_Run
  2216  0133  00D6               	movwf	ES_Run@HighestPrior
  2217                           
  2218                           ;ES_Framework.c: 235: if (ES_DeQueue(EventQueues[HighestPrior].pMem, &ThisEvent) == 0) {
  2219  0134  3003               	movlw	3
  2220  0135  00D1               	movwf	??_ES_Run
  2221  0136  00A0               	movwf	___bmul@multiplicand
  2222  0137  0856               	movf	ES_Run@HighestPrior,w
  2223  0138  23C0               	fcall	___bmul
  2224  0139  3E10               	addlw	low ((_EventQueues-__stringbase)| (0+32768))
  2225  013A  0084               	movwf	4
  2226  013B  158A  2000  118A   	fcall	stringdir
  2227  013E  1283               	bcf	3,5	;RP0=0, select bank0
  2228  013F  1303               	bcf	3,6	;RP1=0, select bank0
  2229  0140  00D2               	movwf	??_ES_Run+1
  2230  0141  158A  2000  118A   	fcall	stringdir
  2231  0144  00D3               	movwf	??_ES_Run+2
  2232  0145  0852               	movf	??_ES_Run+1,w
  2233  0146  00D4               	movwf	_ES_Run$1334
  2234  0147  0853               	movf	??_ES_Run+2,w
  2235  0148  00D5               	movwf	_ES_Run$1334+1
  2236                           
  2237                           ;ES_Framework.c: 235: if (ES_DeQueue(EventQueues[HighestPrior].pMem, &ThisEvent) == 0) {
  2238  0149  0854               	movf	_ES_Run$1334,w
  2239  014A  00A4               	movwf	ES_DeQueue@pBlock
  2240  014B  0855               	movf	_ES_Run$1334+1,w
  2241  014C  00A5               	movwf	ES_DeQueue@pBlock+1
  2242  014D  30DF               	movlw	(low (ES_Run@ThisEvent| 0))& (0+255)
  2243  014E  00D1               	movwf	??_ES_Run
  2244  014F  00A6               	movwf	ES_DeQueue@pReturnEvent
  2245  0150  158A  2759  118A   	fcall	_ES_DeQueue
  2246  0153  3A00               	xorlw	0
  2247  0154  1D03               	skipz
  2248  0155  2961               	goto	l3741
  2249                           
  2250                           ;ES_Framework.c: 236: Ready &= ~BitNum2SetMask[HighestPrior];
  2251  0156  1283               	bcf	3,5	;RP0=0, select bank0
  2252  0157  1303               	bcf	3,6	;RP1=0, select bank0
  2253  0158  0856               	movf	ES_Run@HighestPrior,w
  2254  0159  3E1C               	addlw	low ((_BitNum2SetMask-__stringbase)| (0+32768))
  2255  015A  0084               	movwf	4
  2256  015B  158A  2000  118A   	fcall	stringdir
  2257  015E  3AFF               	xorlw	255
  2258  015F  00D1               	movwf	??_ES_Run
  2259  0160  05E2               	andwf	_Ready,f
  2260  0161                     l3741:	
  2261                           
  2262                           ;ES_Framework.c: 237: }
  2263                           ;ES_Framework.c: 238: if (ServDescList[HighestPrior].RunFunc(ThisEvent).EventType !=
  2264                           ;ES_Framework.c: 239: ES_NO_EVENT) {
  2265  0161  1683               	bsf	3,5	;RP0=1, select bank1
  2266  0162  1303               	bcf	3,6	;RP1=0, select bank1
  2267  0163  085F               	movf	ES_Run@ThisEvent^(0+128),w
  2268  0164  1283               	bcf	3,5	;RP0=0, select bank0
  2269  0165  1303               	bcf	3,6	;RP1=0, select bank0
  2270  0166  00C4               	movwf	RunPACSystemService@ThisEvent
  2271  0167  1683               	bsf	3,5	;RP0=1, select bank1
  2272  0168  1303               	bcf	3,6	;RP1=0, select bank1
  2273  0169  0860               	movf	(ES_Run@ThisEvent+1)^(0+128),w
  2274  016A  1283               	bcf	3,5	;RP0=0, select bank0
  2275  016B  1303               	bcf	3,6	;RP1=0, select bank0
  2276  016C  00C5               	movwf	RunPACSystemService@ThisEvent+1
  2277  016D  1683               	bsf	3,5	;RP0=1, select bank1
  2278  016E  1303               	bcf	3,6	;RP1=0, select bank1
  2279  016F  0861               	movf	(ES_Run@ThisEvent+2)^(0+128),w
  2280  0170  1283               	bcf	3,5	;RP0=0, select bank0
  2281  0171  1303               	bcf	3,6	;RP1=0, select bank0
  2282  0172  00C6               	movwf	RunPACSystemService@ThisEvent+2
  2283  0173  1403               	setc
  2284  0174  0D56               	rlf	ES_Run@HighestPrior,w
  2285  0175  3E24               	addlw	low ((_ServDescList-__stringbase)| (0+32768))
  2286  0176  0084               	movwf	4
  2287  0177  158A  2000  118A   	fcall	stringdir
  2288  017A  00D1               	movwf	??_ES_Run
  2289  017B  3045               	movlw	low u2767jt
  2290  017C  00C7               	movwf	(?_RunPACSystemService+3)^0
  2291  017D  0851               	movf	??_ES_Run,w
  2292  017E  118A  2900         	ljmp	fptable
  2293  0180                     u2767jf:	
  2294  0180  1283               	bcf	3,5	;RP0=0, select bank0
  2295  0181  1303               	bcf	3,6	;RP1=0, select bank0
  2296  0182  0844               	movf	?_RunPACSystemService,w
  2297  0183  1903               	btfsc	3,2
  2298  0184  2925               	goto	l3747
  2299                           
  2300                           ;ES_Framework.c: 240: return FailedRun;
  2301  0185  3002               	movlw	2
  2302  0186  00D1               	movwf	??_ES_Run
  2303  0187  00CF               	movwf	?_ES_Run
  2304  0188  2997               	goto	l85
  2305  0189                     l3749:	
  2306                           ;ES_Framework.c: 241: }
  2307                           ;ES_Framework.c: 242: }
  2308                           ;ES_Framework.c: 245: while (IsTimerPending() > 0)
  2309                           
  2310  0189  304D               	movlw	low u2797jt
  2311  018A  118A  2836         	ljmp	_ES_Timer_RTI_Resp
  2312  018C                     u2797jf:	
  2313  018C                     l3751:	
  2314  018C  2509  118A         	fcall	_IsTimerPending
  2315  018E  3A00               	xorlw	0
  2316  018F  1D03               	skipz
  2317  0190  2989               	goto	l3749
  2318  0191  304F               	movlw	low u2817jt
  2319  0192  158A  2ED2         	ljmp	_ES_CheckUserEvents
  2320  0194                     u2817jf:	
  2321  0194  1283               	bcf	3,5	;RP0=0, select bank0
  2322  0195  1303               	bcf	3,6	;RP1=0, select bank0
  2323  0196  2925               	goto	l3747
  2324  0197                     l85:	
  2325                           ;ES_Framework.c: 250: }
  2326                           ;ES_Framework.c: 251: return 0;
  2327                           
  2328  0197  3008               	movlw	high __pjmp_tab__ES_Run
  2329  0198  008A               	movwf	10
  2330  0199  0850               	movf	(?_ES_Run+1)^0,w
  2331  019A  0082               	movwf	2
  2332  019B                     __end_of_ES_Run:	
  2333  019B                     __ptext24:	
  2334 ;; *************** function _ES_Initialize *****************
  2335 ;; Defined at:
  2336 ;;		line 189 in file "ES_Framework.c"
  2337 ;; Parameters:    Size  Location     Type
  2338 ;;  NewRate         1   33[BANK0 ] enum E93
  2339 ;; Auto vars:     Size  Location     Type
  2340 ;;  i               1   40[BANK0 ] unsigned char 
  2341 ;; Return value:  Size  Location     Type
  2342 ;;                  1   33[BANK0 ] enum E1594
  2343 ;; Registers used:
  2344 ;;		wreg, fsr0l, fsr0h, status,2, status,0, btemp+1, pclath, cstack
  2345 ;; Tracked objects:
  2346 ;;		On entry : 0/0
  2347 ;;		On exit  : 0/0
  2348 ;;		Unchanged: 0/0
  2349 ;; Data sizes:     COMMON   BANK0   BANK1   BANK2
  2350 ;;      Params:         0       2       0       0
  2351 ;;      Locals:         0       1       0       0
  2352 ;;      Temps:          0       5       0       0
  2353 ;;      Totals:         0       8       0       0
  2354 ;;Total ram usage:        8 bytes
  2355 ;; Hardware stack levels required when called:    8
  2356 ;; This function calls:
  2357 ;;		_ES_InitQueue
  2358 ;;		_ES_Sys_Timer_Init
  2359 ;;		_InitPACSystemService
  2360 ;;		_InitSPIService
  2361 ;;		_InitUARTRXService
  2362 ;;		_InitUARTTXService
  2363 ;;		___bmul
  2364 ;; This function is called by:
  2365 ;;		_main
  2366 ;; This function uses a non-reentrant model
  2367 ;;
  2368                           
  2369                           
  2370                           ;psect for function _ES_Initialize
  2371  019B                     _ES_Initialize:	
  2372                           
  2373                           ;incstack = 0
  2374 ;; using string table level
  2375                           ; Regs used in _ES_Initialize: [wreg-fsr0h+status,2+status,0+btemp+1+pclath+cstack]
  2376  019B  1283               	bcf	3,5	;RP0=0, select bank0
  2377  019C  1303               	bcf	3,6	;RP1=0, select bank0
  2378  019D  00C2               	movwf	(?_ES_Initialize+1)^0
  2379                           
  2380                           ;ES_Framework.c: 190: unsigned char i;
  2381                           ;ES_Framework.c: 191: ES_Sys_Timer_Init();
  2382  019E  2407  118A         	fcall	_ES_Sys_Timer_Init
  2383                           
  2384                           ;ES_Framework.c: 193: for (i = 0; i < (sizeof(ServDescList)/sizeof(ServDescList[0])); i+
      +                          +) {
  2385  01A0  1283               	bcf	3,5	;RP0=0, select bank0
  2386  01A1  3004               	movlw	4
  2387  01A2  1303               	bcf	3,6	;RP1=0, select bank0
  2388  01A3  01C8               	clrf	ES_Initialize@i
  2389  01A4  0248               	subwf	ES_Initialize@i,w
  2390  01A5  1803               	btfsc	3,0
  2391  01A6  2A05               	goto	l3729
  2392  01A7                     l3711:	
  2393                           
  2394                           ;ES_Framework.c: 194: if ((ServDescList[i].InitFunc == (pInitFunc) 0) ||
  2395                           ;ES_Framework.c: 195: (ServDescList[i].RunFunc == (pRunFunc) 0))
  2396  01A7  0848               	movf	ES_Initialize@i,w
  2397  01A8  00C3               	movwf	??_ES_Initialize
  2398  01A9  0743               	addwf	??_ES_Initialize,w
  2399  01AA  3E24               	addlw	low ((_ServDescList-__stringbase)| (0+32768))
  2400  01AB  0084               	movwf	4
  2401  01AC  158A  2000  118A   	fcall	stringdir
  2402  01AF  3A00               	xorlw	0
  2403  01B0  1903               	skipnz
  2404  01B1  29BC               	goto	l3715
  2405  01B2  1403               	setc
  2406  01B3  0D48               	rlf	ES_Initialize@i,w
  2407  01B4  3E24               	addlw	low ((_ServDescList-__stringbase)| (0+32768))
  2408  01B5  0084               	movwf	4
  2409  01B6  158A  2000  118A   	fcall	stringdir
  2410  01B9  3A00               	xorlw	0
  2411  01BA  1D03               	skipz
  2412  01BB  29BE               	goto	l3719
  2413  01BC                     l3715:	
  2414                           
  2415                           ;ES_Framework.c: 196: return FailedPointer;
  2416  01BC  3003               	movlw	3
  2417  01BD  29F9               	goto	L5
  2418  01BE                     l3719:	
  2419                           
  2420                           ;ES_Framework.c: 198: ES_InitQueue(EventQueues[i].pMem, EventQueues[i].Size);
  2421  01BE  3003               	movlw	3
  2422  01BF  00C3               	movwf	??_ES_Initialize
  2423  01C0  00A0               	movwf	___bmul@multiplicand
  2424  01C1  0848               	movf	ES_Initialize@i,w
  2425  01C2  23C0               	fcall	___bmul
  2426  01C3  3E10               	addlw	low ((_EventQueues-__stringbase)| (0+32768))
  2427  01C4  0084               	movwf	4
  2428  01C5  158A  2000  118A   	fcall	stringdir
  2429  01C8  1283               	bcf	3,5	;RP0=0, select bank0
  2430  01C9  1303               	bcf	3,6	;RP1=0, select bank0
  2431  01CA  00C4               	movwf	??_ES_Initialize+1
  2432  01CB  158A  2000  118A   	fcall	stringdir
  2433  01CE  00C5               	movwf	??_ES_Initialize+2
  2434  01CF  0844               	movf	??_ES_Initialize+1,w
  2435  01D0  00A4               	movwf	ES_InitQueue@pBlock
  2436  01D1  0845               	movf	??_ES_Initialize+2,w
  2437  01D2  00A5               	movwf	ES_InitQueue@pBlock+1
  2438  01D3  3003               	movlw	3
  2439  01D4  00C6               	movwf	??_ES_Initialize+3
  2440  01D5  00A0               	movwf	___bmul@multiplicand
  2441  01D6  0848               	movf	ES_Initialize@i,w
  2442  01D7  23C0               	fcall	___bmul
  2443  01D8  3E02               	addlw	2
  2444  01D9  3E10               	addlw	low ((_EventQueues-__stringbase)| (0+32768))
  2445  01DA  0084               	movwf	4
  2446  01DB  158A  2000  118A   	fcall	stringdir
  2447  01DE  1283               	bcf	3,5	;RP0=0, select bank0
  2448  01DF  1303               	bcf	3,6	;RP1=0, select bank0
  2449  01E0  00C7               	movwf	??_ES_Initialize+4
  2450  01E1  00A6               	movwf	ES_InitQueue@BlockSize
  2451  01E2  23DC               	fcall	_ES_InitQueue
  2452                           
  2453                           ;ES_Framework.c: 200: if (ServDescList[i].InitFunc(i) != ((boolean) !((boolean) 0)))
  2454  01E3  1283               	bcf	3,5	;RP0=0, select bank0
  2455  01E4  1303               	bcf	3,6	;RP1=0, select bank0
  2456  01E5  0848               	movf	ES_Initialize@i,w
  2457  01E6  00C3               	movwf	??_ES_Initialize
  2458  01E7  00BC               	movwf	InitPACSystemService@Priority
  2459  01E8  0848               	movf	ES_Initialize@i,w
  2460  01E9  00C4               	movwf	??_ES_Initialize+1
  2461  01EA  0744               	addwf	??_ES_Initialize+1,w
  2462  01EB  3E24               	addlw	low ((_ServDescList-__stringbase)| (0+32768))
  2463  01EC  0084               	movwf	4
  2464  01ED  158A  2000  118A   	fcall	stringdir
  2465  01F0  118A  2100  118A   	fcall	fptable
  2466  01F3  3A01               	xorlw	1
  2467  01F4  1903               	skipnz
  2468  01F5  29FC               	goto	l3725
  2469                           
  2470                           ;ES_Framework.c: 201: return FailedInit;
  2471  01F6  3005               	movlw	5
  2472  01F7  1283               	bcf	3,5	;RP0=0, select bank0
  2473  01F8  1303               	bcf	3,6	;RP1=0, select bank0
  2474  01F9                     L5:	
  2475  01F9  00C3               	movwf	??_ES_Initialize
  2476  01FA  00C1               	movwf	?_ES_Initialize
  2477  01FB  2A06               	goto	l74
  2478  01FC                     l3725:	
  2479  01FC  3001               	movlw	1
  2480  01FD  1283               	bcf	3,5	;RP0=0, select bank0
  2481  01FE  1303               	bcf	3,6	;RP1=0, select bank0
  2482  01FF  00C3               	movwf	??_ES_Initialize
  2483  0200  07C8               	addwf	ES_Initialize@i,f
  2484  0201  3004               	movlw	4
  2485  0202  0248               	subwf	ES_Initialize@i,w
  2486  0203  1C03               	skipc
  2487  0204  29A7               	goto	l3711
  2488  0205                     l3729:	
  2489                           
  2490                           ;ES_Framework.c: 202: }
  2491                           ;ES_Framework.c: 203: return Success;
  2492  0205  01C1               	clrf	?_ES_Initialize
  2493  0206                     l74:	
  2494  0206  3000               	movlw	high __pjmp_tab__ES_Initialize
  2495  0207  008A               	movwf	10
  2496  0208  0842               	movf	(?_ES_Initialize+1)^0,w
  2497  0209  0082               	movwf	2
  2498  020A                     __end_of_ES_Initialize:	
  2499  020A                     __ptext5:	
  2500 ;; *************** function _RunUARTRXService *****************
  2501 ;; Defined at:
  2502 ;;		line 173 in file "UART_RX_SM.c"
  2503 ;; Parameters:    Size  Location     Type
  2504 ;;  ThisEvent       3   36[BANK0 ] struct ES_Event_t
  2505 ;; Auto vars:     Size  Location     Type
  2506 ;;  i               1   12[BANK2 ] unsigned char 
  2507 ;;  i               1   11[BANK2 ] unsigned char 
  2508 ;;  msgAddr         2    3[BANK2 ] unsigned int 
  2509 ;;  addrEvent       3    5[BANK2 ] struct ES_Event_t
  2510 ;;  TXEvent         3    8[BANK2 ] struct ES_Event_t
  2511 ;;  ReturnEvent     3    0[BANK2 ] struct ES_Event_t
  2512 ;; Return value:  Size  Location     Type
  2513 ;;                  3   36[BANK0 ] struct ES_Event_t
  2514 ;; Registers used:
  2515 ;;		wreg, fsr0l, fsr0h, status,2, status,0, btemp+1, pclath, cstack
  2516 ;; Tracked objects:
  2517 ;;		On entry : 0/0
  2518 ;;		On exit  : 0/0
  2519 ;;		Unchanged: 0/0
  2520 ;; Data sizes:     COMMON   BANK0   BANK1   BANK2
  2521 ;;      Params:         0       4       0       0
  2522 ;;      Locals:         0       0       0      13
  2523 ;;      Temps:          0       7       0       0
  2524 ;;      Totals:         0      11       0      13
  2525 ;;Total ram usage:       24 bytes
  2526 ;; Hardware stack levels required when called:    8
  2527 ;; This function calls:
  2528 ;;		_ES_Timer_InitTimer
  2529 ;;		_PostUARTTXService
  2530 ;;		___bmul
  2531 ;;		_toggleRespBuffer
  2532 ;;		_toggleStatBuffer
  2533 ;; This function is called by:
  2534 ;;		_ES_Run
  2535 ;; This function uses a non-reentrant model
  2536 ;;
  2537                           
  2538                           
  2539                           ;psect for function _RunUARTRXService
  2540  020A                     _RunUARTRXService:	
  2541                           
  2542                           ;UART_RX_SM.c: 174: ES_Event ReturnEvent;
  2543                           ;UART_RX_SM.c: 175: ReturnEvent.EventType = ES_NO_EVENT;
  2544                           
  2545                           ;incstack = 0
  2546                           ; Regs used in _RunUARTRXService: [wreg-fsr0h+status,2+status,0+btemp+1+pclath+cstack]
  2547  020A  1283               	bcf	3,5	;RP0=0, select bank2
  2548  020B  1703               	bsf	3,6	;RP1=1, select bank2
  2549  020C  01D8               	clrf	RunUARTRXService@ReturnEvent^(0+256)
  2550                           
  2551                           ;UART_RX_SM.c: 177: switch (ThisEvent.EventType) {
  2552  020D  2BA0               	goto	l3515
  2553  020E                     l3449:	
  2554                           ;UART_RX_SM.c: 178: case ES_RX_NEW_PACKET:
  2555                           
  2556                           
  2557                           ;UART_RX_SM.c: 179: if (RXBuffer[readRXIndex][0] == 0x81) {
  2558  020E  300A               	movlw	10
  2559  020F  1303               	bcf	3,6	;RP1=0, select bank0
  2560  0210  00C8               	movwf	??_RunUARTRXService
  2561  0211  00A0               	movwf	___bmul@multiplicand
  2562  0212  086A               	movf	_readRXIndex,w
  2563  0213  23C0  118A         	fcall	___bmul
  2564  0215  3E20               	addlw	(low (_RXBuffer| (0+256)))& (0+255)
  2565  0216  0084               	movwf	4
  2566  0217  3081               	movlw	129
  2567  0218  1783               	bsf	3,7	;select IRP bank2
  2568  0219  0600               	xorwf	0,w
  2569                           
  2570                           ;UART_RX_SM.c: 180: if (RXBuffer[readRXIndex][4] & (0x00000004 | 0x00000002)) {
  2571  021A  300A               	movlw	10
  2572  021B  1D03               	btfss	3,2
  2573  021C  2B69               	goto	L1
  2574  021D  1283               	bcf	3,5	;RP0=0, select bank0
  2575  021E  1303               	bcf	3,6	;RP1=0, select bank0
  2576  021F  00C8               	movwf	??_RunUARTRXService
  2577  0220  00A0               	movwf	___bmul@multiplicand
  2578  0221  086A               	movf	_readRXIndex,w
  2579  0222  23C0  118A         	fcall	___bmul
  2580  0224  3E04               	addlw	4
  2581  0225  3E20               	addlw	(low (_RXBuffer| (0+256)))& (0+255)
  2582  0226  0084               	movwf	4
  2583  0227  1783               	bsf	3,7	;select IRP bank2
  2584  0228  0800               	movf	0,w
  2585  0229  3906               	andlw	6
  2586  022A  1903               	btfsc	3,2
  2587  022B  2ADA               	goto	l3481
  2588                           
  2589                           ;UART_RX_SM.c: 184: for (uint8_t i = 0; i < 3; i++) {
  2590  022C  1283               	bcf	3,5	;RP0=0, select bank2
  2591  022D  3003               	movlw	3
  2592  022E  1703               	bsf	3,6	;RP1=1, select bank2
  2593  022F  01E3               	clrf	RunUARTRXService@i^(0+256)
  2594  0230  0263               	subwf	RunUARTRXService@i^(0+256),w
  2595  0231  1803               	btfsc	3,0
  2596  0232  2A62               	goto	i1L__ptext29
  2597  0233                     l3459:	
  2598                           
  2599                           ;UART_RX_SM.c: 185: statusBuffer[writeStatIndex][i] = RXBuffer[readRXIndex][5 + i];
  2600  0233  3005               	movlw	5
  2601  0234  0763               	addwf	RunUARTRXService@i^(0+256),w
  2602  0235  1283               	bcf	3,5	;RP0=0, select bank0
  2603  0236  1303               	bcf	3,6	;RP1=0, select bank0
  2604  0237  00C8               	movwf	??_RunUARTRXService
  2605  0238  3E20               	addlw	(low (_RXBuffer| (0+256)))& (0+255)
  2606  0239  00C9               	movwf	??_RunUARTRXService+1
  2607  023A  300A               	movlw	10
  2608  023B  00CA               	movwf	??_RunUARTRXService+2
  2609  023C  00A0               	movwf	___bmul@multiplicand
  2610  023D  086A               	movf	_readRXIndex,w
  2611  023E  23C0  118A         	fcall	___bmul
  2612  0240  1283               	bcf	3,5	;RP0=0, select bank0
  2613  0241  1303               	bcf	3,6	;RP1=0, select bank0
  2614  0242  0749               	addwf	??_RunUARTRXService+1,w
  2615  0243  00CB               	movwf	??_RunUARTRXService+3
  2616  0244  0084               	movwf	4
  2617  0245  1783               	bsf	3,7	;select IRP bank2
  2618  0246  0800               	movf	0,w
  2619  0247  00CC               	movwf	??_RunUARTRXService+4
  2620  0248  3003               	movlw	3
  2621  0249  00CD               	movwf	??_RunUARTRXService+5
  2622  024A  00A0               	movwf	___bmul@multiplicand
  2623  024B  086F               	movf	_writeStatIndex,w
  2624  024C  23C0  118A         	fcall	___bmul
  2625  024E  3EE2               	addlw	(low (_statusBuffer| 0))& (0+255)
  2626  024F  1283               	bcf	3,5	;RP0=0, select bank2
  2627  0250  1703               	bsf	3,6	;RP1=1, select bank2
  2628  0251  0763               	addwf	RunUARTRXService@i^(0+256),w
  2629  0252  1283               	bcf	3,5	;RP0=0, select bank0
  2630  0253  1303               	bcf	3,6	;RP1=0, select bank0
  2631  0254  00CE               	movwf	??_RunUARTRXService+6
  2632  0255  0084               	movwf	4
  2633  0256  084C               	movf	??_RunUARTRXService+4,w
  2634  0257  1383               	bcf	3,7	;select IRP bank1
  2635  0258  0080               	movwf	0
  2636  0259  3001               	movlw	1
  2637  025A  00C8               	movwf	??_RunUARTRXService
  2638  025B  1283               	bcf	3,5	;RP0=0, select bank2
  2639  025C  1703               	bsf	3,6	;RP1=1, select bank2
  2640  025D  07E3               	addwf	RunUARTRXService@i^(0+256),f
  2641  025E  3003               	movlw	3
  2642  025F  0263               	subwf	RunUARTRXService@i^(0+256),w
  2643  0260  1C03               	skipc
  2644  0261  2A33               	goto	l3459
  2645  0262                     i1L__ptext29:	
  2646                           ;UART_RX_SM.c: 186: }
  2647                           ;UART_RX_SM.c: 187: toggleStatBuffer();
  2648                           
  2649                           
  2650                           ;psect for function _toggleStatBuffer
  2651  0262                     i1L_toggleStatBuffer:	
  2652  0262                     i1Ll3333:	
  2653                           
  2654                           ;UART_RX_SM.c: 341: if (readStatIndex == 0) {
  2655  0262  1283               	bcf	3,5	;RP0=0, select bank0
  2656  0263  1303               	bcf	3,6	;RP1=0, select bank0
  2657  0264  086C               	movf	_readStatIndex,w
  2658  0265  1D03               	btfss	3,2
  2659  0266  2A6D               	ljmp	i1Ll3339
  2660  0267  2A69               	ljmp	i1Ll3335
  2661  0268                     i1Lu2341:	
  2662  0268  2A6D               	ljmp	i1Ll3339
  2663  0269                     i1Lu2340:	
  2664  0269                     i1Ll3335:	
  2665                           
  2666                           ;UART_RX_SM.c: 342: readStatIndex = 1;
  2667  0269  01EC               	clrf	_readStatIndex
  2668  026A  0AEC               	incf	_readStatIndex,f
  2669  026B                     i1Ll3337:	
  2670                           
  2671                           ;UART_RX_SM.c: 343: writeStatIndex = 0;
  2672  026B  01EF               	clrf	_writeStatIndex
  2673  026C  2A71               	ljmp	iL2
  2674  026D                     i1Ll472:	
  2675  026D                     i1Ll3339:	
  2676                           
  2677                           ;UART_RX_SM.c: 345: readStatIndex = 0;
  2678  026D  01EC               	clrf	_readStatIndex
  2679  026E                     i1Ll3341:	
  2680                           
  2681                           ;UART_RX_SM.c: 346: writeStatIndex = 1;
  2682  026E  01EF               	clrf	_writeStatIndex
  2683  026F  0AEF               	incf	_writeStatIndex,f
  2684  0270  2A71               	ljmp	iL2
  2685  0271                     i1Ll473:	
  2686  0271                     i1Ll474:	
  2687  0271                     iL2:	
  2688                           
  2689                           ;UART_RX_SM.c: 189: ES_Timer_InitTimer(0, 76);
  2690  0271  304C               	movlw	76
  2691  0272  1283               	bcf	3,5	;RP0=0, select bank0
  2692  0273  1303               	bcf	3,6	;RP1=0, select bank0
  2693  0274  00A0               	movwf	ES_Timer_InitTimer@NewTime
  2694  0275  3000               	movlw	0
  2695  0276  01A1               	clrf	ES_Timer_InitTimer@NewTime+1
  2696  0277  2428  118A         	fcall	_ES_Timer_InitTimer
  2697                           
  2698                           ;UART_RX_SM.c: 190: hasHeartbeat = ((boolean) !((boolean) 0));
  2699  0279  1683               	bsf	3,5	;RP0=1, select bank1
  2700  027A  3003               	movlw	3
  2701  027B  1303               	bcf	3,6	;RP1=0, select bank1
  2702  027C  01C9               	clrf	_hasHeartbeat^(0+128)
  2703  027D  0AC9               	incf	_hasHeartbeat^(0+128),f
  2704                           
  2705                           ;UART_RX_SM.c: 193: ES_Event addrEvent;
  2706                           ;UART_RX_SM.c: 194: superPACAddr |= (statusBuffer[readStatIndex][1] << 8);
  2707  027E  1283               	bcf	3,5	;RP0=0, select bank0
  2708  027F  1303               	bcf	3,6	;RP1=0, select bank0
  2709  0280  00C8               	movwf	??_RunUARTRXService
  2710  0281  00A0               	movwf	___bmul@multiplicand
  2711  0282  086C               	movf	_readStatIndex,w
  2712  0283  23C0  118A         	fcall	___bmul
  2713  0285  3E01               	addlw	1
  2714  0286  3EE2               	addlw	(low (_statusBuffer| 0))& (0+255)
  2715  0287  0084               	movwf	4
  2716  0288  1383               	bcf	3,7	;select IRP bank1
  2717  0289  0800               	movf	0,w
  2718  028A  1283               	bcf	3,5	;RP0=0, select bank0
  2719  028B  1303               	bcf	3,6	;RP1=0, select bank0
  2720  028C  00C9               	movwf	??_RunUARTRXService+1
  2721  028D  01CA               	clrf	??_RunUARTRXService+2
  2722  028E  00CA               	movwf	??_RunUARTRXService+2
  2723  028F  01C9               	clrf	??_RunUARTRXService+1
  2724  0290  0849               	movf	??_RunUARTRXService+1,w
  2725  0291  1683               	bsf	3,5	;RP0=1, select bank1
  2726  0292  1303               	bcf	3,6	;RP1=0, select bank1
  2727  0293  04BF               	iorwf	_superPACAddr^(0+128),f
  2728  0294  1283               	bcf	3,5	;RP0=0, select bank0
  2729  0295  1303               	bcf	3,6	;RP1=0, select bank0
  2730  0296  084A               	movf	??_RunUARTRXService+2,w
  2731  0297  1683               	bsf	3,5	;RP0=1, select bank1
  2732  0298  1303               	bcf	3,6	;RP1=0, select bank1
  2733  0299  04C0               	iorwf	(_superPACAddr+1)^(0+128),f
  2734                           
  2735                           ;UART_RX_SM.c: 195: superPACAddr |= (statusBuffer[readStatIndex][2]);
  2736  029A  3003               	movlw	3
  2737  029B  1283               	bcf	3,5	;RP0=0, select bank0
  2738  029C  1303               	bcf	3,6	;RP1=0, select bank0
  2739  029D  00C8               	movwf	??_RunUARTRXService
  2740  029E  00A0               	movwf	___bmul@multiplicand
  2741  029F  086C               	movf	_readStatIndex,w
  2742  02A0  23C0  118A         	fcall	___bmul
  2743  02A2  3E02               	addlw	2
  2744  02A3  3EE2               	addlw	(low (_statusBuffer| 0))& (0+255)
  2745  02A4  0084               	movwf	4
  2746  02A5  1383               	bcf	3,7	;select IRP bank1
  2747  02A6  0800               	movf	0,w
  2748  02A7  1283               	bcf	3,5	;RP0=0, select bank0
  2749  02A8  1303               	bcf	3,6	;RP1=0, select bank0
  2750  02A9  00C9               	movwf	??_RunUARTRXService+1
  2751  02AA  01CA               	clrf	??_RunUARTRXService+2
  2752  02AB  1683               	bsf	3,5	;RP0=1, select bank1
  2753  02AC  1303               	bcf	3,6	;RP1=0, select bank1
  2754  02AD  04BF               	iorwf	_superPACAddr^(0+128),f
  2755  02AE  1283               	bcf	3,5	;RP0=0, select bank0
  2756  02AF  1303               	bcf	3,6	;RP1=0, select bank0
  2757  02B0  084A               	movf	??_RunUARTRXService+2,w
  2758  02B1  1683               	bsf	3,5	;RP0=1, select bank1
  2759  02B2  1303               	bcf	3,6	;RP1=0, select bank1
  2760  02B3  04C0               	iorwf	(_superPACAddr+1)^(0+128),f
  2761                           
  2762                           ;UART_RX_SM.c: 196: addrEvent.EventType = ES_TX_NEW_ADDR;
  2763  02B4  300B               	movlw	11
  2764  02B5  1283               	bcf	3,5	;RP0=0, select bank0
  2765  02B6  1303               	bcf	3,6	;RP1=0, select bank0
  2766  02B7  00C8               	movwf	??_RunUARTRXService
  2767  02B8  1283               	bcf	3,5	;RP0=0, select bank2
  2768  02B9  1703               	bsf	3,6	;RP1=1, select bank2
  2769  02BA  00DD               	movwf	RunUARTRXService@addrEvent^(0+256)
  2770                           
  2771                           ;UART_RX_SM.c: 197: addrEvent.EventParam = superPACAddr;
  2772  02BB  1683               	bsf	3,5	;RP0=1, select bank1
  2773  02BC  1303               	bcf	3,6	;RP1=0, select bank1
  2774  02BD  0840               	movf	(_superPACAddr+1)^(0+128),w
  2775  02BE  1283               	bcf	3,5	;RP0=0, select bank2
  2776  02BF  1703               	bsf	3,6	;RP1=1, select bank2
  2777  02C0  00DF               	movwf	((RunUARTRXService@addrEvent+1)^(0+256)+1)
  2778  02C1  1683               	bsf	3,5	;RP0=1, select bank1
  2779  02C2  1303               	bcf	3,6	;RP1=0, select bank1
  2780  02C3  083F               	movf	_superPACAddr^(0+128),w
  2781  02C4  1283               	bcf	3,5	;RP0=0, select bank2
  2782  02C5  1703               	bsf	3,6	;RP1=1, select bank2
  2783  02C6  00DE               	movwf	(RunUARTRXService@addrEvent^(0+256)+1)
  2784                           
  2785                           ;UART_RX_SM.c: 198: PostUARTTXService(addrEvent);
  2786  02C7  085D               	movf	RunUARTRXService@addrEvent^(0+256),w
  2787  02C8  1283               	bcf	3,5	;RP0=0, select bank0
  2788  02C9  1303               	bcf	3,6	;RP1=0, select bank0
  2789  02CA  00BC               	movwf	PostUARTTXService@ThisEvent
  2790  02CB  1283               	bcf	3,5	;RP0=0, select bank2
  2791  02CC  1703               	bsf	3,6	;RP1=1, select bank2
  2792  02CD  085E               	movf	(RunUARTRXService@addrEvent+1)^(0+256),w
  2793  02CE  1283               	bcf	3,5	;RP0=0, select bank0
  2794  02CF  1303               	bcf	3,6	;RP1=0, select bank0
  2795  02D0  00BD               	movwf	PostUARTTXService@ThisEvent+1
  2796  02D1  1283               	bcf	3,5	;RP0=0, select bank2
  2797  02D2  1703               	bsf	3,6	;RP1=1, select bank2
  2798  02D3  085F               	movf	(RunUARTRXService@addrEvent+2)^(0+256),w
  2799  02D4  1283               	bcf	3,5	;RP0=0, select bank0
  2800  02D5  1303               	bcf	3,6	;RP1=0, select bank0
  2801  02D6  00BE               	movwf	PostUARTTXService@ThisEvent+2
  2802  02D7  23D2  118A         	fcall	_PostUARTTXService
  2803                           
  2804                           ;UART_RX_SM.c: 199: } else {
  2805  02D9  2BAA               	goto	l3517
  2806  02DA                     l3481:	
  2807                           
  2808                           ;UART_RX_SM.c: 201: uint16_t msgAddr = RXBuffer[readRXIndex][1] << 8;
  2809  02DA  300A               	movlw	10
  2810  02DB  1283               	bcf	3,5	;RP0=0, select bank0
  2811  02DC  1303               	bcf	3,6	;RP1=0, select bank0
  2812  02DD  00C8               	movwf	??_RunUARTRXService
  2813  02DE  00A0               	movwf	___bmul@multiplicand
  2814  02DF  086A               	movf	_readRXIndex,w
  2815  02E0  23C0  118A         	fcall	___bmul
  2816  02E2  3E01               	addlw	1
  2817  02E3  3E20               	addlw	(low (_RXBuffer| (0+256)))& (0+255)
  2818  02E4  0084               	movwf	4
  2819  02E5  1783               	bsf	3,7	;select IRP bank2
  2820  02E6  0800               	movf	0,w
  2821  02E7  1283               	bcf	3,5	;RP0=0, select bank0
  2822  02E8  1303               	bcf	3,6	;RP1=0, select bank0
  2823  02E9  00C9               	movwf	??_RunUARTRXService+1
  2824  02EA  01CA               	clrf	??_RunUARTRXService+2
  2825  02EB  00CA               	movwf	??_RunUARTRXService+2
  2826  02EC  01C9               	clrf	??_RunUARTRXService+1
  2827  02ED  0849               	movf	??_RunUARTRXService+1,w
  2828  02EE  1283               	bcf	3,5	;RP0=0, select bank2
  2829  02EF  1703               	bsf	3,6	;RP1=1, select bank2
  2830  02F0  00DB               	movwf	RunUARTRXService@msgAddr^(0+256)
  2831  02F1  1283               	bcf	3,5	;RP0=0, select bank0
  2832  02F2  1303               	bcf	3,6	;RP1=0, select bank0
  2833  02F3  084A               	movf	??_RunUARTRXService+2,w
  2834  02F4  1283               	bcf	3,5	;RP0=0, select bank2
  2835  02F5  1703               	bsf	3,6	;RP1=1, select bank2
  2836  02F6  00DC               	movwf	(RunUARTRXService@msgAddr+1)^(0+256)
  2837                           
  2838                           ;UART_RX_SM.c: 202: msgAddr |= RXBuffer[readRXIndex][2];
  2839  02F7  300A               	movlw	10
  2840  02F8  1283               	bcf	3,5	;RP0=0, select bank0
  2841  02F9  1303               	bcf	3,6	;RP1=0, select bank0
  2842  02FA  00C8               	movwf	??_RunUARTRXService
  2843  02FB  00A0               	movwf	___bmul@multiplicand
  2844  02FC  086A               	movf	_readRXIndex,w
  2845  02FD  23C0  118A         	fcall	___bmul
  2846  02FF  3E02               	addlw	2
  2847  0300  3E20               	addlw	(low (_RXBuffer| (0+256)))& (0+255)
  2848  0301  0084               	movwf	4
  2849  0302  1783               	bsf	3,7	;select IRP bank2
  2850  0303  0800               	movf	0,w
  2851  0304  1283               	bcf	3,5	;RP0=0, select bank0
  2852  0305  1303               	bcf	3,6	;RP1=0, select bank0
  2853  0306  00C9               	movwf	??_RunUARTRXService+1
  2854  0307  01CA               	clrf	??_RunUARTRXService+2
  2855  0308  1283               	bcf	3,5	;RP0=0, select bank2
  2856  0309  1703               	bsf	3,6	;RP1=1, select bank2
  2857  030A  04DB               	iorwf	RunUARTRXService@msgAddr^(0+256),f
  2858  030B  1283               	bcf	3,5	;RP0=0, select bank0
  2859  030C  1303               	bcf	3,6	;RP1=0, select bank0
  2860  030D  084A               	movf	??_RunUARTRXService+2,w
  2861  030E  1283               	bcf	3,5	;RP0=0, select bank2
  2862  030F  1703               	bsf	3,6	;RP1=1, select bank2
  2863  0310  04DC               	iorwf	(RunUARTRXService@msgAddr+1)^(0+256),f
  2864                           
  2865                           ;UART_RX_SM.c: 204: if (superPACAddr == msgAddr) {
  2866  0311  085C               	movf	(RunUARTRXService@msgAddr+1)^(0+256),w
  2867  0312  1683               	bsf	3,5	;RP0=1, select bank1
  2868  0313  1303               	bcf	3,6	;RP1=0, select bank1
  2869  0314  0640               	xorwf	(_superPACAddr+1)^(0+128),w
  2870  0315  1D03               	skipz
  2871  0316  2B1D               	goto	u2505
  2872  0317  1283               	bcf	3,5	;RP0=0, select bank2
  2873  0318  1703               	bsf	3,6	;RP1=1, select bank2
  2874  0319  085B               	movf	RunUARTRXService@msgAddr^(0+256),w
  2875  031A  1683               	bsf	3,5	;RP0=1, select bank1
  2876  031B  1303               	bcf	3,6	;RP1=0, select bank1
  2877  031C  063F               	xorwf	_superPACAddr^(0+128),w
  2878  031D                     u2505:	
  2879  031D  1D03               	skipz
  2880  031E  2BAA               	goto	l3517
  2881                           
  2882                           ;UART_RX_SM.c: 208: for (uint8_t i = 0; i < 3; i++) {
  2883  031F  1283               	bcf	3,5	;RP0=0, select bank2
  2884  0320  3003               	movlw	3
  2885  0321  1703               	bsf	3,6	;RP1=1, select bank2
  2886  0322  01E4               	clrf	RunUARTRXService@i_567^(0+256)
  2887  0323  0264               	subwf	RunUARTRXService@i_567^(0+256),w
  2888  0324  1803               	btfsc	3,0
  2889  0325  2B55               	goto	i2L__ptext30
  2890  0326                     l3493:	
  2891                           
  2892                           ;UART_RX_SM.c: 209: responseBuffer[writeRespIndex][i] = RXBuffer[readRXIndex][5 + i];
  2893  0326  3005               	movlw	5
  2894  0327  0764               	addwf	RunUARTRXService@i_567^(0+256),w
  2895  0328  1283               	bcf	3,5	;RP0=0, select bank0
  2896  0329  1303               	bcf	3,6	;RP1=0, select bank0
  2897  032A  00C8               	movwf	??_RunUARTRXService
  2898  032B  3E20               	addlw	(low (_RXBuffer| (0+256)))& (0+255)
  2899  032C  00C9               	movwf	??_RunUARTRXService+1
  2900  032D  300A               	movlw	10
  2901  032E  00CA               	movwf	??_RunUARTRXService+2
  2902  032F  00A0               	movwf	___bmul@multiplicand
  2903  0330  086A               	movf	_readRXIndex,w
  2904  0331  23C0  118A         	fcall	___bmul
  2905  0333  1283               	bcf	3,5	;RP0=0, select bank0
  2906  0334  1303               	bcf	3,6	;RP1=0, select bank0
  2907  0335  0749               	addwf	??_RunUARTRXService+1,w
  2908  0336  00CB               	movwf	??_RunUARTRXService+3
  2909  0337  0084               	movwf	4
  2910  0338  1783               	bsf	3,7	;select IRP bank2
  2911  0339  0800               	movf	0,w
  2912  033A  00CC               	movwf	??_RunUARTRXService+4
  2913  033B  3003               	movlw	3
  2914  033C  00CD               	movwf	??_RunUARTRXService+5
  2915  033D  00A0               	movwf	___bmul@multiplicand
  2916  033E  086E               	movf	_writeRespIndex,w
  2917  033F  23C0  118A         	fcall	___bmul
  2918  0341  3ED9               	addlw	(low (_responseBuffer| 0))& (0+255)
  2919  0342  1283               	bcf	3,5	;RP0=0, select bank2
  2920  0343  1703               	bsf	3,6	;RP1=1, select bank2
  2921  0344  0764               	addwf	RunUARTRXService@i_567^(0+256),w
  2922  0345  1283               	bcf	3,5	;RP0=0, select bank0
  2923  0346  1303               	bcf	3,6	;RP1=0, select bank0
  2924  0347  00CE               	movwf	??_RunUARTRXService+6
  2925  0348  0084               	movwf	4
  2926  0349  084C               	movf	??_RunUARTRXService+4,w
  2927  034A  1383               	bcf	3,7	;select IRP bank1
  2928  034B  0080               	movwf	0
  2929  034C  3001               	movlw	1
  2930  034D  00C8               	movwf	??_RunUARTRXService
  2931  034E  1283               	bcf	3,5	;RP0=0, select bank2
  2932  034F  1703               	bsf	3,6	;RP1=1, select bank2
  2933  0350  07E4               	addwf	RunUARTRXService@i_567^(0+256),f
  2934  0351  3003               	movlw	3
  2935  0352  0264               	subwf	RunUARTRXService@i_567^(0+256),w
  2936  0353  1C03               	skipc
  2937  0354  2B26               	goto	l3493
  2938  0355                     i2L__ptext30:	
  2939                           ;UART_RX_SM.c: 210: }
  2940                           ;UART_RX_SM.c: 211: toggleRespBuffer();
  2941                           
  2942                           
  2943                           ;psect for function _toggleRespBuffer
  2944  0355                     i2L_toggleRespBuffer:	
  2945  0355                     i2Ll3343:	
  2946                           
  2947                           ;UART_RX_SM.c: 351: if (readRespIndex == 0) {
  2948  0355  1283               	bcf	3,5	;RP0=0, select bank0
  2949  0356  1303               	bcf	3,6	;RP1=0, select bank0
  2950  0357  086B               	movf	_readRespIndex,w
  2951  0358  1D03               	btfss	3,2
  2952  0359  2B60               	ljmp	i2Ll477
  2953  035A  2B5C               	ljmp	i2Ll3345
  2954  035B                     i2Lu2351:	
  2955  035B  2B60               	ljmp	i2Ll477
  2956  035C                     i2Lu2350:	
  2957  035C                     i2Ll3345:	
  2958                           
  2959                           ;UART_RX_SM.c: 352: readRespIndex = 1;
  2960  035C  01EB               	clrf	_readRespIndex
  2961  035D  0AEB               	incf	_readRespIndex,f
  2962  035E                     i2Ll3347:	
  2963                           
  2964                           ;UART_RX_SM.c: 353: writeRespIndex = 0;
  2965  035E  01EE               	clrf	_writeRespIndex
  2966  035F  2B64               	ljmp	iL16
  2967  0360                     i2Ll477:	
  2968                           
  2969                           ;UART_RX_SM.c: 355: readRespIndex = 1;
  2970  0360  01EB               	clrf	_readRespIndex
  2971  0361  0AEB               	incf	_readRespIndex,f
  2972  0362                     i2Ll3349:	
  2973                           
  2974                           ;UART_RX_SM.c: 356: writeRespIndex = 0;
  2975  0362  01EE               	clrf	_writeRespIndex
  2976  0363  2B64               	ljmp	iL16
  2977  0364                     i2Ll478:	
  2978  0364                     i2Ll479:	
  2979  0364                     iL16:	
  2980                           
  2981                           ;UART_RX_SM.c: 213: newResponseAvailable = ((boolean) !((boolean) 0));
  2982  0364  1283               	bcf	3,5	;RP0=0, select bank0
  2983  0365  1303               	bcf	3,6	;RP1=0, select bank0
  2984  0366  01E9               	clrf	_newResponseAvailable
  2985  0367  0AE9               	incf	_newResponseAvailable,f
  2986                           
  2987                           ;UART_RX_SM.c: 214: }
  2988                           ;UART_RX_SM.c: 215: }
  2989                           ;UART_RX_SM.c: 216: } else if (RXBuffer[readRXIndex][0] == 0x89) {
  2990  0368  2BAA               	goto	l3517
  2991  0369                     L1:	
  2992  0369  1283               	bcf	3,5	;RP0=0, select bank0
  2993  036A  1303               	bcf	3,6	;RP1=0, select bank0
  2994  036B  00C8               	movwf	??_RunUARTRXService
  2995  036C  00A0               	movwf	___bmul@multiplicand
  2996  036D  086A               	movf	_readRXIndex,w
  2997  036E  23C0  118A         	fcall	___bmul
  2998  0370  3E20               	addlw	(low (_RXBuffer| (0+256)))& (0+255)
  2999  0371  0084               	movwf	4
  3000  0372  3089               	movlw	137
  3001  0373  1783               	bsf	3,7	;select IRP bank2
  3002  0374  0600               	xorwf	0,w
  3003  0375  1D03               	btfss	3,2
  3004  0376  2BAA               	goto	l3517
  3005                           
  3006                           ;UART_RX_SM.c: 218: ES_Event TXEvent;
  3007                           ;UART_RX_SM.c: 219: TXEvent.EventType = ES_TX_STATUS;
  3008  0377  300E               	movlw	14
  3009  0378  1283               	bcf	3,5	;RP0=0, select bank0
  3010  0379  1303               	bcf	3,6	;RP1=0, select bank0
  3011  037A  00C8               	movwf	??_RunUARTRXService
  3012  037B  1283               	bcf	3,5	;RP0=0, select bank2
  3013  037C  1703               	bsf	3,6	;RP1=1, select bank2
  3014  037D  00E0               	movwf	RunUARTRXService@TXEvent^(0+256)
  3015                           
  3016                           ;UART_RX_SM.c: 220: TXEvent.EventParam = 2;
  3017  037E  3002               	movlw	2
  3018  037F  00E1               	movwf	(RunUARTRXService@TXEvent^(0+256)+1)
  3019  0380  01E2               	clrf	(RunUARTRXService@TXEvent^(0+256)+2)
  3020                           
  3021                           ;UART_RX_SM.c: 221: PostUARTTXService(TXEvent);
  3022  0381  0860               	movf	RunUARTRXService@TXEvent^(0+256),w
  3023  0382  1283               	bcf	3,5	;RP0=0, select bank0
  3024  0383  1303               	bcf	3,6	;RP1=0, select bank0
  3025  0384  00BC               	movwf	PostUARTTXService@ThisEvent
  3026  0385  1283               	bcf	3,5	;RP0=0, select bank2
  3027  0386  1703               	bsf	3,6	;RP1=1, select bank2
  3028  0387  0861               	movf	(RunUARTRXService@TXEvent+1)^(0+256),w
  3029  0388  1283               	bcf	3,5	;RP0=0, select bank0
  3030  0389  1303               	bcf	3,6	;RP1=0, select bank0
  3031  038A  00BD               	movwf	PostUARTTXService@ThisEvent+1
  3032  038B  1283               	bcf	3,5	;RP0=0, select bank2
  3033  038C  1703               	bsf	3,6	;RP1=1, select bank2
  3034  038D  0862               	movf	(RunUARTRXService@TXEvent+2)^(0+256),w
  3035  038E  1283               	bcf	3,5	;RP0=0, select bank0
  3036  038F  1303               	bcf	3,6	;RP1=0, select bank0
  3037  0390  00BE               	movwf	PostUARTTXService@ThisEvent+2
  3038  0391  23D2  118A         	fcall	_PostUARTTXService
  3039                           
  3040                           ;UART_RX_SM.c: 222: }
  3041                           ;UART_RX_SM.c: 223: break;
  3042  0393  2BAA               	goto	l3517
  3043  0394                     l3509:	
  3044                           ;UART_RX_SM.c: 224: case ES_TIMEOUT:
  3045                           
  3046                           
  3047                           ;UART_RX_SM.c: 225: if (ThisEvent.EventParam == 0) {
  3048  0394  1283               	bcf	3,5	;RP0=0, select bank0
  3049  0395  1303               	bcf	3,6	;RP1=0, select bank0
  3050  0396  0845               	movf	RunUARTRXService@ThisEvent+1,w
  3051  0397  0446               	iorwf	RunUARTRXService@ThisEvent+2,w
  3052  0398  1D03               	btfss	3,2
  3053  0399  2BAA               	goto	l3517
  3054                           
  3055                           ;UART_RX_SM.c: 226: superPACAddr = 0;
  3056  039A  1683               	bsf	3,5	;RP0=1, select bank1
  3057  039B  1303               	bcf	3,6	;RP1=0, select bank1
  3058  039C  01BF               	clrf	_superPACAddr^(0+128)
  3059  039D  01C0               	clrf	(_superPACAddr+1)^(0+128)
  3060                           
  3061                           ;UART_RX_SM.c: 227: hasHeartbeat = ((boolean) 0);
  3062  039E  01C9               	clrf	_hasHeartbeat^(0+128)
  3063                           
  3064                           ;UART_RX_SM.c: 232: }
  3065                           
  3066                           ;UART_RX_SM.c: 231: break;
  3067                           
  3068                           ;UART_RX_SM.c: 230: default:
  3069                           
  3070                           ;UART_RX_SM.c: 228: }
  3071                           ;UART_RX_SM.c: 229: break;
  3072  039F  2BAA               	goto	l3517
  3073  03A0                     l3515:	
  3074  03A0  1283               	bcf	3,5	;RP0=0, select bank0
  3075  03A1  1303               	bcf	3,6	;RP1=0, select bank0
  3076  03A2  0844               	movf	RunUARTRXService@ThisEvent,w
  3077                           
  3078                           ; Switch size 1, requested type "space"
  3079                           ; Number of cases is 2, Range of values is 4 to 7
  3080                           ; switch strategies available:
  3081                           ; Name         Instructions Cycles
  3082                           ; simple_byte            7     4 (average)
  3083                           ; direct_byte           18    10 (fixed)
  3084                           ; jumptable            263     9 (fixed)
  3085                           ;	Chosen strategy is simple_byte
  3086  03A3  3A04               	xorlw	4	; case 4
  3087  03A4  1903               	skipnz
  3088  03A5  2B94               	goto	l3509
  3089  03A6  3A03               	xorlw	3	; case 7
  3090  03A7  1903               	skipnz
  3091  03A8  2A0E               	goto	l3449
  3092  03A9  2BAA               	goto	l3517
  3093  03AA                     l3517:	
  3094                           
  3095                           ;UART_RX_SM.c: 234: return ReturnEvent;
  3096  03AA  1283               	bcf	3,5	;RP0=0, select bank2
  3097  03AB  1703               	bsf	3,6	;RP1=1, select bank2
  3098  03AC  0858               	movf	RunUARTRXService@ReturnEvent^(0+256),w
  3099  03AD  1283               	bcf	3,5	;RP0=0, select bank0
  3100  03AE  1303               	bcf	3,6	;RP1=0, select bank0
  3101  03AF  00C4               	movwf	?_RunUARTRXService
  3102  03B0  1283               	bcf	3,5	;RP0=0, select bank2
  3103  03B1  1703               	bsf	3,6	;RP1=1, select bank2
  3104  03B2  0859               	movf	(RunUARTRXService@ReturnEvent+1)^(0+256),w
  3105  03B3  1283               	bcf	3,5	;RP0=0, select bank0
  3106  03B4  1303               	bcf	3,6	;RP1=0, select bank0
  3107  03B5  00C5               	movwf	?_RunUARTRXService+1
  3108  03B6  1283               	bcf	3,5	;RP0=0, select bank2
  3109  03B7  1703               	bsf	3,6	;RP1=1, select bank2
  3110  03B8  085A               	movf	(RunUARTRXService@ReturnEvent+2)^(0+256),w
  3111  03B9  1283               	bcf	3,5	;RP0=0, select bank0
  3112  03BA  1303               	bcf	3,6	;RP1=0, select bank0
  3113  03BB  00C6               	movwf	?_RunUARTRXService+2
  3114  03BC  3008               	movlw	high __pjmp_tab
  3115  03BD  008A               	movwf	10
  3116  03BE  0847               	movf	(?_RunUARTRXService+3)^0,w
  3117  03BF  0082               	movwf	2
  3118  03C0                     __end_of_RunUARTRXService:	
  3119  03C0                     __ptext34:	
  3120 ;; *************** function ___bmul *****************
  3121 ;; Defined at:
  3122 ;;		line 4 in file "C:\Program Files (x86)\Microchip\xc8\v1.35\sources\common\Umul8.c"
  3123 ;; Parameters:    Size  Location     Type
  3124 ;;  multiplier      1    wreg     unsigned char 
  3125 ;;  multiplicand    1    0[BANK0 ] unsigned char 
  3126 ;; Auto vars:     Size  Location     Type
  3127 ;;  multiplier      1    3[BANK0 ] unsigned char 
  3128 ;;  product         1    2[BANK0 ] unsigned char 
  3129 ;; Return value:  Size  Location     Type
  3130 ;;                  1    wreg      unsigned char 
  3131 ;; Registers used:
  3132 ;;		wreg, status,2, status,0
  3133 ;; Tracked objects:
  3134 ;;		On entry : 0/0
  3135 ;;		On exit  : 0/0
  3136 ;;		Unchanged: 0/0
  3137 ;; Data sizes:     COMMON   BANK0   BANK1   BANK2
  3138 ;;      Params:         0       1       0       0
  3139 ;;      Locals:         0       2       0       0
  3140 ;;      Temps:          0       1       0       0
  3141 ;;      Totals:         0       4       0       0
  3142 ;;Total ram usage:        4 bytes
  3143 ;; Hardware stack levels used:    1
  3144 ;; Hardware stack levels required when called:    4
  3145 ;; This function calls:
  3146 ;;		Nothing
  3147 ;; This function is called by:
  3148 ;;		_ES_Initialize
  3149 ;;		_ES_Run
  3150 ;;		_ES_PostToService
  3151 ;;		_ES_EnQueueFIFO
  3152 ;;		_ES_DeQueue
  3153 ;;		_RunUARTRXService
  3154 ;;		_RX_getStatusBuffer
  3155 ;;		_RX_getResponseBuffer
  3156 ;;		_UARTRXIntResponse
  3157 ;;		_ES_PostAll
  3158 ;; This function uses a non-reentrant model
  3159 ;;
  3160                           
  3161                           
  3162                           ;psect for function ___bmul
  3163  03C0                     ___bmul:	
  3164                           
  3165                           ;incstack = 0
  3166                           ; Regs used in ___bmul: [wreg+status,2+status,0]
  3167                           ;___bmul@multiplier stored from wreg
  3168  03C0  1283               	bcf	3,5	;RP0=0, select bank0
  3169  03C1  1303               	bcf	3,6	;RP1=0, select bank0
  3170  03C2  00A3               	movwf	___bmul@multiplier
  3171  03C3  01A2               	clrf	___bmul@product
  3172  03C4                     l3197:	
  3173  03C4  1C23               	btfss	___bmul@multiplier,0
  3174  03C5  2BC9               	goto	l3201
  3175  03C6  0820               	movf	___bmul@multiplicand,w
  3176  03C7  00A1               	movwf	??___bmul
  3177  03C8  07A2               	addwf	___bmul@product,f
  3178  03C9                     l3201:	
  3179  03C9  1003               	clrc
  3180  03CA  0DA0               	rlf	___bmul@multiplicand,f
  3181  03CB  1003               	clrc
  3182  03CC  0CA3               	rrf	___bmul@multiplier,f
  3183  03CD  0823               	movf	___bmul@multiplier,w
  3184  03CE  1D03               	btfss	3,2
  3185  03CF  2BC4               	goto	l3197
  3186  03D0  0822               	movf	___bmul@product,w
  3187  03D1  0008               	return
  3188  03D2                     __end_of___bmul:	
  3189  03D2                     __ptext15:	
  3190 ;; *************** function _PostUARTTXService *****************
  3191 ;; Defined at:
  3192 ;;		line 123 in file "UART_TX_SM.c"
  3193 ;; Parameters:    Size  Location     Type
  3194 ;;  ThisEvent       3   28[BANK0 ] struct ES_Event_t
  3195 ;; Auto vars:     Size  Location     Type
  3196 ;;		None
  3197 ;; Return value:  Size  Location     Type
  3198 ;;                  1    wreg      unsigned char 
  3199 ;; Registers used:
  3200 ;;		wreg, fsr0l, fsr0h, status,2, status,0, btemp+1, pclath, cstack
  3201 ;; Tracked objects:
  3202 ;;		On entry : 0/0
  3203 ;;		On exit  : 0/0
  3204 ;;		Unchanged: 0/0
  3205 ;; Data sizes:     COMMON   BANK0   BANK1   BANK2
  3206 ;;      Params:         0       3       0       0
  3207 ;;      Locals:         0       0       0       0
  3208 ;;      Temps:          0       0       0       0
  3209 ;;      Totals:         0       3       0       0
  3210 ;;Total ram usage:        3 bytes
  3211 ;; Hardware stack levels used:    1
  3212 ;; Hardware stack levels required when called:    7
  3213 ;; This function calls:
  3214 ;;		_ES_PostToService
  3215 ;; This function is called by:
  3216 ;;		_RunUARTRXService
  3217 ;;		_CheckSPIEvent
  3218 ;;		_ES_Timer_RTI_Resp
  3219 ;; This function uses a non-reentrant model
  3220 ;;
  3221                           
  3222                           
  3223                           ;psect for function _PostUARTTXService
  3224  03D2                     _PostUARTTXService:	
  3225                           
  3226                           ;UART_TX_SM.c: 124: return ES_PostToService(MyPriority, ThisEvent);
  3227                           ;	Return value of _PostUARTTXService is never used
  3228                           
  3229                           ;incstack = 0
  3230                           ; Regs used in _PostUARTTXService: [wreg-fsr0h+status,2+status,0+btemp+1+pclath+cstack]
  3231  03D2  1283               	bcf	3,5	;RP0=0, select bank0
  3232  03D3  1303               	bcf	3,6	;RP1=0, select bank0
  3233  03D4  083C               	movf	PostUARTTXService@ThisEvent,w
  3234  03D5  00B3               	movwf	ES_PostToService@TheEvent
  3235  03D6  083D               	movf	PostUARTTXService@ThisEvent+1,w
  3236  03D7  00B4               	movwf	ES_PostToService@TheEvent+1
  3237  03D8  083E               	movf	PostUARTTXService@ThisEvent+2,w
  3238  03D9  00B5               	movwf	ES_PostToService@TheEvent+2
  3239  03DA  085E               	movf	UART_TX_SM@MyPriority,w
  3240  03DB  2C4F               	ljmp	_ES_PostToService
  3241  03DC                     __end_of_PostUARTTXService:	
  3242  03DC                     __ptext36:	
  3243 ;; *************** function _ES_InitQueue *****************
  3244 ;; Defined at:
  3245 ;;		line 56 in file "ES_Queue.c"
  3246 ;; Parameters:    Size  Location     Type
  3247 ;;  pBlock          2    4[BANK0 ] PTR struct ES_Event_t
  3248 ;;		 -> Queue3(12), Queue2(12), Queue1(12), Queue0(12), 
  3249 ;;  BlockSize       1    6[BANK0 ] unsigned char 
  3250 ;; Auto vars:     Size  Location     Type
  3251 ;;  pThisQueue      2    9[BANK0 ] PTR struct .
  3252 ;;		 -> Queue3(12), Queue2(12), Queue1(12), Queue0(12), 
  3253 ;; Return value:  Size  Location     Type
  3254 ;;                  1    wreg      unsigned char 
  3255 ;; Registers used:
  3256 ;;		wreg, fsr0l, fsr0h, status,2, status,0
  3257 ;; Tracked objects:
  3258 ;;		On entry : 0/0
  3259 ;;		On exit  : 0/0
  3260 ;;		Unchanged: 0/0
  3261 ;; Data sizes:     COMMON   BANK0   BANK1   BANK2
  3262 ;;      Params:         0       3       0       0
  3263 ;;      Locals:         0       2       0       0
  3264 ;;      Temps:          0       2       0       0
  3265 ;;      Totals:         0       7       0       0
  3266 ;;Total ram usage:        7 bytes
  3267 ;; Hardware stack levels used:    1
  3268 ;; Hardware stack levels required when called:    4
  3269 ;; This function calls:
  3270 ;;		Nothing
  3271 ;; This function is called by:
  3272 ;;		_ES_Initialize
  3273 ;; This function uses a non-reentrant model
  3274 ;;
  3275                           
  3276                           
  3277                           ;psect for function _ES_InitQueue
  3278  03DC                     _ES_InitQueue:	
  3279                           
  3280                           ;ES_Queue.c: 58: pQueue_t pThisQueue;
  3281                           ;ES_Queue.c: 60: pThisQueue = (pQueue_t)pBlock;
  3282                           
  3283                           ;incstack = 0
  3284                           ; Regs used in _ES_InitQueue: [wreg-fsr0h+status,2+status,0]
  3285  03DC  1283               	bcf	3,5	;RP0=0, select bank0
  3286  03DD  1303               	bcf	3,6	;RP1=0, select bank0
  3287  03DE  0824               	movf	ES_InitQueue@pBlock,w
  3288  03DF  00A9               	movwf	ES_InitQueue@pThisQueue
  3289  03E0  0825               	movf	ES_InitQueue@pBlock+1,w
  3290  03E1  00AA               	movwf	ES_InitQueue@pThisQueue+1
  3291                           
  3292                           ;ES_Queue.c: 62: pThisQueue->QueueSize = BlockSize - 1;
  3293  03E2  0826               	movf	ES_InitQueue@BlockSize,w
  3294  03E3  3EFF               	addlw	255
  3295  03E4  00A7               	movwf	??_ES_InitQueue
  3296  03E5  0829               	movf	ES_InitQueue@pThisQueue,w
  3297  03E6  0084               	movwf	4
  3298  03E7  1383               	bcf	3,7
  3299  03E8  182A               	btfsc	ES_InitQueue@pThisQueue+1,0
  3300  03E9  1783               	bsf	3,7
  3301  03EA  0827               	movf	??_ES_InitQueue,w
  3302  03EB  0080               	movwf	0
  3303                           
  3304                           ;ES_Queue.c: 63: pThisQueue->CurrentIndex = 0;
  3305  03EC  3001               	movlw	1
  3306  03ED  0729               	addwf	ES_InitQueue@pThisQueue,w
  3307  03EE  00A7               	movwf	??_ES_InitQueue
  3308  03EF  082A               	movf	ES_InitQueue@pThisQueue+1,w
  3309  03F0  1803               	skipnc
  3310  03F1  3E01               	addlw	1
  3311  03F2  00A8               	movwf	??_ES_InitQueue+1
  3312  03F3  0827               	movf	??_ES_InitQueue,w
  3313  03F4  0084               	movwf	4
  3314  03F5  1783               	bsf	3,7
  3315  03F6  1C28               	btfss	??_ES_InitQueue+1,0
  3316  03F7  1383               	bcf	3,7
  3317  03F8  3002               	movlw	2
  3318  03F9  0180               	clrf	0
  3319                           
  3320                           ;ES_Queue.c: 64: pThisQueue->NumEntries = 0;
  3321  03FA  0729               	addwf	ES_InitQueue@pThisQueue,w
  3322  03FB  00A7               	movwf	??_ES_InitQueue
  3323  03FC  082A               	movf	ES_InitQueue@pThisQueue+1,w
  3324  03FD  1803               	skipnc
  3325  03FE  3E01               	addlw	1
  3326  03FF  00A8               	movwf	??_ES_InitQueue+1
  3327  0400  0827               	movf	??_ES_InitQueue,w
  3328  0401  0084               	movwf	4
  3329  0402  1783               	bsf	3,7
  3330  0403  1C28               	btfss	??_ES_InitQueue+1,0
  3331  0404  1383               	bcf	3,7
  3332  0405  0180               	clrf	0
  3333  0406  0008               	return
  3334  0407                     __end_of_ES_InitQueue:	
  3335                           ;ES_Queue.c: 65: return(pThisQueue->QueueSize);
  3336                           ;	Return value of _ES_InitQueue is never used
  3337                           
  3338  0407                     __ptext35:	
  3339 ;; *************** function _ES_Sys_Timer_Init *****************
  3340 ;; Defined at:
  3341 ;;		line 25 in file "ES_Port.c"
  3342 ;; Parameters:    Size  Location     Type
  3343 ;;		None
  3344 ;; Auto vars:     Size  Location     Type
  3345 ;;		None
  3346 ;; Return value:  Size  Location     Type
  3347 ;;		None               void
  3348 ;; Registers used:
  3349 ;;		status,2
  3350 ;; Tracked objects:
  3351 ;;		On entry : 0/0
  3352 ;;		On exit  : 0/0
  3353 ;;		Unchanged: 0/0
  3354 ;; Data sizes:     COMMON   BANK0   BANK1   BANK2
  3355 ;;      Params:         0       0       0       0
  3356 ;;      Locals:         0       0       0       0
  3357 ;;      Temps:          0       0       0       0
  3358 ;;      Totals:         0       0       0       0
  3359 ;;Total ram usage:        0 bytes
  3360 ;; Hardware stack levels used:    1
  3361 ;; Hardware stack levels required when called:    4
  3362 ;; This function calls:
  3363 ;;		Nothing
  3364 ;; This function is called by:
  3365 ;;		_ES_Initialize
  3366 ;; This function uses a non-reentrant model
  3367 ;;
  3368                           
  3369                           
  3370                           ;psect for function _ES_Sys_Timer_Init
  3371  0407                     _ES_Sys_Timer_Init:	
  3372                           
  3373                           ;ES_Port.c: 29: TRISC0 = 0;
  3374                           
  3375                           ;incstack = 0
  3376                           ; Regs used in _ES_Sys_Timer_Init: [status,2]
  3377  0407  1683               	bsf	3,5	;RP0=1, select bank1
  3378  0408  1303               	bcf	3,6	;RP1=0, select bank1
  3379  0409  1007               	bcf	7,0	;volatile
  3380                           
  3381                           ;ES_Port.c: 30: ANS4 = 0;
  3382  040A  1283               	bcf	3,5	;RP0=0, select bank2
  3383  040B  1703               	bsf	3,6	;RP1=1, select bank2
  3384  040C  121E               	bcf	30,4	;volatile
  3385                           
  3386                           ;ES_Port.c: 31: RC0 = 0;
  3387  040D  1283               	bcf	3,5	;RP0=0, select bank0
  3388  040E  1303               	bcf	3,6	;RP1=0, select bank0
  3389  040F  1007               	bcf	7,0	;volatile
  3390                           
  3391                           ;ES_Port.c: 34: TRISC7 = 0;
  3392  0410  1683               	bsf	3,5	;RP0=1, select bank1
  3393  0411  1303               	bcf	3,6	;RP1=0, select bank1
  3394  0412  1387               	bcf	7,7	;volatile
  3395                           
  3396                           ;ES_Port.c: 35: ANS9 = 0;
  3397  0413  1283               	bcf	3,5	;RP0=0, select bank2
  3398  0414  1703               	bsf	3,6	;RP1=1, select bank2
  3399  0415  109F               	bcf	31,1	;volatile
  3400                           
  3401                           ;ES_Port.c: 36: RC7 = 0;
  3402  0416  1283               	bcf	3,5	;RP0=0, select bank0
  3403  0417  1303               	bcf	3,6	;RP1=0, select bank0
  3404  0418  1387               	bcf	7,7	;volatile
  3405                           
  3406                           ;ES_Port.c: 39: {GIE = 0;};
  3407  0419  138B               	bcf	11,7	;volatile
  3408                           
  3409                           ;ES_Port.c: 41: T0CS = 0;
  3410  041A  1683               	bsf	3,5	;RP0=1, select bank1
  3411  041B  1303               	bcf	3,6	;RP1=0, select bank1
  3412  041C  1281               	bcf	1,5	;volatile
  3413                           
  3414                           ;ES_Port.c: 42: PSA = 0;
  3415  041D  1181               	bcf	1,3	;volatile
  3416                           
  3417                           ;ES_Port.c: 43: PS0 = 0;
  3418  041E  1001               	bcf	1,0	;volatile
  3419                           
  3420                           ;ES_Port.c: 44: PS1 = 0;
  3421  041F  1081               	bcf	1,1	;volatile
  3422                           
  3423                           ;ES_Port.c: 45: PS2 = 1;
  3424  0420  1501               	bsf	1,2	;volatile
  3425                           
  3426                           ;ES_Port.c: 47: TMR0 = 0;
  3427  0421  1283               	bcf	3,5	;RP0=0, select bank0
  3428  0422  1303               	bcf	3,6	;RP1=0, select bank0
  3429  0423  0181               	clrf	1	;volatile
  3430                           
  3431                           ;ES_Port.c: 48: T0IF = 0;
  3432  0424  110B               	bcf	11,2	;volatile
  3433                           
  3434                           ;ES_Port.c: 49: T0IE = 1;
  3435  0425  168B               	bsf	11,5	;volatile
  3436                           
  3437                           ;ES_Port.c: 51: {GIE = 1;};
  3438  0426  178B               	bsf	11,7	;volatile
  3439  0427  0008               	return
  3440  0428                     __end_of_ES_Sys_Timer_Init:	
  3441  0428                     __ptext12:	
  3442 ;; *************** function _ES_Timer_InitTimer *****************
  3443 ;; Defined at:
  3444 ;;		line 202 in file "ES_Timers.c"
  3445 ;; Parameters:    Size  Location     Type
  3446 ;;  Num             1    wreg     unsigned char 
  3447 ;;  NewTime         2    0[BANK0 ] unsigned int 
  3448 ;; Auto vars:     Size  Location     Type
  3449 ;;  Num             1    3[BANK0 ] unsigned char 
  3450 ;; Return value:  Size  Location     Type
  3451 ;;                  1    wreg      enum E1481
  3452 ;; Registers used:
  3453 ;;		wreg, fsr0l, fsr0h, status,2, status,0, pclath
  3454 ;; Tracked objects:
  3455 ;;		On entry : 0/0
  3456 ;;		On exit  : 0/0
  3457 ;;		Unchanged: 0/0
  3458 ;; Data sizes:     COMMON   BANK0   BANK1   BANK2
  3459 ;;      Params:         0       2       0       0
  3460 ;;      Locals:         0       1       0       0
  3461 ;;      Temps:          0       1       0       0
  3462 ;;      Totals:         0       4       0       0
  3463 ;;Total ram usage:        4 bytes
  3464 ;; Hardware stack levels used:    1
  3465 ;; Hardware stack levels required when called:    4
  3466 ;; This function calls:
  3467 ;;		Nothing
  3468 ;; This function is called by:
  3469 ;;		_RunUARTRXService
  3470 ;;		_RunUARTTXService
  3471 ;;		_RunPACSystemService
  3472 ;; This function uses a non-reentrant model
  3473 ;;
  3474                           
  3475                           
  3476                           ;psect for function _ES_Timer_InitTimer
  3477  0428                     _ES_Timer_InitTimer:	
  3478                           
  3479                           ;incstack = 0
  3480                           ; Regs used in _ES_Timer_InitTimer: [wreg-fsr0h+status,2+status,0+pclath]
  3481                           ;ES_Timer_InitTimer@Num stored from wreg
  3482  0428  1283               	bcf	3,5	;RP0=0, select bank0
  3483  0429  1303               	bcf	3,6	;RP1=0, select bank0
  3484  042A  00A3               	movwf	ES_Timer_InitTimer@Num
  3485                           
  3486                           ;ES_Timers.c: 205: if( (Num >= (sizeof(TMR_TimerArray)/sizeof(TMR_TimerArray[0]))) ||
  3487                           ;ES_Timers.c: 207: (Timer2PostFunc[Num] == ((pPostFunc)0)) ||
  3488                           ;ES_Timers.c: 209: (NewTime == 0) )
  3489  042B  3008               	movlw	8
  3490  042C  0223               	subwf	ES_Timer_InitTimer@Num,w
  3491  042D  1803               	skipnc
  3492  042E  0008               	return
  3493  042F  0823               	movf	ES_Timer_InitTimer@Num,w
  3494  0430  3E34               	addlw	low ((_Timer2PostFunc-__stringbase)| (0+32768))
  3495  0431  0084               	movwf	4
  3496  0432  158A  2000  118A   	fcall	stringdir
  3497  0435  3A00               	xorlw	0
  3498  0436  1903               	skipnz
  3499  0437  0008               	return
  3500  0438  0820               	movf	ES_Timer_InitTimer@NewTime,w
  3501  0439  0421               	iorwf	ES_Timer_InitTimer@NewTime+1,w
  3502  043A  1903               	btfsc	3,2
  3503  043B  0008               	return
  3504                           
  3505                           ;ES_Timers.c: 211: TMR_TimerArray[Num] = NewTime;
  3506                           
  3507                           ;ES_Timers.c: 210: return ES_Timer_ERR;
  3508                           ;	Return value of _ES_Timer_InitTimer is never used
  3509  043C  0823               	movf	ES_Timer_InitTimer@Num,w
  3510  043D  00A2               	movwf	??_ES_Timer_InitTimer
  3511  043E  0722               	addwf	??_ES_Timer_InitTimer,w
  3512  043F  3EA0               	addlw	(low (_TMR_TimerArray| 0))& (0+255)
  3513  0440  0084               	movwf	4
  3514  0441  0820               	movf	ES_Timer_InitTimer@NewTime,w
  3515  0442  1383               	bcf	3,7	;select IRP bank1
  3516  0443  0080               	movwf	0
  3517  0444  0A84               	incf	4,f
  3518  0445  0821               	movf	ES_Timer_InitTimer@NewTime+1,w
  3519  0446  0080               	movwf	0
  3520                           
  3521                           ;ES_Timers.c: 212: TMR_ActiveFlags |= BitNum2SetMask[Num];
  3522  0447  0823               	movf	ES_Timer_InitTimer@Num,w
  3523  0448  3E1C               	addlw	low ((_BitNum2SetMask-__stringbase)| (0+32768))
  3524  0449  0084               	movwf	4
  3525  044A  158A  2000         	fcall	stringdir
  3526  044C  00A2               	movwf	??_ES_Timer_InitTimer
  3527  044D  04E4               	iorwf	_TMR_ActiveFlags,f
  3528  044E  0008               	return
  3529  044F                     __end_of_ES_Timer_InitTimer:	
  3530                           ;ES_Timers.c: 213: return ES_Timer_OK;
  3531                           ;	Return value of _ES_Timer_InitTimer is never used
  3532                           
  3533  044F                     __ptext32:	
  3534 ;; *************** function _ES_PostToService *****************
  3535 ;; Defined at:
  3536 ;;		line 301 in file "ES_Framework.c"
  3537 ;; Parameters:    Size  Location     Type
  3538 ;;  WhichService    1    wreg     unsigned char 
  3539 ;;  TheEvent        3   19[BANK0 ] struct ES_Event_t
  3540 ;; Auto vars:     Size  Location     Type
  3541 ;;  WhichService    1   27[BANK0 ] unsigned char 
  3542 ;; Return value:  Size  Location     Type
  3543 ;;                  1    wreg      unsigned char 
  3544 ;; Registers used:
  3545 ;;		wreg, fsr0l, fsr0h, status,2, status,0, btemp+1, pclath, cstack
  3546 ;; Tracked objects:
  3547 ;;		On entry : 0/0
  3548 ;;		On exit  : 0/0
  3549 ;;		Unchanged: 0/0
  3550 ;; Data sizes:     COMMON   BANK0   BANK1   BANK2
  3551 ;;      Params:         0       3       0       0
  3552 ;;      Locals:         0       3       0       0
  3553 ;;      Temps:          0       3       0       0
  3554 ;;      Totals:         0       9       0       0
  3555 ;;Total ram usage:        9 bytes
  3556 ;; Hardware stack levels used:    1
  3557 ;; Hardware stack levels required when called:    6
  3558 ;; This function calls:
  3559 ;;		_ES_EnQueueFIFO
  3560 ;;		___bmul
  3561 ;; This function is called by:
  3562 ;;		_InitUARTRXService
  3563 ;;		_PostUARTRXService
  3564 ;;		_InitUARTTXService
  3565 ;;		_PostUARTTXService
  3566 ;;		_CheckUARTTXEvent
  3567 ;;		_InitPACSystemService
  3568 ;;		_PostPACSystemService
  3569 ;;		_InitSPIService
  3570 ;;		_PostSPIService
  3571 ;; This function uses a non-reentrant model
  3572 ;;
  3573                           
  3574                           
  3575                           ;psect for function _ES_PostToService
  3576  044F                     _ES_PostToService:	
  3577                           
  3578                           ;incstack = 0
  3579 ;; using string table level
  3580                           ; Regs used in _ES_PostToService: [wreg-fsr0h+status,2+status,0+btemp+1+pclath+cstack]
  3581                           ;ES_PostToService@WhichService stored from wreg
  3582  044F  1283               	bcf	3,5	;RP0=0, select bank0
  3583  0450  1303               	bcf	3,6	;RP1=0, select bank0
  3584  0451  00BB               	movwf	ES_PostToService@WhichService
  3585                           
  3586                           ;ES_Framework.c: 302: if ((WhichService < (sizeof(EventQueues)/sizeof(EventQueues[0]))) 
      +                          &&
  3587                           ;ES_Framework.c: 303: (ES_EnQueueFIFO(EventQueues[WhichService].pMem, TheEvent) ==
  3588                           ;ES_Framework.c: 304: ((boolean) !((boolean) 0)))) {
  3589  0452  3004               	movlw	4
  3590  0453  023B               	subwf	ES_PostToService@WhichService,w
  3591  0454  1803               	skipnc
  3592  0455  3400               	retlw	0
  3593  0456  3003               	movlw	3
  3594  0457  00B6               	movwf	??_ES_PostToService
  3595  0458  00A0               	movwf	___bmul@multiplicand
  3596  0459  083B               	movf	ES_PostToService@WhichService,w
  3597  045A  23C0               	fcall	___bmul
  3598  045B  3E10               	addlw	low ((_EventQueues-__stringbase)| (0+32768))
  3599  045C  0084               	movwf	4
  3600  045D  158A  2000  118A   	fcall	stringdir
  3601  0460  1283               	bcf	3,5	;RP0=0, select bank0
  3602  0461  1303               	bcf	3,6	;RP1=0, select bank0
  3603  0462  00B7               	movwf	??_ES_PostToService+1
  3604  0463  158A  2000  118A   	fcall	stringdir
  3605  0466  00B8               	movwf	??_ES_PostToService+2
  3606  0467  0837               	movf	??_ES_PostToService+1,w
  3607  0468  00B9               	movwf	_ES_PostToService$1340
  3608  0469  0838               	movf	??_ES_PostToService+2,w
  3609  046A  00BA               	movwf	_ES_PostToService$1340+1
  3610  046B  0839               	movf	_ES_PostToService$1340,w
  3611  046C  00A4               	movwf	ES_EnQueueFIFO@pBlock
  3612  046D  083A               	movf	_ES_PostToService$1340+1,w
  3613  046E  00A5               	movwf	ES_EnQueueFIFO@pBlock+1
  3614  046F  0833               	movf	ES_PostToService@TheEvent,w
  3615  0470  00A6               	movwf	ES_EnQueueFIFO@Event2Add
  3616  0471  0834               	movf	ES_PostToService@TheEvent+1,w
  3617  0472  00A7               	movwf	ES_EnQueueFIFO@Event2Add+1
  3618  0473  0835               	movf	ES_PostToService@TheEvent+2,w
  3619  0474  00A8               	movwf	ES_EnQueueFIFO@Event2Add+2
  3620  0475  2484  118A         	fcall	_ES_EnQueueFIFO
  3621  0477  3A01               	xorlw	1
  3622  0478  1D03               	skipz
  3623  0479  3400               	retlw	0
  3624                           
  3625                           ;ES_Framework.c: 305: Ready |= BitNum2SetMask[WhichService];
  3626  047A  1283               	bcf	3,5	;RP0=0, select bank0
  3627  047B  1303               	bcf	3,6	;RP1=0, select bank0
  3628  047C  083B               	movf	ES_PostToService@WhichService,w
  3629  047D  3E1C               	addlw	low ((_BitNum2SetMask-__stringbase)| (0+32768))
  3630  047E  0084               	movwf	4
  3631  047F  158A  2000         	fcall	stringdir
  3632  0481  00B6               	movwf	??_ES_PostToService
  3633  0482  04E2               	iorwf	_Ready,f
  3634                           
  3635                           ;ES_Framework.c: 306: return ((boolean) !((boolean) 0));
  3636  0483  3401               	retlw	1
  3637  0484                     __end_of_ES_PostToService:	
  3638                           ;ES_Framework.c: 308: return ((boolean) 0);
  3639                           
  3640                           ;ES_Framework.c: 307: } else
  3641                           
  3642  0484                     __ptext33:	
  3643 ;; *************** function _ES_EnQueueFIFO *****************
  3644 ;; Defined at:
  3645 ;;		line 83 in file "ES_Queue.c"
  3646 ;; Parameters:    Size  Location     Type
  3647 ;;  pBlock          2    4[BANK0 ] PTR struct ES_Event_t
  3648 ;;		 -> Queue3(12), Queue2(12), Queue1(12), Queue0(12), 
  3649 ;;  Event2Add       3    6[BANK0 ] struct ES_Event_t
  3650 ;; Auto vars:     Size  Location     Type
  3651 ;;  pThisQueue      2   17[BANK0 ] PTR struct .
  3652 ;;		 -> Queue3(12), Queue2(12), Queue1(12), Queue0(12), 
  3653 ;;  InsertionPoi    1   16[BANK0 ] unsigned char 
  3654 ;;  saveCrit        1   15[BANK0 ] unsigned char 
  3655 ;; Return value:  Size  Location     Type
  3656 ;;                  1    wreg      unsigned char 
  3657 ;; Registers used:
  3658 ;;		wreg, fsr0l, fsr0h, status,2, status,0, pclath, cstack
  3659 ;; Tracked objects:
  3660 ;;		On entry : 0/0
  3661 ;;		On exit  : 0/0
  3662 ;;		Unchanged: 0/0
  3663 ;; Data sizes:     COMMON   BANK0   BANK1   BANK2
  3664 ;;      Params:         0       5       0       0
  3665 ;;      Locals:         0       4       0       0
  3666 ;;      Temps:          0       6       0       0
  3667 ;;      Totals:         0      15       0       0
  3668 ;;Total ram usage:       15 bytes
  3669 ;; Hardware stack levels used:    1
  3670 ;; Hardware stack levels required when called:    5
  3671 ;; This function calls:
  3672 ;;		___bmul
  3673 ;; This function is called by:
  3674 ;;		_ES_PostToService
  3675 ;;		_ES_PostAll
  3676 ;; This function uses a non-reentrant model
  3677 ;;
  3678                           
  3679                           
  3680                           ;psect for function _ES_EnQueueFIFO
  3681  0484                     _ES_EnQueueFIFO:	
  3682                           
  3683                           ;ES_Queue.c: 85: unsigned char saveCrit;
  3684                           ;ES_Queue.c: 86: unsigned char InsertionPoint;
  3685                           ;ES_Queue.c: 87: pQueue_t pThisQueue;
  3686                           ;ES_Queue.c: 88: pThisQueue = (pQueue_t)pBlock;
  3687                           
  3688                           ;incstack = 0
  3689                           ; Regs used in _ES_EnQueueFIFO: [wreg-fsr0h+status,2+status,0+pclath+cstack]
  3690  0484  1283               	bcf	3,5	;RP0=0, select bank0
  3691  0485  1303               	bcf	3,6	;RP1=0, select bank0
  3692  0486  0824               	movf	ES_EnQueueFIFO@pBlock,w
  3693  0487  00B1               	movwf	ES_EnQueueFIFO@pThisQueue
  3694  0488  0825               	movf	ES_EnQueueFIFO@pBlock+1,w
  3695  0489  00B2               	movwf	ES_EnQueueFIFO@pThisQueue+1
  3696                           
  3697                           ;ES_Queue.c: 91: if ( pThisQueue->NumEntries < pThisQueue->QueueSize)
  3698  048A  0831               	movf	ES_EnQueueFIFO@pThisQueue,w
  3699  048B  0084               	movwf	4
  3700  048C  1783               	bsf	3,7
  3701  048D  1C32               	btfss	ES_EnQueueFIFO@pThisQueue+1,0
  3702  048E  1383               	bcf	3,7
  3703  048F  0800               	movf	0,w
  3704  0490  00A9               	movwf	??_ES_EnQueueFIFO
  3705  0491  3002               	movlw	2
  3706  0492  0731               	addwf	ES_EnQueueFIFO@pThisQueue,w
  3707  0493  00AA               	movwf	??_ES_EnQueueFIFO+1
  3708  0494  0832               	movf	ES_EnQueueFIFO@pThisQueue+1,w
  3709  0495  1803               	skipnc
  3710  0496  3E01               	addlw	1
  3711  0497  00AB               	movwf	??_ES_EnQueueFIFO+2
  3712  0498  082A               	movf	??_ES_EnQueueFIFO+1,w
  3713  0499  0084               	movwf	4
  3714  049A  1783               	bsf	3,7
  3715  049B  1C2B               	btfss	??_ES_EnQueueFIFO+2,0
  3716  049C  1383               	bcf	3,7
  3717  049D  0800               	movf	0,w
  3718  049E  00AC               	movwf	??_ES_EnQueueFIFO+3
  3719  049F  0829               	movf	??_ES_EnQueueFIFO,w
  3720  04A0  022C               	subwf	??_ES_EnQueueFIFO+3,w
  3721  04A1  1803               	skipnc
  3722  04A2  3400               	retlw	0
  3723                           
  3724                           ;ES_Queue.c: 92: {
  3725                           ;ES_Queue.c: 93: InsertionPoint = (pThisQueue->CurrentIndex + pThisQueue->NumEntries);
  3726  04A3  3002               	movlw	2
  3727  04A4  0731               	addwf	ES_EnQueueFIFO@pThisQueue,w
  3728  04A5  00A9               	movwf	??_ES_EnQueueFIFO
  3729  04A6  0832               	movf	ES_EnQueueFIFO@pThisQueue+1,w
  3730  04A7  1803               	skipnc
  3731  04A8  3E01               	addlw	1
  3732  04A9  00AA               	movwf	??_ES_EnQueueFIFO+1
  3733  04AA  0829               	movf	??_ES_EnQueueFIFO,w
  3734  04AB  0084               	movwf	4
  3735  04AC  1783               	bsf	3,7
  3736  04AD  1C2A               	btfss	??_ES_EnQueueFIFO+1,0
  3737  04AE  1383               	bcf	3,7
  3738  04AF  0800               	movf	0,w
  3739  04B0  00AB               	movwf	??_ES_EnQueueFIFO+2
  3740  04B1  3001               	movlw	1
  3741  04B2  0731               	addwf	ES_EnQueueFIFO@pThisQueue,w
  3742  04B3  00AC               	movwf	??_ES_EnQueueFIFO+3
  3743  04B4  0832               	movf	ES_EnQueueFIFO@pThisQueue+1,w
  3744  04B5  1803               	skipnc
  3745  04B6  3E01               	addlw	1
  3746  04B7  00AD               	movwf	??_ES_EnQueueFIFO+4
  3747  04B8  082C               	movf	??_ES_EnQueueFIFO+3,w
  3748  04B9  0084               	movwf	4
  3749  04BA  1783               	bsf	3,7
  3750  04BB  1C2D               	btfss	??_ES_EnQueueFIFO+4,0
  3751  04BC  1383               	bcf	3,7
  3752  04BD  0800               	movf	0,w
  3753  04BE  072B               	addwf	??_ES_EnQueueFIFO+2,w
  3754  04BF  00AE               	movwf	??_ES_EnQueueFIFO+5
  3755  04C0  00B0               	movwf	ES_EnQueueFIFO@InsertionPoint
  3756                           
  3757                           ;ES_Queue.c: 94: if (InsertionPoint >= pThisQueue->QueueSize)
  3758  04C1  0831               	movf	ES_EnQueueFIFO@pThisQueue,w
  3759  04C2  0084               	movwf	4
  3760  04C3  1783               	bsf	3,7
  3761  04C4  1C32               	btfss	ES_EnQueueFIFO@pThisQueue+1,0
  3762  04C5  1383               	bcf	3,7
  3763  04C6  0800               	movf	0,w
  3764  04C7  0230               	subwf	ES_EnQueueFIFO@InsertionPoint,w
  3765  04C8  1C03               	skipc
  3766  04C9  2CD1               	goto	l3219
  3767                           
  3768                           ;ES_Queue.c: 95: InsertionPoint -= pThisQueue->QueueSize;
  3769  04CA  0831               	movf	ES_EnQueueFIFO@pThisQueue,w
  3770  04CB  0084               	movwf	4
  3771  04CC  1783               	bsf	3,7
  3772  04CD  1C32               	btfss	ES_EnQueueFIFO@pThisQueue+1,0
  3773  04CE  1383               	bcf	3,7
  3774  04CF  0800               	movf	0,w
  3775  04D0  02B0               	subwf	ES_EnQueueFIFO@InsertionPoint,f
  3776  04D1                     l3219:	
  3777                           ;ES_Queue.c: 98: do{ saveCrit = INTCON; GIE = 0;}while(0);
  3778                           
  3779  04D1  080B               	movf	11,w	;volatile
  3780  04D2  00A9               	movwf	??_ES_EnQueueFIFO
  3781  04D3  00AF               	movwf	ES_EnQueueFIFO@saveCrit
  3782  04D4  138B               	bcf	11,7	;volatile
  3783                           
  3784                           ;ES_Queue.c: 99: pBlock[ 1 + InsertionPoint] = Event2Add;
  3785  04D5  3003               	movlw	3
  3786  04D6  00A9               	movwf	??_ES_EnQueueFIFO
  3787  04D7  00A0               	movwf	___bmul@multiplicand
  3788  04D8  0830               	movf	ES_EnQueueFIFO@InsertionPoint,w
  3789  04D9  3E01               	addlw	1
  3790  04DA  23C0  118A         	fcall	___bmul
  3791  04DC  1283               	bcf	3,5	;RP0=0, select bank0
  3792  04DD  1303               	bcf	3,6	;RP1=0, select bank0
  3793  04DE  00AA               	movwf	??_ES_EnQueueFIFO+1
  3794  04DF  0724               	addwf	ES_EnQueueFIFO@pBlock,w
  3795  04E0  00AC               	movwf	??_ES_EnQueueFIFO+3
  3796  04E1  0825               	movf	ES_EnQueueFIFO@pBlock+1,w
  3797  04E2  00AB               	movwf	??_ES_EnQueueFIFO+2
  3798  04E3  1803               	skipnc
  3799  04E4  0AAB               	incf	??_ES_EnQueueFIFO+2,f
  3800  04E5  1BAA               	btfsc	??_ES_EnQueueFIFO+1,7
  3801  04E6  03AB               	decf	??_ES_EnQueueFIFO+2,f
  3802  04E7  082B               	movf	??_ES_EnQueueFIFO+2,w
  3803  04E8  00AD               	movwf	??_ES_EnQueueFIFO+4
  3804  04E9  082C               	movf	??_ES_EnQueueFIFO+3,w
  3805  04EA  0084               	movwf	4
  3806  04EB  1783               	bsf	3,7
  3807  04EC  1C2D               	btfss	??_ES_EnQueueFIFO+4,0
  3808  04ED  1383               	bcf	3,7
  3809  04EE  0826               	movf	ES_EnQueueFIFO@Event2Add,w
  3810  04EF  0080               	movwf	0
  3811  04F0  0A84               	incf	4,f
  3812  04F1  0827               	movf	ES_EnQueueFIFO@Event2Add+1,w
  3813  04F2  0080               	movwf	0
  3814  04F3  0A84               	incf	4,f
  3815  04F4  0828               	movf	ES_EnQueueFIFO@Event2Add+2,w
  3816  04F5  0080               	movwf	0
  3817                           
  3818                           ;ES_Queue.c: 100: pThisQueue->NumEntries++;
  3819  04F6  3001               	movlw	1
  3820  04F7  00A9               	movwf	??_ES_EnQueueFIFO
  3821  04F8  3002               	movlw	2
  3822  04F9  0731               	addwf	ES_EnQueueFIFO@pThisQueue,w
  3823  04FA  00AA               	movwf	??_ES_EnQueueFIFO+1
  3824  04FB  0832               	movf	ES_EnQueueFIFO@pThisQueue+1,w
  3825  04FC  1803               	skipnc
  3826  04FD  3E01               	addlw	1
  3827  04FE  00AB               	movwf	??_ES_EnQueueFIFO+2
  3828  04FF  082A               	movf	??_ES_EnQueueFIFO+1,w
  3829  0500  0084               	movwf	4
  3830  0501  1783               	bsf	3,7
  3831  0502  1C2B               	btfss	??_ES_EnQueueFIFO+2,0
  3832  0503  1383               	bcf	3,7
  3833  0504  0829               	movf	??_ES_EnQueueFIFO,w
  3834  0505  0780               	addwf	0,f
  3835                           
  3836                           ;ES_Queue.c: 101: {INTCON = saveCrit;};
  3837  0506  082F               	movf	ES_EnQueueFIFO@saveCrit,w
  3838  0507  008B               	movwf	11	;volatile
  3839                           
  3840                           ;ES_Queue.c: 103: return(((boolean) !((boolean) 0)));
  3841  0508  3401               	retlw	1
  3842  0509                     __end_of_ES_EnQueueFIFO:	
  3843                           ;ES_Queue.c: 105: return(((boolean) 0));
  3844                           
  3845                           ;ES_Queue.c: 104: }else
  3846                           
  3847  0509                     __ptext13:	
  3848 ;; *************** function _IsTimerPending *****************
  3849 ;; Defined at:
  3850 ;;		line 78 in file "ES_Port.c"
  3851 ;; Parameters:    Size  Location     Type
  3852 ;;		None
  3853 ;; Auto vars:     Size  Location     Type
  3854 ;;		None
  3855 ;; Return value:  Size  Location     Type
  3856 ;;                  1    wreg      unsigned char 
  3857 ;; Registers used:
  3858 ;;		wreg, status,2, status,0
  3859 ;; Tracked objects:
  3860 ;;		On entry : 0/0
  3861 ;;		On exit  : 0/0
  3862 ;;		Unchanged: 0/0
  3863 ;; Data sizes:     COMMON   BANK0   BANK1   BANK2
  3864 ;;      Params:         0       0       0       0
  3865 ;;      Locals:         0       0       0       0
  3866 ;;      Temps:          0       0       0       0
  3867 ;;      Totals:         0       0       0       0
  3868 ;;Total ram usage:        0 bytes
  3869 ;; Hardware stack levels used:    1
  3870 ;; Hardware stack levels required when called:    4
  3871 ;; This function calls:
  3872 ;;		Nothing
  3873 ;; This function is called by:
  3874 ;;		_ES_Run
  3875 ;; This function uses a non-reentrant model
  3876 ;;
  3877                           
  3878                           
  3879                           ;psect for function _IsTimerPending
  3880  0509                     _IsTimerPending:	
  3881                           
  3882                           ;ES_Port.c: 79: if (TickCount > 0) {
  3883                           
  3884                           ;incstack = 0
  3885                           ; Regs used in _IsTimerPending: [wreg+status,2+status,0]
  3886  0509  1283               	bcf	3,5	;RP0=0, select bank0
  3887  050A  1303               	bcf	3,6	;RP1=0, select bank0
  3888  050B  0865               	movf	_TickCount,w
  3889  050C  1903               	btfsc	3,2
  3890  050D  3400               	retlw	0
  3891                           
  3892                           ;ES_Port.c: 80: TickCount--;
  3893  050E  3001               	movlw	1
  3894  050F  02E5               	subwf	_TickCount,f
  3895                           
  3896                           ;ES_Port.c: 81: return (1);
  3897  0510  3401               	retlw	1
  3898  0511                     __end_of_IsTimerPending:	
  3899                           ;ES_Port.c: 83: return (0);
  3900                           
  3901                           ;ES_Port.c: 82: } else
  3902                           
  3903                           
  3904                           	psect	jmp_tab
  3905  0845                     __pjmp_tab:	
  3906  0845                     u2767jt:	
  3907  0845  118A  2980         	ljmp	u2767jf
  3908  0847                     u2367jt:	
  3909                           ;ES_CheckEvents.c: 50: if (CheckSPIEvent()) return ((boolean) !((boolean) 0));
  3910                           
  3911  0847  158A  2ED8         	ljmp	u2367jf
  3912  0849                     u2387jt:	
  3913                           ;ES_CheckEvents.c: 51: if (CheckUARTRXEvent()) return ((boolean) !((boolean) 0));
  3914                           
  3915  0849  158A  2EE1         	ljmp	u2387jf
  3916                           
  3917                           	psect	jmp_tab__ES_Timer_RTI_Resp
  3918  084D                     __pjmp_tab__ES_Timer_RTI_Resp:	
  3919                           ;ES_Framework.c: 246: ES_Timer_RTI_Resp();
  3920                           
  3921  084D                     u2797jt:	
  3922  084D  118A  298C         	ljmp	u2797jf
  3923                           
  3924                           	psect	jmp_tab__ES_CheckUserEvents
  3925  084F                     __pjmp_tab__ES_CheckUserEvents:	
  3926                           ;ES_Framework.c: 249: ES_CheckUserEvents();
  3927                           
  3928  084F                     u2817jt:	
  3929  084F  118A  2994         	ljmp	u2817jf
  3930                           
  3931                           	psect	text3
  3932  0E41                     __ptext3:	
  3933 ;; *************** function _RunPACSystemService *****************
  3934 ;; Defined at:
  3935 ;;		line 113 in file "PACSystemService.c"
  3936 ;; Parameters:    Size  Location     Type
  3937 ;;  ThisEvent       3   36[BANK0 ] struct ES_Event_t
  3938 ;; Auto vars:     Size  Location     Type
  3939 ;;  ReturnEvent     3   41[BANK0 ] struct ES_Event_t
  3940 ;; Return value:  Size  Location     Type
  3941 ;;                  3   36[BANK0 ] struct ES_Event_t
  3942 ;; Registers used:
  3943 ;;		wreg, fsr0l, fsr0h, status,2, status,0, pclath, cstack
  3944 ;; Tracked objects:
  3945 ;;		On entry : 0/0
  3946 ;;		On exit  : 0/0
  3947 ;;		Unchanged: 0/0
  3948 ;; Data sizes:     COMMON   BANK0   BANK1   BANK2
  3949 ;;      Params:         0       4       0       0
  3950 ;;      Locals:         0       3       0       0
  3951 ;;      Temps:          0       1       0       0
  3952 ;;      Totals:         0       8       0       0
  3953 ;;Total ram usage:        8 bytes
  3954 ;; Hardware stack levels required when called:    5
  3955 ;; This function calls:
  3956 ;;		_ES_Timer_InitTimer
  3957 ;; This function is called by:
  3958 ;;		_ES_Run
  3959 ;; This function uses a non-reentrant model
  3960 ;;
  3961                           
  3962                           
  3963                           ;psect for function _RunPACSystemService
  3964  0E41                     _RunPACSystemService:	
  3965                           
  3966                           ;PACSystemService.c: 114: ES_Event ReturnEvent;
  3967                           ;PACSystemService.c: 115: ReturnEvent.EventType = ES_NO_EVENT;
  3968                           
  3969                           ;incstack = 0
  3970                           ; Regs used in _RunPACSystemService: [wreg-fsr0h+status,2+status,0+pclath+cstack]
  3971  0E41  1283               	bcf	3,5	;RP0=0, select bank0
  3972  0E42  1303               	bcf	3,6	;RP1=0, select bank0
  3973  0E43  01C9               	clrf	RunPACSystemService@ReturnEvent
  3974                           
  3975                           ;PACSystemService.c: 117: switch (ThisEvent.EventType) {
  3976  0E44  2E6C               	goto	l3659
  3977  0E45                     l3645:	
  3978                           ;PACSystemService.c: 118: case ES_INIT:
  3979                           
  3980                           
  3981                           ;PACSystemService.c: 119: ES_Timer_InitTimer(2, (76/2));
  3982  0E45  3026               	movlw	38
  3983  0E46  00A0               	movwf	ES_Timer_InitTimer@NewTime
  3984  0E47  3002               	movlw	2
  3985  0E48  01A1               	clrf	ES_Timer_InitTimer@NewTime+1
  3986  0E49  118A  2428  158A   	fcall	_ES_Timer_InitTimer
  3987                           
  3988                           ;PACSystemService.c: 120: break;
  3989  0E4C  2E79               	goto	l3661
  3990  0E4D                     l3647:	
  3991                           ;PACSystemService.c: 121: case ES_TIMEOUT:
  3992                           
  3993                           
  3994                           ;PACSystemService.c: 122: if (ThisEvent.EventParam == 2) {
  3995  0E4D  3002               	movlw	2
  3996  0E4E  1283               	bcf	3,5	;RP0=0, select bank0
  3997  0E4F  1303               	bcf	3,6	;RP1=0, select bank0
  3998  0E50  0645               	xorwf	RunPACSystemService@ThisEvent+1,w
  3999  0E51  0446               	iorwf	RunPACSystemService@ThisEvent+2,w
  4000  0E52  1D03               	btfss	3,2
  4001  0E53  2E79               	goto	l3661
  4002                           
  4003                           ;PACSystemService.c: 123: PORTC ^= 0x00000008;
  4004  0E54  3008               	movlw	8
  4005  0E55  00C8               	movwf	??_RunPACSystemService
  4006  0E56  0687               	xorwf	7,f	;volatile
  4007                           
  4008                           ;PACSystemService.c: 124: ES_Timer_InitTimer(2, (76/2));
  4009  0E57  3026               	movlw	38
  4010  0E58  00A0               	movwf	ES_Timer_InitTimer@NewTime
  4011  0E59  3002               	movlw	2
  4012  0E5A  01A1               	clrf	ES_Timer_InitTimer@NewTime+1
  4013  0E5B  118A  2428  158A   	fcall	_ES_Timer_InitTimer
  4014                           
  4015                           ;PACSystemService.c: 125: }
  4016                           ;PACSystemService.c: 126: break;
  4017  0E5E  2E79               	goto	l3661
  4018  0E5F                     l3653:	
  4019                           ;PACSystemService.c: 127: case ES_TOGGLE_LED:
  4020                           
  4021                           
  4022                           ;PACSystemService.c: 128: PORTC ^= 0x00000008;
  4023  0E5F  3008               	movlw	8
  4024  0E60  1283               	bcf	3,5	;RP0=0, select bank0
  4025  0E61  1303               	bcf	3,6	;RP1=0, select bank0
  4026  0E62  00C8               	movwf	??_RunPACSystemService
  4027  0E63  0687               	xorwf	7,f	;volatile
  4028                           
  4029                           ;PACSystemService.c: 129: ES_Timer_InitTimer(2, (76/2));
  4030  0E64  3026               	movlw	38
  4031  0E65  00A0               	movwf	ES_Timer_InitTimer@NewTime
  4032  0E66  3002               	movlw	2
  4033  0E67  01A1               	clrf	ES_Timer_InitTimer@NewTime+1
  4034  0E68  118A  2428  158A   	fcall	_ES_Timer_InitTimer
  4035                           
  4036                           ;PACSystemService.c: 133: }
  4037                           
  4038                           ;PACSystemService.c: 132: break;
  4039                           
  4040                           ;PACSystemService.c: 131: default:
  4041                           
  4042                           ;PACSystemService.c: 130: break;
  4043  0E6B  2E79               	goto	l3661
  4044  0E6C                     l3659:	
  4045  0E6C  1283               	bcf	3,5	;RP0=0, select bank0
  4046  0E6D  1303               	bcf	3,6	;RP1=0, select bank0
  4047  0E6E  0844               	movf	RunPACSystemService@ThisEvent,w
  4048                           
  4049                           ; Switch size 1, requested type "space"
  4050                           ; Number of cases is 3, Range of values is 2 to 15
  4051                           ; switch strategies available:
  4052                           ; Name         Instructions Cycles
  4053                           ; simple_byte           10     6 (average)
  4054                           ; direct_byte           38    10 (fixed)
  4055                           ; jumptable            263     9 (fixed)
  4056                           ;	Chosen strategy is simple_byte
  4057  0E6F  3A02               	xorlw	2	; case 2
  4058  0E70  1903               	skipnz
  4059  0E71  2E45               	goto	l3645
  4060  0E72  3A06               	xorlw	6	; case 4
  4061  0E73  1903               	skipnz
  4062  0E74  2E4D               	goto	l3647
  4063  0E75  3A0B               	xorlw	11	; case 15
  4064  0E76  1903               	skipnz
  4065  0E77  2E5F               	goto	l3653
  4066  0E78  2E79               	goto	l3661
  4067  0E79                     l3661:	
  4068                           
  4069                           ;PACSystemService.c: 135: return ReturnEvent;
  4070  0E79  1283               	bcf	3,5	;RP0=0, select bank0
  4071  0E7A  1303               	bcf	3,6	;RP1=0, select bank0
  4072  0E7B  0849               	movf	RunPACSystemService@ReturnEvent,w
  4073  0E7C  00C4               	movwf	?_RunPACSystemService
  4074  0E7D  084A               	movf	RunPACSystemService@ReturnEvent+1,w
  4075  0E7E  00C5               	movwf	?_RunPACSystemService+1
  4076  0E7F  084B               	movf	RunPACSystemService@ReturnEvent+2,w
  4077  0E80  00C6               	movwf	?_RunPACSystemService+2
  4078  0E81  3008               	movlw	high __pjmp_tab
  4079  0E82  008A               	movwf	10
  4080  0E83  0847               	movf	(?_RunPACSystemService+3)^0,w
  4081  0E84  0082               	movwf	2
  4082  0E85                     __end_of_RunPACSystemService:	
  4083                           
  4084                           	psect	text4
  4085  0D9A                     __ptext4:	
  4086 ;; *************** function _RunSPIService *****************
  4087 ;; Defined at:
  4088 ;;		line 170 in file "SPI_SM.c"
  4089 ;; Parameters:    Size  Location     Type
  4090 ;;  ThisEvent       3   36[BANK0 ] struct ES_Event_t
  4091 ;; Auto vars:     Size  Location     Type
  4092 ;;  ReturnEvent     3   40[BANK0 ] struct ES_Event_t
  4093 ;; Return value:  Size  Location     Type
  4094 ;;                  3   36[BANK0 ] struct ES_Event_t
  4095 ;; Registers used:
  4096 ;;		wreg, status,2
  4097 ;; Tracked objects:
  4098 ;;		On entry : 0/0
  4099 ;;		On exit  : 0/0
  4100 ;;		Unchanged: 0/0
  4101 ;; Data sizes:     COMMON   BANK0   BANK1   BANK2
  4102 ;;      Params:         0       4       0       0
  4103 ;;      Locals:         0       3       0       0
  4104 ;;      Temps:          0       0       0       0
  4105 ;;      Totals:         0       7       0       0
  4106 ;;Total ram usage:        7 bytes
  4107 ;; Hardware stack levels required when called:    4
  4108 ;; This function calls:
  4109 ;;		Nothing
  4110 ;; This function is called by:
  4111 ;;		_ES_Run
  4112 ;; This function uses a non-reentrant model
  4113 ;;
  4114                           
  4115                           
  4116                           ;psect for function _RunSPIService
  4117  0D9A                     _RunSPIService:	
  4118                           
  4119                           ;SPI_SM.c: 171: ES_Event ReturnEvent;
  4120                           ;SPI_SM.c: 172: ReturnEvent.EventType = ES_NO_EVENT;
  4121                           
  4122                           ;incstack = 0
  4123                           ; Regs used in _RunSPIService: [wreg+status,2]
  4124  0D9A  1283               	bcf	3,5	;RP0=0, select bank0
  4125  0D9B  1303               	bcf	3,6	;RP1=0, select bank0
  4126  0D9C  01C8               	clrf	RunSPIService@ReturnEvent
  4127                           
  4128                           ;SPI_SM.c: 176: return ReturnEvent;
  4129  0D9D  0848               	movf	RunSPIService@ReturnEvent,w
  4130  0D9E  00C4               	movwf	?_RunSPIService
